:020000021000EC
:1080000000400020CD0C0200090D02000B0D020003
:108010000000000000000000000000000000000060
:108020000000000000000000000000000D0D020034
:1080300000000000000000000F0D0200110D020002
:10804000130D0200FDB1010025130200130D020003
:10805000130D020000000000450D0200130D020088
:108060003DC40100A9150200AD110200130D02006C
:10807000130D0200130D0200130D0200130D020078
:10808000130D0200130D0200130D0200130D020068
:10809000130D0200C9EF01005D0A0200130D02007A
:1080A000130D0200130D020000000000000000008C
:1080B00000000000000000000000000000000000C0
:1080C00010B5064C2378002B07D1054B002B02D0AE
:1080D000044800E000BF0123237010BDD820002019
:1080E00000000000A4BD0200044B10B5002B03D01B
:1080F0000349044800E000BF10BDC0460000000076
:10810000DC200020A4BD0200164B002B00D1144B34
:108110009D46402292029A1A924600218B460F46B3
:108120001348144A121A12F001FC0F4B002B00D016
:1081300098470E4B002B00D09847002000210400E8
:108140000D000D48002802D00C4800E000BF0DF0E3
:10815000DDFD2000290012F0A5F90DF0C1FDC0469B
:1081600000000800004000200000000000000000A7
:10817000D02000206C2B0020000000000000000038
:1081800010B50400034B036040300EF076FC200075
:1081900010BDC04680AB020007B5094B01A8197895
:1081A0000131C9B219700EF092FCC82201A9520027
:1081B000044802F0A3F901A80EF05FFC07BDC04619
:1081C000A6200020B422002007B50B4800F05CF97F
:1081D0000A4803F099F90A4B01A8196800F0A0FFBA
:1081E000782201A9074802F019FA01A80EF045FC0F
:1081F00000F0C0FD00200EBDC8210020A4250020F5
:108200000C200020B422002010B5084C200000F003
:108210006BF8074A0749200012F02EFB064B074A6D
:108220000749084803F04AFB10BDC046C82100209A
:10823000002000204982010098220020CC2100204B
:10824000A4250020F4200020EB23194A9B0010B540
:10825000C2501C330400C0180EF00FFCF1239B0029
:10826000E0180EF00AFC84239B00E01801F0C0FA2D
:108270002000C530FF3000F0DFFF20008D30FF30E0
:1082800001F07CFA20006530FF3001F077FA200021
:10829000EC3001F04FFF2000D03002F025FB200031
:1082A000643008F063FC201DFFF76AFF200010BD5A
:1082B000D4AD020070B50B4C0500005900280ED05B
:1082C00005F0B4FC836D9B0709D5285910F0EDFF2C
:1082D000036813215B6A9847642012F0DDF90EF001
:1082E00098FA70BD640400001423F0B5040095B042
:1082F000009319221821043003F092FD220025007A
:1083000026006432B435132110001192B83608F0FB
:1083100039FC28000FF09DFD00221E2130000FF0D7
:1083200015F82000D03002F0FFFA2200EC32129251
:108330000621504A129801F021FF20000027012356
:1083400065301A0000971121FF3001F023FA200058
:108350008D300097012302221A21FF3001F01AFA12
:108360002000B5301A2302220121FF3002F09AFBCF
:108370002200C532FF321092310004233A221098B5
:1083800001F00AF884229200A218139205231D22FC
:10839000019300922B00109A3100139801F01EFCFB
:1083A00096218900129B6018109A139901F0F0FD34
:1083B0009921890060181C22290003F047FF192326
:1083C0009F210F93013B0E93013B0D93013B0C93B7
:1083D000013B0B93013B0A93013B0993013B08933B
:1083E000013B0793013B0693013B0593013B04933B
:1083F000013B0393013B0293013B01938900013B45
:10840000601800930822013B07210EF0A7FFEB2321
:108410009B00E018290004F09BFBF3239B00E51868
:10842000082204231449280004F0DCF8F7231D2255
:108430009B00E01800923B003A00290002F090FBFC
:108440000E4B1198E7500321277011F03AFF2300DB
:10845000220020000A499C33A0321C601160576042
:10846000084A80305A610221012208F01DFD2000D7
:1084700015B0F0BD88AB020000800040640400002D
:10848000B58201001F6702000123F0B506788DB0A8
:1084900004001E4000D0A3E0FD20800500F0FCFC9D
:1084A0002300D0331800029300F0D0FA00F0C6F990
:1084B000282000F029FD050010300EF07AFB494B12
:1084C00018202B6000F020FD0700474B04600822B5
:1084D00031000C300A930B9612F028FA0AA9381DC5
:1084E000082212F007FA414B29007B611223AF608A
:1084F000EE60AB802E626E62029802F08DF9002869
:1085000005D028000EF06FFA280000F01DFD0123B1
:10851000227864201343237000F0B4FB0025270069
:108520006537FF3738000EF0EFFC002854D02000EC
:108530008D30FF300EF0E8FC00284DD00A2D4BD0D6
:108540006420013500F09EFB0A2DE8D12849294816
:1085500000F078FCEB23284E9B00E3180393A3590B
:10856000002B32D100F058F8010006A800F0D8FD29
:108570000EF04BF904900EF048F96B460590198AFD
:1085800008A80EF097FA059B09A8190C0EF092FAAC
:1085900009AA08A907A80EF0E9FA09A80EF06DFAD1
:1085A00008A80EF06AFA012307AA06A90093039807
:1085B000029B04F021FB07A80EF05FFA06A80EF05C
:1085C0005CFAED239B00E358A35121003A00EC3103
:1085D000039804F0B7FCA2E70549084800F032FC14
:1085E0000DB0F0BDFD0300007567020035670200A5
:1085F00000200020001C002064040000080000206F
:10860000BFF34F8F024B034ADA60BFF34F8FFEE791
:1086100000ED00E00400FA05F0B58DB005AF1922B9
:108620001549380012F066F90022144B05245A71DE
:1086300080225205566E0122250001940292039376
:108640000199300009F040F90800029909F0B6F8E4
:10865000019B03996B430193029B361A6B43029370
:10866000631E2C1B6C433C19225C1C1ECA54E7D1B0
:1086700008000DB0F0BDC04626B80200982A0020C0
:10868000F0B597B018220021060010A812F04EF99C
:10869000132110A811F071FF032110A812F003F8A4
:1086A0004C4B1B68002B00D10133DBB202934A4ACA
:1086B000012300210BA808F065FD484B9E4200D91C
:1086C000002672B6464B64211D68464B3000079366
:1086D000052409F0FDF860435030281808900A215D
:1086E000300009F0F5F80A2109F0D8F9614350315A
:1086F0006918099130000A2109F0D0F980236143FB
:108700000024503169189B010A910193029B002BB0
:108710005DD0002500272E1F07AB9B190593032C66
:1087200003D1802300249B01019307AB5B592E4AA0
:1087300003936300D31804930023190006205843C1
:10874000049A16187678B4466246039EB25C1026E8
:108750009446049A105C62460641164202D00120FB
:10876000984001430133092BE8D1C9431F4B059AB7
:10877000090119401268039B934225D1312F23DC54
:1087800000210BA812F048F8FA23159A1199DB0082
:10879000106801421BD0013B002BF9D1019B013431
:1087A0005B000193FA230137E4B25B009F42B6D12C
:1087B0000435102DAED1074B1B68002BA6D0029FAD
:1087C000013FFBB20293A1E7019B1943D9E7FFF7F1
:1087D00017FFC04634260020F0FF0000E70300002A
:1087E0000420002075B802003FB80200F01F00000E
:1087F000F0B500281BDD0F4C421E27681100002039
:10880000BE09FB0F73407B403E097D087340BF08E3
:108810007B406B40DB072B4301251F0040002B40B2
:108820001843E940ECD18242E8D32760F0BD02480A
:10883000FCE7C0463026002017FCFFFFF8B50023F8
:10884000124C23600DF0D3FF002808D00421200033
:108850000DF0C9FF002801D00D4B2360F8BD0122A7
:10886000A12704250B4B0C491A602268FF004860C1
:108870004E68002EFCD0DE591202013D3243002D1D
:10888000F5D1226001225A60E8E7C0463026002078
:10889000ED5EBC0B00D00040FCD00040F0B585B0D0
:1088A0001F000AAB1B880600029115000393002FDE
:1088B0001CD0282000F028FB6B4604001989039B7C
:1088C000AAB200933B000EF077F8336821005B6892
:1088D0003000984700280AD0002C05D020000EF068
:1088E00082F8200000F030FB024800E0024805B0AA
:1088F000F0BDC04616FCFFFF17FCFFFF0B4B70B529
:108900001C68002C10D0656D00F0C6FBA36C00291C
:1089100001D1834206D820000DF09CFF04492000BD
:108920000DF086FF2C00ECE770BDC0463C26002011
:108930005C260020F0B593B007932A4B04AC1E6868
:10894000049005910692002E4AD0274B258867880F
:108950001C6800230293002C2ED0636D23480393E0
:10896000A36C9AB2A36C1B0C99B2854214D1204817
:10897000824211D1002B01D0B9420BD1029B002BB6
:1089800008D120000DF066FF1A4920000DF050FFBD
:1089900001230293039CDEE7002A01D09542F9D11E
:1089A000002B01D0B942F5D120000DF053FF114941
:1089B00020000DF03DFFEDE70F4BEB18012B0FD919
:1089C00010233A00009329000C4B08A80DF0F4FF87
:1089D000336808A99B683000984708A80EF003F890
:1089E00013B0F0BD3826002068260020FE030000EA
:1089F000FF0300005C26002002FCFFFF3589010018
:108A000010B572B60B4B1C68002C08D020000DF07E
:108A100021FF0023E364084B2000E36310BD62B62E
:108A20005C2000F071FA5C220021040011F07EFF4E
:108A3000EFE7C0466026002000400020024B187877
:108A4000012318407047C0469E2A0020F7B5060053
:108A5000FFF7F4FF051E33D11A4C2660FFF7D0FF55
:108A6000194B1A4918600DF0E3FEFFF7C9FF184BC8
:108A70001860184B4363184B8363206800280ED09E
:108A8000C027164E2A00330015490097FFF706FF4E
:108A9000009733002A0013492068FFF7FFFE0C20DF
:108AA00000F032FA0023838083710F4B03600F4B79
:108AB000836000F009FB01230D4A11780B4313700A
:108AC000F7BDC046382600206C2600205C2600201A
:108AD00064260020FC3F00201B690200358901004C
:108AE000FF030000FE030000A8AB0200FD880100A8
:108AF0009E2A0020F7B506000D00170001930028FC
:108B000002D100242000FEBD0029FAD0FFF778FF33
:108B1000041EF6D0074B019A4363066045608760E8
:108B2000054B002A00D0054BA363054920000DF03A
:108B30007FFEE7E7FC3F0020E568020003690200D2
:108B40005C260020024B1868434258417047C046DB
:108B50005C260020002310B504499C006258002ABE
:108B600001D00133F9E76050100010BD4426002009
:108B7000002310B5044A99008C58844201D0013377
:108B8000F9E70020885010BD4426002010B50024CD
:108B9000084BA200D058002802D003685B689847B1
:108BA0000134062CF4D1044B1B68002B00D120BFEC
:108BB00010BDC046442600205C260020F8B5FFF713
:108BC0003DFF00281BD0294D2C68E36CDA0717D530
:108BD00002263343E3640423254F3868C26C1343F1
:108BE000C364636BC3630DF05BFE3868416C04F0D3
:108BF000A6FD2868C36C334201D004F0DAFDF8BD4D
:108C00001C4F1D4E3A683168002A1ED129602A681F
:108C10008A4208D11B0706D52C60FFF7B7FF3B68D7
:108C2000002BFAD02B6029688C42E8D03368994237
:108C300014D1124B4B63124B8B6320000DF030FEAE
:108C40002968626C4B6C20000DE0206DB84203D1A6
:108C5000606D002800D002002A60D8E79C42ECD169
:108C6000002210004B6C04F029FDC8E76C260020A0
:108C7000402600205C26002064260020FC3F0020C7
:108C80001B69020070B50500FFF7D8FE002803D16C
:108C9000280011F001FD70BD0C4B1C68E36CDB0774
:108CA00006D5FFF7ADFE0A4B1860002800D004007F
:108CB00000F0F2F92D18A56420000DF0CBFD054958
:108CC00020000DF0B5FDFFF779FFE4E76C260020EA
:108CD000402600203C260020F0B51E4B1E4F1C688D
:108CE0003B6885B006000391002B30D0FFF7A6FE4D
:108CF00000282CD0E36CDB070ED5FFF781FE174B65
:108D0000051E186008D00DF0A5FD154928000DF0CE
:108D10008FFD2C00FFF752FF039B20001B04334301
:108D2000A3640DF097FD20000E490DF081FD0E4B60
:108D30000024F318012B07D9C0230093039A0B4B8F
:108D400031003868FFF7AAFD200005B0F0BD084CDF
:108D5000FAE7C0466C260020382600204026002076
:108D60005C2600206826002002FCFFFF35890100F8
:108D700016FCFFFF10B5FFF761FE002809D0054C77
:108D800020680DF067FD044920680DF051FDFFF7E4
:108D900015FF10BD6C26002060260020F7B50700E7
:108DA0000D0000282ED0FFF749FE00282CD0072404
:108DB000164E3068C36C1C4007D0154A2900380095
:108DC0000DF05FFD00242000FEBD04F0DAFC02215E
:108DD0003268D36C1940019103D003218B43D364D3
:108DE000F1E701242343D3642800B8473268D36CE9
:108DF0001900A143D164019C5B07E4D528000DF064
:108E000078FDE0E7034CDEE7034CDCE76C2600204E
:108E1000F368020017FCFFFF16FCFFFF020010B50D
:108E2000014B12CB12C210BD70260020034B1A68F2
:108E3000034B1A607E225A607047C046042000200F
:108E40007026002070B5104D2B78022B18D081426F
:108E500018D90B1A072B15D90C00032304431C4007
:108E600010D172B62A78094BD200D05098184160C0
:108E70000DF059FD2B7801332B7062B6200070BDC8
:108E80000348FCE70348FAE79F2A002078260020E1
:108E900013FCFFFF17FCFFFF70B50021041C08F056
:108EA0001FFE002828D1FE21201C890508F022FE83
:108EB000002821D104300CF04DFF05000F48401B65
:108EC00009F0F8FD211C09F095FA08F047FE03238C
:108ED0009843040028000CF047FF20000CF03AFFF4
:108EE000002804D1203C002CF7D1054803E00119EB
:108EF000FFF7A8FF002070BD0248FCE70038002003
:108F000013FCFFFF17FCFFFF70B5060000250C4B9C
:108F10001B78AB4209DD0B49EB00C91830000DF09E
:108F20000AFD041E09D10135F1E730000CF012FFF3
:108F3000041E02D11420FFF7A3FB200070BDC04621
:108F40009F2A00207826002070B5002813D00D4BF2
:108F50000D491C7800239C4210DDDA0055588542EB
:108F60000AD28A185268824206D9802304380268DD
:108F70001B061343036070BD0133ECE70CF0F4FEF5
:108F8000F9E7C0469F2A00207826002070B5051E0C
:108F900014DD0B4E0B4C3368002B02D0206811F00F
:108FA00006FAFA2120680024074B89008361C46215
:108FB0006943356011F003FA200070BD0348FCE7F7
:108FC00088260020B82600207590010017FCFFFFBE
:108FD000F8B5114F06003D68002D0AD13020FFF78B
:108FE00093FF040007F028FE0C4BA5612360E562A7
:108FF0003C600B4D2B68002B09D11020FFF784FF3C
:10900000040011F028FA20002C6011F0FEF9300065
:10901000FFF7BCFFF8BDC046B826002084B10200AF
:10902000B4260020014B18687047C04688260020EF
:1090300070B50D4C2368002B03D00C4B1B68002B24
:1090400002D10620FFF7C4FF206811F0F5F90200F5
:109050000749C3170D684E685219734120680A60AA
:109060004B6011F0EFF970BDB4260020B826002047
:10907000D020002010B5FFF7DBFF0024054BA20035
:10908000D058002802D003681B68984701340A2C86
:10909000F4D110BD8C26002010B5FFF7C9FFFA22CD
:1090A000034B920018685968002308F037FD10BD83
:1090B000D020002010B5FFF7BBFF024B186859689D
:1090C00010BDC046D02000200B4B10B51B6804001B
:1090D000002B03D0094B1B68002B02D10620FFF7A1
:1090E00077FF0023064A99008858002801D00133F1
:1090F000F9E78C5010BDC046B4260020B8260020E9
:109100008C260020002310B5044A99008C58844214
:1091100001D00133F9E70020885010BD8C260020D3
:1091200010B50400002902D00B78002B03D1034BAB
:109130002360200010BD0DF0A7FCFAE7B8AB0200D9
:10914000F8B504000E00150000290AD00B78002B9A
:1091500007D0002A05D0080097B211F027FC8742FB
:1091600003D90B4B23602000F8BD681DFFF7CCFE30
:1091700020600DF076FD23682A005F8023683100AF
:10918000181D11F0B7FB23685D1900232B71EAE766
:10919000B8AB0200014B03607047C046B8AB020099
:1091A00010B50548054C20600DF05EFD044A0549E8
:1091B000200011F061FB10BDB8AB0200BC260020FE
:1091C000002000207B6A0200084B73B51C68050074
:1091D000002C0AD00100266808310822684611F0E8
:1091E00089FB0CCD31682000884773BDC026002064
:1091F00010B5054C012120000DF02AFD034A044959
:10920000200011F039FB10BDC426002000200020F2
:109210000D6C02000388074A10B50120934208D064
:10922000834202D00020DB0703D41E20FFF728FA78
:10923000002010BDFFFF000010B50400034B0833F1
:109240000360FFF795FC200010BDC04600AC020093
:10925000FA2270B5438992005343314A31491400D0
:10926000050038348B421BDC2F498B4218D82F491C
:10927000083C8B4214D82E49083C8B4210D82D490B
:10928000083C8B420CD82C49083C8B4208D82B490F
:10929000083C8B4204D82A4914008B4200D9083478
:1092A000284B2A7B1E1D042A03D89E1C022A00D8A4
:1092B0001E00FA212068890008F080FA337868815E
:1092C0002B7300222A2128000DF0F2FC002801D087
:1092D0001D4870BD10222B2128000DF0E9FC00284C
:1092E000F6D101222D2128000DF0E2FC0028EFD15B
:1092F00001222E2128000DF0DBFC0028E8D1727835
:109300000E2128000DF0D4FC0028E1D101222379A0
:109310002A211A4328000DF0CBFC0028D9D0D7E72A
:10932000C0AB020000C409000071020080380100D7
:10933000204E00001027000088130000C409000020
:10934000E204000055BA02000EFCFFFF7FB51500D5
:109350000F226A4404001E001170002D16D0002B4D
:1093600014DD012301890093006B01F0D1F900287D
:1093700002D0074804B070BD0090218933002A0054
:10938000206B01F07BF90028F4D0F2E70148F1E707
:109390000EFCFFFF17FCFFFFF7B506000025019349
:1093A0001E4B143608330400036085808571C58127
:1093B000058245820F00009229001822300011F02A
:1093C000B5FA1C21300011F0D8F86B469B880221B9
:1093D000A3806B461B88220023811423A57121736F
:1093E000A563A58763813E32137827638B43F131F0
:1093F0000B4013702300957295810135221DD5878E
:109400000833A21DD5872000DD87FFF721FF002844
:1094100002D1A3791D43A5712000FEBD00AC02005E
:1094200030B50425837987B004002B4204D1FFF7BF
:1094300091FBA3791D43A571A36AA2691B6800254E
:109440001A4208D106236A4601212000FFF77EFF59
:10945000051E03D0114D280007B030BD6B46022217
:10946000042069469A561856237BD2005A4322821A
:1094700002220978C00049B2C900594343436382BC
:10948000A379E1819343A37120000DF01FFC012318
:10949000A1881A0002A80DF096FBDCE70EFCFFFF86
:1094A000F8B50400FFF7BCFF0E22A35E794F5B42C4
:1094B000BB4251DA23003E331B789B074CD5012574
:1094C000210028003E310B785A0890430200022008
:1094D000AA40834313430B702000FFF7A1FF102223
:1094E000A35E5B42BB4248DA23003E331B785B0736
:1094F00043D50125210028003E310B789A0890437E
:1095000082000420834313430B7026002000FFF7E2
:1095100087FF1222A35E4836BB423EDA23003E3369
:109520001B781B0739D5210001223E310B78D80862
:1095300082430820D200834313430B703378032BFC
:109540003BD80133DBB23370012B00D08DE0230018
:1095500000224A331A8030E02000FFF761FF0E221C
:10956000A35EC8225B42520000259342B4DD230073
:109570003E331B789B07A2D5AEE72000FFF750FFD4
:109580001022A35EC8225B4252009342BDDD23003D
:109590003E331B785B07ACD5B7E72000FFF740FFF1
:1095A000C8231221625E5B009A4204DD23003E3331
:1095B0001B781B07B7D5002DC0D13278002A14D0F4
:1095C0002100270001254A310B883E3701339BB229
:1095D0000B803878AC46054055D01D2B05D9634625
:1095E0009843002338700B80337020000DF0DAFBB5
:1095F000294A0723904244DD2000FFF711FF0E2384
:10960000E25E264E52420323B2423ADBC8252000D6
:10961000FFF706FF0E23E25EAD0052420423AA428A
:109620002FDC2000FFF7FCFE1023E25E02235242F3
:10963000B24226DB2000FFF7F3FE1023E25E012397
:109640005242AA421DDC2000FFF7EAFE1223E25E2E
:109650000523B24215DB2000FFF7E2FE1223E25E93
:109660000623AA420DDC00230BE0042BA5D1220027
:109670003E321178033B0B43137000234A3423809E
:109680000B331800F8BD092BAFD9013A0D803270A9
:10969000ABE7C04670FEFFFFFF700200E0FCFFFF7B
:1096A00070B5C369C1681A68451D8AB00400EB7FB4
:1096B000114255D0002B58D1EB7F082B0DD9012238
:1096C000A379134209D11343A371A188130006A8FB
:1096D0000DF079FAFFF7E0FC2062EB7F012B23D835
:1096E0000123A2791A421FD00025A188A571022268
:1096F00002A80DF068FAA31DDE7F012E14D1FFF73A
:10970000CBFC2B00226A801A994100900191019BA9
:10971000A188AB4203D1174B009A9A4227D9012363
:10972000042206A80DF04FFA0322A3791340012B5F
:1097300014D1FFF7B1FC0023226A801A99419942A3
:1097400002D10D4B984209D90223A279A188134373
:10975000A3710522012306A80DF035FA0AB070BDE9
:109760000B2BA9D80133EB77A6E7013BFBE73300CE
:109770000322D6E7E7030000DB05000010B5040074
:10978000034B08330360FFF7BDFC200010BDC0464B
:1097900018AC0200F0B5070000250E0085B002935A
:1097A0000AAB1B7808370393104B0400083303609F
:1097B00001928580857129001822380011F0B6F8D1
:1097C000039A3100380010F0DDFE6B466A469B8834
:1097D000127AA380A31DE671DA77631D256220004B
:1097E000DD77FFF771FC200005B0F0BD18AC02007A
:1097F00010B50400034B08330360FFF7B9F92000EC
:1098000010BDC04688AC02007FB515000F226A4427
:1098100004001E001170002D16D0002B14DD012352
:1098200001890093C06B00F073FF002802D0074845
:1098300004B070BD0090218933002A00E06B00F075
:109840001DFF0028F4D0F2E70148F1E70EFCFFFF0E
:1098500017FCFFFF002330B585B003AC21700189F0
:109860000093050001332200C06B00F051FF002877
:1098700002D0094805B030BD20802989009002231C
:109880002200E86B00F0FAFE0028F2D1237860781D
:109890001B02184300B2EDE70EFCFFFF13B56B4649
:1098A000DC1D0023220023700133FFF7ADFF0028E9
:1098B00001D1207816BD0148FCE7C0460EFCFFFF31
:1098C000D0B504000DF048FBE268A369981A0AF0CD
:1098D0003FFD06000F002369E069C01A0AF038FD59
:1098E00032003B000BF082F80022104B09F040FFE1
:1098F0000F4A104B09F03AFC0AF0B6FD0021041C97
:1099000008F0E4F8002804D0201C0B4908F000FA05
:10991000041C201C0AF056FD02000B000020074921
:109920000AF098F90AF0DEFCD0BDC046008066401F
:10993000EA2E4454FB2109400000B44300807640E5
:10994000F0B5050085B0006C0DF0C9FA061C286C56
:109950000DF0BCFA0221071C28000DF02EFB02219D
:10996000039028000DF03BFB09F05AF80221041C7B
:1099700028000DF046FB09F053F8051C301C0AF0D6
:10998000F7FF0290301C0AF0B5FF0190381C0AF076
:10999000EFFF061C381C0AF0ADFF071C039809F006
:1099A0003FF8391C08F026FD311C071C201C08F06C
:1099B00021FD029908F01EFD011C381C08F0A8F9D1
:1099C000311C071C281C08F015FD019908F012FD38
:1099D000011C381C08F09CF90299061C281C08F090
:1099E00009FD0199051C201C08F004FD011C281C20
:1099F00008F032FE311C0AF0FDFF0D4908F0FAFCB8
:109A00000AF0E0FC0B4A0C4B09F0B0FB0AF02CFD0D
:109A10000021041C08F05AF8002804D0201C044936
:109A200008F076F9041C201C08F0DAFF05B0F0BD40
:109A30000000B443EA2E4454FB21194070B50022C3
:109A4000102104000DF07AFA1B4D00282DD10326B9
:109A500008212000FFF722FFA84226D0304226D15D
:109A6000FA216389890059435023144AD518D058E4
:109A7000884204D3D518083B18000830F7D1FA21E2
:109A80002868890007F09AFEA02260811121200039
:109A90000DF054FA002808D101222B7910211A4325
:109AA00020000DF04BFA002800D0034870BD642060
:109AB000FFF7E8F8CCE7C0460EFCFFFF30AC020031
:109AC0007FB50425837904002B4218D102260DF0BE
:109AD00043FAA379A188B3432B43A3710622012340
:109AE00068460DF070F8A07903003040AB43A371D5
:109AF00043425841034B4042184004B070BD0248F5
:109B0000FBE7C04614FCFFFF15FCFFFF10B583798F
:109B100004005A070DD49B0701D4FFF7D1FF236C33
:109B20002000002B02D0FFF70BFF10BDFFF7C8FE8F
:109B3000FBE70148F9E7C04615FCFFFF70B5466C2E
:109B400086B001AC050001916260A360002E0CD0CC
:109B50000B4905A8FFF7E4FA0C23220005A9300001
:109B60000EF0B6F905A80CF088FF2B000C3307CCDB
:109B700007C30223AA791343AB7106B070BDC04678
:109B80005BBA0200642330B504000281438185B0D2
:109B90008180FFF753FF0222A379606C9343A37186
:109BA000002813D00C490EF05AF9051E0ED0010002
:109BB0000C22103101A810F09DFE20000199029A9C
:109BC000039BFFF7BBFF2800FFF7BEF90123A27933
:109BD0001343A37105B030BD5BBA0200F7B5009323
:109BE00008AB1B880400019309AB1D8800230F00FC
:109BF00016000D4A8380083283710260C3600361DE
:109C000043618361C36103621D2124300DF089F932
:109C1000009BE7632664290020006364019AFFF734
:109C2000B1FF2000FEBDC04688AC020082B0F0B596
:109C30000400A5B064202B932A9210F02DFD04227D
:109C40000C2109A803F02AFE2422CC491BA810F0FD
:109C500051FE052206A811000FF081FAC84907A895
:109C600003F0CAFEA06800F081FBA568C54918A8EA
:109C7000FFF756FA782218A9280000F0A5FC18A8CA
:109C80000CF0FBFE6E256420013D10F005FD002D5B
:109C9000F9D1A06800F06AFBA0680DF052FB012129
:109CA00060680DF093F80121070060680DF0A1F8DD
:109CB00006000A2010F0F0FC0022B34B03929F42F2
:109CC00010DB013203923A00C8320BDBC8220421B8
:109CD00092000391974205DC03220392C82F01DC16
:109CE000013A039200279E420CDB33000137C83350
:109CF00008DBC82303379B009E4203DC013FC82ECC
:109D000000DC013F06A80FF021FA0026032373436D
:109D10001BA9CA189078002805D0C95C5278FF2387
:109D200006A803F0FBFD01360C2EEFD16B463AB2CC
:109D30000C21595E06A8FF2303F0F0FD0023A06864
:109D400000931A00743006A90FF010FA0023049350
:109D50000323049A039853431BAA995C814237D189
:109D6000D31805935B78BB4232D1059B9E78002EB9
:109D70002ED1310020680DF020F908F051FE32009C
:109D8000031C290009A80EF0A5FB310020680DF086
:109D900026F908F045FE0122031C290009A80EF04F
:109DA00099FB310020680DF02CF908F039FE2900EC
:109DB000031C022209A80EF08DFBFE2303229B0543
:109DC000290009A80EF086FB0123059AED1893706F
:109DD000049B013304930C2BBAD1642010F05CFC7B
:109DE0000B2D00DC5BE709A80EF060FB01220100EF
:109DF0000CA803F053FD002509A80EF057FBA8425C
:109E00003CDD2900002209A80EF052FB0022061CAE
:109E1000290009A80EF04CFB011C301C08F0EAFADE
:109E20002900061C012209A80EF042FB0122071C92
:109E3000290009A80EF03CFB011C381C08F0DAFAD6
:109E4000311C07F065FF2900061C022209A80EF04C
:109E50002FFB02222900071C09A80EF029FB011C78
:109E6000381C08F0C7FA311C07F052FF2900031C08
:109E700000220CA80EF02EFB0135BDE709AA110047
:109E8000012318A80EF040FB18A90FA80EF099FBAB
:109E900018A80EF030FB0CAA09A912A801230EF095
:109EA00033FB002312AA0FA915A80EF02DFB0022E8
:109EB00015A811000EF0FCFA0022061C012115A8BD
:109EC0000EF0F6FA0022051C022115A80EF0F0FA99
:109ED000FC21071C8905301C08F08CFA08F080FD75
:109EE000FC21060018908905281C08F083FA08F068
:109EF00077FDFC21050019908905381C08F07AFAD5
:109F000008F06EFD2A00030031001A902068FFF768
:109F100015FEA0680DF015FA07A908A8A5680FF0AE
:109F20000DF90022194B009208A901932800130093
:109F300000F0BAFA08A80FF0F4F8FA20800010F048
:109F4000ABFBA0680DF0FDF915A80EF0D4FA12A82D
:109F50000EF0D1FA0FA80EF0CEFA0CA80EF0CBFA44
:109F600007A80FF0DEF806A80FF0DBF809A80EF03E
:109F7000C2FA25B0F0BC08BC02B0184766BA0200AD
:109F80008ABA0200CFBA0200E0FCFFFFDC05000045
:109F9000F7B583601D4B05001F6801604260002F0C
:109FA00031D02820FEF7B0FF040010300CF001FE85
:109FB000174B18202360FEF7A7FF00220600154B61
:109FC00001920560083200210C30009310F0AEFCC5
:109FD00008226946301D10F08DFC0F4B0022736182
:109FE000C223A3803B68E260A660226262625B6873
:109FF000210038009847002805D020000CF0F3FC21
:10A000002000FEF7A1FF2800FEBDC046C0260020AC
:10A01000050006002D9C01001B700200F0B5040035
:10A0200085B0637A9C46002B04D120000DF020F807
:10A0300005B0F0BDA37A266F01931023019AF35661
:10A0400000259B1801229A402900F368039202938D
:10A05000029BAB4231DDB368019A6B439B18726976
:10A060005B00E77AD3181A785878E379012F14D176
:10A070005F1E3F1A10003A005B004343606F821876
:10A08000D3189B79634500DD6346627B1A4202D098
:10A090000123AB4019430135DAE7022F05D15F1EDA
:10A0A000BA1A277A013F381AE6E7032FE4D1277A54
:10A0B000013FBF1A02003800DEE71123C943F356FF
:10A0C000606C994023691940039B194310F0A4FB6D
:10A0D000A27B072AACD8637B0C495B006373531CDB
:10A0E000DBB290004158A373022A03D8080010F095
:10A0F000C8FA96E7064B2000236300236363054BF1
:10A10000E4622364143010F05AF991E7A0AC020025
:10A110001DA001005B70020010B50400044B036039
:10A1200010F045F9200006F09DFD200010BDC0464E
:10A1300084B1020010B504000E4B08330360FEF733
:10A14000E1FF200074300EF0ECFF200060300EF0D4
:10A15000E8FF200058300CF090FC200050300CF04C
:10A160008CFC2000044B14306361FFF7D5FF200006
:10A1700010BDC046C0AC020098B10200F8B5002581
:10A180000400324B8580083303608571143016005B
:10A190000F0006F051FD20002D4BE5626361256440
:10A1A0005030FEF7F7FF20005830FEF7F3FF200095
:10A1B000603003F0ADFB20000423F25E33682667B5
:10A1C000590009B274300EF0CAFF3368226FE37190
:10A1D00073680126237210236581A7802561D356F9
:10A1E00091685918994204DD3000984001330543C5
:10A1F000F8E711230120D356D1685918994206DD9A
:10A2000002009A402669013332432261F6E71420A6
:10A21000FEF77AFE226900212A430123060006F098
:10A22000B1FFFF23220063720133A3810023483270
:10A230006664A37320001370A366FEF745FF012335
:10A24000A27920001343A371F8BDC046C0AC020040
:10A2500098B10200F0B5437A85B00400002B04D118
:10A2600020000CF005FF05B0F0BD0122837A11003B
:10A270009C461023066F0025F356039263449940D1
:10A2800002912900F3680193019BAB422CDDB36876
:10A2900072696B4363445B00E77AD3181A78587885
:10A2A000E379012F10D15F1E3F1A10003A005B00C6
:10A2B0004343606F8218D3189B79002B02D0039B15
:10A2C000AB4019430135DFE7022F05D15F1EBA1AF3
:10A2D000277A013F381AEAE7032FE8D1277A013FAE
:10A2E000BF1A02003800E2E71123C943F356606C3D
:10A2F000994023691940029B194310F08DFA667A40
:10A30000B31EDBB2FC2B14D8FEF78CFE0B4B050002
:10A31000236300230A4863630A4BFF21E46223643A
:10A32000704307F0D5FA290041432000143010F0A3
:10A3300046F8637A012B00D995E791E77170020026
:10A34000B60300005B7002001FB5012381881A006C
:10A3500068460CF038FC012303491A0068460CF0EB
:10A3600032FC05B000BDC046FE0300001FB503006F
:10A3700048331A780400002A0DD000221A700123F5
:10A3800081881A0068460CF01EFC012304491A005B
:10A3900068460CF018FC200074300EF0D7FE1FBD8C
:10A3A000FF03000010B548300378002B06D0037877
:10A3B000012B03D0012102480CF08BFA10BDC046DE
:10A3C000FF03000010B50121040006200CF081FA03
:10A3D000064B984208D148342378002B04D02378C8
:10A3E000012B01D020BFF7E710BDC04616FCFFFFD0
:10A3F00070B50600141E19DB050048352B78002BBC
:10A4000002D02B78012B13D1002330001A007430B6
:10A4100003F042FB002C07D033004A331C80002499
:10A4200007234C3634802B70200070BD014CFBE7B5
:10A43000014CF9E717FCFFFF12FCFFFFF8B517000E
:10A440000A68050052880B00012A09D10021180072
:10A450000CF0A2FB002201002800FFF7C9FFF8BDA5
:10A46000002F19DD060048363278002A02D03278F3
:10A47000012A13D12A00002428005C32190014801C
:10A4800058300CF064FB2B004A331F8003234C35FB
:10A490002C8020003370E2E70148E0E70148DEE766
:10A4A00017FCFFFF12FCFFFF73B5079C0500002C93
:10A4B0001CDB060048363078002802D030780128AE
:10A4C00016D106981BB2C0B20090280012B27430A8
:10A4D0000EF04CFE002C07D02B004A331C800024C9
:10A4E00007234C352C803370200076BD014CFBE7F0
:10A4F000014CF9E717FCFFFF12FCFFFFF7B5050061
:10A500000E00171E26DDFFF74DFF2B0048331C7889
:10A51000E4B2002C20D133685B88012B09D12100E3
:10A5200030000CF039FB220001002800FFF760FF2B
:10A53000FEBD310001A80CF002FB3A0001A9280081
:10A54000FFF77CFF01A80CF098FA2800FFF73AFF0C
:10A550002000EDE70148EBE70148E9E717FCFFFFC2
:10A5600011FCFFFFF0B587B00D9C06000F000292B2
:10A570000393002C20DBFFF715FF330048331D78D1
:10A58000EDB2002D1AD1390005A80EF0D7FD0C9BB5
:10A5900001940093029A039B05A93000FFF784FF02
:10A5A00005A80EF0BEFD002C03D03000FFF70AFF17
:10A5B0002C00200007B0F0BD014CFAE7014CF8E791
:10A5C00017FCFFFF11FCFFFFF8B50400171E1DDD8F
:10A5D000060048363378002B02D03378012B17D190
:10A5E0002200E3795632013B13702300002520003E
:10A5F00054331D8050300CF0AAFA23004A331F80D8
:10A60000022328004C3425803370F8BD0148FCE754
:10A610000148FAE717FCFFFF12FCFFFFF7B5050042
:10A620000F00161E18DDFFF7BDFE2B0048331C7807
:10A63000E4B2002C12D1390001A80CF080FA3200EB
:10A6400001A92800FFF7C0FF01A80CF016FA2800A6
:10A65000FFF7B8FE2000FEBD0148FCE70148FAE71D
:10A6600017FCFFFF11FCFFFFFF2902D841720020F9
:10A6700070470148FCE7C04617FCFFFFF0B51F001C
:10A6800085B00AAB1B780400039300933B000D00D8
:10A6900016000FF0F5FD002833D0237D082B2DD8B0
:10A6A000236800221900FC318A62A021C9005A5097
:10A6B000154905205A500138C046C046C046C0461C
:10A6C000C046C046C046C046C046C046C046C0465A
:10A6D000F1D1236801325A50A0210432C9005A50E6
:10A6E00006F000FF039B3200009329003B0020008E
:10A6F0000FF0C6FD237D01332375CCE7034805B079
:10A70000F0BD2075FBE7C046FC0F00000EFCFFFF0C
:10A71000F0B51F0085B00AAB1B78040003930093CB
:10A720003B000D0016000FF093FD002833D0237D71
:10A73000082B2DD8236800221900FC318A62A02141
:10A74000C9005A50154905205A500138C046C04624
:10A75000C046C046C046C046C046C046C046C046C9
:10A76000C046C046F1D1236801325A50A0210432BC
:10A77000C9005A5006F0B6FE039B32000093290030
:10A780003B0020000FF064FD237D01332375CCE7EF
:10A79000034805B0F0BD2075FBE7C046FC0F000084
:10A7A0000EFCFFFFF8B50D1E30D000260227C4684E
:10A7B000002C28D0AA88A38853403B4204D13A42B7
:10A7C00004D1AB883B4219D0646AF1E7A968A0685C
:10A7D0000DF0FEFD0028F4D02B88002B02D022883B
:10A7E0009A42F1D16B88002B02D062889A42EBD159
:10A7F000A288074B01361343A380E5E7A368AA6844
:10A800009342E1D1E8E72000002E00DC0148F8BDCA
:10A810000080FFFF17FCFFFFF0B5060085B00D1E9E
:10A8200059D00127C468002C22D00221AA88002315
:10A830000A4202D0A3885B083B40226829688A420A
:10A8400010D1A068A968002B0AD00DF0C1FD002826
:10A8500008D0A3881AB2002A06DB204805B0F0BD54
:10A860008842F6D0646ADEE75B045B0CA380F4E701
:10A87000F0682A88002807D1F56001231849684646
:10A880000CF0A1F90020E9E7010003001C889442C4
:10A8900006D25C6A1900002C0DD02300F6E72300D5
:10A8A0001C88944207D15F886C88A74203D25C6AF7
:10A8B0001900002CF3D1814209D10B889A4204D3AC
:10A8C00005D148886B88984201D96962D4E74B6A00
:10A8D0006B624D62D1E70348C0E7C04616FCFFFF3C
:10A8E000FD03000017FCFFFF064B10B51A00040023
:10A8F00008322C33026043600430FEF739F920003F
:10A9000010BDC046D8AC020008B4024B9C460438C7
:10A9100008BC6047E9A8010008B4024B9C46043813
:10A9200008BC6047837402000C4A002311002C32DB
:10A93000083110B5038183724260C36003614361D3
:10A940004383016004000430FEF704F9044B1A68E5
:10A95000002A00D11C60200010BDC046D8AC020007
:10A96000C0260020F7B50E000125C4680192002C16
:10A9700036D0238832889A4201D0002B23D16388B5
:10A9800072889A4201D0002B1DD1FEF757F801239F
:10A99000002806D0C022A3881340C03B5A4253412E
:10A9A000DBB2019A934219D1A7883BB2002B15DB89
:10A9B00010223100A0180FF09DFF40231F4204D049
:10A9C00020000CF067FD646AD1E7FEF737F8002835
:10A9D000F6D021000348FEF7E1F9F4E70025F2E79D
:10A9E0002800FEBD9574020008B4024B9C46043852
:10A9F00008BC60471D760200F0B587B001930EAB2E
:10AA00001B88060003930D9B0D000093019B02928F
:10AA10000C9F002B3DD0002F02D1009BDB0738D5C7
:10AA20002820FEF771FA040010300CF0C2F86B46D3
:10AA30001B89258063801820FEF766FA0500009BBD
:10AA400008220593019B002103600C3004970FF04E
:10AA50006DFF082204A9281D0FF04CFF0E4B0222A7
:10AA60006B6100230399E3602362636233680A43E6
:10AA7000A560A2805B68210030009847002806D0BE
:10AA800020000BF0B0FF2000FEF75EFA034807B08D
:10AA9000F0BD0348FBE7C0465776020016FCFFFFF7
:10AAA00017FCFFFFF0B50400160000258380164A4E
:10AAB000164B85710260218146810573186889B043
:10AAC0008C46A8421DD0124A05950492C0220292DB
:10AAD0006A4604AB82CB82C223002A006146FFF79C
:10AAE0008BFFC022094B0A49186802926A460691F8
:10AAF00006AB079582CB82C223002A003100FFF704
:10AB00007BFF200009B0F0BD1CAD0200C026002074
:10AB10008177020030B5002403730123034D847153
:10AB20000560818082734373846030BD34AD020060
:10AB300070B5094C00212368D8680368DB6A984720
:10AB4000050023680021D868044B1A6803681B6A53
:10AB50009847280070BDC046D4260020CC2600208F
:10AB6000F7B504000026019308AB1F88274B0D00A2
:10AB70000833868086710360E16010302100009206
:10AB800000F0ECFE6B461B78A780E3716B461B79E7
:10AB900028272372230020000833A67166813A001B
:10ABA000DE6731002C300FF0C1FE2300200054334B
:10ABB0003A0031001E8058300FF0B8FE2300803379
:10ABC0001E802B6828009B6998472B6828001B690A
:10ABD0000F4998472B6831002800DB6998472B689C
:10ABE00028005B6B032198472B68042128001B6B0E
:10ABF00098472B6828005B699847FDF71FFE0123E3
:10AC00006372044B20001C60FEBDC04644AD0200D0
:10AC100019790200D426002010B50C000BF0E7FDD6
:10AC2000002806D1642C06D8A123044ADB00D450A6
:10AC300010BD0348FCE70348FAE7C0460010004097
:10AC400016FCFFFF17FCFFFFF7B507000837FB6F87
:10AC50000500002B28D00300553300931C780323F4
:10AC600001341C40E3B20193030054331B78E2B279
:10AC700093421BD0D220FEF747F90600D2220021D2
:10AC80000FF054FED222F96F30000FF033FE6A4607
:10AC900000200A34009BA40012792C1966601A70F7
:10ACA000AB7A0133AB72FEBD0148FCE70148FAE71D
:10ACB00017FCFFFF13FCFFFF8023F0B5994C5B00EE
:10ACC000226885B01A4050D000200825964A974B3C
:10ACD00050611061906021682940814220D0C221DA
:10ACE0000A2689005E5004395D502168904D294044
:10ACF00021601021256829432160506001221A60DB
:10AD00008C4B03211B68DC68236820001D6ADB6A0A
:10AD1000984702005F32FF3203212000A84731E04C
:10AD20000126206830422DD0C2250A20AD0058519E
:10AD3000043D58517F48056828000830C76F7E4899
:10AD40001F5020687D4F384020600220276838431C
:10AD50002060EC6851605E60236803211D6A20005A
:10AD6000DB6A98470200C832D6E7022723683B42D5
:10AD700000D16DE06C4B5968002905D05A60012361
:10AD80006A4A936005B0F0BD9A680092002A13D019
:10AD90009960802322681B0313432360654C0121C3
:10ADA0002368D8680368DB6A984723683900D86845
:10ADB0000368DB6A9847E5E71A69002A48D06049CA
:10ADC0005C4D0A6801320A6022685E490A4001212E
:10ADD0002260009A9A60009A1A61544B99602B681D
:10ADE000DE6833683000196ADB6A019101219847F7
:10ADF0005549421830000121019EB04780234B4A3B
:10AE0000DB00D358012B7CD16A46504B12783900B5
:10AE10001A702B68D8680368DB6A984723684C4A25
:10AE20000F2013402A68236013000833D96F4B7931
:10AE300003424AD01A07120F1218024083431343E9
:10AE40004B712368BB4323602268424B134323604A
:10AE5000344C23689B0300D4A1E0102223681340E4
:10AE600000D181E00027334D2F4E2B680121D86897
:10AE700077600368DB6A984728680CF039FD102278
:10AE800023680500934323604023226813430F2265
:10AE90002360314B1978437A114093430B4313409D
:10AEA00043724379190993430B4343712368441D4B
:10AEB0009B022BD56770A770E7701C4B1E4A9D50F4
:10AEC00001229A60002333615CE723682349D66836
:10AED0000B402360336839001A6A30000092DB6A45
:10AEE00098470500AF200001FDF782FC2A00C83218
:10AEF0001218009B390030009847802322685B03BA
:10AF0000A4E7174A1368013313603BE7FFF710FE0D
:10AF1000144B1B68C01A030A6070000CA370E07029
:10AF2000CBE7C04610270020FC1000400010004076
:10AF3000F7FEFFFFD426002004050000FEFEFFFF01
:10AF40000C270020FFFFF7FFC4090000A02A002003
:10AF5000FFFFDFFF88000400A7200020FFFFFBFFAA
:10AF6000D8260020D02600202268520617D5904A05
:10AF70000121136123688F4A1340236022688E4B9E
:10AF8000134323608D4B1B68DD682B6828001E6A05
:10AF9000DB6A98478A4B0121C2182800B047236812
:10AFA0005B033DD523685B0618D50022804B012149
:10AFB0001A612368834A1340236081232268134364
:10AFC00023607E4B1B68DD682B6828001E6ADB6AE5
:10AFD00098477B4B0121C2182800B04710262368F0
:10AFE00033421DD0754D01212B68D8680368DB6A98
:10AFF00098472368B34323604023226813432360A8
:10B000002B68714A0833D96F704B995001229A60AE
:10B010000022674B1A61802322685B03134323607D
:10B020002368DB0200D4A1E02368694A00261340AC
:10B030002360624B1F683B000833DD6F2B79EA7891
:10B040001B02134301936B780293AB78029A03932C
:10B05000019B12021B041343039A1A4323680092B4
:10B06000DB0128D538000CF043FC029A4378934268
:10B070001DD18378039A934219D10379C2781B02B8
:10B080001343019A9A4212D138000CF00AFC514F36
:10B09000514A3B7800999B00995038780A21013039
:10B0A00006F0FCFC4D4BC9B239701E6001362368B6
:10B0B0004B4A1340236023689B0135D52368494AD6
:10B0C000A979134023606B7A474A1B07DB0E985A15
:10B0D000FA239B0043436A79019313091207120F65
:10B0E0009A1A2B78D2B2DB007D33FF335343EA79CF
:10B0F0003E4F120211432A7A304C12040A439B1825
:10B100003B6023680021D8680368DB6A98473B6886
:10B11000019A0021D31A18182268354B1860D0689C
:10B120001A6803681B6A98476B7A9B0600D501264C
:10B1300000240123284DA200525900998A4200D1CF
:10B140001E0001340A2CF6D1002E0FD11B4B1868BB
:10B15000FFF77AFD1F4E009A337821009B00EA50DA
:10B160003078013006F09AFCC9B2317021490B6881
:10B170001B0600D406E600220D4B1A615A609A6045
:10B180005A61124B01321A610B681B4A1A40802324
:10B190005B0013430B60094B03211B68DC682368C9
:10B1A00020001D6ADB6A984702001E32B4E5C046E3
:10B1B000FC100040BFFFFDFF81000001D4260020ED
:10B1C000C4090000BFFFFBFF0405000000100040A1
:10B1D000FFFFEFFFA22A0020E02600200827002022
:10B1E000FFFFFFFEFFFFFFFD84200020C826002098
:10B1F000CC260020102700200900FFFF10B5034ACD
:10B20000136801331360FFF757FD10BDDC260020E3
:10B21000E02310B5144C1B0322681A4223D10222EA
:10B22000124BDA672368DB0107D5114A1368013333
:10B23000136023680F4A1340236022680E4B1343A8
:10B240002360FFF739FD02220C4B1A600C4B0D4AAC
:10B2500019781278914206D300221A70802322684E
:10B260005B051343236010BD1027002004E100E0BC
:10B2700008270020FFFFFFFE8000400000E100E003
:10B28000A02A0020A12A0020F7B5454C0021236800
:10B29000D8680368DB6A9847424B434A18601278C3
:10B2A0001968424B5200D25AFA239B005343404D37
:10B2B0005B1840492B600A683F4B052A06D980225B
:10B2C0001868920302431A6000220A6080211A68FB
:10B2D000C903114006D123682A68D86803681B6A2D
:10B2E0009847F7BD1A6835490A401A601968344A08
:10B2F0000A431A601E6880239B031E4021D02368E6
:10B300000221DF683B6838001A6ADB6A00929847BE
:10B310002C4E3268831830680193FDF769FA019B5F
:10B320000221C218009B3800984723682A68D86811
:10B33000002103681B6A9847234B3360FFF7BCFC6E
:10B34000CFE72248FDF754FA23680190DF68022115
:10B350003B6838001A6ADB6A009298470200019B3A
:10B36000F532FF32D2180221009B3800984723683B
:10B370000121DF683B6838001A6ADB6A009298474F
:10B38000FA231B01C2180121009B3800984723684B
:10B390002A68D868310003681B6A9847CEE7C04620
:10B3A000D4260020D0260020A720002084200020C2
:10B3B000CC2600200827002010270020FFFF3FFF99
:10B3C0000100000208200020409C0000C409000089
:10B3D0009823F7B5184DDB032A681A4214D10224CA
:10B3E000164B174EDC67174B1F6838000CF080FABD
:10B3F0002B68002809D0A22212051A40124B1343D1
:10B400002B60FFF759FC3460F7BD9B02FBD5FF684A
:10B4100021003B6838001A6ADB6A019298470500F0
:10B420000A48FDF7E5F9094B2100ED182A18019BA0
:10B4300038009847E7E7C0461027002004E100E005
:10B4400000E100E0D42600208800020080969800E9
:10B45000F7B5070001918137060038780A210130DD
:10B4600006F01CFBCBB20093330080331B78CAB2CA
:10B470000C0093421CD0D220FDF746FD0500D222DD
:10B48000002116340FF052FAA400D22201992800AC
:10B490000FF030FAA55172B66B461B783B7062B65E
:10B4A000F37A0133F3722879EB7800021843FEBD7A
:10B4B0000048FCE713FCFFFF30B50400B7B01148AB
:10B4C000FDF796F96B4680B2D871000A187209230D
:10B4D0004422002501A90B70E37920004B70237AE8
:10B4E0004A713B3A6A448B704B7A55709570D570AF
:10B4F00020221343113A93434B72FFF7A9FF37B051
:10B5000030BDC046FFFF0000F8B58379060000207B
:10B51000DB0700D588E00BF06AF9002800D084E052
:10B5200037000837FD6F002D08D1D230FDF7ECFC55
:10B530000400D22229000FF0F9F9FC67FB6F002B01
:10B5400000D174E0002380253A4A3B4C13706D0013
:10B55000237023780A2B08D82800FDF749F9282101
:10B5600006F09CFAC9B22170F3E70022334B0121A7
:10B570005A608022D20511605A68002AFCD0062247
:10B580002F4B304D9A56304B0721EA503000FFF7D1
:10B5900043FBA2230024DB00EC502C4A2C4B2D490A
:10B5A000EA5001222C4BC020EC502C4B8000EC5078
:10B5B0000433EA502A4B0732EA502A4A0433EA504D
:10B5C0000222294BEA50294BE9502949043BE95012
:10B5D000F96F284BE950C021274B49005A501958A0
:10B5E000264D294019501A60254BF5685C60254AA4
:10B5F0001C61254B21001A602B6828001F6ADB6A3A
:10B600009847737A214A5B009B5AFA2292005A4368
:10B61000210012182800B8470122B37930001343E3
:10B62000B371FDF797FA2000F8BD1948FCE71948F7
:10B63000FAE7C046A02A0020A12A0020FC00004012
:10B640002FBB0200001000400C05000075696275F8
:10B650001C050000FFFF0000240500002C05000071
:10B6600014050000C8000400340500003C0500007B
:10B67000211001000405000000E100E0FF00FFFFD1
:10B68000FC100040000160001027002084200020F2
:10B6900016FCFFFF13FCFFFF03000200543355327A
:10B6A00011781B78002299420DD0084A01331340CB
:10B6B00004D50422013B524213430133DBB20A3367
:10B6C0009B00C3185A6810007047C04603000080F2
:10B6D00070B50B4D04002B68DB0005D5FFF7ECFEC1
:10B6E0002B68084A13402B602000FFF7D5FF002885
:10B6F00004D02000103000F009FAF5E770BDC04614
:10B7000010270020FFFFFFEF30B502000400553284
:10B71000543423781278010000209A4213D00A4A48
:10B7200001331340834204DA0422013B52421343A3
:10B7300001330025DAB292008A18D06AD5622370EC
:10B740008B7A013B8B7230BD03000080F7B5164841
:10B75000009101920AF0E1FF1448FDF749F8002337
:10B760009C46134984B29E007258002A10D0775824
:10B77000019DFFB27258AF420AD1120A009DD2B2A7
:10B78000AA4205D17258120C944201D1012294466A
:10B7900001330A2BE7D16346002BDDD180B20AF0DA
:10B7A000BDFF2000FEBDC046DDBA0200FFFF000065
:10B7B000E02600200B4B70B518680C0015000AF04D
:10B7C000ACFF002308499A005258100CA04202D145
:10B7D00092B2AA4204D00133142BF4D1002070BDE0
:10B7E0000120FCE70C2000201427002070B5064C37
:10B7F000064B2088090485000A43EA5001301421D1
:10B8000006F04CF9218070BD482A00201427002042
:10B81000F0B587B001930EAB1B88060003930D9B18
:10B820000D000093019B02920C9F002B3DD0002F36
:10B8300002D1009BDB0738D52820FDF765FB04000B
:10B8400010300BF0B6F96B461B89258063801820F9
:10B85000FDF75AFB0500009B08220593019B002180
:10B8600003600C3004970FF061F8082204A9281D2A
:10B870000FF040F80E4B02226B6100230399E36046
:10B880002362636233680A43A560A2805B6821007B
:10B8900030009847002806D020000BF0A4F82000C4
:10B8A000FDF752FB034807B0F0BD0348FBE7C04675
:10B8B0004D79020016FCFFFF17FCFFFFF0B50400F6
:10B8C0000E008BB021606260C02110001F001500C7
:10B8D0000EF022FD502200211C480FF027F8300006
:10B8E000012110300CF040F9194A00260692C022BE
:10B8F00002926A46079606AB03CB03C223003200CE
:10B9000014493800FFF784FF134A09960892102261
:10B9100002926A4608AB03CB03C223000122202116
:10B920003800FFF775FFFE21280000F071FBC021F1
:10B9300005A80BF0CCF8320005A9280000F0E2FAC7
:10B9400005A80BF09AF820000BB0F0BD14270020DA
:10B950004D7A0200F4F500008D790200F0B5040084
:10B960000026284B85B0083303608160868086718D
:10B97000210014300CF009FA2000210018300CF0DE
:10B980000AFA214BE660266120001E70FDF7E2F8FE
:10B990001E4B1B680193B34230D02820FDF7B4FA48
:10B9A000050010300BF005F9212318202B60FDF75E
:10B9B000ABFA0700164B0460082231000C300293EA
:10B9C00003960EF0B3FF02A9381D08220EF092FF75
:10B9D000104B29007B611223AB80019BEE601B683A
:10B9E000AF602E626E625B6801989847B04205D0E6
:10B9F00028000AF0F8FF2800FDF7A6FA200005B09D
:10BA0000F0BDC0465CAD0200A32A0020C026002085
:10BA1000F77B0200177B0200F7B50026C56804001B
:10BA2000B54210D001272A793A420DD0002E0BD111
:10BA3000290020000CF032F92B79BB432B713E001A
:10BA4000AD68002DEFD1F7BD02231A4216D0EB8866
:10BA500001339BB2EB805A2BF2D9002EF0D16B79D7
:10BA60000133DBB26B710F2B14D827480AF055FE57
:10BA7000290020000CF012F9EE80E0E75307DFD533
:10BA8000FA21EB88490001339BB2EB808B4201D84D
:10BA90001307D5D52B6820001A79D97812020A43EA
:10BAA00021000C310CF070F8037905001B0706D556
:10BAB00028000CF050F82800FDF746FAC3E72F687D
:10BAC00021003E000A36B3782A000193402310314A
:10BAD000B37020000CF073F8019B9B0707D0200087
:10BAE0007178BB7A0902194314300CF050F9019BAC
:10BAF0005B07A8D520007178BB7A0902194318307A
:10BB00000CF04BF99FE7C04620BB0200F0B50600E1
:10BB100089B05E480AF001FEB068FFF7F5FD040049
:10BB200000780AF0FBFD250023782A1B093B01352C
:10BB3000934203DD687A0AF0F1FDF5E727000A3742
:10BB4000BB789B061AD552480AF0E7FD7978A37AAC
:10BB50000902194330000CF09AF8002809D002229B
:10BB6000037993431A000423134303710023C38012
:10BB700043712000FDF7E8F909B0F0BD7A78A17AA9
:10BB800012020A43A17863783000009141490CF019
:10BB9000CAF8002802D1B3799B070BD53E480AF0BA
:10BBA000BCFD7978A07A09020143A378627830005D
:10BBB0000CF07AF87D78A37A2D021D4363782A0071
:10BBC0000293A3783549039300933000029B0CF055
:10BBD000AAF8002803D032480AF09FFDC9E7039B6A
:10BBE000304A0193029B2D49009330002B000CF04A
:10BBF000ACF82D480AF091FD31007A78A37A120250
:10BC00001A430C3130000BF0BFFF051E39D1274815
:10BC10000AF083FD0C20FDF777F9050000233100C1
:10BC20002A0010316B60AB602C6030000BF0C7FF56
:10BC30007878A37A000218430AF070FD7A78A37A24
:10BC400012021A431A49012304A80AF0BCFFBB7868
:10BC50009B0707D030007978A37A09021943143082
:10BC600000F028F82300227B0A33520700D483E730
:10BC700030005978A27A09021143183000F026F8F2
:10BC80007AE70068FDF760F9C8E7C046F3BA02003A
:10BC9000F8BA020074270020FDBA020064270020D1
:10BCA00004BB0200A32A002011BB020018BB020043
:10BCB000F4F500001FB50A000123034968460AF0A5
:10BCC00082FF05B000BDC046F5F50000F0B5006884
:10BCD00087B00CF04CF83F22036806001C7B9443AD
:10BCE0003AD11A0019780D320D392300C9B26846CD
:10BCF0000CF099FB2100684601F0BCFD012187B2E0
:10BD0000684601F0B7FD2300164A85B299005458E1
:10BD1000002C23D0E188B94220D1A188A9421DD1AD
:10BD20000222694602A80CF0ACFB200002A90830F0
:10BD30000AF00DFF02A80AF0A0FE01232A000A491A
:10BD400002A80AF040FF30000BF005FF3000FDF7BD
:10BD5000FBF868460CF06EFB07B0F0BD01330A2B10
:10BD6000D4D1F0E79C270020F6F50000F0B5224B77
:10BD700085B01B7804005B0739D50EF0C9FA0025A1
:10BD8000236CC6B20227DF5FAF420EDD200029B26E
:10BD900040300AF001FF864205D1012320211A001C
:10BDA00068460AF010FF0135EEE7250023004E3506
:10BDB00028884C331978013005F070FE2300503389
:10BDC0001B8889B28B4214D02B88A26CD654636C2A
:10BDD0002980002B0BDB2A88934208D10123022201
:10BDE0005B4263640233202168460AF0ECFE05B032
:10BDF000F0BD01230322F6E7A42A00200121024A14
:10BE000013788B4313707047A42A002010B50029C3
:10BE100003DB024B19600EF0A0FA10BD842700204E
:10BE200070B504001E0004AB1D7804F0CFFE2000A6
:10BE30000E4B40302360FDF7ADF9230001364C3343
:10BE4000013522001E701D730023E1214E32A364D0
:10BE50006365138053809381D381013B2000636429
:10BE60004902FFF7D3FF200070BDC04680AB02003F
:10BE700070B505001400012A11D003004E33188854
:10BE8000023B4018197805F009FE69640025022C70
:10BE900003D1210020200AF01CFD280070BD014DB7
:10BEA000FBE7C04617FCFFFF70B5060050360400E4
:10BEB0000A003388002906D102004E3212889A42C5
:10BEC00008D10F4870BD01290FD101004E310A88F9
:10BED0009A42FCD0A36C30884C341D5C2178013030
:10BEE00005F0DCFD28003180ECE70229F2D10100E9
:10BEF0004E3109889942EDD10121FFF7B9FFE9E7F9
:10BF00000CFCFFFF70B51500012A0BD040300AF081
:10BF10001EFE0024022D03D1012120200AF0D9FCAD
:10BF2000200070BD004CFBE717FCFFFF73B50D0050
:10BF300006A9040009780430002A01D1DE070ED5D5
:10BF4000002D0CD018264E430C34A4196260012237
:10BF5000A360044B2560636105F016FA73BD0022EF
:10BF6000FAE7C046B37D0200F0B5164E85B03378CF
:10BF700005005B0705D500210BF026FFA86CFCF738
:10BF8000E3FF04273378BB4333702B004C3318781E
:10BF9000FCF7BAFFA864002811D02B0000244E3310
:10BFA0001C805C80337828001F433770064A009459
:10BFB00023002900FFF7BAFF200005B0F0BD0348B9
:10BFC000FBE7C046A42A00206DBD010013FCFFFF63
:10BFD000012370B50E000C4905000A781A4211D1F0
:10BFE00013430B70530708D531002800FFF75CFF9F
:10BFF0000400FFF703FF200070BDFFF7B5FF041E2C
:10C00000F2D0F8E7014CF6E7A42A00200DFCFFFF70
:10C01000012310B5094A14781C420CD12343137034
:10C02000030001314C331970FFF79EFF0400FFF746
:10C03000E5FE200010BD024CFBE7C046A42A00200C
:10C040000DFCFFFFF7B580277F053D697C6908225D
:10C05000113C6C430600210068460EF04BFC104B6F
:10C06000009A9A4219D00093002301937969300015
:10C07000133969430BF0AEFE019A009930000BF0C2
:10C08000C1FE210030000BF0A5FE7969AB08133921
:10C090006943220030000BF0A7FE0198FEBDC046A8
:10C0A000FECA0000F0B50D00A9B00D9200213022AB
:10C0B000060010A80B930EF039FC28000EF076FC59
:10C0C000431C0C93102B00D9B5E00B9B202B00D9FF
:10C0D000B1E0290030000BF0C2FE071E50D129004C
:10C0E0000C9A10A80EF006FC0D990B9A14A80EF0ED
:10C0F00001FC80235B051A695F690C92113F7A434A
:10C1000030005D690B92FFF79DFF30220021040093
:10C110001CA80EF00BFC290000270C9B1339594377
:10C1200030000BF057FE0D9730257D430B9B0833F5
:10C13000ED18A74242DA290030221CA80EF0DAFBE3
:10C1400010A91CA80EF028FC002827D13C4930007B
:10C1500022000E910F940BF055FE6A46099513AB21
:10C1600023CB23C223CB23C223CB23C23000129B79
:10C170001099119A0BF054FE01230D930137D3E768
:10C1800010300B9A0D990EF0A6FB04003800FCF756
:10C19000DBFE002CA3D1200029B0F0BD6A46099532
:10C1A0001FAB23CB23C223CB23C223CB23C230001C
:10C1B0001C991D9A1E9B0BF033FEDFE7E5433023ED
:10C1C000ED1725405D430B9B08355D190D9B002B3A
:10C1D0001DD10C9B3021981E05F0F0FAA0422CD006
:10C1E00017490134300022000E910F940BF00AFE23
:10C1F0006A46099513AB23CB23C223CB23C223CB9F
:10C2000023C230001099119A129B0BF009FE0B9972
:10C2100030000BF0DFFD80235B0559690C230C9A7D
:10C22000133963434A430233110030000B9A0BF079
:10C23000DBFD0024AFE7034CADE7034CABE7C046A2
:10C24000FECA000017FCFFFF13FCFFFF70B50400DF
:10C25000A280FA22002308000C49920008312160D4
:10C26000A3716061E260A360638209490BF0F7FD8E
:10C27000051E09D0010020001031022212300EF0FC
:10C2800039FB2800FCF760FE200070BD74AD020091
:10C2900027BB020030B50225837987B004002B420A
:10C2A00004D1FCF757FCA3791D43A57120000BF0C6
:10C2B00020FE00281CD06B46DD1C28000BF010FE71
:10C2C0002B78002B17D001A80BF008FE0321019A50
:10C2D000D3170B409B189B102382FCF7DDFEE3680D
:10C2E000A18818180123A0601A0002A80AF06BFCAC
:10C2F000002007B030BD0122064B1A60064A516883
:10C300000029FCD000215160044A126801920122E8
:10C310005A60DBE700C00040FCC0004008C5004098
:10C32000022802D10122014B1A707047A52A002071
:10C3300070B5064C05002378002B04D1044802F0A8
:10C34000A7F801232370280070BDC046A62A00204C
:10C3500021C3010070B50C000AF049FA002810D082
:10C360000023144DA40A2B7020000BF0D6FD0028EA
:10C3700003D00A200EF090F9F6E72B78002BFCD0C2
:10C3800070BD02210C4B0D4A99508021C900080054
:10C390005D58002DFCD0A121C9005C50195800291E
:10C3A000FCD0002199508021C9005A58002AFCD0A5
:10C3B000E6E7C046A52A002000E001400405000091
:10C3C000F8B50C0015001E000AF011FA002811D073
:10C3D0000023174F3B703200290020000BF09BFD1B
:10C3E000002803D00A200EF057F9F4E73B78002B21
:10C3F000FCD0F8BD01210F480F4B84461950802115
:10C40000C9005A58002AFCD080270022FF0096421B
:10C4100007DD910068586050D9590029FCD00132DD
:10C42000F5E7002261465A50DA59002AFCD0E0E7CD
:10C43000A52A00200405000000E00140002370B59B
:10C44000180001241D0009499A005218516C002956
:10C4500004D0210099400843C0B255640133042B35
:10C46000F1D1034B1B68984770BDC046FC8000406B
:10C4700088270020014B0020196070478827002082
:10C480001F22037A13401E3A11009940024BD967CC
:10C49000C36800205A60704704E100E0C268024BA4
:10C4A0000020D1507047C0460405000010B5C37984
:10C4B000013B99420FDC0B005133C068FF339B00F6
:10C4C0001A508023C1225B028B4092008458234380
:10C4D0008350002010BD0148FCE7C04617FCFFFF59
:10C4E00030B5C379013B994211DCA825C0688B00A7
:10C4F000C318ED005C59A2185A518023C1225B0277
:10C500008B409200845823438350002030BD014863
:10C51000FCE7C04617FCFFFF10B5C379013B994209
:10C520000ADC8023C2225B028B40C06892008458E0
:10C5300023438350002010BD0048FCE717FCFFFF99
:10C54000092905D8A223C2680020DB00D15070471A
:10C550000048FCE717FCFFFF70B5040008201E49E7
:10C56000205604F0ABFB08216156002921DA03258F
:10C570000F23CAB213402A40AA40FC359540083B1D
:10C5800016489B089B001B18D869A8434025954076
:10C590002A000243DA6101221F230B401100C02050
:10C5A00099400F4B400019501960E36800201A6051
:10C5B00070BD0B4A8B089B009B180322FF26C025E9
:10C5C0000A40D2009640AD005859B04340269640EC
:10C5D000320002435A51DEE73DC4010000ED00E0A5
:10C5E00000E100E010B50024C371044B84800833DF
:10C5F00084710360C160027210BDC0468CAD020040
:10C6000010B50400054B083303601C300AF035FAFE
:10C61000200018300AF031FA200010BDCCAD020025
:10C62000FF23F0B52C4D8DB02B700023040069461C
:10C630000088009303F0F2FA002802D16B469B7841
:10C640002B70264E3368DB68002B07D1002320882F
:10C650001A0019000BF081FC0DB0F0BD2B78032BF4
:10C66000F4D81F4901A8FCF75BFD336801A9DE6817
:10C6700004A80AF064FA04A930000BF023FC002798
:10C68000060004A80AF0F9F9BE421ED031002022AB
:10C69000103104A80EF02EF93000FCF755FC297873
:10C6A00004ABC9005918082202A80EF023F920880B
:10C6B0000123082202A90BF050FC0137002804D105
:10C6C0002088084A0C210BF046FC01A80AF0D5F995
:10C6D000002FBBD0C0E7C046A8200020982700202C
:10C6E00037BB0200FFFF0000F0B5837991B0040072
:10C6F0005B071BD5FCF7D0FC00232269801A994107
:10C70000994203D1F423FF3398420FD9A06800283F
:10C7100008D0364B1D880CF0C8FD036815221B6A33
:10C72000290098470422A3799343A371A3799B0717
:10C7300059D52F4D2B68DB68002B50D02D4B1B7823
:10C74000032B4CD8294B2C491B8804A80193FCF7D8
:10C75000E7FC2B6804A9DE6808A80AF0F0F908A92C
:10C7600030000BF0AFFB070008A80AF086F902AB17
:10C770009E1D08233200338006A9073B01980BF069
:10C78000EEFB002F08D039002022103108A80EF04F
:10C79000B1F83800FCF7D8FB164B32881B7806A995
:10C7A000DE0008AB9E1930000EF095F8002813D07B
:10C7B000082206A930000EF09DF82B6804A9DD6858
:10C7C00005A80AF0BCF9202308AA05A928000BF047
:10C7D0007FFB05A80AF051F904A80AF04EF90222DD
:10C7E000A3799343A37111B0F0BDC0464A2A00203B
:10C7F00098270020A820002037BB0200F7B5089E2C
:10C800000500152922D8012007008F40244C27421B
:10C810001CD0E97FCC181F2C41DC69183418A142C8
:10C8200010D80021C8B2834204D9545C70188470B7
:10C830000131F7E732789A183270EA7F9B18EB776C
:10C8400000202CE00878C8540139E8E73478013C2E
:10C85000E4B2A34208D10023D9B28C42F0D9D05C13
:10C86000F11888700133F7E7EF7F0120FF183F1BB5
:10C870001F2F14DC0227A01C7F423618381B0190A2
:10C88000E87F2F18BE4204D23078019FF055013660
:10C89000F6E7041B023CEC7728000BF0AAFBFEBD78
:10C8A000FC002000F0B585B001930AAB1E880BABED
:10C8B0001B78451C02930EAB1B78040003930B7886
:10C8C000170003704B8A10224382013128000EF0BA
:10C8D00011F86B469B88268363836B461B7B00267F
:10C8E00023776B4601221B7A6761E683EB77A31CF3
:10C8F000DA770C9B0C256362230020000D9A283305
:10C900001A705E709E702A0031002C300EF00EF806
:10C910002000074BE663A3632A00310040300EF08D
:10C9200005F82000034B2665E36405B0F0BDC04662
:10C93000757F0200677F020070B50D000CF0B5FC3A
:10C9400004000368002D09D15B699847FA20800034
:10C950006843074904F032FFE08070BD9B68984748
:10C960008542F3D2236820009B6898470500EDE7D5
:10C9700071020000F0B507001600A1B002C7040064
:10C980006B4918A81D000BF07BFB331E03D0300051
:10C990000EF00CF883B2012204920022039202925C
:10C9A000023201920093320018A93800FFF77AFF93
:10C9B00023006049583318A807930BF061FB2B1E26
:10C9C00003D028000DF0F2FF83B20122049200226E
:10C9D000039202920232019200932A0018A907984A
:10C9E000FFF760FF23005449AC3318A808930BF0FD
:10C9F00047FB269B002B03D018000DF0D7FF83B216
:10CA000001220492002203920292023201920093C8
:10CA1000269A18A90898FFF745FF631CFF3347497A
:10CA200018A809930BF02CFB279B002B03D01800B0
:10CA30000DF0BCFF83B2012204920022601C03921D
:10CA40000292023201920093279A18A9FF30FFF751
:10CA500029FF23005533FF33394918A809930BF0F8
:10CA60000FFB289B002B03D018000DF09FFF83B213
:10CA70000122049200220392029202320192009358
:10CA8000289A18A90998FFF70DFF2300A933FF334F
:10CA90002C4918A80A930BF0F3FA299B002B03D01A
:10CAA00018000DF083FF83B201220492002218AD1A
:10CAB00003920292023201920093299A29000A9865
:10CAC000FFF7F0FE204B1B780B93002B2DD1079B1B
:10CAD00012971393089B0DAF1493631CFF331593A8
:10CAE000099B1A4916930A9B380017930BF0C8FA52
:10CAF0001D2149203B7810222B707B8A12AE6B825D
:10CB000006ABC918C0180DF0F5FE06232B756B4651
:10CB10009B8D2068AB83AE610CF0CBFB03682900D2
:10CB20001B6898470122084B1A70200021B0F0BD05
:10CB3000292A0000242A0000252A0000272A0000B4
:10CB4000262A0000282A0000A72A00200A18000030
:10CB500070B5002504000A4B858008338571036099
:10CB6000C1601830FCF716FB20001C30FCF712FBEC
:10CB7000044BA5601C60012365612000A37170BD9A
:10CB8000CCAD020098270020FA2130B585B0050011
:10CB900001230222890068460AF015F8074C206834
:10CBA000002809D00BF0A5FA2988054B22681980C6
:10CBB000022391790B43937105B030BD9827002073
:10CBC0004A2A002010B50C0007290DD880680CF007
:10CBD0006CFB064B195703685B6C9847431E9841E2
:10CBE000034B4042184010BD0248FCE72FBB020037
:10CBF00016FCFFFF17FCFFFFF0B5A44C0D00A54489
:10CC0000040007939AAB1B78A14909A804930692E4
:10CC1000FCF786FA200029001C3009F098FFC0209C
:10CC2000800001F02BFC0820FCF76EF906000021C3
:10CC300000F0E6FF15ADA66000210C220EA80DF055
:10CC400075FE2B000EAA83CA83C3924B2900EB60AA
:10CC5000002330002B610CF011FBA0680CF025FBC9
:10CC600008220021059016A80DF060FE1420FCF7A4
:10CC70004BF929000200884B1593C8C9C8C2874BDD
:10CC8000059EC3600023A43603613368002B00D0E7
:10CC9000F5E03060A0680CF00CFB082200210600D3
:10CCA00016A80DF043FE1420FCF72EF97C4B1593CB
:10CCB000030086CD86C37B4BC36000230361336BC7
:10CCC000002B00D0DDE03063A0680CF0EEFA082203
:10CCD0000021050016A80DF029FE1420FCF714F918
:10CCE000714B15AE1593030086CE86C36F4B9835F6
:10CCF000C360002303612B68002B00D0C3E02860D1
:10CD0000012504AB1B7C04AA2B4308A9280013743B
:10CD10000BF027F9A0680CF0D0FA036864495B6A4D
:10CD20009847A0680CF0C9FA036862499B69984764
:10CD3000A0680CF0C2FA00230268009316680499F8
:10CD40002A00B047049B002B0AD020000BF0DAF930
:10CD5000032805DDA0680CF0B0FA0368DB6898478B
:10CD60000EA80BF03DF92F2004ABC0180BF038F9DA
:10CD7000362004ABC0180BF033F93D20042504AB7A
:10CD8000C0180BF02DF90EAB0A93A06804AB5D77C9
:10CD90000CF093FA03680AA91B699847A0680CF085
:10CDA00084FA03680AA95B6D9847A0680CF07DFAC5
:10CDB00003680021DB6D9847A0680CF076FA0368E1
:10CDC00002219B6D984700212000FFF7FBFE1820F1
:10CDD000FCF79AF8A16800F005FA374B374A1B6850
:10CDE000A1680393364B15A81B6800260293354BA8
:10CDF0000CAF1B680193069B1B685B190093324BB9
:10CE000012681B68FFF7B6FD3020FCF77DF8079A23
:10CE1000A16800F0A7FAA0680CF047FA036839008F
:10CE20009B6A9847294BBE80A0680C930CF03DFA92
:10CE300003683900DB6A98472900A0680BF02CF9D9
:10CE4000099A09219378A06852190BF038F9A06863
:10CE50000CF02BFA32210671A068FFF76DFD04ABD0
:10CE60001B7FB34204D0A0680CF01FFA0BF0FEF851
:10CE700009A809F002FE95239B009D44F0BD0361C3
:10CE800007E703611FE7036139E7C046ACFDFFFF19
:10CE90002ABC0200837F020089CB0100917F02003F
:10CEA00021C601009F7F0200CD7F0200AD7F0200FE
:10CEB000D1CE010005CF010094270020902700204B
:10CEC000102000208C2700201420002008001000D3
:10CED00013B506226846FCF733F9094B1C68002C91
:10CEE0000AD0694601A809F02AFE200001A90BF02A
:10CEF0002AF901A809F0C1FD684609F0BEFD13BD7D
:10CF000098270020002373B501AE0C003100050006
:10CF1000019302F083FE002802D1B278064B1A700A
:10CF2000064B1868002806D061426141044BC9B223
:10CF30001D800BF010F973BDA82000209827002059
:10CF40004A2A0020F0B5040097B0039107A89C4935
:10CF50000592FCF7E5F89B4908A8FCF7E1F82200E8
:10CF60000FAD28001C3207A909F000FE08AA29000D
:10CF700009A809F0FBFD280009F07FFD92490AA8E5
:10CF8000FCF7CEF8A0680CF090F903680DAE5B6971
:10CF9000984728000BF024F8332004ABC0180BF09E
:10CFA0001FF83A2004ABC0180BF01AF8412004AB6C
:10CFB000C0180BF015F88023DB00B380A0680D9536
:10CFC0000CF073F9036831005B6D9847A0680CF0B2
:10CFD0006CF9036800219B6D9847A0680CF065F917
:10CFE0000700002506000A371F22002138000DF037
:10CFF0009DFCFD7730000BF030F80621A0680BF0A7
:10D000004BF8099A09219378A06804320BF057F87D
:10D01000A0680CF04AF9C8210571A068FFF78CFCE4
:10D02000A0680CF042F9FF272E000581A0680CF0E3
:10D030003CF90BF01BF80398FDF798F90AA90CA826
:10D0400009F07DFD78220CA90398FDF7E7FA0CA8FA
:10D0500009F013FD039920000BF090F82000FBF776
:10D0600079FD0495012563691D402DD057490BA812
:10D0700000F0C2FC0BA90CA80CF060F800220CA96F
:10D080001300019200920398FDF76CFA0CA80CF0C3
:10D0900048F8049B002B42D1043F282F41DD002596
:10D0A000FE2F00DC049D059809F02EFF002806D015
:10D0B000012362699A43130004221343636100262B
:10D0C0000BA80CF02EF8049504226369134233D0A8
:10D0D000FF210398C826FDF7C7FA0025B600A3690B
:10D0E00002229B5EAB4222DD200029B2183009F0FB
:10D0F00053FD0023010003981A00743000F0CCFCAB
:10D100003000FBF7BFFD03980AF01BF9C820FBF7BE
:10D11000B9FD02226369134209D10135DFE7043703
:10D12000BBE703980AF00DF9002FBCDDBAE7FA203F
:10D130008000FBF7A7FD0026022365691D421CD075
:10D1400006331D4024D022490BA800F055FC0BA942
:10D150000CA80BF0F3FF00220CA90192009213001F
:10D160000398FDF7FFF90CA80BF0DBFF1948FBF75C
:10D1700089FD0BA80BF0D5FF174E6420FBF782FD4D
:10D18000164B01369E4200DC6CE709F042FB69E772
:10D1900013490BA800F030FC0BA90CA80BF0CEFF34
:10D1A0002B002A000CA9019500950398FDF7DAF9E8
:10D1B0000CA80BF0B6FF0BA80BF0B3FFDDE7C046E1
:10D1C00043BB020053BB020055BB020063BB02001D
:10D1D000A8BB0200983A00008C0A00008B0A0000ED
:10D1E000E5BB02000022594BF0B50833060003608E
:10D1F0000F001000A9B0B1600BAB99180132487054
:10D20000102AFAD10F3A524C1A700E32105D991A48
:10D210000874013AFAD2997B5A7B09020A43310019
:10D220000C31039125211B7813AD2B7002ABC9186B
:10D23000452302A81B186A82180010220DF05AFB21
:10D24000039B64216B610123002402AA2B775218EF
:10D250001993093313701DAB1C706D2302AA9B1820
:10D260001C706E2321009B181EA80C22EC836C629C
:10D270001C700DF05BFB374B0C22210023A8AB6325
:10D28000EC630DF053FB344B02AAEB6446239B186E
:10D290000322DA7722002C650595347306AD2B192D
:10D2A00001345A70102CFAD101232C482B700E3304
:10D2B000195CEA1A1174013BFAD211212520AA7BCC
:10D2C0006B7B12020BAC13432A78638202ABC91842
:10D2D0002270C01810220DF00DFB0123237505AB41
:10D2E000A36100233800A3830BF0E3FF0368210050
:10D2F0001B68984713ABDB8BB068B3820BF0D9FF88
:10D30000002203680092B18A039ADC680123A047D7
:10D31000B0680BF0CEFF07001420FBF7F5FD0022EC
:10D32000012304000261069240C0083229000793DD
:10D330000DF0E0FA0A4BE360BB69002B03D130002B
:10D34000BC6129B0F0BD2361F9E7C046E4AD02003D
:10D3500056BC0200757F0200677F020066BC0200B7
:10D36000DD810200F0B500260400734BDDB0083308
:10D3700003608160C2608680867132006F4947A871
:10D380000AF0CCFF2300143301250427089312234D
:10D39000009704950193089A330047A903960296D3
:10D3A0001DA8FFF77FFA3200654947A80AF0B6FFCB
:10D3B0000C2322000097103215AF0495019347A962
:10D3C00033000396029632A8FFF76CFA32005D49EB
:10D3D00038000AF0A3FF20001C3009900422082026
:10D3E000330039000495019000920396099A029641
:10D3F00047A8FFF757FA3200534938000AF08EFF6A
:10D400005420FBF781FD0500200001231221042296
:10D410001830079004930191009239000200330004
:10D42000280003960296FFF73DFA2800474BA562B5
:10D430000822EC620AA930300A930B960DF05AFAD2
:10D44000434B0422AB63012329352B7009992661D4
:10D45000E66107980DF04EFA0422079908980DF03E
:10D4600049FA6621032304AA8918CB77BA2104AAB2
:10D470008918CB77872104AA49008918A26ACB773B
:10D48000911CA685CB771DAB0C9332AB0D930F92FD
:10D4900047AB32002F4910A80E930AF03FFF30210E
:10D4A000452004AB5B181B7812313B7004AB5B1852
:10D4B0001B8811397B8204ABC918C01810220DF0EB
:10D4C00019FA04220CADA0683A75BD61BE830BF059
:10D4D000F0FE036839001B689847822204AB9B1852
:10D4E0001B885432238404AB9B181B885432A384BA
:10D4F00004AB9B181B88A06863840BF0DAFE07005E
:10D500001420FBF701FD0500134B06610822109360
:10D51000119610A910C00DF0EDF9104BEB60BB692E
:10D52000B34206D1BD612000FBF714FB20005DB0C3
:10D53000F0BD2B61F6E7C046F0AD020096BC0200DC
:10D5400076BC020086BC0200A6BC0200EF8202008C
:10D550005B820200B6BC0200C9D5010085820200D0
:10D56000F0B504000E00150085B01F000CAB1B8841
:10D570001030019309F01DFB268065801820FBF711
:10D58000C3FC02AE050033000AAA03CA03C32F601E
:10D590002800082700213A000C300DF0C7F93A00A6
:10D5A0003100281D0DF0A6F9064B02226B61200008
:10D5B00000230199A5600A43E360A28023626362AD
:10D5C00005B0F0BDAF820200F0B50B898DB00593B8
:10D5D000CB68060004934B88828C9A420ED1049C3F
:10D5E000049B059A9B181B1B032B3BDD628821883B
:10D5F000012308A809F0E7FA0434F1E7428C9A42C3
:10D6000030D1049C049B059A9B181B1B032B29DD1E
:10D610002388282006936388F7680793124B0893A2
:10D6200000230993FBF770FCC0236A4605000293B0
:10D6300008AB03CB03C233000699079A2800FFF713
:10D640008FFF3B6829005B6838009847002807D0A7
:10D65000002D05D0280009F0C6F92800FBF774FC5E
:10D660000434CFE70DB0F0BD6D83020070B5040047
:10D6700090B080680AF075FE022101401AD1A38D96
:10D68000002B17D00C4B6A4604931023E568A18544
:10D690000591029304AB41CB41C20A00230006A8C6
:10D6A000FFF75EFF2B6806A99B682800984706A82D
:10D6B00009F099F910B070BD6D830200002815D0F3
:10D6C000006041608260C360046145618661C7613A
:10D6D000444604624C464462544684625C46C462DA
:10D6E000644604636E46466374468463002A06D02B
:10D6F000C46B043C043A25681560B442F9D18C6BC4
:10D70000A6464E6BB546002B06D0CC6B043C043BC2
:10D710001D682560B442F9D10C6BA446CC6AA346BF
:10D720008C6AA2464C6AA1460C6AA046CF698E69F3
:10D730004D690C69CB688A68086849687047006061
:10D7400041608260C360046145618661C76144468F
:10D7500004624C464462544684625C46C462644639
:10D7600004636E46466374468463C46B043C0439A8
:10D7700025680D60B442F9D1C769866945690469B5
:10D780007047006041608260C360046145618661EA
:10D79000C761444604624C464462544684625C4617
:10D7A000C462644604636C464463744684630469DB
:10D7B0007047846BA646446BA546046BA446C46AB6
:10D7C000A346846AA246446AA146046AA046C76981
:10D7D000866945690469C368826800684168704762
:10D7E00010B5041E0CD00DF0E1F8431EE3189C4266
:10D7F00008D222781978013B21705A700134F6E77B
:10D80000014810BD0020FCE717FCFFFFF0B585B014
:10D8100002900C1E2AD00023C217161A56400193FC
:10D82000019B30005D1C63190A215F1E039304F005
:10D8300035F949423031397030000A2104F048F896
:10D8400047420600002F0FD1029B002B04DA2D2344
:10D85000019D039A02351370002320006355FFF7E2
:10D86000BFFF380005B0F0BD0195D9E7004FF8E7DC
:10D8700017FCFFFF07B50AF0E4FD002809D0037884
:10D880009B0706D5411C042201A80DF033F801982E
:10D890000EBD0148FCE7C04617FCFFFF10B58260D3
:10D8A0004A4304004160002A0ADD074B90009A4277
:10D8B00001DD01204042FBF727FB2060200010BD66
:10D8C00000230360FAE7C046FEFFFF1F4A688B682B
:10D8D00070B58360534304000D004260002B12DDDD
:10D8E0000A4A9E003000934201DD01204042FBF7CE
:10D8F0000BFB002320602A68D158C15004339E429C
:10D90000FAD1200070BD00230360FAE7FEFFFF1F7D
:10D91000014B03607047C04608AE020030B5006896
:10D920004488A1420CDA8588AA4209DA002907DB7B
:10D93000002A05DB5443401800198371002030BDD4
:10D940000048FCE717FCFFFFF0B5070085B00E00AC
:10D950001D00002921DD002A1FDD002B1DD00468D9
:10D96000638803938B4200DD0391A3880293934263
:10D9700000DD0292002306340193019B029A934238
:10D980000EDA29002000039A0CF0B4FF3B68AD19B1
:10D990005B88E418019B0133EEE7024805B0F0BD57
:10D9A0000020FBE717FCFFFFF8B504000D00160090
:10D9B0001F00002901DB002A02DA0E4B2360F8BDAC
:10D9C000100048430630FBF79FFA206009F049F940
:10D9D00023685D8023689E80002F06D03B003200C4
:10D9E00029002000FFF7B0FFE9E720000BF0AEFBB5
:10D9F000E5E7C04608AE0200F7B506000D1E03D1EC
:10DA0000244B03603000FEBD00200F000400010025
:10DA100001903B78002B1AD03022524294469C440D
:10DA20006246092A11D90A2B0AD1019B2418013315
:10DA30000193A14200DA2100002004000137E8E749
:10DA40000028FBD001340020F8E70120F6E76A4601
:10DA50000127928809B212B230007F42FFF7A4FF7B
:10DA600039000A2033689A1D2C78002CCAD0230074
:10DA7000303B092B08D8FB43DB173B4043431B19C2
:10DA8000303B1F000135EFE7002FFBDB1770013241
:10DA90000F00F7E708AE0200F0B5040089B006A851
:10DAA0000E0002921D00FBF7B9F9236802995A880B
:10DAB000914235DA9B889D4232DA1F2E30D9079B7E
:10DAC00001939E422CDC0523002273430393069BA3
:10DAD0000493039B04999B18A03BCB5C0021059306
