:020000021000EC
:1080000000400020E90B0200250C0200270C0200B2
:108010000000000000000000000000000000000060
:10802000000000000000000000000000290C020019
:1080300000000000000000002B0C02002D0C0200CC
:108040002F0C02001DB20100411202002F0C020091
:108050002F0C020000000000610C02002F0C020037
:10806000F9C20100C5140200C91002002F0C020061
:108070002F0C02002F0C02002F0C02002F0C02000C
:108080002F0C02002F0C02002F0C02002F0C0200FC
:108090002F0C0200E5EE0100790902002F0C02000E
:1080A0002F0C02002F0C0200000000000000000056
:1080B00000000000000000000000000000000000C0
:1080C00010B5064C2378002B07D1054B002B02D0AE
:1080D000044800E000BF0123237010BDD820002019
:1080E000000000008CBD0200044B10B5002B03D033
:1080F0000349044800E000BF10BDC0460000000076
:10810000DC2000208CBD0200164B002B00D1144B4C
:108110009D46402292029A1A924600218B460F46B3
:108120001348144A121A12F00EFC0F4B002B00D009
:1081300098470E4B002B00D09847002000210400E8
:108140000D000D48002802D00C4800E000BF0DF0E3
:108150006BFD2000290012F0B2F90DF04FFDC04672
:1081600000000800004000200000000000000000A7
:10817000D02000201C2B0020000000000000000088
:1081800010B50400034B036040300EF002FC2000E9
:1081900010BDC04698AB020007B5094B01A819787D
:1081A0000131C9B219700EF01EFCC82201A952009B
:1081B000044802F0B3F901A80EF0EBFB07BDC0467E
:1081C000AA200020B422002013B5124800F06CF958
:1081D000114803F0A9F9114B01A8196800F0B0FF8C
:1081E0000F4C782201A9200002F028FA01A80EF015
:1081F000D0FB0C4B01A8196800F0A2FF782201A95E
:10820000200002F01BFA01A80EF0C3FB00F0C2FD33
:10821000002016BDC8210020A42500201020002029
:10822000B42200200C20002010B5084C200000F0E3
:108230006BF8074A0749200012F02BFB064B074A50
:108240000749084803F052FB10BDC046C821002072
:10825000002000206982010098220020CC2100200B
:10826000A4250020F4200020EB23194A9B0010B520
:10827000C2501C330400C0180EF08BFBF1239B008E
:10828000E0180EF086FB84239B00E01801F0C0FA92
:108290002000C530FF3000F0DFFF20008D30FF30C0
:1082A00001F07CFA20006530FF3001F077FA200001
:1082B000EC3001F04FFF2000D03002F025FB200011
:1082C000643008F0E1FB201DFFF75AFF200010BDCD
:1082D000ECAD020070B50B4C0500005900280ED023
:1082E00005F032FC836D9B0709D5285910F0EAFF91
:1082F000036813215B6A9847642012F0DAF90EF0E4
:1083000014FA70BD640400001423F0B5040095B0A5
:10831000009319221821043003F0E0FC220025000C
:1083200026006432B435132110001192B83608F0DB
:10833000B7FB28000FF07FFD00221E2130000EF059
:1083400091FF2000D03002F0FFFA2200EC321292AE
:108350000621504A129801F021FF20000027012336
:1083600065301A0000971121FF3001F023FA200038
:108370008D300097012302221A21FF3001F01AFAF2
:108380002000B5301A2302220121FF3002F09AFBAF
:108390002200C532FF321092310004233A22109895
:1083A00001F00AF884229200A218139205231D22DC
:1083B000019300922B00109A3100139801F01EFCDB
:1083C00096218900129B6018109A139901F0F0FD14
:1083D0009921890060181C22290003F095FE1923B9
:1083E0009F210F93013B0E93013B0D93013B0C9397
:1083F000013B0B93013B0A93013B0993013B08931B
:10840000013B0793013B0693013B0593013B04931A
:10841000013B0393013B0293013B01938900013B24
:10842000601800930822013B07210EF023FFEB2385
:108430009B00E018290004F0E9FAF3239B00E518FB
:10844000082204231449280004F02AF8F7231D22E7
:108450009B00E01800923B003A00290002F090FBDC
:108460000E4B1198E7500321277011F037FF2300BE
:10847000220020000A499C33A0321C601160576022
:10848000084A80305A610221012208F09BFC20003A
:1084900015B0F0BDA0AB02000080004064040000F5
:1084A000D5820100376602000123F0B506788DB051
:1084B00004001E4000D0A3E0FD20800500F0FCFC7D
:1084C0002300D0331800029300F0D0FA00F0C6F970
:1084D000282000F029FD050010300EF0F6FA494B77
:1084E00018202B6000F020FD0700474B0460082295
:1084F00031000C300A930B9612F025FA0AA9381DA8
:10850000082212F004FA414B29007B611223AF606C
:10851000EE60AB802E626E62029802F08DF9002848
:1085200005D028000EF0EBF9280000F01DFD012316
:10853000227864201343237000F0B4FB0025270049
:108540006537FF3738000EF06BFC002854D0200050
:108550008D30FF300EF064FC00284DD00A2D4BD03A
:108560006420013500F09EFB0A2DE8D128492948F6
:1085700000F078FCEB23284E9B00E3180393A359EB
:10858000002B32D100F058F8010006A800F0D8FD09
:108590000EF0C7F804900EF0C4F86B460590198AE7
:1085A00008A80EF013FA059B09A8190C0EF00EFA94
:1085B00009AA08A907A80EF065FA09A80EF0E9F9BA
:1085C00008A80EF0E6F9012307AA06A9009303986C
:1085D000029B04F06FFA07A80EF0DBF906A80EF074
:1085E000D8F9ED239B00E358A35121003A00EC3168
:1085F000039804F005FCA2E70549084800F032FCA6
:108600000DB0F0BDFD0300008D6602004D66020056
:1086100000200020001C002064040000080000204E
:10862000BFF34F8F024B034ADA60BFF34F8FFEE771
:1086300000ED00E00400FA05F0B58DB005AF192299
:108640001549380012F063F90022144B05245A71C1
:1086500080225205566E0122250001940292039356
:108660000199300009F0BEF80800029909F034F8C9
:10867000019B03996B430193029B361A6B43029350
:10868000631E2C1B6C433C19225C1C1ECA54E7D190
:1086900008000DB0F0BDC0463EB80200462A0020DA
:1086A000F0B597B018220021060010A812F04BF97F
:1086B000132110A811F06EFF032110A812F000F88A
:1086C0004C4B1B68002B00D10133DBB202934A4AAA
:1086D000012300210BA808F0E3FC484B9E4200D97F
:1086E000002672B6464B64211D68464B3000079346
:1086F000052409F07BF860435030281808900A21BF
:10870000300009F073F80A2109F056F9614350313D
:108710006918099130000A2109F04EF9802361435C
:108720000024503169189B010A910193029B002B90
:108730005DD0002500272E1F07AB9B190593032C46
:1087400003D1802300249B01019307AB5B592E4A80
:1087500003936300D31804930023190006205843A1
:10876000049A16187678B4466246039EB25C1026C8
:108770009446049A105C62460641164202D00120DB
:10878000984001430133092BE8D1C9431F4B059A97
:10879000090119401268039B934225D1312F23DC34
:1087A00000210BA812F045F8FA23159A1199DB0065
:1087B000106801421BD0013B002BF9D1019B013411
:1087C0005B000193FA230137E4B25B009F42B6D10C
:1087D0000435102DAED1074B1B68002BA6D0029F8D
:1087E000013FFBB20293A1E7019B1943D9E7FFF7D1
:1087F00017FFC04634260020F0FF0000E70300000A
:10880000042000208DB8020057B80200F01F0000BD
:10881000F0B500281BDD0F4C421E27681100002018
:10882000BE09FB0F73407B403E097D087340BF08C3
:108830007B406B40DB072B4301251F0040002B4092
:108840001843E940ECD18242E8D32760F0BD0248EA
:10885000FCE7C0463026002017FCFFFFF8B50023D8
:10886000124C23600DF04FFF002808D00421200097
:108870000DF045FF002801D00D4B2360F8BD01220B
:10888000A12704250B4B0C491A602268FF004860A1
:108890004E68002EFCD0DE591202013D3243002DFD
:1088A000F5D1226001225A60E8E7C0463026002058
:1088B000ED5EBC0B00D00040FCD00040F0B585B0B0
:1088C0001F000AAB1B880600029115000393002FBE
:1088D0001CD0282000F028FB6B4604001989039B5C
:1088E000AAB200933B000DF0F3FF336821005B68F0
:1088F0003000984700280AD0002C05D020000DF049
:10890000FEFF200000F030FB024800E0024805B006
:10891000F0BDC04616FCFFFF17FCFFFF0B4B70B508
:108920001C68002C10D0656D00F0C6FBA36C0029FC
:1089300001D1834206D820000DF018FF0449200021
:108940000DF002FF2C00ECE770BDC0463C26002075
:108950005C260020F0B593B007932A4B04AC1E6848
:10896000049005910692002E4AD0274B25886788EF
:108970001C6800230293002C2ED0636D23480393C0
:10898000A36C9AB2A36C1B0C99B2854214D12048F7
:10899000824211D1002B01D0B9420BD1029B002B96
:1089A00008D120000DF0E2FE1A4920000DF0CCFEA7
:1089B00001230293039CDEE7002A01D09542F9D1FE
:1089C000002B01D0B942F5D120000DF0CFFE1149A6
:1089D00020000DF0B9FEEDE70F4BEB18012B0FD97E
:1089E00010233A00009329000C4B08A80DF070FFEB
:1089F000336808A99B683000984708A80DF07FFFEE
:108A000013B0F0BD3826002068260020FE030000C9
:108A1000FF0300005C26002002FCFFFF55890100D7
:108A200010B572B60B4B1C68002C08D020000DF05E
:108A30009DFE0023E364084B2000E36310BD62B693
:108A40005C2000F071FA5C220021040011F07BFF31
:108A5000EFE7C0466026002000400020024B187857
:108A6000012318407047C0464C2A0020F7B5060085
:108A7000FFF7F4FF051E33D11A4C2660FFF7D0FF35
:108A8000194B1A4918600DF05FFEFFF7C9FF184B2C
:108A90001860184B4363184B8363206800280ED07E
:108AA000C027164E2A00330015490097FFF706FF2E
:108AB000009733002A0013492068FFF7FFFE0C20BF
:108AC00000F032FA0023838083710F4B03600F4B59
:108AD000836000F009FB01230D4A11780B431370EA
:108AE000F7BDC046382600206C2600205C260020FA
:108AF00064260020FC3F00203368020055890100F5
:108B0000FF030000FE030000C0AB02001D8901004E
:108B10004C2A0020F7B506000D001700019300282D
:108B200002D100242000FEBD0029FAD0FFF778FF13
:108B3000041EF6D0074B019A4363066045608760C8
:108B4000054B002A00D0054BA363054920000DF01A
:108B5000FBFDE7E7FC3F0020FD6702001B68020009
:108B60005C260020024B1868434258417047C046BB
:108B70005C260020002310B504499C006258002A9E
:108B800001D00133F9E76050100010BD44260020E9
:108B9000002310B5044A99008C58844201D0013357
:108BA000F9E70020885010BD4426002010B50024AD
:108BB000084BA200D058002802D003685B68984791
:108BC0000134062CF4D1044B1B68002B00D120BFCC
:108BD00010BDC046442600205C260020F8B5FFF7F3
:108BE0003DFF00281BD0294D2C68E36CDA0717D510
:108BF00002263343E3640423254F3868C26C1343D1
:108C0000C364636BC3630DF0D7FD3868416C04F037
:108C1000F4FC2868C36C334201D004F028FDF8BD91
:108C20001C4F1D4E3A683168002A1ED129602A68FF
:108C30008A4208D11B0706D52C60FFF7B7FF3B68B7
:108C4000002BFAD02B6029688C42E8D03368994217
:108C500014D1124B4B63124B8B6320000DF0ACFD13
:108C60002968626C4B6C20000DE0206DB84203D186
:108C7000606D002800D002002A60D8E79C42ECD149
:108C8000002210004B6C04F077FCC8E76C26002033
:108C9000402600205C26002064260020FC3F0020A7
:108CA0003368020070B50500FFF7D8FE002803D135
:108CB000280011F0FEFC70BD0C4B1C68E36CDB0758
:108CC00006D5FFF7ADFE0A4B1860002800D004005F
:108CD00000F0F2F92D18A56420000DF047FD0549BC
:108CE00020000DF031FDFFF779FFE4E76C2600204E
:108CF000402600203C260020F0B51E4B1E4F1C686D
:108D00003B6885B006000391002B30D0FFF7A6FE2C
:108D100000282CD0E36CDB070ED5FFF781FE174B44
:108D2000051E186008D00DF021FD154928000DF032
:108D30000BFD2C00FFF752FF039B20001B04334365
:108D4000A3640DF013FD20000E490DF0FDFC0E4B49
:108D50000024F318012B07D9C0230093039A0B4B6F
:108D600031003868FFF7AAFD200005B0F0BD084CBF
:108D7000FAE7C0466C260020382600204026002056
:108D80005C2600206826002002FCFFFF55890100B8
:108D900016FCFFFF10B5FFF761FE002809D0054C57
:108DA00020680DF0E3FC044920680DF0CDFCFFF7CE
:108DB00015FF10BD6C26002060260020F7B50700C7
:108DC0000D0000282ED0FFF749FE00282CD00724E4
:108DD000164E3068C36C1C4007D0154A2900380075
:108DE0000DF0DBFC00242000FEBD04F028FC022175
:108DF0003268D36C1940019103D003218B43D364B3
:108E0000F1E701242343D3642800B8473268D36CC8
:108E10001900A143D164019C5B07E4D528000DF043
:108E2000F4FCE0E7034CDEE7034CDCE76C260020B3
:108E30000B68020017FCFFFF16FCFFFF020010B5D5
:108E4000014B12CB12C210BD70260020034B1A68D2
:108E5000034B1A607E225A607047C04604200020EF
:108E60007026002070B5104D2B78022B18D081424F
:108E700018D90B1A072B15D90C00032304431C40E7
:108E800010D172B62A78094BD200D05098184160A0
:108E90000DF0D5FC2B7801332B7062B6200070BD2D
:108EA0000348FCE70348FAE74D2A00207826002013
:108EB00013FCFFFF17FCFFFF70B50021041C08F036
:108EC0009DFD002828D1FE21201C890508F0A0FD69
:108ED000002821D104300CF0CBFE05000F48401BC8
:108EE00009F076FD211C09F013FA08F0C5FD0323F3
:108EF0009843040028000CF0C5FE20000CF0B8FEDA
:108F0000002804D1203C002CF7D1054803E00119CA
:108F1000FFF7A8FF002070BD0248FCE700380020E2
:108F200013FCFFFF17FCFFFF70B5060000250C4B7C
:108F30001B78AB4209DD0B49EB00C91830000DF07E
:108F400086FC041E09D10135F1E730000CF090FEDB
:108F5000041E02D11420FFF7A3FB200070BDC04601
:108F60004D2A00207826002070B5002813D00D4B24
:108F70000D491C7800239C4210DDDA0055588542CB
:108F80000AD28A185268824206D9802304380268BD
:108F90001B061343036070BD0133ECE70CF072FE57
:108FA000F9E7C0464D2A00207826002070B5051E3E
:108FB00014DD0B4E0B4C3368002B02D0206811F0EF
:108FC00003FAFA2120680024074B89008361C462F8
:108FD0006943356011F000FA200070BD0348FCE7DA
:108FE00088260020B82600209590010017FCFFFF7E
:108FF000F8B5114F06003D68002D0AD13020FFF76B
:1090000093FF040007F0A6FD0C4BA5612360E56209
:109010003C600B4D2B68002B09D11020FFF784FF1B
:10902000040011F025FA20002C6011F0FBF930004B
:10903000FFF7BCFFF8BDC046B82600209CB1020077
:10904000B4260020014B18687047C04688260020CF
:1090500070B50D4C2368002B03D00C4B1B68002B04
:1090600002D10620FFF7C4FF206811F0F2F90200D8
:109070000749C3170D684E685219734120680A608A
:109080004B6011F0ECF970BDB4260020B82600202A
:10909000D020002010B5FFF7DBFF0024054BA20015
:1090A000D058002802D003681B68984701340A2C66
:1090B000F4D110BD8C26002010B5FFF7C9FFFA22AD
:1090C000034B920018685968002308F0B5FC10BDE6
:1090D000D020002010B5FFF7BBFF024B186859687D
:1090E00010BDC046D02000200B4B10B51B680400FB
:1090F000002B03D0094B1B68002B02D10620FFF781
:1091000077FF0023064A99008858002801D00133D0
:10911000F9E78C5010BDC046B4260020B8260020C8
:109120008C260020002310B5044A99008C588442F4
:1091300001D00133F9E70020885010BD8C260020B3
:1091400010B50400002902D00B78002B03D1034B8B
:109150002360200010BD0DF023FCFAE7D0AB020025
:10916000F8B504000E00150000290AD00B78002B7A
:1091700007D0002A05D0080097B211F024FC8742DE
:1091800003D90B4B23602000F8BD681DFFF7CCFE10
:1091900020600DF0F2FC23682A005F802368310014
:1091A000181D11F0B4FB23685D1900232B71EAE749
:1091B000D0AB0200014B03607047C046D0AB020049
:1091C00010B50548054C20600DF0DAFC044A05494D
:1091D000200011F05EFB10BDD0AB0200BC260020C9
:1091E0000020002093690200084B73B51C6805003D
:1091F000002C0AD00100266808310822684611F0C8
:1092000086FB0CCD31682000884773BDC026002046
:1092100010B5054C012120000DF0A6FC034A0449BD
:10922000200011F036FB10BDC426002000200020D5
:10923000256B02000388074A10B50120934208D02D
:10924000834202D00020DB0703D41E20FFF728FA58
:10925000002010BDFFFF000010B50400034B0833D1
:109260000360FFF795FC200010BDC04618AC02005B
:10927000FA2270B5438992005343314A31491400B0
:10928000050038348B421BDC2F498B4218D82F49FC
:10929000083C8B4214D82E49083C8B4210D82D49EB
:1092A000083C8B420CD82C49083C8B4208D82B49EF
:1092B000083C8B4204D82A4914008B4200D9083458
:1092C000284B2A7B1E1D042A03D89E1C022A00D884
:1092D0001E00FA212068890008F0FEF933786881C1
:1092E0002B7300222A2128000DF06EFC002801D0EB
:1092F0001D4870BD10222B2128000DF065FC0028B0
:10930000F6D101222D2128000DF05EFC0028EFD1BE
:1093100001222E2128000DF057FC0028E8D1727898
:109320000E2128000DF050FC0028E1D10122237904
:109330002A211A4328000DF047FC0028D9D0D7E78E
:10934000D8AB020000C4090000710200803801009F
:10935000204E00001027000088130000C409000000
:10936000E20400006DBA02000EFCFFFF7FB515009D
:109370000F226A4404001E001170002D16D0002B2D
:1093800014DD012301890093006B01F0D1F900285D
:1093900002D0074804B070BD0090218933002A0034
:1093A000206B01F07BF90028F4D0F2E70148F1E7E7
:1093B0000EFCFFFF17FCFFFFF7B506000025019329
:1093C0001E4B143608330400036085808571C58107
:1093D000058245820F00009229001822300011F00A
:1093E000B2FA1C21300011F0D5F86B469B8802219F
:1093F000A3806B461B88220023811423A57121734F
:10940000A563A58763813E32137827638B43F131CF
:109410000B4013702300957295810135221DD5876D
:109420000833A21DD5872000DD87FFF721FF002824
:1094300002D1A3791D43A5712000FEBD18AC020026
:1094400030B50425837987B004002B4204D1FFF79F
:1094500091FBA3791D43A571A36AA2691B6800252E
:109460001A4208D106236A4601212000FFF77EFF39
:10947000051E03D0114D280007B030BD6B460222F7
:10948000042069469A561856237BD2005A432282FA
:1094900002220978C00049B2C9005943434363829C
:1094A000A379E1819343A37120000DF09BFB01237D
:1094B000A1881A0002A80DF012FBDCE70EFCFFFFEA
:1094C000F8B50400FFF7BCFF0E22A35E794F5B42A4
:1094D000BB4251DA23003E331B789B074CD5012554
:1094E000210028003E310B785A08904302000220E8
:1094F000AA40834313430B702000FFF7A1FF102203
:10950000A35E5B42BB4248DA23003E331B785B0715
:1095100043D50125210028003E310B789A0890435D
:1095200082000420834313430B7026002000FFF7C2
:1095300087FF1222A35E4836BB423EDA23003E3349
:109540001B781B0739D5210001223E310B78D80842
:1095500082430820D200834313430B703378032BDC
:109560003BD80133DBB23370012B00D08DE02300F8
:1095700000224A331A8030E02000FFF761FF0E22FC
:10958000A35EC8225B42520000259342B4DD230053
:109590003E331B789B07A2D5AEE72000FFF750FFB4
:1095A0001022A35EC8225B4252009342BDDD23001D
:1095B0003E331B785B07ACD5B7E72000FFF740FFD1
:1095C000C8231221625E5B009A4204DD23003E3311
:1095D0001B781B07B7D5002DC0D13278002A14D0D4
:1095E0002100270001254A310B883E3701339BB209
:1095F0000B803878AC46054055D01D2B05D9634605
:109600009843002338700B80337020000DF056FB18
:10961000294A0723904244DD2000FFF711FF0E2363
:10962000E25E264E52420323B2423ADBC8252000B6
:10963000FFF706FF0E23E25EAD0052420423AA426A
:109640002FDC2000FFF7FCFE1023E25E02235242D3
:10965000B24226DB2000FFF7F3FE1023E25E012377
:109660005242AA421DDC2000FFF7EAFE1223E25E0E
:109670000523B24215DB2000FFF7E2FE1223E25E73
:109680000623AA420DDC00230BE0042BA5D1220007
:109690003E321178033B0B43137000234A3423807E
:1096A0000B331800F8BD092BAFD9013A0D80327089
:1096B000ABE7C04670FEFFFFFF700200E0FCFFFF5B
:1096C00070B5C369C1681A68451D8AB00400EB7F94
:1096D000114255D0002B58D1EB7F082B0DD9012218
:1096E000A379134209D11343A371A188130006A8DB
:1096F0000DF0F5F9FFF7E0FC2062EB7F012B23D89A
:109700000123A2791A421FD00025A188A571022247
:1097100002A80DF0E4F9A31DDE7F012E14D1FFF79E
:10972000CBFC2B00226A801A994100900191019B89
:10973000A188AB4203D1174B009A9A4227D9012343
:10974000042206A80DF0CBF90322A3791340012BC4
:1097500014D1FFF7B1FC0023226A801A9941994283
:1097600002D10D4B984209D90223A279A188134353
:10977000A3710522012306A80DF0B1F90AB070BD4E
:109780000B2BA9D80133EB77A6E7013BFBE73300AE
:109790000322D6E7E7030000DB05000010B5040054
:1097A000034B08330360FFF7BDFC200010BDC0462B
:1097B00030AC0200F0B5070000250E0085B0029322
:1097C0000AAB1B7808370393104B0400083303607F
:1097D00001928580857129001822380011F0B3F8B4
:1097E000039A3100380010F0DAFE6B466A469B8817
:1097F000127AA380A31DE671DA77631D256220002B
:10980000DD77FFF771FC200005B0F0BD30AC020041
:1098100010B50400034B08330360FFF7B9F92000CB
:1098200010BDC046A0AC02007FB515000F226A44EF
:1098300004001E001170002D16D0002B14DD012332
:1098400001890093C06B00F073FF002802D0074825
:1098500004B070BD0090218933002A00E06B00F055
:109860001DFF0028F4D0F2E70148F1E70EFCFFFFEE
:1098700017FCFFFF002330B585B003AC21700189D0
:109880000093050001332200C06B00F051FF002857
:1098900002D0094805B030BD2080298900900223FC
:1098A0002200E86B00F0FAFE0028F2D123786078FD
:1098B0001B02184300B2EDE70EFCFFFF13B56B4629
:1098C000DC1D0023220023700133FFF7ADFF0028C9
:1098D00001D1207816BD0148FCE7C0460EFCFFFF11
:1098E000D0B504000DF0C4FAE268A369981A0AF032
:1098F000BDFC06000F002369E069C01A0AF0B6FC3F
:1099000032003B000BF000F80022104B09F0BEFEC5
:109910000F4A104B09F0B8FB0AF034FD0021041C7B
:1099200008F062F8002804D0201C0B4908F07EF9EA
:10993000041C201C0AF0D4FC02000B000020074984
:109940000AF016F90AF05CFCD0BDC0460080664003
:10995000EA2E4454FB2109400000B44300807640C5
:10996000F0B5050085B0006C0DF045FA061C286CBA
:109970000DF038FA0221071C28000DF0AAFA022186
:10998000039028000DF0B7FA08F0D8FF0221041C5C
:1099900028000DF0C2FA08F0D1FF051C301C0AF0B7
:1099A00075FF0290301C0AF033FF0190381C0AF05A
:1099B0006DFF061C381C0AF02BFF071C039808F0EB
:1099C000BDFF391C08F0A4FC311C071C201C08F04A
:1099D0009FFC029908F09CFC011C381C08F026F939
:1099E000311C071C281C08F093FC019908F090FC1E
:1099F000011C381C08F01AF90299061C281C08F0F2
:109A000087FC0199051C201C08F082FC011C281C05
:109A100008F0B0FD311C0AF07BFF0D4908F078FC1E
:109A20000AF05EFC0B4A0C4B09F02EFB0AF0AAFC74
:109A30000021041C07F0D8FF002804D0201C044992
:109A400008F0F4F8041C201C08F058FF05B0F0BD25
:109A50000000B443EA2E4454FB21194070B50022A3
:109A6000102104000DF0F6F91B4D00282DD103261E
:109A700008212000FFF722FFA84226D0304226D13D
:109A8000FA216389890059435023144AD518D058C4
:109A9000884204D3D518083B18000830F7D1FA21C2
:109AA0002868890007F018FEA0226081112120009B
:109AB0000DF0D0F9002808D101222B7910211A438A
:109AC00020000DF0C7F9002800D0034870BD6420C5
:109AD000FFF7E8F8CCE7C0460EFCFFFF48AC0200F9
:109AE0007FB50425837904002B4218D102260DF09E
:109AF000BFF9A379A188B3432B43A37106220123A5
:109B000068460CF0ECFFA07903003040AB43A37132
:109B100043425841034B4042184004B070BD0248D4
:109B2000FBE7C04614FCFFFF15FCFFFF10B583796F
:109B300004005A070DD49B0701D4FFF7D1FF236C13
:109B40002000002B02D0FFF70BFF10BDFFF7C8FE6F
:109B5000FBE70148F9E7C04615FCFFFF70B5466C0E
:109B600086B001AC050001916260A360002E0CD0AC
:109B70000B4905A8FFF7E4FA0C23220005A93000E1
:109B80000EF098F905A80CF004FF2B000C3307CC5D
:109B900007C30223AA791343AB7106B070BDC04658
:109BA00073BA0200642330B504000281438185B09A
:109BB0008180FFF753FF0222A379606C9343A37166
:109BC000002813D00C490EF03CF9051E0ED0010000
:109BD0000C22103101A810F09AFE20000199029A7F
:109BE000039BFFF7BBFF2800FFF7BEF90123A27913
:109BF0001343A37105B030BD73BA0200F7B50093EB
:109C000008AB1B880400019309AB1D8800230F00DB
:109C100016000D4A8380083283710260C3600361BD
:109C200043618361C36103621D2124300DF005F996
:109C3000009BE7632664290020006364019AFFF714
:109C4000B1FF2000FEBDC046A0AC020082B0F0B55E
:109C50000400A5B064202B932A9210F02AFD042260
:109C60000C2109A803F0A8FD2422CC491BA810F060
:109C70004EFE052206A811000FF07EFAC84907A87B
:109C800003F048FEA06800F081FBA568C54918A84C
:109C9000FFF756FA782218A9280000F0A5FC18A8AA
:109CA0000CF077FE6E256420013D10F002FD002DC2
:109CB000F9D1A06800F06AFBA0680DF0CEFA01218E
:109CC00060680DF00FF80121070060680DF01DF8C5
:109CD00006000A2010F0EDFC0022B34B03929F42D5
:109CE00010DB013203923A00C8320BDBC822042198
:109CF00092000391974205DC03220392C82F01DCF6
:109D0000013A039200279E420CDB33000137C8332F
:109D100008DBC82303379B009E4203DC013FC82EAB
:109D200000DC013F06A80FF01EFA00260323734350
:109D30001BA9CA189078002805D0C95C5278FF2367
:109D400006A803F079FD01360C2EEFD16B463AB22E
:109D50000C21595E06A8FF2303F06EFD0023A068C6
:109D600000931A00743006A90FF00DFA0023049333
:109D70000323049A039853431BAA995C814237D169
:109D8000D31805935B78BB4232D1059B9E78002E99
:109D90002ED1310020680DF09CF808F0CFFD320084
:109DA000031C290009A80EF0A2FB310020680DF069
:109DB000A2F808F0C3FD0122031C290009A80EF037
:109DC00096FB310020680DF0A8F808F0B7FD2900D7
:109DD000031C022209A80EF08AFBFE2303229B0526
:109DE000290009A80EF083FB0123059AED18937052
:109DF000049B013304930C2BBAD1642010F059FC5E
:109E00000B2D00DC5BE709A80EF05DFB01220100D1
:109E10000CA803F0D1FC002509A80EF054FBA842C1
:109E20003CDD2900002209A80EF04FFB0022061C91
:109E3000290009A80EF049FB011C301C08F068FA43
:109E40002900061C012209A80EF03FFB0122071C75
:109E5000290009A80EF039FB011C381C08F058FA3B
:109E6000311C07F0E3FE2900061C022209A80EF0AF
:109E70002CFB02222900071C09A80EF026FB011C5E
:109E8000381C08F045FA311C07F0D0FE2900031CED
:109E900000220CA80EF02BFB0135BDE709AA11002A
:109EA000012318A80EF03DFB18A90FA80EF096FB91
:109EB00018A80EF02DFB0CAA09A912A801230EF078
:109EC00030FB002312AA0FA915A80EF02AFB0022CE
:109ED00015A811000EF0F9FA0022061C012115A8A0
:109EE0000EF0F3FA0022051C022115A80EF0EDFA7F
:109EF000FC21071C8905301C08F00AFA08F0FEFC5A
:109F0000FC21060018908905281C08F001FA08F0C9
:109F1000F5FCFC21050019908905381C08F0F8F9BA
:109F200008F0ECFC2A00030031001A902068FFF7CB
:109F300015FEA0680DF091F907A908A8A5680FF013
:109F40000AF90022194B009208A901932800130076
:109F500000F0BAFA08A80FF0F1F8FA20800010F02B
:109F6000A8FBA0680DF079F915A80EF0D1FA12A897
:109F70000EF0CEFA0FA80EF0CBFA0CA80EF0C8FA2D
:109F800007A80FF0DBF806A80FF0D8F809A80EF024
:109F9000BFFA25B0F0BC08BC02B018477EBA020078
:109FA000A2BA0200E7BA0200E0FCFFFFDC050000F5
:109FB000F7B583601D4B05001F6801604260002FEC
:109FC00031D02820FEF7B0FF040010300CF07DFDEA
:109FD000174B18202360FEF7A7FF00220600154B41
:109FE00001920560083200210C30009310F0ABFCA8
:109FF00008226946301D10F08AFC0F4B0022736165
:10A00000C223A3803B68E260A660226262625B6852
:10A01000210038009847002805D020000CF06FFC84
:10A020002000FEF7A1FF2800FEBDC046C02600208C
:10A03000050006004D9C0100336F0200F0B50400DE
:10A0400085B0637A9C46002B04D120000CF09CFF65
:10A0500005B0F0BDA37A266F01931023019AF35641
:10A0600000259B1801229A402900F368039202936D
:10A07000029BAB4231DDB368019A6B439B18726956
:10A080005B00E77AD3181A785878E379012F14D156
:10A090005F1E3F1A10003A005B004343606F821856
:10A0A000D3189B79634500DD6346627B1A4202D078
:10A0B0000123AB4019430135DAE7022F05D15F1EBA
:10A0C000BA1A277A013F381AE6E7032FE4D1277A34
:10A0D000013FBF1A02003800DEE71123C943F356DF
:10A0E000606C994023691940039B194310F0A1FB50
:10A0F000A27B072AACD8637B0C495B006373531CBB
:10A10000DBB290004158A373022A03D8080010F074
:10A11000C5FA96E7064B2000236300236363054BD3
:10A12000E4622364143010F057F991E7B8AC0200F0
:10A130003DA00100736F020010B50400044B0360E2
:10A1400010F042F9200006F01BFD200010BDC046B3
:10A150009CB1020010B504000E4B08330360FEF7FB
:10A16000E1FF200074300EF0E9FF200060300EF0B7
:10A17000E5FF200058300CF00CFC200050300CF0B3
:10A1800008FC2000044B14306361FFF7D5FF20006A
:10A1900010BDC046D8AC0200B0B10200F8B5002531
:10A1A0000400324B8580083303608571143016003B
:10A1B0000F0006F0CFFC20002D4BE56263612564A3
:10A1C0005030FEF7F7FF20005830FEF7F3FF200075
:10A1D000603003F02BFB20000423F25E3368266717
:10A1E000590009B274300EF0C7FF3368226FE37173
:10A1F00073680126237210236581A7802561D356D9
:10A2000091685918994204DD3000984001330543A4
:10A21000F8E711230120D356D1685918994206DD79
:10A2200002009A402669013332432261F6E7142086
:10A23000FEF77AFE226900212A430123060006F078
:10A240002FFFFF23220063720133A38100234832D2
:10A250006664A37320001370A366FEF745FF012315
:10A26000A27920001343A371F8BDC046D8AC020008
:10A27000B0B10200F0B5437A85B00400002B04D1E0
:10A2800020000CF081FE05B0F0BD0122837A1100A0
:10A290009C461023066F0025F356039263449940B1
:10A2A00002912900F3680193019BAB422CDDB36856
:10A2B00072696B4363445B00E77AD3181A78587865
:10A2C000E379012F10D15F1E3F1A10003A005B00A6
:10A2D0004343606F8218D3189B79002B02D0039BF5
:10A2E000AB4019430135DFE7022F05D15F1EBA1AD3
:10A2F000277A013F381AEAE7032FE8D1277A013F8E
:10A30000BF1A02003800E2E71123C943F356606C1C
:10A31000994023691940029B194310F08AFA667A22
:10A32000B31EDBB2FC2B14D8FEF78CFE0B4B0500E2
:10A33000236300230A4863630A4BFF21E46223641A
:10A34000704307F053FA290041432000143010F005
:10A3500043F8637A012B00D995E791E7896F0200F2
:10A36000B6030000736F02001FB5012381881A0035
:10A3700068460CF0B4FB012303491A0068460CF050
:10A38000AEFB05B000BDC046FE0300001FB50300D4
:10A3900048331A780400002A0DD000221A700123D5
:10A3A00081881A0068460CF09AFB012304491A00C0
:10A3B00068460CF094FB200074300EF0D4FE1FBDF4
:10A3C000FF03000010B548300378002B06D0037857
:10A3D000012B03D0012102480CF007FA10BDC04642
:10A3E000FF03000010B50121040006200CF0FDF968
:10A3F000064B984208D148342378002B04D02378A8
:10A40000012B01D020BFF7E710BDC04616FCFFFFAF
:10A4100070B50600141E19DB050048352B78002B9B
:10A4200002D02B78012B13D1002330001A00743096
:10A4300003F0C0FA002C07D033004A331C800024FC
:10A4400007234C3634802B70200070BD014CFBE795
:10A45000014CF9E717FCFFFF12FCFFFFF8B51700EE
:10A460000A68050052880B00012A09D10021180052
:10A470000CF01EFB002201002800FFF7C9FFF8BD09
:10A48000002F19DD060048363278002A02D03278D3
:10A49000012A13D12A00002428005C3219001480FC
:10A4A00058300CF0E0FA2B004A331F8003234C3560
:10A4B0002C8020003370E2E70148E0E70148DEE746
:10A4C00017FCFFFF12FCFFFF73B5079C0500002C73
:10A4D0001CDB060048363078002802D0307801288E
:10A4E00016D106981BB2C0B20090280012B2743088
:10A4F0000EF049FE002C07D02B004A331C800024AC
:10A5000007234C352C803370200076BD014CFBE7CF
:10A51000014CF9E717FCFFFF12FCFFFFF7B5050040
:10A520000E00171E26DDFFF74DFF2B0048331C7869
:10A53000E4B2002C20D133685B88012B09D12100C3
:10A5400030000CF0B5FA220001002800FFF760FF90
:10A55000FEBD310001A80CF07EFA3A0001A92800E6
:10A56000FFF77CFF01A80CF014FA2800FFF73AFF70
:10A570002000EDE70148EBE70148E9E717FCFFFFA2
:10A5800011FCFFFFF0B587B00D9C06000F00029292
:10A590000393002C20DBFFF715FF330048331D78B1
:10A5A000EDB2002D1AD1390005A80EF0D4FD0C9B98
:10A5B00001940093029A039B05A93000FFF784FFE2
:10A5C00005A80EF0BBFD002C03D03000FFF70AFFFA
:10A5D0002C00200007B0F0BD014CFAE7014CF8E771
:10A5E00017FCFFFF11FCFFFFF8B50400171E1DDD6F
:10A5F000060048363378002B02D03378012B17D170
:10A600002200E3795632013B13702300002520001D
:10A6100054331D8050300CF026FA23004A331F803B
:10A62000022328004C3425803370F8BD0148FCE734
:10A630000148FAE717FCFFFF12FCFFFFF7B5050022
:10A640000F00161E18DDFFF7BDFE2B0048331C78E7
:10A65000E4B2002C12D1390001A80CF0FCF9320050
:10A6600001A92800FFF7C0FF01A80CF092F928000B
:10A67000FFF7B8FE2000FEBD0148FCE70148FAE7FD
:10A6800017FCFFFF11FCFFFFFF2902D841720020D9
:10A6900070470148FCE7C04617FCFFFFF0B51F00FC
:10A6A00085B00AAB1B780400039300933B000D00B8
:10A6B00016000FF0F2FD002833D0237D082B2DD893
:10A6C000236800221900FC318A62A021C9005A5077
:10A6D000154905205A500138C046C046C046C046FC
:10A6E000C046C046C046C046C046C046C046C0463A
:10A6F000F1D1236801325A50A0210432C9005A50C6
:10A7000006F07EFE039B3200009329003B002000F0
:10A710000FF0C3FD237D01332375CCE7034805B05B
:10A72000F0BD2075FBE7C046FC0F00000EFCFFFFEC
:10A73000F0B51F0085B00AAB1B78040003930093AB
:10A740003B000D0016000FF090FD002833D0237D54
:10A75000082B2DD8236800221900FC318A62A02121
:10A76000C9005A50154905205A500138C046C04604
:10A77000C046C046C046C046C046C046C046C046A9
:10A78000C046C046F1D1236801325A50A02104329C
:10A79000C9005A5006F034FE039B32000093290092
:10A7A0003B0020000FF061FD237D01332375CCE7D2
:10A7B000034805B0F0BD2075FBE7C046FC0F000064
:10A7C0000EFCFFFFF8B50D1E30D000260227C4682E
:10A7D000002C28D0AA88A38853403B4204D13A4297
:10A7E00004D1AB883B4219D0646AF1E7A968A0683C
:10A7F0000DF0E0FD0028F4D02B88002B02D0228839
:10A800009A42F1D16B88002B02D062889A42EBD138
:10A81000A288074B01361343A380E5E7A368AA6823
:10A820009342E1D1E8E72000002E00DC0148F8BDAA
:10A830000080FFFF17FCFFFFF0B5060085B00D1E7E
:10A8400059D00127C468002C22D00221AA880023F5
:10A850000A4202D0A3885B083B40226829688A42EA
:10A8600010D1A068A968002B0AD00DF0A3FD002824
:10A8700008D0A3881AB2002A06DB204805B0F0BD34
:10A880008842F6D0646ADEE75B045B0CA380F4E7E1
:10A89000F0682A88002807D1F56001231849684626
:10A8A0000CF01DF90020E9E7010003001C88944228
:10A8B00006D25C6A1900002C0DD02300F6E72300B5
:10A8C0001C88944207D15F886C88A74203D25C6AD7
:10A8D0001900002CF3D1814209D10B889A4204D38C
:10A8E00005D148886B88984201D96962D4E74B6AE0
:10A8F0006B624D62D1E70348C0E7C04616FCFFFF1C
:10A90000FD03000017FCFFFF064B10B51A00040002
:10A9100008322C33026043600430FEF739F920001E
:10A9200010BDC046F0AC020008B4024B9C4604388F
:10A9300008BC604709A9010008B4024B9C460438D2
:10A9400008BC60479B7302000C4A002311002C32A4
:10A95000083110B5038183724260C36003614361B3
:10A960004383016004000430FEF704F9044B1A68C5
:10A97000002A00D11C60200010BDC046F0AC0200CF
:10A98000C0260020F7B50E000125C4680192002CF6
:10A9900036D0238832889A4201D0002B23D1638895
:10A9A00072889A4201D0002B1DD1FEF757F801237F
:10A9B000002806D0C022A3881340C03B5A4253410E
:10A9C000DBB2019A934219D1A7883BB2002B15DB69
:10A9D00010223100A0180FF09AFF40231F4204D02C
:10A9E00020000CF0E3FC646AD1E7FEF737F800289A
:10A9F000F6D021000348FEF7E1F9F4E70025F2E77D
:10AA00002800FEBDAD73020008B4024B9C4604381A
:10AA100008BC604735750200F0B587B001930EABF6
:10AA20001B88060003930D9B0D000093019B02926F
:10AA30000C9F002B3DD0002F02D1009BDB0738D5A7
:10AA40002820FEF771FA040010300CF03EF86B4637
:10AA50001B89258063801820FEF766FA0500009B9D
:10AA600008220593019B002103600C3004970FF02E
:10AA70006AFF082204A9281D0FF049FF0E4B02228D
:10AA80006B6100230399E3602362636233680A43C6
:10AA9000A560A2805B68210030009847002806D09E
:10AAA00020000BF02CFF2000FEF75EFA034807B0F1
:10AAB000F0BD0348FBE7C0466F75020016FCFFFFC0
:10AAC00017FCFFFFF0B50400160000258380164A2E
:10AAD000164B85710260218146810573186889B023
:10AAE0008C46A8421DD0124A05950492C0220292BB
:10AAF0006A4604AB82CB82C223002A006146FFF77C
:10AB00008BFFC022094B0A49186802926A460691D7
:10AB100006AB079582CB82C223002A003100FFF7E3
:10AB20007BFF200009B0F0BD34AD0200C02600203C
:10AB30009976020030B5002403730123034D84711C
:10AB40000560818082734373846030BD4CAD020028
:10AB500070B5094C00212368D8680368DB6A984700
:10AB6000050023680021D868044B1A6803681B6A33
:10AB70009847280070BDC046D4260020CC2600206F
:10AB8000F7B504000026019308AB1F88274B0D0082
:10AB90000833868086710360E160103021000092E6
:10ABA00000F0ECFE6B461B78A780E3716B461B79C7
:10ABB00028272372230020000833A67166813A00FB
:10ABC000DE6731002C300FF0BEFE2300200054332E
:10ABD0003A0031001E8058300FF0B5FE230080335C
:10ABE0001E802B6828009B6998472B6828001B69EA
:10ABF0000F4998472B6831002800DB6998472B687C
:10AC000028005B6B032198472B68042128001B6BED
:10AC100098472B6828005B699847FDF71FFE0123C2
:10AC20006372044B20001C60FEBDC0465CAD020098
:10AC300031780200D426002010B50C000BF063FD23
:10AC4000002806D1642C06D8A123044ADB00D45086
:10AC500010BD0348FCE70348FAE7C0460010004077
:10AC600016FCFFFF17FCFFFFF7B507000837FB6F67
:10AC70000500002B28D00300553300931C780323D4
:10AC800001341C40E3B20193030054331B78E2B259
:10AC900093421BD0D220FEF747F90600D2220021B2
:10ACA0000FF051FED222F96F30000FF030FE6A46ED
:10ACB00000200A34009BA40012792C1966601A70D7
:10ACC000AB7A0133AB72FEBD0148FCE70148FAE7FD
:10ACD00017FCFFFF13FCFFFF8023F0B5994C5B00CE
:10ACE000226885B01A4050D000200825964A974B1C
:10ACF00050611061906021682940814220D0C221BA
:10AD00000A2689005E5004395D502168904D294023
:10AD100021601021256829432160506001221A60BA
:10AD20008C4B03211B68DC68236820001D6ADB6AEA
:10AD3000984702005F32FF3203212000A84731E02C
:10AD40000126206830422DD0C2250A20AD0058517E
:10AD5000043D58517F48056828000830C76F7E4879
:10AD60001F5020687D4F38402060022027683843FC
:10AD70002060EC6851605E60236803211D6A20003A
:10AD8000DB6A98470200C832D6E7022723683B42B5
:10AD900000D16DE06C4B5968002905D05A60012341
:10ADA0006A4A936005B0F0BD9A680092002A13D0F9
:10ADB0009960802322681B0313432360654C0121A3
:10ADC0002368D8680368DB6A984723683900D86825
:10ADD0000368DB6A9847E5E71A69002A48D06049AA
:10ADE0005C4D0A6801320A6022685E490A4001210E
:10ADF0002260009A9A60009A1A61544B99602B68FD
:10AE0000DE6833683000196ADB6A019101219847D6
:10AE10005549421830000121019EB04780234B4A1A
:10AE2000DB00D358012B7CD16A46504B1278390095
:10AE30001A702B68D8680368DB6A984723684C4A05
:10AE40000F2013402A68236013000833D96F4B7911
:10AE500003424AD01A07120F1218024083431343C9
:10AE60004B712368BB4323602268424B134323602A
:10AE7000344C23689B0300D4A1E0102223681340C4
:10AE800000D181E00027334D2F4E2B680121D86877
:10AE900077600368DB6A984728680CF0B5FC1022DD
:10AEA00023680500934323604023226813430F2245
:10AEB0002360314B1978437A114093430B4313407D
:10AEC00043724379190993430B4343712368441D2B
:10AED0009B022BD56770A770E7701C4B1E4A9D50D4
:10AEE00001229A60002333615CE723682349D66816
:10AEF0000B402360336839001A6A30000092DB6A25
:10AF000098470500AF200001FDF782FC2A00C832F7
:10AF10001218009B390030009847802322685B0399
:10AF2000A4E7174A1368013313603BE7FFF710FEED
:10AF3000144B1B68C01A030A6070000CA370E07009
:10AF4000CBE7C04610270020FC1000400010004056
:10AF5000F7FEFFFFD426002004050000FEFEFFFFE1
:10AF60000C270020FFFFF7FFC40900004E2A002035
:10AF7000FFFFDFFF88000400AB200020FFFFFBFF86
:10AF8000D8260020D02600202268520617D5904AE5
:10AF90000121136123688F4A1340236022688E4B7E
:10AFA000134323608D4B1B68DD682B6828001E6AE5
:10AFB000DB6A98478A4B0121C2182800B0472368F2
:10AFC0005B033DD523685B0618D50022804B012129
:10AFD0001A612368834A1340236081232268134344
:10AFE00023607E4B1B68DD682B6828001E6ADB6AC5
:10AFF00098477B4B0121C2182800B04710262368D0
:10B0000033421DD0754D01212B68D8680368DB6A77
:10B0100098472368B3432360402322681343236087
:10B020002B68714A0833D96F704B995001229A608E
:10B030000022674B1A61802322685B03134323605D
:10B040002368DB0200D4A1E02368694A002613408C
:10B050002360624B1F683B000833DD6F2B79EA7871
:10B060001B02134301936B780293AB78029A03930C
:10B07000019B12021B041343039A1A432368009294
:10B08000DB0128D538000CF0BFFB029A43789342CD
:10B090001DD18378039A934219D10379C2781B0298
:10B0A0001343019A9A4212D138000CF086FB514F9B
:10B0B000514A3B7800999B00995038780A21013019
:10B0C00006F07AFC4D4BC9B239701E600136236818
:10B0D0004B4A1340236023689B0135D52368494AB6
:10B0E000A979134023606B7A474A1B07DB0E985AF5
:10B0F000FA239B0043436A79019313091207120F45
:10B100009A1A2B78D2B2DB007D33FF335343EA79AE
:10B110003E4F120211432A7A304C12040A439B1804
:10B120003B6023680021D8680368DB6A98473B6866
:10B13000019A0021D31A18182268354B1860D0687C
:10B140001A6803681B6A98476B7A9B0600D501262C
:10B1500000240123284DA200525900998A4200D1AF
:10B160001E0001340A2CF6D1002E0FD11B4B18689B
:10B17000FFF77AFD1F4E009A337821009B00EA50BA
:10B180003078013006F018FCC9B2317021490B68E3
:10B190001B0600D406E600220D4B1A615A609A6025
:10B1A0005A61124B01321A610B681B4A1A40802304
:10B1B0005B0013430B60094B03211B68DC682368A9
:10B1C00020001D6ADB6A984702001E32B4E5C046C3
:10B1D000FC100040BFFFFDFF81000001D4260020CD
:10B1E000C4090000BFFFFBFF040500000010004081
:10B1F000FFFFEFFF502A0020E02600200827002054
:10B20000FFFFFFFEFFFFFFFD88200020C826002073
:10B21000CC260020102700200900FFFF10B5034AAC
:10B22000136801331360FFF757FD10BDDC260020C3
:10B23000E02310B5144C1B0322681A4223D10222CA
:10B24000124BDA672368DB0107D5114A1368013313
:10B25000136023680F4A1340236022680E4B134388
:10B260002360FFF739FD02220C4B1A600C4B0D4A8C
:10B2700019781278914206D300221A70802322682E
:10B280005B051343236010BD1027002004E100E09C
:10B2900008270020FFFFFFFE8000400000E100E0E3
:10B2A0004E2A00204F2A0020F7B5454C0021236884
:10B2B000D8680368DB6A9847424B434A18601278A3
:10B2C0001968424B5200D25AFA239B005343404D17
:10B2D0005B1840492B600A683F4B052A06D980223B
:10B2E0001868920302431A6000220A6080211A68DB
:10B2F000C903114006D123682A68D86803681B6A0D
:10B300009847F7BD1A6835490A401A601968344AE7
:10B310000A431A601E6880239B031E4021D02368C5
:10B320000221DF683B6838001A6ADB6A009298479E
:10B330002C4E3268831830680193FDF769FA019B3F
:10B340000221C218009B3800984723682A68D868F1
:10B35000002103681B6A9847234B3360FFF7BCFC4E
:10B36000CFE72248FDF754FA23680190DF680221F5
:10B370003B6838001A6ADB6A009298470200019B1A
:10B38000F532FF32D2180221009B3800984723681B
:10B390000121DF683B6838001A6ADB6A009298472F
:10B3A000FA231B01C2180121009B3800984723682B
:10B3B0002A68D868310003681B6A9847CEE7C04600
:10B3C000D4260020D0260020AB200020882000209A
:10B3D000CC2600200827002010270020FFFF3FFF79
:10B3E0000100000208200020409C0000C409000069
:10B3F0009823F7B5184DDB032A681A4214D10224AA
:10B40000164B174EDC67174B1F6838000CF0FCF921
:10B410002B68002809D0A22212051A40124B1343B0
:10B420002B60FFF759FC3460F7BD9B02FBD5FF682A
:10B4300021003B6838001A6ADB6A019298470500D0
:10B440000A48FDF7E5F9094B2100ED182A18019B80
:10B4500038009847E7E7C0461027002004E100E0E5
:10B4600000E100E0D42600208800020080969800C9
:10B47000F7B5070001918137060038780A210130BD
:10B4800006F09AFACBB20093330080331B78CAB22D
:10B490000C0093421CD0D220FDF746FD0500D222BD
:10B4A000002116340FF04FFAA400D222019928008F
:10B4B0000FF02DFAA55172B66B461B783B7062B641
:10B4C000F37A0133F3722879EB7800021843FEBD5A
:10B4D0000048FCE713FCFFFF30B50400B7B011488B
:10B4E000FDF796F96B4680B2D871000A18720923ED
:10B4F0004422002501A90B70E37920004B70237AC8
:10B500004A713B3A6A448B704B7A55709570D5708E
:10B5100020221343113A93434B72FFF7A9FF37B030
:10B5200030BDC046FFFF0000F8B58379060000205B
:10B53000DB0700D588E00BF0E6F8002800D084E0B7
:10B5400037000837FD6F002D08D1D230FDF7ECFC35
:10B550000400D22229000FF0F6F9FC67FB6F002BE4
:10B5600000D174E0002380253A4A3B4C13706D00F3
:10B57000237023780A2B08D82800FDF749F92821E1
:10B5800006F01AFAC9B22170F3E70022334B012109
:10B590005A608022D20511605A68002AFCD0062227
:10B5A0002F4B304D9A56304B0721EA503000FFF7B1
:10B5B00043FBA2230024DB00EC502C4A2C4B2D49EA
:10B5C000EA5001222C4BC020EC502C4B8000EC5058
:10B5D0000433EA502A4B0732EA502A4A0433EA502D
:10B5E0000222294BEA50294BE9502949043BE950F2
:10B5F000F96F284BE950C021274B49005A50195880
:10B60000264D294019501A60254BF5685C60254A83
:10B610001C61254B21001A602B6828001F6ADB6A19
:10B620009847737A214A5B009B5AFA2292005A4348
:10B63000210012182800B8470122B37930001343C3
:10B64000B371FDF797FA2000F8BD1948FCE71948D7
:10B65000FAE7C0464E2A00204F2A0020FC00004096
:10B6600017BB0200001000400C05000075696275F0
:10B670001C050000FFFF0000240500002C05000051
:10B6800014050000C8000400340500003C0500005B
:10B69000211001000405000000E100E0FF00FFFFB1
:10B6A000FC100040000160001027002088200020CE
:10B6B00016FCFFFF13FCFFFF03000200543355325A
:10B6C00011781B78002299420DD0084A01331340AB
:10B6D00004D50422013B524213430133DBB20A3347
:10B6E0009B00C3185A6810007047C04603000080D2
:10B6F00070B50B4D04002B68DB0005D5FFF7ECFEA1
:10B700002B68084A13402B602000FFF7D5FF002864
:10B7100004D02000103000F08FF9F5E770BDC0466E
:10B7200010270020FFFFFFEF30B502000400553264
:10B73000543423781278010000209A4213D00A4A28
:10B7400001331340834204DA0422013B5242134383
:10B7500001330025DAB292008A18D06AD5622370CC
:10B760008B7A013B8B7230BD03000080F7B514006B
:10B77000012501911048FDF74BF800239C460F4925
:10B7800080B29E007258002A0ED077587258FFB2CD
:10B79000A74209D1120A019FD2B2BA4204D172580B
:10B7A000120C904200D1AC4601330A2BE9D163461A
:10B7B000002BDFD1FEBDC046FFFF0000E0260020C9
:10B7C00030B585B0040002A80CF01FFE1A4B01A88A
:10B7D0001968FDF7B5FC01A902A80CF06AFE01A8E2
:10B7E0000BF0D7F8154B01A81968FDF7A9FC01A9C2
:10B7F00002A80CF05EFE01A80BF0CBF80023A360BA
:10B800001033237302A80CF039FE050002A80CF0D7
:10B8100038FE0200200029000D300FF078F802A851
:10B820000CF02FFE011D89B220000CF09BF802A83D
:10B830000CF0FDFD05B030BD102000200C200020D4
:10B84000F0B587B001930EAB1B88060003930D9BE8
:10B850000D000093019B02920C9F002B3DD0002F06
:10B8600002D1009BDB0738D52820FDF75DFB0400E3
:10B8700010300BF02AF96B461B8925806380182055
:10B88000FDF752FB0500009B08220593019B002158
:10B8900003600C3004970FF056F8082204A9281D05
:10B8A0000FF035F80E4B02226B6100230399E36021
:10B8B0002362636233680A43A560A2805B6821004B
:10B8C00030009847002806D020000BF018F8200020
:10B8D000FDF74AFB034807B0F0BD0348FBE7C0464D
:10B8E0006578020016FCFFFF17FCFFFFF0B50400AF
:10B8F0000D008BB06260216016001F00FFF760FF33
:10B900002800012110300CF0AFF8194A00250692EA
:10B91000C02202926A46079506AB03CB03C22300FE
:10B920002A0014493800FFF78BFF134A0995089243
:10B93000102202926A4608AB03CB03C22300012205
:10B9400020213800FFF77CFFFE21300000F0BEFA16
:10B95000C02105A80BF047F82A0005A9300000F027
:10B960002FFA05A80BF015F820000BB0F0BDC0466B
:10B97000A1790200F4F50000A5780200F0B50400FA
:10B980000026284B85B0083303608160868086716D
:10B99000210014300CF0EBF92000210018300CF0DD
:10B9A000ECF9214BE660266120001E70FDF7E2F8FD
:10B9B0001E4B1B680193B34230D02820FDF7B4FA28
:10B9C000050010300BF081F8212318202B60FDF7C3
:10B9D000ABFA0700164B0460082231000C300293CA
:10B9E00003960EF0B0FF02A9381D08220EF08FFF5B
:10B9F000104B29007B611223AB80019BEE601B681A
:10BA0000AF602E626E625B6801989847B04205D0C5
:10BA100028000AF074FF2800FDF7A6FA200005B000
:10BA2000F0BDC04674AD0200512A0020C02600209F
:10BA3000F77A0200177A0200F0B5040089B0806836
:10BA4000FFF772FE0300C57A0A33827A9B782D02D3
:10BA5000070015439B0614D5290020000CF095F82B
:10BA6000002809D00222037993431A0004231343C8
:10BA700003710023C38043713800FDF775FA09B0E4
:10BA8000F0BD43782A00029386783549009620005D
:10BA90000CF03BF9002802D1A3799B0705D53300B0
:10BAA000029A290020000CF0F1F83E000A36757861
:10BAB000BB7A2D021D437B782A000293BB7829496B
:10BAC000039300932000029B0CF01FF90028D3D1B0
:10BAD000039B254A0193029B2249009320002B00DF
:10BAE0000CF025F921007278BB7A12021A430C314E
:10BAF00020000BF0C9FF051E2DD10C20FDF714FA14
:10BB00000500002321006B60AB602A0010312F601C
:10BB100020000BF0D4FF7278BB7A12021A4313494B
:10BB2000012304A80AF0DBFFB3789B0707D02000AD
:10BB30007178BB7A09021943143000F019F8B37810
:10BB40005B079CD520007178BB7A09021943183035
:10BB500000F01AF893E70068FDF706FAD1E7C0464F
:10BB60002427002014270020512A0020F4F500008B
:10BB70001FB50A000123034968460AF0B0FF05B06B
:10BB800000BDC046F5F50000F0B5006887B00CF0C8
:10BB9000E0F83F22036806001C7B94433AD11A0068
:10BBA00019780D320D392300C9B268460CF038FC03
:10BBB0002100684601F0BCFD012187B2684601F012
:10BBC000B7FD2300164A85B299005458002C23D0A3
:10BBD000E188B94220D1A188A9421DD1022269463B
:10BBE00002A80CF051FC200002A908300AF03BFF2B
:10BBF00002A80AF0CEFE01232A000A4902A80AF090
:10BC00006EFF30000BF027FF3000FDF7ADF96846FE
:10BC10000CF00DFC07B0F0BD01330A2BD4D1F0E7D6
:10BC20004C270020F6F50000F0B5224B85B01B78BC
:10BC300004005B0739D50EF078FB0025236CC6B2F3
:10BC40000227DF5FAF420EDD200029B240300AF04C
:10BC50002FFF864205D1012320211A0068460AF0F1
:10BC60003EFF0135EEE7250023004E3528884C3392
:10BC70001978013005F0A0FE230050331B8889B2EB
:10BC80008B4214D02B88A26CD654636C2980002B75
:10BC90000BDB2A88934208D1012302225B426364B2
:10BCA0000233202168460AF01AFF05B0F0BD0123D7
:10BCB0000322F6E7522A00200121024A13788B431F
:10BCC00013707047522A002010B5002903DB024B85
:10BCD00019600EF04FFB10BD3427002070B5040032
:10BCE0001E0004AB1D7804F0FFFE20000E4B403018
:10BCF0002360FDF75FFA230001364C330135220043
:10BD00001E701D730023E1214E32A364636513800E
:10BD100053809381D381013B200063644902FFF784
:10BD2000D3FF200070BDC04698AB020070B505007F
:10BD30001400012A11D003004E331888023B40182A
:10BD4000197805F039FE69640025022C03D1210021
:10BD500020200AF04AFD280070BD014DFBE7C046D7
:10BD600017FCFFFF70B50600503604000A00338848
:10BD7000002906D102004E3212889A4208D10F489B
:10BD800070BD01290FD101004E310A889A42FCD0C2
:10BD9000A36C30884C341D5C2178013005F00CFE1A
:10BDA00028003180ECE70229F2D101004E310988E8
:10BDB0009942EDD10121FFF7B9FFE9E70CFCFFFF44
:10BDC00070B51500012A0BD040300AF04CFE00245B
:10BDD000022D03D1012120200AF007FD200070BDB3
:10BDE000004CFBE717FCFFFF73B50D0006A904002C
:10BDF00009780430002A01D1DE070ED5002D0CD0C1
:10BE000018264E430C34A41962600122A360044B2F
:10BE10002560636105F046FA73BD0022FAE7C0466B
:10BE2000977D0200F0B5164E85B0337805005B07AC
:10BE300005D500210BF0BAFFA86CFDF795F8042793
:10BE40003378BB4333702B004C331878FDF76CF814
:10BE5000A864002811D02B0000244E331C805C8085
:10BE6000337828001F433770064A009423002900C6
:10BE7000FFF7BAFF200005B0F0BD0348FBE7C0465E
:10BE8000522A002029BC010013FCFFFF012370B5DA
:10BE90000E000C4905000A781A4211D113430B70A9
:10BEA000530708D531002800FFF75CFF0400FFF7B7
:10BEB00003FF200070BDFFF7B5FF041EF2D0F8E7C6
:10BEC000014CF6E7522A00200DFCFFFF012310B5BC
:10BED000094A14781C420CD123431370030001312A
:10BEE0004C331970FFF79EFF0400FFF7E5FE2000BA
:10BEF00010BD024CFBE7C046522A00200DFCFFFF9C
:10BF0000F7B580277F053D697C690822113C6C43A9
:10BF10000600210068460EF0FAFC104B009A9A4287
:10BF200019D00093002301937969300013396943D4
:10BF30000BF042FF019A009930000BF055FF2100F1
:10BF400030000BF039FF7969AB08133969432200DF
:10BF500030000BF03BFF0198FEBDC046FECA00005A
:10BF6000F0B50D00A9B00D9200213022060010A8F6
:10BF70000B930EF0E8FC28000EF025FD431C0C93FB
:10BF8000102B00D9B5E00B9B202B00D9B1E0290084
:10BF900030000BF056FF071E50D129000C9A10A854
:10BFA0000EF0B5FC0D990B9A14A80EF0B0FC80238E
:10BFB0005B051A695F690C92113F7A4330005D6935
:10BFC0000B92FFF79DFF3022002104001CA80EF009
:10BFD000BAFC290000270C9B1339594330000BF0A1
:10BFE000EBFE0D9730257D430B9B0833ED18A742E0
:10BFF00042DA290030221CA80EF089FC10A91CA8E6
:10C000000EF0D7FC002827D13C49300022000E91C9
:10C010000F940BF0E9FE6A46099513AB23CB23C2BC
:10C0200023CB23C223CB23C23000129B1099119A39
:10C030000BF0E8FE01230D930137D3E710300B9A84
:10C040000D990EF055FC04003800FCF78DFF002C14
:10C05000A3D1200029B0F0BD6A4609951FAB23CBC0
:10C0600023C223CB23C223CB23C230001C991D9AA9
:10C070001E9B0BF0C7FEDFE7E5433023ED1725409D
:10C080005D430B9B08355D190D9B002B1DD10C9B4F
:10C090003021981E05F020FBA0422CD01749013416
:10C0A000300022000E910F940BF09EFE6A46099517
:10C0B00013AB23CB23C223CB23C223CB23C2300019
:10C0C0001099119A129B0BF09DFE0B9930000BF00A
:10C0D00073FE80235B0559690C230C9A1339634363
:10C0E0004A430233110030000B9A0BF06FFE00241C
:10C0F000AFE7034CADE7034CABE7C046FECA000018
:10C1000017FCFFFF13FCFFFF70B50400A280FA22AA
:10C11000002308000C49920008312160A37160617E
:10C12000E260A360638209490BF08BFE051E09D013
:10C13000010020001031022212300EF0E8FB28002E
:10C14000FCF712FF200070BD8CAD02000FBB020097
:10C1500030B50225837987B004002B4204D1FCF767
:10C1600009FDA3791D43A57120000BF0B4FE002842
:10C170001CD06B46DD1C28000BF0A4FE2B78002B96
:10C1800017D001A80BF09CFE0321019AD3170B4096
:10C190009B189B102382FCF78FFFE368A188181877
:10C1A0000123A0601A0002A80AF099FC002007B041
:10C1B00030BD0122064B1A60064A51680029FCD0A6
:10C1C00000215160044A1268019201225A60DBE7A3
:10C1D00000C00040FCC0004008C50040022802D159
:10C1E0000122014B1A707047532A002070B5064C8B
:10C1F00005002378002B04D1044802F0D7F801236E
:10C200002370280070BDC046542A0020DDC1010003
:10C2100070B50C000AF077FA002810D00023144DF6
:10C22000A40A2B7020000BF06AFE002803D00A201D
:10C230000EF03FFAF6E72B78002BFCD070BD022100
:10C240000C4B0D4A99508021C90008005D58002D03
:10C25000FCD0A121C9005C5019580029FCD0002154
:10C2600099508021C9005A58002AFCD0E6E7C04600
:10C27000532A002000E0014004050000F8B50C003E
:10C2800015001E000AF03FFA002811D00023174FB6
:10C290003B703200290020000BF02FFE002803D055
:10C2A0000A200EF006FAF4E73B78002BFCD0F8BD2C
:10C2B00001210F480F4B844619508021C9005A585C
:10C2C000002AFCD080270022FF00964207DD910063
:10C2D00068586050D9590029FCD00132F5E7002296
:10C2E00061465A50DA59002AFCD0E0E7532A002070
:10C2F0000405000000E00140002370B5180001248F
:10C300001D0009499A005218516C002904D02100DF
:10C3100099400843C0B255640133042BF1D1034B5B
:10C320001B68984770BDC046FC800040382700203D
:10C33000014B002019607047382700201F22037A24
:10C3400013401E3A11009940024BD967C368002080
:10C350005A60704704E100E0C268024B0020D150EF
:10C360007047C0460405000010B5C379013B9942EF
:10C370000FDC0B005133C068FF339B001A50802341
:10C38000C1225B028B4092008458234383500020DB
:10C3900010BD0148FCE7C04617FCFFFF30B5C3796C
:10C3A000013B994211DCA825C0688B00C318ED0041
:10C3B0005C59A2185A518023C1225B028B40920023
:10C3C000845823438350002030BD0148FCE7C04619
:10C3D00017FCFFFF10B5C379013B99420ADC8023AB
:10C3E000C2225B028B40C068920084582343835072
:10C3F000002010BD0048FCE717FCFFFF092905D805
:10C40000A223C2680020DB00D15070470048FCE73F
:10C4100017FCFFFF70B5040008201E49205604F0E9
:10C42000DBFB08216156002921DA03250F23CAB25C
:10C4300013402A40AA40FC359540083B16489B080B
:10C440009B001B18D869A843402595402A00024349
:10C45000DA6101221F230B401100C02099400F4BCD
:10C46000400019501960E36800201A6070BD0B4A43
:10C470008B089B009B180322FF26C0250A40D20090
:10C480009640AD005859B0434026964032000243D2
:10C490005A51DEE7F9C2010000ED00E000E100E0E2
:10C4A00010B50024C371044B848008338471036089
:10C4B000C160027210BDC046A4AD020010B50400F8
:10C4C000054B083303601C300AF063FA2000183073
:10C4D0000AF05FFA200010BDE4AD0200FF23F0B5C2
:10C4E0002C4D8DB02B70002304006946008800930A
:10C4F00003F022FB002802D16B469B782B70264E5E
:10C500003368DB68002B07D1002320881A0019004C
:10C510000BF015FD0DB0F0BD2B78032BF4D81F499F
:10C5200001A8FCF70DFE336801A9DE6804A80AF033
:10C5300092FA04A930000BF0B7FC0027060004A80B
:10C540000AF027FABE421ED031002022103104A882
:10C550000EF0DDF93000FCF707FD297804ABC900C7
:10C560005918082202A80EF0D2F9208801230822C7
:10C5700002A90BF0E4FC0137002804D12088084A06
:10C580000C210BF0DAFC01A80AF003FA002FBBD053
:10C59000C0E7C046AC200020482700201FBB020097
:10C5A000FFFF0000F0B5837991B004005B071BD555
:10C5B000FCF782FD00232269801A9941994203D138
:10C5C000F423FF3398420FD9A068002808D0364BD7
:10C5D0001D880CF077FE036815221B6A2900984716
:10C5E0000422A3799343A371A3799B0759D52F4DB7
:10C5F0002B68DB68002B50D02D4B1B78032B4CD8BD
:10C60000294B2C491B8804A80193FCF799FD2B6842
:10C6100004A9DE6808A80AF01EFA08A930000BF089
:10C6200043FC070008A80AF0B4F902AB9E1D0823DA
:10C630003200338006A9073B01980BF082FC002FE3
:10C6400008D039002022103108A80EF060F9380017
:10C65000FCF78AFC164B32881B7806A9DE0008AB73
:10C660009E1930000EF044F9002813D0082206A9C4
:10C6700030000EF04CF92B6804A9DD6805A80AF01B
:10C68000EAF9202308AA05A928000BF013FC05A845
:10C690000AF07FF904A80AF07CF90222A3799343F7
:10C6A000A37111B0F0BDC046F82900204827002032
:10C6B000AC2000201FBB0200F7B5089E050015291D
:10C6C00022D8012007008F40244C27421CD0E97F4C
:10C6D000CC181F2C41DC69183418A14210D8002155
:10C6E000C8B2834204D9545C701884700131F7E7F2
:10C6F00032789A183270EA7F9B18EB7700202CE092
:10C700000878C8540139E8E73478013CE4B2A34220
:10C7100008D10023D9B28C42F0D9D05CF1188870CE
:10C720000133F7E7EF7F0120FF183F1B1F2F14DCB9
:10C730000227A01C7F423618381B0190E87F2F1873
:10C74000BE4204D23078019FF0550136F6E7041B53
:10C75000023CEC7728000BF03EFCFEBDFC00200004
:10C76000F0B585B001930AAB1E880BAB1B78451C56
:10C7700002930EAB1B78040003930B781700037031
:10C780004B8A10224382013128000EF0C0F86B461C
:10C790009B88268363836B461B7B002623776B462F
:10C7A00001221B7A6761E683EB77A31CDA770C9B87
:10C7B0000C256362230020000D9A28331A705E70E6
:10C7C0009E702A0031002C300EF0BDF82000074B7F
:10C7D000E663A3632A00310040300EF0B4F8200075
:10C7E000034B2665E36405B0F0BDC046597F0200E7
:10C7F0004B7F020070B50D000CF064FD040003686F
:10C80000002D09D15B699847FA20800068430749E9
:10C8100004F062FFE08070BD9B6898478542F3D2C8
:10C82000236820009B6898470500EDE7710200002F
:10C83000F0B507001600A1B002C704006B4918A8A4
:10C840001D000BF00FFC331E03D030000EF0BBF8C0
:10C8500083B20122049200220392029202320192D8
:10C860000093320018A93800FFF77AFF23006049CF
:10C87000583318A807930BF0F5FB2B1E03D02800A4
:10C880000EF0A1F883B201220492002203920292D8
:10C890000232019200932A0018A90798FFF760FF5F
:10C8A00023005449AC3318A808930BF0DBFB269BFC
:10C8B000002B03D018000EF086F883B201220492F8
:10C8C000002203920292023201920093269A18A942
:10C8D0000898FFF745FF631CFF33474918A80993E1
:10C8E0000BF0C0FB279B002B03D018000EF06BF859
:10C8F00083B2012204920022601C0392029202324F
:10C9000001920093279A18A9FF30FFF729FF23000F
:10C910005533FF33394918A809930BF0A3FB289B23
:10C92000002B03D018000EF04EF883B201220492BF
:10C93000002203920292023201920093289A18A9CF
:10C940000998FFF70DFF2300A933FF332C4918A8DE
:10C950000A930BF087FB299B002B03D018000EF0E5
:10C9600032F883B201220492002218AD039202929F
:10C97000023201920093299A29000A98FFF7F0FEEB
:10C98000204B1B780B93002B2DD1079B12971393F1
:10C99000089B0DAF1493631CFF331593099B1A4931
:10C9A00016930A9B380017930BF05CFB1D2149205E
:10C9B0003B7810222B707B8A12AE6B8206ABC918B3
:10C9C000C0180DF0A4FF06232B756B469B8D2068C5
:10C9D000AB83AE610CF07AFC036829001B689847B2
:10C9E0000122084B1A70200021B0F0BD292A000056
:10C9F000242A0000252A0000272A0000262A0000F9
:10CA0000282A0000552A00200A18000070B50025C9
:10CA100004000A4B8580083385710360C1601830BB
:10CA2000FCF7C8FB20001C30FCF7C4FB044BA560DE
:10CA30001C60012365612000A37170BDE4AD02009C
:10CA400048270020FA2130B585B0050001230222D5
:10CA5000890068460AF043F8074C2068002809D08E
:10CA60000BF039FB2988054B226819800223917944
:10CA70000B43937105B030BD48270020F8290020F2
:10CA800010B50C0007290DD880680CF01BFC064B74
:10CA9000195703685B6C9847431E9841034B40420B
:10CAA000184010BD0248FCE717BB020016FCFFFF50
:10CAB00017FCFFFFF0B5A44C0D00A544040007933C
:10CAC0009AAB1B78A14909A804930692FCF738FB9E
:10CAD000200029001C3009F0C6FFC020800001F0B2
:10CAE0005BFC0820FCF720FA0600002101F016F894
:10CAF00015ADA66000210C220EA80DF024FF2B001E
:10CB00000EAA83CA83C3924B2900EB600023300036
:10CB10002B610CF0C0FBA0680CF0D4FB08220021B4
:10CB2000059016A80DF00FFF1420FCF7FDF9290061
:10CB30000200884B1593C8C9C8C2874B059EC360C5
:10CB40000023A43603613368002B00D0F5E0306089
:10CB5000A0680CF0BBFB08220021060016A80DF00F
:10CB6000F2FE1420FCF7E0F97C4B1593030086CD10
:10CB700086C37B4BC36000230361336B002B00D063
:10CB8000DDE03063A0680CF09DFB08220021050069
:10CB900016A80DF0D8FE1420FCF7C6F9714B15AE9F
:10CBA0001593030086CE86C36F4B9835C360002370
:10CBB00003612B68002B00D0C3E02860012504AB83
:10CBC0001B7C04AA2B4308A9280013740BF0BBF9A3
:10CBD000A0680CF07FFB036864495B6A9847A06813
:10CBE0000CF078FB036862499B699847A0680CF0D9
:10CBF00071FB002302680093166804992A00B0476D
:10CC0000049B002B0AD020000BF06EFA032805DDF0
:10CC1000A0680CF05FFB0368DB6898470EA80BF078
:10CC2000D1F92F2004ABC0180BF0CCF9362004AB9F
:10CC3000C0180BF0C7F93D20042504ABC0180BF059
:10CC4000C1F90EAB0A93A06804AB5D770CF042FB10
:10CC500003680AA91B699847A0680CF033FB0368B6
:10CC60000AA95B6D9847A0680CF02CFB03680021B3
:10CC7000DB6D9847A0680CF025FB036802219B6DD3
:10CC8000984700212000FFF7FBFE1820FCF74CF925
:10CC9000A16800F005FA374B374A1B68A168039377
:10CCA000364B15A81B6800260293354B0CAF1B684A
:10CCB0000193069B1B685B190093324B12681B683B
:10CCC000FFF7B6FD3020FCF72FF9079AA16800F0B6
:10CCD000A7FAA0680CF0F6FA036839009B6A984737
:10CCE000294BBE80A0680C930CF0ECFA0368390065
:10CCF000DB6A98472900A0680BF0C0F9099A09215E
:10CD00009378A06852190BF0CCF9A0680CF0DAFA0D
:10CD100032210671A068FFF76DFD04AB1B7FB342A3
:10CD200004D0A0680CF0CEFA0BF092F909A809F033
:10CD300030FE95239B009D44F0BD036107E703612E
:10CD40001FE7036139E7C046ACFDFFFF12BC0200DC
:10CD5000677F020045CA0100757F0200DDC4010043
:10CD6000837F0200B17F0200917F02008DCD010020
:10CD7000C1CD0100442700204027002014200020BE
:10CD80003C270020182000200800100013B50622C0
:10CD90006846FCF7E5F9094B1C68002C0AD0694687
:10CDA00001A809F058FE200001A90BF0BEF901A866
:10CDB00009F0EFFD684609F0ECFD13BD482700209F
:10CDC000002373B501AE0C0031000500019302F0A1
:10CDD000B3FE002802D1B278064B1A70064B1868D1
:10CDE000002806D061426141044BC9B21D800BF09E
:10CDF000A4F973BDAC20002048270020F8290020AA
:10CE0000F0B5040097B0039107A89C490592FCF780
:10CE100097F99B4908A8FCF793F922000FAD280069
:10CE20001C3207A909F02EFE08AA290009A809F05A
:10CE300029FE280009F0ADFD92490AA8FCF780F907
:10CE4000A0680CF03FFA03680DAE5B6998472800B4
:10CE50000BF0B8F8332004ABC0180BF0B3F83A204D
:10CE600004ABC0180BF0AEF8412004ABC0180BF0B7
:10CE7000A9F88023DB00B380A0680D950CF022FA9E
:10CE8000036831005B6D9847A0680CF01BFA0368DB
:10CE900000219B6D9847A0680CF014FA070000254C
:10CEA00006000A371F22002138000DF04CFDFD77E7
:10CEB00030000BF0C4F80621A0680BF0DFF8099AE7
:10CEC00009219378A06804320BF0EBF8A0680CF00D
:10CED000F9F9C8210571A068FFF78CFCA0680CF077
:10CEE000F1F9FF272E000581A0680CF0EBF90BF09B
:10CEF000AFF80398FDF74AFA0AA90CA809F0ABFDB0
:10CF000078220CA90398FDF799FB0CA809F041FDC4
:10CF1000039920000BF024F92000FBF72BFE049569
:10CF2000012563691D402DD057490BA800F0F2FC84
:10CF30000BA90CA80CF00FF900220CA91300019208
:10CF400000920398FDF71EFB0CA80CF0F7F8049B69
:10CF5000002B42D1043F282F41DD0025FE2F00DCAD
:10CF6000049D059809F05CFF002806D00123626942
:10CF70009A43130004221343636100260BA80CF0AC
:10CF8000DDF8049504226369134233D0FF2103982E
:10CF9000C826FDF779FB0025B600A36902229B5E37
:10CFA000AB4222DD200029B2183009F081FD0023B8
:10CFB000010003981A00743000F0FCFC3000FBF70D
:10CFC00071FE03980AF049F9C820FBF76BFE0222B4
:10CFD0006369134209D10135DFE70437BBE70398E2
:10CFE0000AF03BF9002FBCDDBAE7FA208000FBF71E
:10CFF00059FE0026022365691D421CD006331D40E0
:10D0000024D022490BA800F085FC0BA90CA80CF039
:10D01000A2F800220CA90192009213000398FDF7D8
:10D02000B1FA0CA80CF08AF81948FBF73BFE0BA8E4
:10D030000CF084F8174E6420FBF734FE164B0136D3
:10D040009E4200DC6CE709F070FB69E713490BA80E
:10D0500000F060FC0BA90CA80CF07DF82B002A0056
:10D060000CA9019500950398FDF78CFA0CA80CF01B
:10D0700065F80BA80CF062F8DDE7C0462BBB020098
:10D080003BBB02003DBB02004BBB020090BB020059
:10D09000983A00008C0A00008B0A0000CDBB020009
:10D0A0000022594BF0B50833060003600F00100052
:10D0B000A9B0B1600BAB991801324870102AFAD1AF
:10D0C0000F3A524C1A700E32105D991A0874013AD8
:10D0D000FAD2997B5A7B09020A4331000C31039141
:10D0E00025211B7813AD2B7002ABC918452302A86C
:10D0F0001B186A82180010220DF009FC039B6421A2
:10D100006B610123002402AA2B775218199309336B
:10D1100013701DAB1C706D2302AA9B181C706E232C
:10D1200021009B181EA80C22EC836C621C700DF071
:10D130000AFC374B0C22210023A8AB63EC630DF0F3
:10D1400002FC344B02AAEB6446239B180322DA77D5
:10D1500022002C650595347306AD2B1901345A70E5
:10D16000102CFAD101232C482B700E33195CEA1ACB
:10D170001174013BFAD211212520AA7B6B7B12028C
:10D180000BAC13432A78638202ABC9182270C01813
:10D1900010220DF0BCFB0123237505ABA361002316
:10D1A0003800A3830CF092F8036821001B689847AD
:10D1B00013ABDB8BB068B3820CF088F800220368F5
:10D1C0000092B18A039ADC680123A047B0680CF092
:10D1D0007DF807001420FBF7A7FE002201230400BE
:10D1E0000261069240C00832290007930DF08FFBC0
:10D1F0000A4BE360BB69002B03D13000BC6129B04E
:10D20000F0BD2361F9E7C046FCAD02003EBC020060
:10D21000597F02004B7F02004EBC0200C181020018
:10D22000F0B500260400734BDDB008330360816065
:10D23000C2608680867132006F4947A80BF060F8A3
:10D240002300143301250427089312230097049523
:10D250000193089A330047A9039602961DA8FFF789
:10D260007FFA3200654947A80BF04AF80C232200E8
:10D270000097103215AF0495019347A93300039628
:10D28000029632A8FFF76CFA32005D4938000BF0C5
:10D2900037F820001C3009900422082033003900A0
:10D2A0000495019000920396099A029647A8FFF709
:10D2B00057FA3200534938000BF022F85420FBF79C
:10D2C00033FE0500200001231221042218300790AC
:10D2D0000493019100923900020033002800039664
:10D2E0000296FFF73DFA2800474BA5620822EC6240
:10D2F0000AA930300A930B960DF009FB434B042228
:10D30000AB63012329352B7009992661E6610798E3
:10D310000DF0FDFA0422079908980DF0F8FA66213D
:10D32000032304AA8918CB77BA2104AA8918CB77DA
:10D33000872104AA49008918A26ACB77911CA68587
:10D34000CB771DAB0C9332AB0D930F9247AB3200F2
:10D350002F4910A80E930AF0D3FF3021452004ABCB
:10D360005B181B7812313B7004AB5B181B881139BA
:10D370007B8204ABC918C01810220DF0C8FA042231
:10D380000CADA0683A75BD61BE830BF09FFF0368CA
:10D3900039001B689847822204AB9B181B885432C3
:10D3A000238404AB9B181B885432A38404AB9B18C2
:10D3B0001B88A06863840BF089FF07001420FBF72B
:10D3C000B3FD0500134B066108221093119610A9B6
:10D3D00010C00DF09CFA104BEB60BB69B34206D154
:10D3E000BD612000FBF7C6FB20005DB0F0BD2B61E6
:10D3F000F6E7C04608AE02007EBC02005EBC02003A
:10D400006EBC02008EBC0200D38202003F8202008A
:10D410009EBC020085D4010069820200F0B50400C0
:10D420000E00150085B01F000CAB1B881030019357
:10D4300009F04BFB268065801820FBF775FD02AED6
:10D44000050033000AAA03CA03C32F602800082777
:10D4500000213A000C300DF076FA3A003100281D18
:10D460000DF055FA064B02226B6120000023019952
:10D47000A5600A43E360A2802362636205B0F0BD49
:10D4800093820200F0B50B898DB00593CB6806003E
:10D4900004934B88828C9A420ED1049C049B059A7B
:10D4A0009B181B1B032B3BDD62882188012308A8E6
:10D4B00009F015FB0434F1E7428C9A4230D1049C08
:10D4C000049B059A9B181B1B032B29DD238828200E
:10D4D00006936388F7680793124B08930023099318
:10D4E000FBF722FDC0236A460500029308AB03CB7D
:10D4F00003C233000699079A2800FFF78FFF3B68A5
:10D5000029005B6838009847002807D0002D05D017
:10D51000280009F0F4F92800FBF726FD0434CFE7D2
:10D520000DB0F0BD5183020070B5040090B080686A
:10D530000AF009FF022101401AD1A38D002B17D058
:10D540000C4B6A4604931023E568A185059102936C
:10D5500004AB41CB41C20A00230006A8FFF75EFFDF
:10D560002B6806A99B682800984706A809F0C7F908
:10D5700010B070BD51830200002815D000604160DA
:10D580008260C360046145618661C761444604628C
:10D590004C464462544684625C46C46264460463FA
:10D5A0006E46466374468463002A06D0C46B043C0E
:10D5B000043A25681560B442F9D18C6BA6464E6BCF
:10D5C000B546002B06D0CC6B043C043B1D6825609F
:10D5D000B442F9D10C6BA446CC6AA3468C6AA2462D
:10D5E0004C6AA1460C6AA046CF698E694D690C69E8
:10D5F000CB688A680868496870470060416082604B
:10D60000C360046145618661C761444604624C465B
:10D610004462544684625C46C462644604636E4657
:10D62000466374468463C46B043C043925680D600A
:10D63000B442F9D1C76986694569046970470060D9
:10D6400041608260C360046145618661C761444690
:10D6500004624C464462544684625C46C46264463A
:10D6600004636C4644637446846304697047846B46
:10D67000A646446BA546046BA446C46AA346846AC6
:10D68000A246446AA146046AA046C76986694569FC
:10D690000469C368826800684168704710B5041E59
:10D6A0000CD00DF090F9431EE3189C4208D222786A
:10D6B0001978013B21705A700134F6E7014810BD1A
:10D6C0000020FCE717FCFFFFF0B585B002900C1EB0
:10D6D0002AD00023C217161A56400193019B30002E
:10D6E0005D1C63190A215F1E039304F065F949422A
:10D6F0003031397030000A2104F078F847420600D2
:10D70000002F0FD1029B002B04DA2D23019D039AD9
:10D7100002351370002320006355FFF7BFFF380068
:10D7200005B0F0BD0195D9E7004FF8E717FCFFFF02
:10D7300007B50AF083FE002809D003789B0706D5B9
:10D74000411C042201A80DF0E2F801980EBD014829
:10D75000FCE7C04617FCFFFFF0B585B003930368F4
:10D7600002929C780F0001310B19060018000193FA
:10D77000FBF7DAFB051E1AD033682200D91C0DF026
:10D78000C6F86B461B7A601C2B553A000399281883
:10D790000DF0BDF86B462A001979300001230AF01C
:10D7A0001AFE2800FBF7E0FB002005B0F0BD0148A1
:10D7B000FBE7C04613FCFFFF10B582604A4304003C
:10D7C0004160002A0ADD074B90009A4201DD0120EA
:10D7D0004042FBF7A9FB2060200010BD002303603E
:10D7E000FAE7C046FEFFFF1F4A688B6870B583608A
:10D7F000534304000D004260002B12DD0A4A9E00D4
:10D800003000934201DD01204042FBF78DFB0023F5
:10D8100020602A68D158C15004339E42FAD12000BA
:10D8200070BD00230360FAE7FEFFFF1F014B03609A
:10D830007047C04620AE020030B500684488A1425F
:10D840000CDA8588AA4209DA002907DB002A05DB01
:10D850005443401800198371002030BD0048FCE794
:10D8600017FCFFFFF0B5070085B00E001D00002972
:10D8700021DD002A1FDD002B1DD00468638803937F
:10D880008B4200DD0391A3880293934200DD029254
:10D89000002306340193019B029A93420EDA290079
:10D8A0002000039A0DF033F83B68AD195B88E4184B
:10D8B000019B0133EEE7024805B0F0BD0020FBE715
:10D8C00017FCFFFFF8B504000D0016001F0000292B
:10D8D00001DB002A02DA0E4B2360F8BD100048433A
:10D8E0000630FBF721FB206009F047F923685D80D3
:10D8F00023689E80002F06D03B00320029002000C4
:10D90000FFF7B0FFE9E720000BF02DFCE5E7C0468C
:10D9100020AE0200F7B506000D1E03D1244B0360B4
:10D920003000FEBD00200F000400010001903B7894
:10D93000002B1AD03022524294469C446246092A57
:10D9400011D90A2B0AD1019B241801330193A1425A
:10D9500000DA2100002004000137E8E70028FBD0AE
:10D9600001340020F8E70120F6E76A460127928893
:10D9700009B212B230007F42FFF7A4FF39000A203B
:10D9800033689A1D2C78002CCAD02300303B092B19
:10D9900008D8FB43DB173B4043431B19303B1F00B8
:10D9A0000135EFE7002FFBDB177001320F00F7E7BF
:10D9B00020AE0200F0B5040089B006A80E00029265
:10D9C0001D00FBF73BFA236802995A88914235DA29
:10D9D0009B889D4232DA1F2E30D9079B01939E42CD
:10D9E0002CDC0523002273430393069B0493039BC3
:10D9F00004999B18A03BCB5C00210593AE18029BB9
:10DA0000CF1823685888019087420EDA9888B04270
:10DA10000BDDDB1910270F41019870431B18059887
:10DA20000740781E87417F429F7101310529E6D169
:10DA30000132052ADBD1002009B0F0BD0048FBE728
:10DA400017FCFFFFF7B50468070063880E1E0193FB
:10DA50001EDD994218DA0023063400933B68009AD1
:10DA60009B889A4212DA019BA1199D1B2A00200073
:10DA70000CF04DFF601931000BF067FB3B685B88D1
:10DA8000E418009B0133E8E70BF06DFB002000E099
:10DA90000048FEBD17FCFFFF10B50548054C20608F
:10DAA00009F06EF8044A054920000CF0F2FE10BDA2
:10DAB00020AE020074270020002000203D910200CB
:10DAC00070B5002817D1114D2E68002E11D10830E5
:10DAD0000CF0EAFE066046600D4E04003368002B31
