:020000021000EC
:1080000000400020011202003D1202003F12020057
:108010000000000000000000000000000000000060
:1080200000000000000000000000000041120200FB
:108030000000000000000000431202004512020090
:1080400047120200E1B6010059180200471202006F
:1080500047120200000000007912020047120200DD
:10806000A5CB0100DD1A0200E11602004712020052
:108070004712020047120200471202004712020094
:108080004712020047120200471202004712020084
:1080900047120200FDF40100910F02004712020096
:1080A000471202004712020000000000000000001A
:1080B00000000000000000000000000000000000C0
:1080C00010B5064C2378002B07D1054B002B02D0AE
:1080D000044800E000BF0123237010BDE020002011
:1080E00000000000B4C50200044B10B5002B03D003
:1080F0000349044800E000BF10BDC0460000000076
:10810000E4200020B4C50200164B002B00D1144B14
:108110009D46402292029A1A924600218B460F46B3
:108120001348144A121A12F07BFF0F4B002B00D099
:1081300098470E4B002B00D09847002000210400E8
:108140000D000D48002802D00C4800E000BF0EF0E2
:1081500077F82000290012F01FFD0EF05BF8C046F2
:1081600000000800004000200000000000000000A7
:10817000D8200020242B0020000000000000000078
:1081800010B50400034B036040300EF01FFF2000C9
:1081900010BDC04670B2020070B5C825002401268B
:1081A0006D00E3B202220421034801F05DF82800CB
:1081B000744000F09DFDF4E7D422002007B50100D3
:1081C00001A800F0E3FF782201A9034802F008FBB0
:1081D00001A80EF0FBFE07BD6022002007B50100DC
:1081E00001A80EF010FF782201A9034802F0F8FA66
:1081F00001A80EF0EBFE07BD6022002010B5084874
:1082000000F078F9074803F0EDFD074803F0ECFBB8
:10821000064907480EF0D0FD00F0E2FD002010BD39
:1082200074210020FC20002080250020E18D010029
:108230009981010013B5094C200000F075F8084A37
:108240000849200012F092FE074B084A00930849A3
:10825000084B094803F04CFE13BDC04674210020B2
:10826000002000207D820100602200207821002073
:108270008025002044220020FC200020F7231C4AF7
:108280009B0010B5C2501C330400C0180EF09EFEB7
:10829000FD239B00E0180EF099FE9F239B00E01841
:1082A00002F0CEFA84239B00E01801F013FC2000BA
:1082B000C530FF3001F040F920008D30FF3001F073
:1082C0006FFB20006530FF3001F06AFB2000EC30CE
:1082D00002F0A2F82000D03002F04AFD2000643005
:1082E00008F0DEFE201DFFF74BFF200010BDC0464A
:1082F000E4B4020070B50B4C0500005900280ED004
:1083000005F02EFF836D9B0709D5285911F047FB17
:10831000036813215B6A9847642012F037FD0EF062
:1083200013FD70BDC40400001423F0B5040097B021
:10833000009319221821043004F026F922002500A8
:108340006432B43513211000139208F0B5FE2800F2
:1083500010F083F92200B83210921E2100221098EA
:108360000FF0D5FB2000D03002F022FD2200EC32CD
:1083700011920621594A119802F072F82200002742
:1083800001236532FF32149200971A0011211498CC
:1083900001F072FB22008D32FF321592009701230B
:1083A00002221A21159801F067FB26002000C5362D
:1083B000B530FF361A2302220121FF3002F0B6FD4C
:1083C000109904233A22300001F066F984229200C9
:1083D000A218129205231D22019300922B00320055
:1083E0001099129801F06CFD96229200119BA01832
:1083F0001299320001F03EFF99229200A018290044
:108400001C2204F0D7FA9F229200A6181299222269
:10841000300002F021FAA7229200A018159A149BAE
:1084200000923100119A02F025FB1923AB220F9321
:10843000013B0E93013B0D93013B0C93013B0B93CE
:10844000013B0A93013B0993013B0893013B0793CE
:10845000013B0693013B0593013B0493013B0393CE
:10846000013B0293013B01939200013BA018009352
:108470000822013B07210FF052FBF7239B00E01875
:10848000290004F019FFFF239B00E51808220423AC
:108490001349280004F05AFC124B3A00E018290056
:1084A0001D2302F0A1FD104B1398E7500321277004
:1084B00012F081FA2300220020000C499C33A032E4
:1084C0001C60116057600A4A80305A610221012203
:1084D00008F084FF200017B0F0BDC04678B202005B
:1084E000008000400C040000C4040000F58201007C
:1084F000556C02000123F0B506788DB004001E40D3
:1085000000D0A3E0FD20800500F0FCFC2300D03368
:108510001800029300F0D0FA00F0C6F9282000F00D
:1085200029FD050010300EF0EDFD494B18202B60A1
:1085300000F020FD0700474B0460082231000C309A
:108540000A930B9612F06CFD0AA9381D082212F04E
:108550004BFD414B29007B611223AF60EE60AB8085
:108560002E626E62029802F09BFB002805D0280064
:108570000EF0E2FC280000F01DFD012322786420AB
:108580001343237000F0B4FB002527006537FF3745
:1085900038000FF021F8002854D020008D30FF3033
:1085A0000FF01AF800284DD00A2D4BD06420013569
:1085B00000F09EFB0A2DE8D12849294800F078FCFC
:1085C000F723284E9B00E3180393A359002B32D1C5
:1085D00000F058F8010006A800F0D8FD0EF0B0FB3E
:1085E00004900EF0ADFB6B460590198A08A80EF0BA
:1085F0000AFD059B09A8190C0EF005FD09AA08A99A
:1086000007A80EF05CFD09A80EF0E0FC08A80EF02B
:10861000DDFC012307AA06A900930398029B04F03E
:108620009FFE07A80EF0D2FC06A80EF0CFFCF9239F
:108630009B00E358A35121003A00EC31039805F068
:1086400035F8A2E70549084800F032FC0DB0F0BD4E
:10865000FD030000AB6C02006B6C020000200020E8
:10866000001C0020C404000008000020BFF34F8F4E
:10867000024B034ADA60BFF34F8FFEE700ED00E0E4
:108680000400FA05F0B58DB005AF19221549380080
:1086900012F0AAFC0022144B05245A7180225205C4
:1086A000566E012225000194029203930199300035
:1086B00009F0A4FB0800029909F01AFB019B039939
:1086C0006B430193029B361A6B430293631E2C1B70
:1086D0006C433C19225C1C1ECA54E7D108000DB043
:1086E000F0BDC0462EBF02004E2A0020F0B597B064
:1086F00018220021060010A812F092FC132110A8E5
:1087000012F0B5FA032110A812F047FB4C4B1B687E
:10871000002B00D10133DBB202934A4A012300212E
:108720000BA808F0C9FF484B9E4200D9002672B63C
:10873000464B64211D68464B30000793052409F021
:1087400061FB60435030281808900A21300009F07E
:1087500059FB0A2109F03CFC614350316918099129
:1087600030000A2109F034FC802361430024503199
:1087700069189B010A910193029B002B5DD0002593
:1087800000272E1F07AB9B190593032C03D18023D1
:1087900000249B01019307AB5B592E4A03936300AE
:1087A000D31804930023190006205843049A16187E
:1087B0007678B4466246039EB25C10269446049ACC
:1087C000105C62460641164202D0012098400143E7
:1087D0000133092BE8D1C9431F4B059A0901194000
:1087E0001268039B934225D1312F23DC00210BA873
:1087F00012F08CFBFA23159A1199DB0010680142E4
:108800001BD0013B002BF9D1019B01345B0001938C
:10881000FA230137E4B25B009F42B6D10435102D34
:10882000AED1074B1B68002BA6D0029F013FFBB2C5
:108830000293A1E7019B1943D9E7FFF717FFC04651
:1088400040260020F0FF0000E70300000420002085
:108850007DBF020047BF0200F01F0000F0B50028F6
:108860001BDD0F4C421E276811000020BE09FB0FC4
:1088700073407B403E097D087340BF087B406B40DE
:10888000DB072B4301251F0040002B401843E94024
:10889000ECD18242E8D32760F0BD0248FCE7C04635
:1088A0003C26002017FCFFFFF8B50023124C236084
:1088B0000EF038FA002808D0042120000EF02EFA1D
:1088C000002801D00D4B2360F8BD0122A12704250B
:1088D0000B4B0C491A602268FF0048604E68002E5E
:1088E000FCD0DE591202013D3243002DF5D1226049
:1088F00001225A60E8E7C0463C260020ED5EBC0B32
:1089000000D00040FCD00040F0B585B01F000AAB9D
:108910001B880600029115000393002F1CD028200D
:1089200000F028FB6B4604001989039BAAB2009350
:108930003B000EF0EAFA336821005B68300098478C
:1089400000280AD0002C05D020000EF0F5FA2000F7
:1089500000F030FB024800E0024805B0F0BDC04620
:1089600016FCFFFF17FCFFFF0B4B70B51C68002CBB
:1089700010D0656D00F0C6FBA36C002901D18342C5
:1089800006D820000EF001FA044920000EF0EBF9A1
:108990002C00ECE770BDC046482600206826002069
:1089A000F0B593B007932A4B04AC1E680490059170
:1089B0000692002E4AD0274B258867881C68002322
:1089C0000293002C2ED0636D23480393A36C9AB2BC
:1089D000A36C1B0C99B2854214D12048824211D15C
:1089E000002B01D0B9420BD1029B002B08D12000F3
:1089F0000EF0CBF91A4920000EF0B5F901230293CD
:108A0000039CDEE7002A01D09542F9D1002B01D06A
:108A1000B942F5D120000EF0B8F9114920000EF04E
:108A2000A2F9EDE70F4BEB18012B0FD910233A00F9
:108A3000009329000C4B08A80EF067FA336808A9C8
:108A40009B683000984708A80EF076FA13B0F0BD86
:108A50004426002074260020FE030000FF030000CF
:108A60006826002002FCFFFFA189010010B572B644
:108A70000B4B1C68002C08D020000EF086F9002358
:108A8000E364084B2000E36310BD62B65C2000F095
:108A900071FA5C220021040012F0C2FAEFE7C0462E
:108AA0006C26002000400020024B1878012318405B
:108AB0007047C046542A0020F7B50600FFF7F4FFC0
:108AC000051E33D11A4C2660FFF7D0FF194B1A4907
:108AD00018600EF048F9FFF7C9FF184B1860184BE3
:108AE0004363184B8363206800280ED0C027164EBE
:108AF0002A00330015490097FFF706FF009733005F
:108B00002A0013492068FFF7FFFE0C2000F032FA1C
:108B10000023838083710F4B03600F4B836000F051
:108B200009FB01230D4A11780B431370F7BDC046B2
:108B30004426002078260020682600207026002089
:108B4000FC3F00206D6E0200A1890100FF030000C0
:108B5000FE03000098B2020069890100542A002037
:108B6000F7B506000D0017000193002802D100247C
:108B70002000FEBD0029FAD0FFF778FF041EF6D0D2
:108B8000074B019A4363066045608760054B002AE6
:108B900000D0054BA363054920000EF0E4F8E7E799
:108BA000FC3F0020376E0200556E02006826002050
:108BB000024B1868434258417047C046682600205F
:108BC000002310B504499C006258002A01D00133EB
:108BD000F9E76050100010BD50260020002310B5AA
:108BE000044A99008C58844201D00133F9E70020EF
:108BF000885010BD5026002010B50024084BA2005C
:108C0000D058002802D003685B6898470134062CCE
:108C1000F4D1044B1B68002B00D120BF10BDC0460F
:108C20005026002068260020F8B5FFF73DFF0028F9
:108C30001BD0294D2C68E36CDA0717D50226334385
:108C4000E3640423254F3868C26C1343C364636B29
:108C5000C3630EF0CEF83868416C05F024F928683B
:108C6000C36C334201D005F058F9F8BD1C4F1D4EBE
:108C70003A683168002A1ED129602A688A4208D1E0
:108C80001B0706D52C60FFF7B7FF3B68002BFAD017
:108C90002B6029688C42E8D03368994214D1124B7A
:108CA0004B63124B8B6320000EF0A3F82968626CB3
:108CB0004B6C20000DE0206DB84203D1606D0028A0
:108CC00000D002002A60D8E79C42ECD100221000BC
:108CD0004B6C05F0A7F8C8E7782600204C2600204A
:108CE0006826002070260020FC3F00206D6E0200E8
:108CF00070B50500FFF7D8FE002803D1280012F058
:108D000045F870BD0C4B1C68E36CDB0706D5FFF71C
:108D1000ADFE0A4B1860002800D0040000F0F2F904
:108D20002D18A56420000EF030F8054920000EF043
:108D30001AF8FFF779FFE4E7782600204C26002098
:108D400048260020F0B51E4B1E4F1C683B6885B0BE
:108D500006000391002B30D0FFF7A6FE00282CD090
:108D6000E36CDB070ED5FFF781FE174B051E18607D
:108D700008D00EF00AF8154928000DF0F4FF2C0079
:108D8000FFF752FF039B20001B043343A3640DF045
:108D9000FCFF20000E490DF0E6FF0E4B0024F318F7
:108DA000012B07D9C0230093039A0B4B310038687D
:108DB000FFF7AAFD200005B0F0BD084CFAE7C04659
:108DC00078260020442600204C260020682600201B
:108DD0007426002002FCFFFFA189010016FCFFFFA2
:108DE00010B5FFF761FE002809D0054C20680DF092
:108DF000CCFF044920680DF0B6FFFFF715FF10BD4A
:108E0000782600206C260020F7B507000D0000280A
:108E10002ED0FFF749FE00282CD00724164E3068CC
:108E2000C36C1C4007D0154A290038000DF0D2FF52
:108E300000242000FEBD05F058F802213268D36CF2
:108E40001940019103D003218B43D364F1E701243E
:108E50002343D3642800B8473268D36C1900A14378
:108E6000D164019C5B07E4D528000DF0EBFFE0E73F
:108E7000034CDEE7034CDCE778260020456E020059
:108E800017FCFFFF16FCFFFF020010B5014B12CBD1
:108E900012C210BD7C260020034B1A68034B1A60D7
:108EA0007E225A607047C046042000207C260020A5
:108EB00070B5104D2B78022B18D0814218D90B1A9F
:108EC000072B15D90C00032304431C4010D172B6A4
:108ED0002A78094BD200D050981841600DF0CCFF91
:108EE0002B7801332B7062B6200070BD0348FCE77D
:108EF0000348FAE7552A00208426002013FCFFFFD0
:108F000017FCFFFF70B50021041C09F083F800284E
:108F100028D1FE21201C890509F086F8002821D1DE
:108F200004300DF0B1F905000F48401B0AF05CF861
:108F3000211C09F0F9FC09F0ABF803239843040065
:108F400028000DF0ABF920000DF09EF9002804D1A7
:108F5000203C002CF7D1054803E00119FFF7A8FFDA
:108F6000002070BD0248FCE70038002013FCFFFF22
:108F700017FCFFFF70B5060000250C4B1B78AB42B9
:108F800009DD0B49EB00C91830000DF07DFF041E10
:108F900009D10135F1E730000DF076F9041E02D158
:108FA0001420FFF7A3FB200070BDC046552A002007
:108FB0008426002070B5002813D00D4B0D491C7875
:108FC00000239C4210DDDA00555885420AD28A18E7
:108FD0005268824206D98023043802681B06134374
:108FE000036070BD0133ECE70DF058F9F9E7C046B6
:108FF000552A00208426002070B5051E14DD0B4E76
:109000000B4C3368002B02D0206811F04AFDFA2186
:1090100020680024074B89008361C462694335607E
:1090200011F047FD200070BD0348FCE794260020A6
:10903000C4260020E190010017FCFFFFF8B5114F96
:1090400006003D68002D0AD13020FFF793FF040091
:1090500008F08CF80C4BA5612360E5623C600B4D79
:109060002B68002B09D11020FFF784FF040011F0BA
:109070006CFD20002C6011F042FD3000FFF7BCFFBA
:10908000F8BDC046C42600208CB80200C0260020CF
:10909000014B18687047C0469426002070B50D4CEF
:1090A0002368002B03D00C4B1B68002B02D1062039
:1090B000FFF7C4FF206811F039FD02000749C3170C
:1090C0000D684E685219734120680A604B6011F0B8
:1090D00033FD70BDC0260020C4260020D82000200B
:1090E00010B5FFF7DBFF0024054BA200D058002885
:1090F00002D003681B68984701340A2CF4D110BDD4
:109100009826002010B5FFF7C9FFFA22034B920002
:1091100018685968002308F09BFF10BDD820002074
:1091200010B5FFF7BBFF024B1868596810BDC04669
:10913000D82000200B4B10B51B680400002B03D077
:10914000094B1B68002B02D10620FFF777FF002395
:10915000064A99008858002801D00133F9E78C505D
:1091600010BDC046C0260020C4260020982600203E
:10917000002310B5044A99008C58844201D0013371
:10918000F9E70020885010BD9826002010B5040093
:10919000002902D00B78002B03D1034B2360200061
:1091A00010BD0DF01AFFFAE7A8B20200F8B50400EE
:1091B0000E00150000290AD00B78002B07D0002ADA
:1091C00005D0080097B211F06BFF874203D90B4B13
:1091D00023602000F8BD681DFFF7CCFE20600EF074
:1091E0009CF823682A005F8023683100181D11F065
:1091F000FBFE23685D1900232B71EAE7A8B2020089
:10920000014B03607047C046A8B2020010B5054884
:10921000054C20600EF084F8044A0549200011F046
:10922000A5FE10BDA8B20200C82600200020002024
:10923000CD6F0200084B73B51C680500002C0AD0E6
:109240000100266808310822684611F0CDFE0CCDD9
:1092500031682000884773BDCC260020014B036095
:109260007047C046B0B2020030B500684488A142E1
:109270000CDA8588AA4209DA002907DB002A05DB17
:109280005443401800198371002030BD0048FCE7AA
:1092900017FCFFFFF0B5070085B00E001D00002988
:1092A00021DD002A1FDD002B1DD004686388039395
:1092B0008B4200DD0391A3880293934200DD02926A
:1092C000002306340193019B029A93420EDA29008F
:1092D0002000039A11F088FE3B68AD195B88E41802
:1092E000019B0133EEE7024805B0F0BD0020FBE72B
:1092F00017FCFFFFF8B504000D0016001F00002941
:1093000001DB002A02DA0E4B2360F8BD100048434F
:109310000630FFF72FFE20600DF0FFFF23685D8011
:1093200023689E80002F06D03B00320029002000D9
:10933000FFF7B0FFE9E720000DF026FFE5E7C046A4
:10934000B0B20200F7B506000D1E03D1244B036036
:109350003000FEBD00200F000400010001903B78AA
:10936000002B1AD03022524294469C446246092A6D
:1093700011D90A2B0AD1019B241801330193A14270
:1093800000DA2100002004000137E8E70028FBD0C4
:1093900001340020F8E70120F6E76A4601279288A9
:1093A00009B212B230007F42FFF7A4FF39000A2051
:1093B00033689A1D2C78002CCAD02300303B092B2F
:1093C00008D8FB43DB173B4043431B19303B1F00CE
:1093D0000135EFE7002FFBDB177001320F00F7E7D5
:1093E000B0B20200F0B5040089B006A80E000292E7
:1093F0001D00FFF749FD236802995A88914235DA2A
:109400009B889D4232DA1F2E30D9079B01939E42E2
:109410002CDC0523002273430393069B0493039BD8
:1094200004999B18A03BCB5C00210593AE18029BCE
:10943000CF1823685888019087420EDA9888B04286
:109440000BDDDB1910270F41019870431B1805989D
:109450000740781E87417F429F7101310529E6D17F
:109460000132052ADBD1002009B0F0BD0048FBE73E
:1094700017FCFFFFF7B50468070063880E1E019311
:109480001EDD994218DA0023063400933B68009AE7
:109490009B889A4212DA019BA1199D1B2A00200089
:1094A00011F0A2FD601931000DF060FE3B685B8891
:1094B000E418009B0133E8E70DF066FE002000E0B1
:1094C0000048FEBD17FCFFFF10B50548054C2060A5
:1094D0000DF026FF044A0549200011F047FD10BD9C
:1094E000B0B20200D0260020002000205F710200F0
:1094F00010B5054C012120000DF006FF034A044978
:10950000200011F033FD10BDD426002000200020E3
:10951000C57202000388074A10B50120934208D0A3
:10952000834202D00020DB0703D41E20FFF7DEF8C1
:10953000002010BDFFFF000010B50400034B0833EE
:109540000360FFF74BFB200010BDC046F8B20200DD
:10955000FA2270B5438992005343314A31491400CD
:10956000050038348B421BDC2F498B4218D82F4919
:10957000083C8B4214D82E49083C8B4210D82D4908
:10958000083C8B420CD82C49083C8B4208D82B490C
:10959000083C8B4204D82A4914008B4200D9083475
:1095A000284B2A7B1E1D042A03D89E1C022A00D8A1
:1095B0001E00FA212068890008F09AFB3378688140
:1095C0002B7300222A2128000DF0CEFE002801D0A6
:1095D0001D4870BD10222B2128000DF0C5FE00286B
:1095E000F6D101222D2128000DF0BEFE0028EFD17A
:1095F00001222E2128000DF0B7FE0028E8D1727854
:109600000E2128000DF0B0FE0028E1D101222379BF
:109610002A211A4328000DF0A7FE0028D9D0D7E749
:10962000B8B2020000C409000071020080380100D5
:10963000204E00001027000088130000C40900001D
:10964000E20400005DC102000EFCFFFF7FB51500C3
:109650000F226A4404001E001170002D16D0002B4A
:1096600014DD012301890093006B01F095FA0028B5
:1096700002D0074804B070BD0090218933002A0051
:10968000206B01F03FFA0028F4D0F2E70148F1E73F
:109690000EFCFFFF17FCFFFFF7B506000025019346
:1096A0001E4B143608330400036085808571C58124
:1096B000058245820F00009229001822300011F027
:1096C000AFFC1C21300011F0D2FA6B469B880221BE
:1096D000A3806B461B88220023811423A57121736C
:1096E000A563A58763813E32137827638B43F131ED
:1096F0000B4013702300957295810135221DD5878B
:109700000833A21DD5872000DD87FFF721FF002841
:1097100002D1A3791D43A5712000FEBDF8B202005D
:1097200030B50425837987B004002B4204D1FFF7BC
:1097300047FAA3791D43A571A36AA2691B68002596
:109740001A4208D106236A4601212000FFF77EFF56
:10975000051E03D0114D280007B030BD6B46022214
:10976000042069469A561856237BD2005A43228217
:1097700002220978C00049B2C900594343436382B9
:10978000A379E1819343A37120000DF0FBFD012338
:10979000A1881A0002A80DF0BFFCDCE70EFCFFFF59
:1097A000F8B50400FFF7BCFF0E22A35E794F5B42C1
:1097B000BB4251DA23003E331B789B074CD5012571
:1097C000210028003E310B785A0890430200022005
:1097D000AA40834313430B702000FFF7A1FF102220
:1097E000A35E5B42BB4248DA23003E331B785B0733
:1097F00043D50125210028003E310B789A0890437B
:1098000082000420834313430B7026002000FFF7DF
:1098100087FF1222A35E4836BB423EDA23003E3366
:109820001B781B0739D5210001223E310B78D8085F
:1098300082430820D200834313430B703378032BF9
:109840003BD80133DBB23370012B00D08DE0230015
:1098500000224A331A8030E02000FFF761FF0E2219
:10986000A35EC8225B42520000259342B4DD230070
:109870003E331B789B07A2D5AEE72000FFF750FFD1
:109880001022A35EC8225B4252009342BDDD23003A
:109890003E331B785B07ACD5B7E72000FFF740FFEE
:1098A000C8231221625E5B009A4204DD23003E332E
:1098B0001B781B07B7D5002DC0D13278002A14D0F1
:1098C0002100270001254A310B883E3701339BB226
:1098D0000B803878AC46054055D01D2B05D9634622
:1098E0009843002338700B80337020000DF0B6FDD4
:1098F000294A0723904244DD2000FFF711FF0E2381
:10990000E25E264E52420323B2423ADBC8252000D3
:10991000FFF706FF0E23E25EAD0052420423AA4287
:109920002FDC2000FFF7FCFE1023E25E02235242F0
:10993000B24226DB2000FFF7F3FE1023E25E012394
:109940005242AA421DDC2000FFF7EAFE1223E25E2B
:109950000523B24215DB2000FFF7E2FE1223E25E90
:109960000623AA420DDC00230BE0042BA5D1220024
:109970003E321178033B0B43137000234A3423809B
:109980000B331800F8BD092BAFD9013A0D803270A6
:10999000ABE7C04670FEFFFFFF700200E0FCFFFF78
:1099A00010B50400034B08330360FFF7E1FB200010
:1099B00010BDC04610B3020070B5C369C1681A6813
:1099C000451D0400EB7F11424AD0002B4DD1EB7FA7
:1099D000082B0BD90121A3790B4207D10B43A371AB
:1099E00020000DF0EAFDFFF78DFB2062EB7F012BDD
:1099F0001DD8A379DA071AD510221340A3710221CA
:109A000020000DF0DAFDA31DDB7F012B0FD1FFF746
:109A100079FB0023226A801A9941994203D1144BA1
:109A20000321984200D9042120000DF0C6FD032235
:109A3000A3791340012B12D1FFF764FB0023226AA4
:109A4000801A9941994202D10A4B984207D90223C0
:109A5000A27905211343A37120000DF0AEFD70BD66
:109A60000B2BB4D80133EB77B1E7013BFBE7C046E2
:109A7000E7030000DB050000F0B5070000250E003D
:109A800085B002930AAB1B7808370393104B040090
:109A900008330360019285808571290018223800FF
:109AA00011F0BEFA039A3100380011F0E5F86B4668
:109AB0006A469B88127AA380A31DE671DA77631D3C
:109AC00025622000DD77FFF735FB200005B0F0BDF3
:109AD00010B3020010B50400034B08330360FFF716
:109AE0007DF8200010BDC04680B302007FB5150090
:109AF0000F226A4404001E001170002D16D0002BA6
:109B000014DD012301890093C06B01F045F80028A2
:109B100002D0074804B070BD0090218933002A00AC
:109B2000E06B00F0EFFF0028F4D0F2E70148F1E726
:109B30000EFCFFFF17FCFFFF002330B585B003AC20
:109B4000217001890093050001332200C06B01F0F0
:109B500023F8002802D0094805B030BD20802989AB
:109B6000009002232200E86B00F0CCFF0028F2D125
:109B7000237860781B02184300B2EDE70EFCFFFF6C
:109B800013B56B46DC1D0023220023700133FFF761
:109B9000ADFF002801D1207816BD0148FCE7C04682
:109BA0000EFCFFFFD0B504000DF048FDE268A3698C
:109BB000981A0AF067FE06000F002369E069C01AD0
:109BC0000AF060FE32003B000BF0AAF90022104BB5
:109BD0000AF068F80F4A104B09F062FD0AF0DEFE49
:109BE0000021041C08F00CFA002804D0201C0B49AA
:109BF00008F028FB041C201C0AF07EFE02000B006B
:109C0000002007490AF0C0FA0AF006FED0BDC0469F
:109C100000806640EA2E4454FB2109400000B44312
:109C200000807640F0B5050085B0006C0DF0B3FC07
:109C3000061C286C0DF0A6FC0221071C28000DF064
:109C40002EFD0221039028000DF03BFD09F082F962
:109C50000221041C28000DF046FD09F07BF9051CCB
:109C6000301C0BF01FF90290301C0BF0DDF8019056
:109C7000381C0BF017F9061C381C0BF0D5F8071C24
:109C8000039809F067F9391C08F04EFE311C071CD7
:109C9000201C08F049FE029908F046FE011C381C01
:109CA00008F0D0FA311C071C281C08F03DFE019971
:109CB00008F03AFE011C381C08F0C4FA0299061C90
:109CC000281C08F031FE0199051C201C08F02CFE10
:109CD000011C281C08F05AFF311C0BF025F90D4916
:109CE00008F022FE0AF008FE0B4A0C4B09F0D8FCE3
:109CF0000AF054FE0021041C08F082F9002804D068
:109D0000201C044908F09EFA041C201C09F002F9EA
:109D100005B0F0BD0000B443EA2E4454FB211940C5
:109D200070B50022102104000DF07AFC1B4D0028B4
:109D30002DD1032608212000FFF722FFA84226D0BC
:109D4000304226D1FA216389890059435023144AAD
:109D5000D518D058884204D3D518083B18000830CD
:109D6000F7D1FA212868890007F0C2FFA02260819C
:109D7000112120000DF054FC002808D101222B797C
:109D800010211A4320000DF04BFC002800D003489E
:109D900070BD6420FEF7ACFFCCE7C0460EFCFFFFB1
:109DA00028B302007FB50425837904002B4218D123
:109DB00002260DF043FCA379A188B3432B43A37182
:109DC0000622012368460DF0A7F9A0790300304070
:109DD000AB43A37143425841034B4042184004B087
:109DE00070BD0248FBE7C04614FCFFFF15FCFFFFF7
:109DF00010B5837904005A070DD49B0701D4FFF7EF
:109E0000D1FF236C2000002B02D0FFF70BFF10BD09
:109E1000FFF7C8FEFBE70148F9E7C04615FCFFFF66
:109E200070B5466C86B001AC050001916260A3601C
:109E3000002E0CD00B4905A8FFF7A8F90C2322002F
:109E400005A930000EF048FC05A80DF0BFF82B0066
:109E50000C3307CC07C30223AA791343AB7106B0B6
:109E600070BDC04663C10200642330B504000281A6
:109E7000438185B08180FFF753FF0222A379606C94
:109E80009343A371002813D00C490EF0ECFB051E80
:109E90000ED001000C22103101A811F0A5F820000D
:109EA0000199029A039BFFF7BBFF2800FFF782F896
:109EB0000123A2791343A37105B030BD63C1020031
:109EC000F7B5009308AB1B880400019309AB1D880C
:109ED00000230F0016000D4A838008328371026050
:109EE000C360036143618361C36103621D21243048
:109EF0000DF089FB009BE763266429002000636462
:109F0000019AFFF7B1FF2000FEBDC04680B30200FA
:109F100082B0F0B50400A5B064202B932A9210F013
:109F200035FF04220C2109A804F09CF82422CC4916
:109F30001BA811F059F8052206A811000DF02DF903
:109F4000C84907A8FFF7FEF9A06800F081FBA568E3
:109F5000C54918A8FFF71AF9782218A9280000F0B7
:109F600015FC18A80DF032F86E256420013D10F0A4
:109F70000DFF002DF9D1A06800F06AFBA0680DF07C
:109F800059FD012160680DF07DFA0121070060682C
:109F90000DF08BFA06000A2010F0F8FE0022B34BF9
:109FA00003929F4210DB013203923A00C8320BDB6E
:109FB000C822042192000391974205DC03220392F8
:109FC000C82F01DC013A039200279E420CDB3300CC
:109FD0000137C83308DBC82303379B009E4203DCEC
:109FE000013FC82E00DC013F06A80DF0CDF8002689
:109FF000032373431BA9CA189078002805D0C95CB5
:10A000005278FF2306A8FFF72FF901360C2EEFD167
:10A010006B463AB20C21595E06A8FF23FFF724F9DC
:10A020000023A06800931A00743006A90DF0C2F84E
:10A03000002304930323049A039853431BAA995CB7
:10A04000814237D1D31805935B78BB4232D1059B4F
:10A050009E78002E2ED1310020680DF020FB08F0F4
:10A0600079FF3200031C290009A80EF05AFE3100C6
:10A0700020680DF026FB08F06DFF0122031C29006B
:10A0800009A80EF04EFE310020680DF02CFB08F000
:10A0900061FF2900031C022209A80EF042FEFE23E4
:10A0A00003229B05290009A80EF03BFE0123059A17
:10A0B000ED189370049B013304930C2BBAD16420E8
:10A0C00010F064FE0B2D00DC5BE709A80EF015FE16
:10A0D000012201000CA803F0C5FF002509A80EF01D
:10A0E0000CFEA8423CDD2900002209A80EF007FE64
:10A0F0000022061C290009A80EF001FE011C301CDC
:10A1000008F012FC2900061C012209A80EF0F7FD38
:10A110000122071C290009A80EF0F1FD011C381CC2
:10A1200008F002FC311C08F08DF82900061C022200
:10A1300009A80EF0E4FD02222900071C09A80EF070
:10A14000DEFD011C381C08F0EFFB311C08F07AF82A
:10A150002900031C00220CA80EF0E3FD0135BDE729
:10A1600009AA1100012318A80EF0F5FD18A90FA8DF
:10A170000EF04EFE18A80EF0E5FD0CAA09A912A8D3
:10A1800001230EF0E8FD002312AA0FA915A80EF076
:10A19000E2FD002215A811000EF0B1FD0022061C00
:10A1A000012115A80EF0ABFD0022051C022115A807
:10A1B0000EF0A5FDFC21071C8905301C08F0B4FB3E
:10A1C00008F0A8FEFC21060018908905281C08F05C
:10A1D000ABFB08F09FFEFC21050019908905381C97
:10A1E00008F0A2FB08F096FE2A00030031001A9046
:10A1F0002068FFF715FEA0680DF01CFC07A908A851
:10A20000A5680CF0B9FF0022194B009208A9019330
:10A210002800130000F05EFA08A80CF0A0FFFA2056
:10A22000800010F0B3FDA0680DF004FC15A80EF03E
:10A2300089FD12A80EF086FD0FA80EF083FD0CA874
:10A240000EF080FD07A80CF08AFF06A80CF087FF2F
:10A2500009A80EF077FD25B0F0BC08BC02B0184785
:10A260006EC1020092C10200D7C10200E0FCFFFFF4
:10A27000DC050000F7B583601D4B05001F68016019
:10A280004260002F31D02820FEF774FE0400103009
:10A290000CF038FF174B18202360FEF76BFE0022EE
:10A2A0000600154B01920560083200210C30009326
:10A2B00010F0B6FE08226946301D10F095FE0F4BD7
:10A2C00000227361C223A3803B68E260A660226221
:10A2D00062625B68210038009847002805D02000A2
:10A2E0000CF02AFE2000FEF765FE2800FEBDC046E9
:10A2F000CC26002005000600119F0100097702000E
:10A30000F0B5040085B0637A9C46002B04D1200090
:10A310000DF025FA05B0F0BDA37A266F0193102346
:10A32000019AF35600259B1801229A402900F368F0
:10A3300003920293029BAB4231DDB368019A6B43F7
:10A340009B1872695B00E77AD3181A785878E3791A
:10A35000012F14D15F1E3F1A10003A005B004343E7
:10A36000606F8218D3189B79634500DD6346627B7A
:10A370001A4202D00123AB4019430135DAE7022F1C
:10A3800005D15F1EBA1A277A013F381AE6E7032F74
:10A39000E4D1277A013FBF1A02003800DEE711231B
:10A3A000C943F356606C994023691940039B1943D4
:10A3B00010F0ACFDA27B072AACD8637B0C495B0094
:10A3C0006373531CDBB290004158A373022A03D875
:10A3D000080010F0D0FC96E7064B20002363002312
:10A3E0006363054BE4622364143010F062FB91E771
:10A3F00098B3020001A301004977020010B50400E0
:10A40000044B036010F04DFB200006F0C5FE200059
:10A4100010BDC0468CB8020010B504000E4B0833C6
:10A420000360FEF7A5FE200074300CF098FE2000BB
:10A4300060300CF094FE200058300CF0C7FD200076
:10A4400050300CF0C3FD2000044B14306361FFF763
:10A45000D5FF200010BDC046B8B30200A0B802006E
:10A46000F8B500250400324B858008330360857100
:10A47000143016000F0006F079FE20002D4BE56227
:10A48000636125645030FEF7BBFE20005830FEF7B4
:10A49000B7FE20006030FEF7E1FE20000423F25EEC
:10A4A00033682667590009B274300CF076FE3368C1
:10A4B000226FE37173680126237210236581A780E0
:10A4C0002561D35691685918994204DD30009840AF
:10A4D00001330543F8E711230120D356D1685918F9
:10A4E000994206DD02009A40266901333243226117
:10A4F000F6E71420FEF73EFD226900212A430123DE
:10A50000060007F0D9F8FF23220063720133A3810C
:10A51000002348326664A37320001370A366FEF71D
:10A5200009FE0123A27920001343A371F8BDC046A0
:10A53000B8B30200A0B80200F0B5437A85B00400B9
:10A54000002B04D120000DF00AF905B0F0BD012266
:10A55000837A11009C461023066F0025F356039260
:10A560006344994002912900F3680193019BAB4237
:10A570002CDDB36872696B4363445B00E77AD318E0
:10A580001A785878E379012F10D15F1E3F1A100016
:10A590003A005B004343606F8218D3189B79002B0D
:10A5A00002D0039BAB4019430135DFE7022F05D1F1
:10A5B0005F1EBA1A277A013F381AEAE7032FE8D15B
:10A5C000277A013FBF1A02003800E2E71123C9438E
:10A5D000F356606C994023691940029B194310F0AF
:10A5E00095FC667AB31EDBB2FC2B14D8FEF750FD47
:10A5F0000B4B0500236300230A4863630A4BFF21CA
:10A60000E4622364704307F0FDFB2900414320000E
:10A61000143010F04EFA637A012B00D995E791E7D8
:10A620005F770200B6030000497702001FB50123DF
:10A6300081881A0068460CF06FFD012303491A0057
:10A6400068460CF069FD05B000BDC046FE03000081
:10A650001FB5030048331A780400002A0DD00022E9
:10A660001A70012381881A0068460CF055FD0123F9
:10A6700004491A0068460CF04FFD200074300CF0BD
:10A6800083FD1FBDFF03000010B548300378002B89
:10A6900006D00378012B03D0012102480CF0C2FB45
:10A6A00010BDC046FF03000010B5012104000620C4
:10A6B0000CF0B8FB064B984208D148342378002BA5
:10A6C00004D02378012B01D020BFF7E710BDC0468E
:10A6D00016FCFFFF73B5079C0500002C1CDB060071
:10A6E00048363078002802D03078012816D10698F4
:10A6F0001BB2C0B20090280012B274300CF05AFDA8
:10A70000002C07D02B004A331C80002407234C3533
:10A710002C803370200076BD014CFBE7014CF9E73B
:10A7200017FCFFFF12FCFFFFF0B587B00D9C060081
:10A730000F0002920393002C20DBFFF7A5FF3300EC
:10A7400048331D78EDB2002D1AD1390005A80CF060
:10A7500013FD0C9B01940093029A039B05A9300002
:10A76000FFF7B8FF05A80CF0FAFC002C03D030006E
:10A77000FFF79AFF2C00200007B0F0BD014CFAE76C
:10A78000014CF8E717FCFFFF11FCFFFFF8B50400D0
:10A79000171E1DDD060048363378002B02D03378B3
:10A7A000012B17D12200E3795632013B13702300AD
:10A7B0000025200054331D8050300CF071FC230024
:10A7C0004A331F80022328004C3425803370F8BDA3
:10A7D0000148FCE70148FAE717FCFFFF12FCFFFF06
:10A7E000F7B505000F00161E18DDFFF74DFF2B0013
:10A7F00048331C78E4B2002C12D1390001A80CF0C7
:10A8000047FC320001A92800FFF7C0FF01A80CF0A7
:10A81000DDFB2800FFF748FF2000FEBD0148FCE7F4
:10A820000148FAE717FCFFFF11FCFFFFFF2902D8E0
:10A830004172002070470148FCE7C04617FCFFFF4B
:10A8400010B50400034B08330360FEF7C7F920007E
:10A8500010BDC046D0B3020070B50400002516003C
:10A860000B4BA5800833A5712360E161080001212D
:10A870000CF045FF074BA680A360074BA57125612F
:10A880006561A561E3602000FEF79AF9200070BDC4
:10A89000D0B30200FFFFFF7F0200008070B504000C
:10A8A0000121C0690CF01FFFA268824200DD020096
:10A8B000E368A260834200DA03002169E3600131AA
:10A8C0002161182917DD9B1A0C4A0D48A3619B18BA
:10A8D00058430C4907F096FAC3430025DB1718408C
:10A8E000094B6061A360094B2561E36020000DF016
:10A8F000AFF8280070BD0648FCE7C04660F0FFFFD7
:10A900008C0A0000C04B0300FFFFFF7F02000080A5
:10A9100016FCFFFF82B0F0B5040089B080680F9389
:10A920000E920CF05DFEE0680CF05AFE4C4906A851
:10A93000FEF708FD60680DF07BF8059020680DF0CB
:10A94000B1F8FA200127800010F020FA6068FFF7C4
:10A950007FFEFF216068FFF769FF6568414907A82E
:10A96000FEF714FC782207A92800FFF739FF07A893
:10A970000CF02CFB3C4B7F4204933C4B0393A068B0
:10A980000CF02AFE002834D0E0680CF025FE0028E8
:10A990002FD020680DF088F860680DF04BF806A9FC
:10A9A00007A865680CF0E8FB0022314B009207A96C
:10A9B000019328001300FFF78DFE07A80CF0CFFBD2
:10A9C000FA20C00010F0E2F960680DF033F8A068DA
:10A9D0000CF00BFEE0680CF008FE05996068FFF7CC
:10A9E00025FF06A80CF0BBFB09B0F0BC08BC02B008
:10A9F00018472068FFF752FF051E03D0022010F011
:10AA0000C5F9F6E720680DF04DF8039B010083427D
:10AA100000DD0390049B8B4200DA04910423019330
:10AA20000023039A00932068049B0DF042F806006F
:10AA300087420FD060680CF0FDFF04239F1B3FB2DC
:10AA4000606829B27430FF233A000135FEF70CFC30
:10AA5000052DF5D1642010F099F937008FE7C04635
:10AA600092C10200E5C1020002000080FFFFFF7FEB
:10AA7000DC050000F7B58360089B0500C3601D4B33
:10AA800001601F684260002F31D02820FEF772FA63
:10AA9000040010300CF036FB174B18202360FEF733
:10AAA00069FA00220600154B019205600832002168
:10AAB0000C30009310F0B4FA08226946301D10F0F3
:10AAC00093FA0F4B002273611223A3803B68E2606C
:10AAD000A660226262625B68210038009847002805
:10AAE00005D020000CF028FA2000FEF763FA2800B9
:10AAF000FEBDC046CC2600202200040015A901009E
:10AB0000CF7A0200F0B51F0085B00AAB1B780400B5
:10AB1000039300933B000D0016000FF02BFF00285D
:10AB200033D0237D082B2DD8236800221900FC3157
:10AB30008A62A021C9005A50154905205A5001388F
:10AB4000C046C046C046C046C046C046C046C046D5
:10AB5000C046C046C046C046F1D1236801325A50B3
:10AB6000A0210432C9005A5006F056FF039B320060
:10AB7000009329003B0020000FF0FCFE237D0133F1
:10AB80002375CCE7034805B0F0BD2075FBE7C04650
:10AB9000FC0F00000EFCFFFFF0B51F0085B00AABF4
:10ABA0001B780400039300933B000D0016000FF088
:10ABB000C9FE002833D0237D082B2DD8236800221E
:10ABC0001900FC318A62A021C9005A50154905209C
:10ABD0005A500138C046C046C046C046C046C0466E
:10ABE000C046C046C046C046C046C046F1D12368F4
:10ABF00001325A50A0210432C9005A5006F00CFF0D
:10AC0000039B3200009329003B0020000FF09AFEC6
:10AC1000237D01332375CCE7034805B0F0BD2075D3
:10AC2000FBE7C046FC0F00000EFCFFFFF8B50D1E51
:10AC300030D000260227C468002C28D0AA88A38818
:10AC400053403B4204D13A4204D1AB883B4219D035
:10AC5000646AF1E7A968A0680DF0BEFF0028F4D08F
:10AC60002B88002B02D022889A42F1D16B88002BCE
:10AC700002D062889A42EBD1A288074B0136134377
:10AC8000A380E5E7A368AA689342E1D1E8E7200042
:10AC9000002E00DC0148F8BD0080FFFF17FCFFFF1D
:10ACA000F0B5060085B00D1E59D00127C468002CF0
:10ACB00022D00221AA8800230A4202D0A3885B087E
:10ACC0003B40226829688A4210D1A068A968002BFD
:10ACD0000AD00DF081FF002808D0A3881AB2002AFC
:10ACE00006DB204805B0F0BD8842F6D0646ADEE796
:10ACF0005B045B0CA380F4E7F0682A88002807D186
:10AD0000F5600123184968460CF006FA0020E9E7CF
:10AD1000010003001C88944206D25C6A1900002CD2
:10AD20000DD02300F6E723001C88944207D15F88EA
:10AD30006C88A74203D25C6A1900002CF3D18142CF
:10AD400009D10B889A4204D305D148886B88984270
:10AD500001D96962D4E74B6A6B624D62D1E703485F
:10AD6000C0E7C04616FCFFFFFD03000017FCFFFF15
:10AD7000064B10B51A00040008322C330260436001
:10AD80000430FDF72BFF200010BDC046E8B30200E1
:10AD900008B4024B9C46043808BC604771AD010002
:10ADA00008B4024B9C46043808BC6047457C02004E
:10ADB0000C4A002311002C32083110B50381837234
:10ADC0004260C36003614361438301600400043057
:10ADD000FDF7F6FE044B1A68002A00D11C60200023
:10ADE00010BDC046E8B30200CC260020F7B50E0027
:10ADF0000125C4680192002C36D0238832889A42FB
:10AE000001D0002B23D1638872889A4201D0002B95
:10AE10001DD1FDF749FE0123002806D0C022A388DA
:10AE20001340C03B5A425341DBB2019A934219D1BD
:10AE3000A7883BB2002B15DB10223100A01810F0C0
:10AE4000D3F840231F4204D020000CF004FF646AB2
:10AE5000D1E7FDF729FE0028F6D021000348FDF7D1
:10AE6000D3FFF4E70025F2E72800FEBD577C02007F
:10AE700008B4024B9C46043808BC6047DF7D0200E2
:10AE8000F0B587B001930EAB1B88060003930D9BB2
:10AE90000D000093019B02920C9F002B3DD0002FD0
:10AEA00002D1009BDB0738D52820FEF763F80400A9
:10AEB00010300CF027F96B461B8925806380182021
:10AEC000FEF758F80500009B08220593019B00211E
:10AED00003600C30049710F0A3F8082204A9281D81
:10AEE00010F082F80E4B02226B6100230399E3609D
:10AEF0002362636233680A43A560A2805B68210015
:10AF000030009847002806D020000CF015F82000EB
:10AF1000FEF750F8034807B0F0BD0348FBE7C04612
:10AF2000197E020016FCFFFF17FCFFFFF0B50400BE
:10AF3000160000258380164A164B85710260218118
:10AF400046810573186889B08C46A8421DD0124A04
:10AF500005950492C02202926A4604AB82CB82C25B
:10AF600023002A006146FFF78BFFC022094B0A49E4
:10AF7000186802926A46069106AB079582CB82C298
:10AF800023002A003100FFF77BFF200009B0F0BD4D
:10AF90002CB40200CC260020437F020030B50024F0
:10AFA00003730123034D84710560818082734373B1
:10AFB000846030BD44B4020070B5094C00212368A0
:10AFC000D8680368DB6A9847050023680021D868C1
:10AFD000044B1A6803681B6A9847280070BDC04676
:10AFE000E4260020DC260020F7B5040000260193AB
:10AFF0002C4B0D0008330360868086711700E160DA
:10B0000001222100103000F0D7FF20002100022291
:10B0100030300DF07BFA20002100032254300DF077
:10B02000B4FA6B469B88E771A38023002827200091
:10B03000B433A6716672A6723A001E6031005C30AD
:10B040000FF0EEFF2300200084333A0031001E8011
:10B0500088300FF0E5FF2300B0331E802B682800F6
:10B060009B6998472B6828001B690F4998472B68F4
:10B0700031002800DB6998472B6828005B6B0321AF
:10B0800098472B68042128001B6B98472B682800E1
:10B090005B699847FDF708FC01232372034B2000EE
:10B0A0001C60FEBD54B40200DD800200E4260020D6
:10B0B00010B50C000BF036FE002806D1642C06D823
:10B0C000A123044ADB00D45010BD0348FCE7034829
:10B0D000FAE7C0460010004016FCFFFF17FCFFFF18
:10B0E000F7B50700B4373B680500002B28D00300F4
:10B0F000853300931C78032301341C40E3B2019391
:10B10000030084331B78E2B293421BD06E20FDF71C
:10B1100031FF06006E2200210FF082FF6E22396897
:10B1200030000FF061FF6A4600201634009BA40037
:10B1300012792C1966601A706B7A01336B72FEBD3E
:10B140000148FCE70148FAE717FCFFFF13FCFFFF8B
:10B150008023F0B59B4C5B00226885B01A4050D02C
:10B1600000200825984A994B506110619060216831
:10B170002940814220D0C2210A2689005E5004392C
:10B180005D502168924D2940216010212568294396
:10B190002160506001221A608E4B03211B68DC681D
:10B1A000236820001D6ADB6A984702005F32FF3285
:10B1B00003212000A84731E00126206830422DD02D
:10B1C000C2250A20AD005851043D585181480568F8
:10B1D0002800B430076880481F5020687F4F3840EF
:10B1E00020600220276838432060EC6851605E6070
:10B1F000236803211D6A2000DB6A98470200C832D9
:10B20000D6E7022723683B4200D16DE06E4B5968B8
:10B21000002905D05A6001236C4A936005B0F0BD47
:10B220009A680092002A13D09960802322681B0339
:10B2300013432360674C01212368D8680368DB6AE5
:10B24000984723683900D8680368DB6A9847E5E7C0
:10B250001A69002A48D062495E4D0A6801320A60C4
:10B26000226860490A4001212260009A9A60009A8F
:10B270001A61564B99602B68DE6833683000196A92
:10B28000DB6A01910121984757494218300001219A
:10B29000019EB04780234D4ADB00D358012B7CD15F
:10B2A0006A46524B127839001A702B68D8680368C6
:10B2B000DB6A984723684E4A0F2013402A682360B0
:10B2C0001300B43319684B7903424AD01A07120F9E
:10B2D00012180240834313434B712368BB4323601E
:10B2E0002268444B13432360364C23689B0300D4ED
:10B2F000A5E010222368134000D185E00027354DDA
:10B30000314E2B680121D86877600368DB6A984763
:10B3100028680CF0CFFE10222368050093432360B9
:10B320004023226813430F222360334B1978437A5A
:10B33000114093430B4313404372437919099343DC
:10B340000B4343712368441D9B022BD56770A77084
:10B35000E7701E4B204A9D5001229A600023336102
:10B360005CE723682549D6680B40236033683900C1
:10B370001A6A30000092DB6A98470500AF2000018E
:10B38000FDF76CFA2A00C8321218009B3900300011
:10B390009847802322685B03A4E7194A13680133A6
:10B3A00013603BE7FFF708FE164B1A681B688242E2
:10B3B00006D2C01A030A6070000CA370E070C8E7E0
:10B3C000181AF7E720270020FC100040001000406A
:10B3D000F7FEFFFFE426002004050000FEFEFFFF4D
:10B3E0001C270020FFFFF7FFC4090000562A002099
:10B3F000FFFFDFFF88000400AA200020FFFFFBFF03
:10B40000E8260020E02600202268520617D59E4A32
:10B410000121136123689D4A1340236022689C4BDD
:10B42000134323609B4B1B68DD682B6828001E6A52
:10B43000DB6A9847984B0121C2182800B04723685F
:10B440005B033DD523685B0618D500228E4B012196
:10B450001A612368914A13402360812322681343B1
:10B4600023608C4B1B68DD682B6828001E6ADB6A32
:10B470009847894B0121C2182800B047102623683D
:10B4800033421DD0834D01212B68D8680368DB6AE5
:10B4900098472368B3432360402322681343236003
:10B4A0002B687F4AB43319687E4B995001229A6009
:10B4B0000022754B1A61802322685B0313432360CB
:10B4C0002368DB0200D4BDE02368774A00261340DE
:10B4D0002360704B1F683B00B4331D682B79EA78FA
:10B4E0001B02134301936B780293AB78029A039388
:10B4F000019B12021B041343039A1A432368009210
:10B50000DB0128D538000CF0D5FD029A4378934230
:10B510001DD18378039A934219D10379C2781B0213
:10B520001343019A9A4212D138000CF09BFD5F4FF1
:10B530005F4A3B7800999B00995038780A21013086
:10B5400006F046FD5B4BC9B239701E6001362368B8
:10B55000594A1340236023689B014BD52368574AFF
:10B56000E97913402360AB7909020B43297A544AE5
:10B57000090419436B7A534C1B07DB0E9B5A6A79FB
:10B58000019313091207120F9B1AD8B22B78DB0014
:10B590007D33FF3343435B1823604B4B994212D9F1
:10B5A0004A48FCF70BFEE879AB7900020343287A9E
:10B5B00000041843FCF712FE4548FCF7FFFD206825
:10B5C000FCF70CFEECE7334F00213B68D8680368BA
:10B5D000DB6A9847FA2301999B004B4322680021BC
:10B5E0009B1A18183A683B4B1860D0681A680368B1
:10B5F0001B6A98476B7A9B0600D50126002301221F
:10B600002B4C990009590098814200D11600013352
:10B610000A2BF6D1002E15D11E4B6A781868C37913
:10B620009A4201D0002B0DD1FFF75AFD1F4D009A11
:10B630002B780A219B00E2502878013006F0C8FCE4
:10B64000C9B2297024490B681B0600D4E6E5002224
:10B650000D4B1A615A609A605A61124B01321A619D
:10B660000B681E4A1A4080235B0013430B60094B92
:10B6700003211B68DC68236820001D6ADB6A984789
:10B6800002001E3294E5C046FC100040BFFFFDFFE3
:10B6900081000001E4260020C4090000BFFFFBFF79
:10B6A0000405000000100040FFFFEFFF582A0020B3
:10B6B000F026002018270020FFFFFFFEFFFFFFFD00
:10B6C00088200020D826002040420F00F1C102004F
:10B6D000F7C10200DC260020202700200900FFFF20
:10B6E00010B5034A136801331360FFF731FD10BD35
:10B6F000EC260020E02310B5144C1B0322681A42EC
:10B7000023D10222124BDA672368DB0107D5114AE5
:10B7100013680133136023680F4A134023602268C3
:10B720000E4B13432360FFF713FD02220C4B1A60EC
:10B730000C4B0D4A19781278914206D300221A70E8
:10B74000802322685B051343236010BD202700205F
:10B7500004E100E018270020FFFFFFFE800040000A
:10B7600000E100E0562A0020572A0020F7B5454C9A
:10B7700000212368D8680368DB6A9847424B434A34
:10B78000186012781968424B5200D25AFA239B0073
:10B790005343404D5B1840492B600A683F4B052AD4
:10B7A00006D980221868920302431A6000220A60B8
:10B7B00080211A68C903114006D123682A68D86815
:10B7C00003681B6A9847F7BD1A6835490A401A6032
:10B7D0001968344A0A431A601E6880239B031E407E
:10B7E00021D023680221DF683B6838001A6ADB6ACF
:10B7F000009298472C4E3268831830680193FDF709
:10B800002DF8019B0221C218009B3800984723683D
:10B810002A68D868002103681B6A9847234B336065
:10B82000FFF796FCCFE72248FDF718F82368019050
:10B83000DF6802213B6838001A6ADB6A0092984789
:10B840000200019BF532FF32D2180221009B380022
:10B85000984723680121DF683B6838001A6ADB6A71
:10B8600000929847FA231B01C2180121009B38005F
:10B87000984723682A68D868310003681B6A98478C
:10B88000CEE7C046E4260020E0260020AA200020C3
:10B8900088200020DC2600201827002020270020F8
:10B8A000FFFF3FFF0100000208200020409C000035
:10B8B000C40900009823F7B5184DDB032A681A4223
:10B8C00014D10224164B174EDC67174B1F68380043
:10B8D0000CF0F0FB2B68002809D0A22212051A40B8
:10B8E000124B13432B60FFF733FC3460F7BD9B0210
:10B8F000FBD5FF6821003B6838001A6ADB6A0192B9
:10B90000984705000A48FCF7A9FF094B2100ED18EC
:10B910002A18019B38009847E7E7C04620270020F7
:10B9200004E100E000E100E0E426002088000200DD
:10B9300080841E00F7B507000191B1370600387802
:10B940000A21013006F044FBCBB200933300B03340
:10B950001B78CAB20C0093421CD06E20FDF70AFB84
:10B9600005006E22002122340FF05AFBA4006E2243
:10B97000019928000FF038FBA55172B66B461B7871
:10B980003B7062B6B37A0133B3722879EB78000268
:10B990001843FEBD0048FCE713FCFFFF10B5040090
:10B9A0009CB01048FCF75AFF6B4680B2D870000A72
:10B9B00018716946092300220B706846E3798A7082
:10B9C0004B704B7A44218271C27102722032134350
:10B9D000113A93434171437269462000FFF7AAFF71
:10B9E0001CB010BDFFFF0000F8B5837906000020F1
:10B9F000DB0700D588E00BF095F9002800D084E043
:10BA00003700B4373D68002D08D16E30FDF7B2FA2B
:10BA100004006E2229000FF003FB3C603B68002B02
:10BA200000D174E0002380253A4A3B4C13706D002E
:10BA3000237023780A2B08D82800FCF70FFF282151
:10BA400006F0C6FAC9B22170F3E70022334B012198
:10BA50005A608022D20511605A68002AFCD0062262
:10BA60002F4B304D9A56304B0721EA503000FFF7EC
:10BA70001FFBA2230024DB00EC502C4A2C4B2D4949
:10BA8000EA5001222C4BC020EC502C4B8000EC5093
:10BA90000433EA502A4B0732EA502A4A0433EA5068
:10BAA0000222294BEA50294BE9502949043BE9502D
:10BAB0003968284BE950C021274B49005A50195882
:10BAC000264D294019501A60254BF5685C60254ABF
:10BAD0001C61254B21001A602B6828001F6ADB6A55
:10BAE0009847337A214A5B009B5AFA2292005A43C4
:10BAF000210012182800B8470122B37930001343FF
:10BB0000B371FDF75DF82000F8BD1948FCE719484E
:10BB1000FAE7C046562A0020572A0020FC000040C1
:10BB20003EC30200001000400C05000075696275FC
:10BB30001C050000FFFF0000240500002C0500008C
:10BB40001405000064000400340500003C050000FA
:10BB5000211001000405000000E100E0FF00FFFFEC
:10BB6000FC100040000160002027002088200020F9
:10BB700016FCFFFF13FCFFFF030002008433853235
:10BB800011781B78002299420DD0084A01331340E6
:10BB900004D50422013B524213430133DBB2163376
:10BBA0009B00C3185A6810007047C046030000800D
:10BBB00030B5020004008532843423781278010005
:10BBC00000209A4213D00A4A01331340834204DA18
:10BBD0000422013B5242134301330025DAB29200A2
:10BBE0008A18D06DD56523704B7A013B4B7230BDFE
:10BBF00003000080F8B51D4D04002B68DB0005D55F
:10BC0000FFF7CCFE2B681A4A13402B602000FFF789
:10BC1000B3FF051E29D026001036877830000CF0BF
:10BC20006DFC874203D1300000F01CFBEEE72600DC
:10BC300030363000AF780CF098FC874203D13000EA
:10BC40000CF072FCE2E7AE782500543528000CF0C9
:10BC5000B2FC864203D128000CF09CFCD6E7200001
:10BC6000FFF7A6FFFDF7A6F9D0E7F8BD20270020D3
:10BC7000FFFFFFEFF7B51400012501911048FCF715
:10BC8000EDFD00239C460F4980B29E007258002AA9
:10BC90000ED077587258FFB2A74209D1120A019FFD
:10BCA000D2B2BA4204D17258120C904200D1AC46C2
:10BCB00001330A2BE9D16346002BDFD1FEBDC0461C
:10BCC000FFFF0000F02600201300F0B5033B87B013
:10BCD000CA1C0500D9B204A800230CF0B3FF002150
:10BCE00004A802F07BF9002604001A490B689B881F
:10BCF0009E4210DA0027174BA8681B685B889F429A
:10BD000007DA39B232B274300023FDF7ADFA0137E9
:10BD1000F1E70136E9E7AD68002C12D103A80BF07A
:10BD20002BFA230022000194009403A92800FEF7B7
:10BD3000FBFC03A80BF013FA04A80CF08AFF07B071
:10BD4000F0BD054903A80BF017FA002201920092FA
:10BD50001300EAE7282700202C27002030B585B003
:10BD6000040002A80CF063FF002102A80CF0BDFF44
:10BD70001A4B01A81968FDF709FA01A902A80CF0ED
:10BD8000AAFF01A80BF022F9154B01A81968FDF7CD
:10BD9000FDF901A902A80CF09EFF01A80BF016F90D
:10BDA0000023E3601033237402A80CF079FF050030
:10BDB00002A80CF078FF02002000290011300FF0DB
:10BDC00013F902A80CF06FFF011D89B220000CF0DE
:10BDD0006BFA02A80CF03DFF05B030BD102000202A
:10BDE0000C2000207FB5002504008668144903A8B4
:10BDF0000BF0C2F92B002A0003A901950095300031
:10BE0000FEF792FC03A80BF0AAF9FE21606800F08F
:10BE1000B3FC6668C02103A80BF002F92A0003A94D
:10BE2000300000F023FC03A80BF0D0F82000FFF74F
:10BE300095FF2068012110300CF0BEFA7FBDC0468E
:10BE400024270020F0B587B001930EAB1B880600B5
:10BE500003930D9B0D000093019B02920C9F002BFE
:10BE60003DD0002F02D1009BDB0738D52820FDF7FD
:10BE700081F8040010300BF045F96B461B892580D2
:10BE800063801820FDF776F80500009B08220593D3
:10BE9000019B002103600C3004970FF0C1F80822C9
:10BEA00004A9281D0FF0A0F80E4B02226B6100239D
:10BEB0000399E3602362636233680A43A560A2804A
:10BEC0005B68210030009847002806D020000BF066
:10BED00033F82000FDF76EF8034807B0F0BD0348C3
:10BEE000FBE7C0461181020016FCFFFF17FCFFFFB5
:10BEF00070B54260144A88B000260492C0221D002A
:10BF00000C9B040001608360466702926A460596B6
:10BF100004AB03CB03C2230032000C492800FFF717
:10BF200091FF0B4A07960692102202926A4606ABD0
:10BF300003CB03C22300012220212800FFF782FF48
:10BF4000200008B070BDC046E5820200F4F5000094
:10BF50005181020070B5104E10493000FDF7F2F922
:10BF60000F4D104C2A00210030000EF0FFFF0E4E46
:10BF70000E493000FDF7E6F92A00210030000EF0EE
:10BF8000F5FF0B4E0B493000FDF7DCF92A003000BD
:10BF900021000EF0EBFF70BD2427002004C2020038
:10BFA000002000205F7102002827002023C2020029
:10BFB0002C2700204DC20200F0B504000026294BBA
:10BFC00085B0083303608160868086712100183057
:10BFD00015000CF095FA200021001C300CF0C7FA77
:10BFE000214B25732661666120001E70FCF7E8FD79
:10BFF0001E4B1B680193B34230D02820FCF7BAFFD8
:10C00000050010300BF07EF8212318202B60FCF780
:10C01000B1FF0700164B0460082231000C30029378
:10C0200003960EF0FDFF02A9381D08220EF0DCFF7A
:10C03000104B29007B611223AB80019BEE601B68D3
:10C04000AF602E626E625B6801989847B04205D07F
:10C0500028000AF071FF2800FCF7ACFF200005B0B3
:10C06000F0BDC0466CB40200592A0020CC26002046
:10C0700079C001006783020082B0F8B50500103571
:10C0800029000692120C079304000CF0CEF9076801
:10C09000060011480AF0DCFD3B0008210A339A78BB
:10C0A0000A4202D132790A4212D05A78B97A12027F
:10C0B0000A43200029000CF08FF9041E04D00CF074
:10C0C00072F92000FCF776FFF8BC08BC02B01847F4
:10C0D000022313433371F7E7F2C20200F7B50026DB
:10C0E00005690400B54234D001272A793A420DD0BF
:10C0F000002E0BD1290020000CF0C8F92B79BB438E
:10C100002B713E00AD68002DEFD122E002231A42D0
:10C1100029D0EB88304A01339BB2EB809342F1D9AE
:10C12000002EEFD16B790133DBB26B71022B11D989
:10C130002A480AF08DFD2F6821003E000A367278E9
:10C14000BB7A12021A43103120000CF045F9051E8B
:10C1500017D1F7BD22480AF07BFD290020000CF022
:10C1600095F9EE80CDE75307CCD5EB881D49013317
:10C170009BB2EB808B4201D91B48DAE71307C1D58C
:10C18000FAE72B791B0706D528000CF00CF92800DC
:10C19000FCF710FFDDE7B3782100019340232A006C
:10C1A000B370143120000CF032F9019B9B0707D0CB
:10C1B00020007178BB7A0902194318300CF0A2F9FB
:10C1C000019B5B07C5D520007178BB7A0902194332
:10C1D0001C300CF0CEF9BCE7DC05000012C30200F5
:10C1E0001EC30200B80B000025C30200F0B51E00FC
:10C1F000170005009FB0184801910AF029FD320090
:10C200003900A868FFF736FD02ABD870000A187134
:10C2100012480AF01DFD0C2302AA002413704423C7
:10C220009471D471147253715770537A96700F22AF
:10C23000934302AA537213006A469288A8685A81EF
:10C24000202302AA137311000BF05EFF04480AF0CA
:10C25000FFFC20001FB0F0BDFFC2020008C30200B7
:10C2600032C30200F0B5060089B05F480AF0F0FC66
:10C27000B068FFF79DFC07000A37BB7804009B06F7
:10C280001AD55A480AF0E4FC7978A37A09021943CE
:10C2900030000CF0F4F8002809D00222037993430F
:10C2A0001A000423134303710023C3804371200049
:10C2B000FCF780FE09B0F0BD7978837A0902194352
:10C2C00030000CF0DCF8002802D1B3799B070BD5C5
:10C2D00047480AF0BDFC7978A07A09020143A378A7
:10C2E00062783000FFF782FF7D78A37A2D021D432C
:10C2F00063782A000293A3783E49039300933000A9
:10C30000029B0CF0C9F8002803D03B480AF0A0FCBF
:10C31000CDE7039B394A0193029B364900933000D5
:10C320002B000CF0CBF836480AF092FC31007A78FA
:10C33000A37A12021A43103130000CF04DF8B37991
:10C3400005009B0744D5002846D12E480AF080FC02
:10C350000C20FCF70FFE050000232B486B60AB6040
:10C360002C600AF075FC31002A00143130000CF00A
:10C370004EF87878A37A000218430AF06AFC234842
:10C380000AF066FC28790AF064FC7A78A37A120233
:10C390001A431F49012304A80AF0BEFEBB789B077D
:10C3A00007D030007978A37A09021943183000F0D9
:10C3B00035F82300227B0A33520700D47AE7300095
:10C3C0005978A27A090211431C3000F033F871E762
:10C3D000002801D10F4899E72868FCF7EBFD0E48CB
:10C3E0000AF036FCB8E7C0468CC2020091C20200D7
:10C3F00096C20200302700209DC20200592A002068
:10C40000AAC20200B1C20200DAC20200E9C20200FE
:10C41000F4F50000C4C20200B9C202001FB50A0050
:10C420000123034968460AF077FE05B000BDC04607
:10C43000F5F50000F0B5006887B00CF051F83F2228
:10C44000036806001C7B94433AD11A0019780D3218
:10C450000D392300C9B268460CF0F4FB2100684690
:10C4600001F0BCFD012187B2684601F0B7FD230051
:10C47000164A85B299005458002C23D0E188B9425D
:10C4800020D1A188A9421DD10222694602A80CF040
:10C490000DFC200002A908300AF002FE02A80AF0F2
:10C4A00095FD01232A000A4902A80AF035FE300052
:10C4B0000BF079FF3000FCF77DFD68460CF0C9FBFE
:10C4C00007B0F0BD01330A2BD4D1F0E75827002084
:10C4D000F6F50000F0B5224B85B01B7804005B0731
:10C4E00039D50EF08FFA0025236CC6B20227DF5F24
:10C4F000AF420EDD200029B240300AF0F6FD864240
:10C5000005D1012320211A0068460AF005FE0135F5
:10C51000EEE7250023004E3528884C33197801308A
:10C5200005F056FD230050331B8889B28B4214D08E
:10C530002B88A26CD654636C2980002B0BDB2A88D5
:10C54000934208D1012302225B426364023320211B
:10C5500068460AF0E1FD05B0F0BD01230322F6E7CD
:10C560005A2A00200121024A13788B431370704726
:10C570005A2A002010B5002903DB024B19600EF087
:10C5800066FA10BD4027002070B504001E0004AB01
:10C590001D7804F0B5FD20000E4B40302360FCF701
:10C5A0002FFE230001364C33013522001E701D730F
:10C5B0000023E1214E32A36463651380538093818D
:10C5C000D381013B200063644902FFF7D3FF2000C1
:10C5D00070BDC04670B2020070B505001400012A9B
:10C5E00011D003004E331888023B4018197805F02B
:10C5F000EFFC69640025022C03D1210020200AF001
:10C6000011FC280070BD014DFBE7C04617FCFFFF81
:10C6100070B50600503604000A003388002906D1A0
:10C6200002004E3212889A4208D10F4870BD01298B
:10C630000FD101004E310A889A42FCD0A36C308899
:10C640004C341D5C2178013005F0C2FC280031809B
:10C65000ECE70229F2D101004E3109889942EDD16F
:10C660000121FFF7B9FFE9E70CFCFFFF70B51500EA
:10C67000012A0BD040300AF013FD0024022D03D113
:10C68000012120200AF0CEFB200070BD004CFBE70A
:10C6900017FCFFFF73B50D0006A9040009780430EC
:10C6A000002A01D1DE070ED5002D0CD018264E43EE
:10C6B0000C34A41962600122A360044B25606361FD
:10C6C00005F0FCF873BD0022FAE7C046BB85020006
:10C6D000F0B5164E85B0337805005B0705D500210F
:10C6E0000BF076FFA86CFCF765FC04273378BB439E
:10C6F00033702B004C331878FCF73CFCA8640028FE
:10C7000011D02B0000244E331C805C80337828002D
:10C710001F433770064A009423002900FFF7BAFF31
:10C72000200005B0F0BD0348FBE7C0465A2A0020B0
:10C73000D5C4010013FCFFFF012370B50E000C49A6
:10C7400005000A781A4211D113430B70530708D51C
:10C7500031002800FFF75CFF0400FFF703FF200013
:10C7600070BDFFF7B5FF041EF2D0F8E7014CF6E705
:10C770005A2A00200DFCFFFF012310B5094A147846
:10C780001C420CD123431370030001314C33197048
:10C79000FFF79EFF0400FFF7E5FE200010BD024CEE
:10C7A000FBE7C0465A2A00200DFCFFFFF7B58027A3
:10C7B0007F053D697C690822113C6C43060021001D
:10C7C00068460EF011FC104B009A9A4219D0009363
:10C7D0000023019379693000133969430BF0FEFEA1
:10C7E000019A009930000BF011FF210030000BF08E
:10C7F000F5FE7969AB0813396943220030000BF06C
:10C80000F7FE0198FEBDC046FECA0000F0B50D005F
:10C81000A9B00D9200213022060010A80B930EF053
:10C82000FFFB28000EF03CFC431C0C93102B00D99E
:10C83000B5E00B9B202B00D9B1E0290030000BF0B4
:10C8400012FF071E50D129000C9A10A80EF0CCFB45
:10C850000D990B9A14A80EF0C7FB80235B051A698B
:10C860005F690C92113F7A4330005D690B92FFF7CC
:10C870009DFF3022002104001CA80EF0D1FB2900EE
:10C8800000270C9B1339594330000BF0A7FE0D977E
:10C8900030257D430B9B0833ED18A74242DA29006F
:10C8A00030221CA80EF0A0FB10A91CA80EF0EEFB75
:10C8B000002827D13C49300022000E910F940BF044
:10C8C000A5FE6A46099513AB23CB23C223CB23C213
:10C8D00023CB23C23000129B1099119A0BF0A4FEB7
:10C8E00001230D930137D3E710300B9A0D990EF009
:10C8F0006CFB04003800FCF75DFB002CA3D120008A
:10C9000029B0F0BD6A4609951FAB23CB23C223CBC8
:10C9100023C223CB23C230001C991D9A1E9B0BF00F
:10C9200083FEDFE7E5433023ED1725405D430B9B96
:10C9300008355D190D9B002B1DD10C9B3021981ED5
:10C9400005F0D6F9A0422CD017490134300022005E
:10C950000E910F940BF05AFE6A46099513AB23CB48
:10C9600023C223CB23C223CB23C230001099119AB8
:10C97000129B0BF059FE0B9930000BF02FFE802319
:10C980005B0559690C230C9A133963434A430233FC
:10C99000110030000B9A0BF02BFE0024AFE7034C84
:10C9A000ADE7034CABE7C046FECA000017FCFFFF33
:10C9B00013FCFFFF70B50400A280FA2200230800D8
:10C9C0000C49920008312160A3716061E260A360AC
:10C9D000638209490BF047FE051E09D001002000C3
:10C9E0001031022212300EF0FFFA2800FCF7E2FAB2
:10C9F000200070BD84B4020036C3020030B50225A9
:10CA0000837987B004002B4204D1FCF7D9F8A379CD
:10CA10001D43A57120000BF070FE00281CD06B4652
:10CA2000DD1C28000BF060FE2B78002B17D001A82E
:10CA30000BF058FE0321019AD3170B409B189B1053
:10CA40002382FCF75FFBE368A18818180123A0602C
:10CA50001A0002A80AF060FB002007B030BD0122D6
:10CA6000064B1A60064A51680029FCD0002151602B
:10CA7000044A1268019201225A60DBE700C00040BC
:10CA8000FCC0004008C50040022802D10122014B31
:10CA90001A7070475B2A002070B5064C0500237899
:10CAA000002B04D1044801F08DFF012323702800DE
:10CAB00070BDC0465C2A002089CA010070B50C0018
:10CAC0000AF030F9002810D00023144DA40A2B706E
:10CAD00020000BF026FE002803D00A200EF056F9A5
:10CAE000F6E72B78002BFCD070BD02210C4B0D4AD1
:10CAF00099508021C90008005D58002DFCD0A1216B
:10CB0000C9005C5019580029FCD00021995080219F
:10CB1000C9005A58002AFCD0E6E7C0465B2A00202C
:10CB200000E0014004050000F8B50C0015001E00EF
:10CB30000AF0F8F8002811D00023174F3B7032009C
:10CB4000290020000BF0EBFD002803D00A200EF096
:10CB50001DF9F4E73B78002BFCD0F8BD01210F480C
:10CB60000F4B844619508021C9005A58002AFCD026
:10CB700080270022FF00964207DD91006858605030
:10CB8000D9590029FCD00132F5E7002261465A50FC
:10CB9000DA59002AFCD0E0E75B2A002004050000F7
:10CBA00000E00140002370B5180001241D00094970
:10CBB0009A005218516C002904D021009940084372
:10CBC000C0B255640133042BF1D1034B1B68984765
:10CBD00070BDC046FC80004044270020014B00206F
:10CBE00019607047442700201F22037A13401E3A21
:10CBF00011009940024BD967C36800205A60704702
:10CC000004E100E0C268024B0020D1507047C046EA
:10CC10000405000010B5C379013B99420FDC0B00FD
:10CC20005133C068FF339B001A508023C1225B023E
:10CC30008B409200845823438350002010BD01484C
:10CC4000FCE7C04617FCFFFF30B5C379013B9942B2
:10CC500011DCA825C0688B00C318ED005C59A21830
:10CC60005A518023C1225B028B4092008458234397
:10CC70008350002030BD0148FCE7C04617FCFFFF91
:10CC800010B5C379013B99420ADC8023C2225B02C2
:10CC90008B40C0689200845823438350002010BD0D
:10CCA0000048FCE717FCFFFF092905D8A223C2684A
:10CCB0000020DB00D15070470048FCE717FCFFFF65
:10CCC00070B5040008201E49205604F091FA08218E
:10CCD0006156002921DA03250F23CAB213402A40E6
:10CCE000AA40FC359540083B16489B089B001B1842
:10CCF000D869A843402595402A000243DA61012201
:10CD00001F230B401100C02099400F4B40001950C9
:10CD10001960E36800201A6070BD0B4A8B089B0005
:10CD20009B180322FF26C0250A40D2009640AD0082
:10CD30005859B04340269640320002435A51DEE72C
:10CD4000A5CB010000ED00E000E100E010B50024FB
:10CD5000C371044B8480083384710360C160027224
:10CD600010BDC0469CB4020010B50400054B08334A
:10CD700003601C300AF02AF9200018300AF026F966
:10CD8000200010BDDCB40200FF23F0B52C4D8DB0A7
:10CD90002B700023040069460088009303F0D8F943
:10CDA000002802D16B469B782B70264E3368DB68D7
:10CDB000002B07D1002320881A0019000BF0D1FCAA
:10CDC0000DB0F0BD2B78032BF4D81F4901A8FCF758
:10CDD000DDF9336801A9DE6804A80AF059F904A94D
:10CDE00030000BF073FC0027060004A80AF0EEF8F0
:10CDF000BE421ED031002022103104A80EF0F4F8FB
:10CE00003000FCF7D7F8297804ABC900591808227C
:10CE100002A80EF0E9F820880123082202A90BF0ED
:10CE2000A0FC0137002804D12088084A0C210BF00F
:10CE300096FC01A80AF0CAF8002FBBD0C0E7C04694
:10CE4000AB2000205427002046C30200FFFF000053
:10CE5000F0B5837991B004005B071BD5FCF752F95C
:10CE600000232269801A9941994203D1F423FF33A8
:10CE700098420FD9A068002808D0364B1D880CF0C6
:10CE80008EFD036815221B6A290098470422A379A6
:10CE90009343A371A3799B0759D52F4D2B68DB686A
:10CEA000002B50D02D4B1B78032B4CD8294B2C49F1
:10CEB0001B8804A80193FCF769F92B6804A9DE68B4
:10CEC00008A80AF0E5F808A930000BF0FFFB0700FE
:10CED00008A80AF07BF802AB9E1D082332003380BD
:10CEE00006A9073B01980BF03EFC002F08D0390043
:10CEF0002022103108A80EF077F83800FCF75AF815
:10CF0000164B32881B7806A9DE0008AB9E1930004C
:10CF10000EF05BF8002813D0082206A930000EF0AE
:10CF200063F82B6804A9DD6805A80AF0B1F820238E
:10CF300008AA05A928000BF0CFFB05A80AF046F8BF
:10CF400004A80AF043F80222A3799343A37111B015
:10CF5000F0BDC046002A002054270020AB2000204E
:10CF600046C30200F7B5089E0500152922D8012006
:10CF700007008F40244C27421CD0E97FCC181F2C7F
:10CF800041DC69183418A14210D80021C8B283428C
:10CF900004D9545C701884700131F7E732789A181C
:10CFA0003270EA7F9B18EB7700202CE00878C85499
:10CFB0000139E8E73478013CE4B2A34208D1002308
:10CFC000D9B28C42F0D9D05CF11888700133F7E700
:10CFD000EF7F0120FF183F1B1F2F14DC0227A01C2E
:10CFE0007F423618381B0190E87F2F18BE4204D2CA
:10CFF0003078019FF0550136F6E7041B023CEC77D0
:10D0000028000BF0FAFBFEBDFC002000F0B585B057
:10D0100001930AAB1E880BAB1B78451C02930EAB29
:10D020001B78040003930B78170003704B8A1022BF
:10D030004382013128000DF0D7FF6B469B88268381
:10D0400063836B461B7B002623776B4601221B7A8A
:10D050006761E683EB77A31CDA770C9B0C25636290
:10D06000230020000D9A28331A705E709E702A00EB
:10D0700031002C300DF0D4FF2000074BE663A36392
:10D080002A00310040300DF0CBFF2000034B266515
:10D09000E36405B0F0BDC0467D8702006F870200E3
:10D0A00070B50D000CF07BFC04000368002D09D165
:10D0B0005B699847FA2080006843074904F018FE2E
:10D0C000E08070BD9B6898478542F3D223682000BA
:10D0D0009B6898470500EDE771020000F0B5070076
:10D0E0001600A1B002C704006B4918A81D000BF080
:10D0F000CBFB331E03D030000DF0D2FF83B20122F0
:10D1000004920022039202920232019200933200B2
:10D1100018A93800FFF77AFF23006049583318A890
:10D1200007930BF0B1FB2B1E03D028000DF0B8FFC6
:10D1300083B20122049200220392029202320192EF
:10D1400000932A0018A90798FFF760FF23005449AD
:10D15000AC3318A808930BF097FB269B002B03D049
:10D1600018000DF09DFF83B2012204920022039269
:10D170000292023201920093269A18A90898FFF7AA
:10D1800045FF631CFF33474918A809930BF07CFB4C
:10D19000279B002B03D018000DF082FF83B20122E1
:10D1A00004920022601C03920292023201920093C8
:10D1B000279A18A9FF30FFF729FF23005533FF33C3
:10D1C000394918A809930BF05FFB289B002B03D06B
:10D1D00018000DF065FF83B2012204920022039231
:10D1E0000292023201920093289A18A90998FFF737
:10D1F0000DFF2300A933FF332C4918A80A930BF025
:10D2000043FB299B002B03D018000DF049FF83B28C
:10D2100001220492002218AD03920292023201927E
:10D220000093299A29000A98FFF7F0FE204B1B78FB
:10D230000B93002B2DD1079B12971393089B0DAFD7
:10D240001493631CFF331593099B1A4916930A9B89
:10D25000380017930BF018FB1D2149203B78102252
:10D260002B707B8A12AE6B8206ABC918C0180DF00A
:10D27000BBFE06232B756B469B8D2068AB83AE618E
:10D280000CF091FB036829001B6898470122084BAA
:10D290001A70200021B0F0BD292A0000242A0000C5
:10D2A000252A0000272A0000262A0000282A00003C
:10D2B0005D2A00200A18000070B5002504000A4B02
:10D2C0008580083385710360C1601830FBF798FFD3
:10D2D00020001C30FBF794FF044BA5601C60012369
:10D2E00065612000A37170BDDCB4020054270020EA
:10D2F000FA2130B585B00500012302228900684675
:10D3000009F00AFF074C2068002809D00BF0F5FA55
:10D310002988054B22681980022391790B43937168
:10D3200005B030BD54270020002A002010B50C00A5
:10D3300007290DD880680CF032FB064B195703689B
:10D340005B6C9847431E9841034B4042184010BD08
:10D350000248FCE73EC3020016FCFFFF17FCFFFF7C
:10D36000F0B5A44C0D00A544040007939AAB1B78BC
:10D37000A14909A804930692FBF708FF20002900A1
:10D380001C3009F08DFEC020800001F011FB082048
:10D39000FBF7F0FD0600002100F0CCFE15ADA66005
:10D3A00000210C220EA80DF03BFE2B000EAA83CA12
:10D3B00083C3924B2900EB60002330002B610CF0FB
:10D3C000D7FAA0680CF0EBFA08220021059016A805
:10D3D0000DF026FE1420FBF7CDFD29000200884B3E
:10D3E0001593C8C9C8C2874B059EC3600023A436E5
:10D3F00003613368002B00D0F5E03060A0680CF0CA
:10D40000D2FA08220021060016A80DF009FE142009
:10D41000FBF7B0FD7C4B1593030086CD86C37B4B99
:10D42000C36000230361336B002B00D0DDE0306369
:10D43000A0680CF0B4FA08220021050016A80DF02F
:10D44000EFFD1420FBF796FD714B15AE159303000D
:10D4500086CE86C36F4B9835C360002303612B686B
:10D46000002B00D0C3E02860012504AB1B7C04AA7C
:10D470002B4308A9280013740BF077F9A0680CF06F
:10D4800096FA036864495B6A9847A0680CF08FFAC3
:10D49000036862499B699847A0680CF088FA0023EA
:10D4A00002680093166804992A00B047049B002B79
:10D4B0000AD020000BF02AFA032805DDA0680CF042
:10D4C00076FA0368DB6898470EA80BF08DF92F20D9
:10D4D00004ABC0180BF088F9362004ABC0180BF071
:10D4E00083F93D20042504ABC0180BF07DF90EAB89
:10D4F0000A93A06804AB5D770CF059FA03680AA997
:10D500001B699847A0680CF04AFA03680AA95B6D8A
:10D510009847A0680CF043FA03680021DB6D984738
:10D52000A0680CF03CFA036802219B6D984700212B
:10D530002000FFF7FBFE1820FBF71CFDA16800F0A0
:10D5400005FA374B374A1B68A1680393364B15A879
:10D550001B6800260293354B0CAF1B680193069B9A
:10D560001B685B190093324B12681B68FFF7B6FD0E
:10D570003020FBF7FFFC079AA16800F0A7FAA0682B
:10D580000CF00DFA036839009B6A9847294BBE805E
:10D59000A0680C930CF003FA03683900DB6A984723
:10D5A0002900A0680BF07CF9099A09219378A068FA
:10D5B00052190BF088F9A0680CF0F1F932210671CC
:10D5C000A068FFF76DFD04AB1B7FB34204D0A068D9
:10D5D0000CF0E5F90BF04EF909A809F0F7FC9523DA
:10D5E0009B009D44F0BD036107E703611FE70361F2
:10D5F00039E7C046ACFDFFFF39C402008B8702004B
:10D60000F1D201009987020089CD0100A7870200AD
:10D61000D5870200B587020039D601006DD601001A
:10D62000502700204C2700201420002048270020ED
:10D63000182000200800100013B506226846FBF7EA
:10D64000B5FD094B1C68002C0AD0694601A809F0F9
:10D650001FFD200001A90BF07AF901A809F0B6FC22
:10D66000684609F0B3FC13BD54270020002373B5AE
:10D6700001AE0C0031000500019302F069FD0028A5
:10D6800002D1B278064B1A70064B1868002806D0F3
:10D6900061426141044BC9B21D800BF060F973BD5A
:10D6A000AB20002054270020002A0020F0B5040001
:10D6B00097B0039107A89C490592FBF767FD9B492A
:10D6C00008A8FBF763FD22000FAD28001C3207A954
:10D6D00009F0F5FC08AA290009A809F0F0FC2800C7
:10D6E00009F074FC92490AA8FBF750FDA0680CF001
:10D6F00056F903680DAE5B69984728000BF074F883
:10D70000332004ABC0180BF06FF83A2004ABC018FC
:10D710000BF06AF8412004ABC0180BF065F88023C9
:10D72000DB00B380A0680D950CF039F90368310077
:10D730005B6D9847A0680CF032F9036800219B6D7F
:10D740009847A0680CF02BF90700002506000A375F
:10D750001F22002138000DF063FCFD7730000BF034
:10D7600080F80621A0680BF09BF8099A09219378AC
:10D77000A06804320BF0A7F8A0680CF010F9C821DB
:10D780000571A068FFF78CFCA0680CF008F9FF2772
:10D790002E000581A0680CF002F90BF06BF80398DD
:10D7A000FCF756FF0AA90CA809F072FC78220CA914
:10D7B0000398FDF715F80CA809F008FC0399200060
:10D7C0000BF0E0F82000FBF7FBF9049501256369F5
:10D7D0001D402DD057490BA8FBF7B4FD0BA90CA891
:10D7E00009F0CAFC00220CA91300019200920398D0
:10D7F000FCF79AFF0CA809F0B2FC049B002B42D165
:10D80000043F282F41DD0025FE2F00DC049D0598F4
:10D8100009F0E2FE002806D0012362699A43130052
:10D8200004221343636100260BA809F098FC0495B9
:10D8300004226369134233D0FF210398C826FCF702
:10D84000F5FF0025B600A36902229B5EAB4222DDF4
:10D85000200029B2183009F048FC00230100039889
:10D860001A007430FBF7BEFD3000FBF741FA039855
:10D870000AF0E0F8C820FBF73BFA02226369134282
:10D8800009D10135DFE70437BBE703980AF0D2F886
:10D89000002FBCDDBAE7FA208000FBF729FA00264A
:10D8A000022365691D421CD006331D4024D0224945
:10D8B0000BA8FBF747FD0BA90CA809F05DFC0022A3
:10D8C0000CA90192009213000398FCF72DFF0CA8FD
:10D8D00009F045FC1948FBF70BFA0BA809F03FFCCF
:10D8E000174E6420FBF704FA164B01369E4200DC0B
:10D8F0006CE709F029FA69E713490BA8FBF722FD49
:10D900000BA90CA809F038FC2B002A000CA90195E2
:10D9100000950398FCF708FF0CA809F020FC0BA861
:10D9200009F01DFCDDE7C04652C3020062C30200DD
:10D9300064C3020072C30200B7C30200983A000039
:10D940008C0A00008B0A0000F4C302000022594B2D
:10D95000F0B50833060003600F001000A9B0B160F5
:10D960000BAB991801324870102AFAD10F3A524C79
:10D970001A700E32105D991A0874013AFAD2997B26
:10D980005A7B09020A4331000C31039125211B788F
:10D9900013AD2B7002ABC918452302A81B186A826D
:10D9A000180010220DF020FB039B64216B61012302
:10D9B000002402AA2B7752181993093313701DAB58
:10D9C0001C706D2302AA9B181C706E2321009B18EB
:10D9D0001EA80C22EC836C621C700DF021FB374BEF
:10D9E0000C22210023A8AB63EC630DF019FB344B30
:10D9F00002AAEB6446239B180322DA7722002C65E7
:10DA00000595347306AD2B1901345A70102CFAD1D8
:10DA100001232C482B700E33195CEA1A1174013B58
:10DA2000FAD211212520AA7B6B7B12020BAC134387
:10DA30002A78638202ABC9182270C01810220DF038
:10DA4000D3FA0123237505ABA36100233800A38318
:10DA50000BF0A9FF036821001B68984713ABDB8B11
:10DA6000B068B3820BF09FFF002203680092B18A76
:10DA7000039ADC680123A047B0680BF094FF07000D
:10DA80001420FBF777FA00220123040002610692BA
:10DA900040C00832290007930DF0A6FA0A4BE36054
:10DAA000BB69002B03D13000BC6129B0F0BD2361FC
:10DAB000F9E7C046F4B4020065C402007D870200A5
:10DAC0006F87020075C40200E5890200F0B50026E8
:10DAD0000400734BDDB0083303608160C260868050
