:020000021000EC
:1080000000400020410D02007D0D02007F0D0200A6
:108010000000000000000000000000000000000060
:10802000000000000000000000000000810D0200C0
:108030000000000000000000830D0200850D02001A
:10804000870D0200FDB1010099130200870D0200A7
:10805000870D020000000000B90D0200870D02002C
:1080600051C401001D16020021120200870D0200FA
:10807000870D0200870D0200870D0200870D0200A8
:10808000870D0200870D0200870D0200870D020098
:10809000870D02003DF00100D10A0200870D0200A9
:1080A000870D0200870D02000000000000000000A4
:1080B00000000000000000000000000000000000C0
:1080C00010B5064C2378002B07D1054B002B02D0AE
:1080D000044800E000BF0123237010BDD820002019
:1080E0000000000040BE0200044B10B5002B03D07E
:1080F0000349044800E000BF10BDC0460000000076
:10810000DC20002040BE0200164B002B00D1144B97
:108110009D46402292029A1A924600218B460F46B3
:108120001348144A121A12F04AFC0F4B002B00D0CD
:1081300098470E4B002B00D09847002000210400E8
:108140000D000D48002802D00C4800E000BF0DF0E3
:1081500017FE2000290012F0EEF90DF0FBFDC046DD
:1081600000000800004000200000000000000000A7
:10817000D02000201C2B0020000000000000000088
:1081800010B50400034B036040300EF0B0FC20003B
:1081900010BDC04610AC020007B5094B01A8197804
:1081A0000131C9B219700EF0CCFCC82201A95200ED
:1081B000044802F0A3F901A80EF099FC07BDC046DF
:1081C000AA200020B422002007B50B4800F05CF97B
:1081D0000A4803F099F90A4B01A8196800F0A0FFBA
:1081E000782201A9074802F019FA01A80EF07FFCD5
:1081F00000F0C0FD00200EBDC8210020A4250020F5
:1082000010200020B422002010B5084C200000F0FF
:108210006BF8074A0749200012F077FB064B074A24
:108220000749084803F05CFB10BDC046C821002088
:10823000002000204982010098220020CC2100204B
:10824000A4250020F4200020EB23194A9B0010B540
:10825000C2501C330400C0180EF049FCF1239B00EF
:10826000E0180EF044FC84239B00E01801F0C0FAF3
:108270002000C530FF3000F0DFFF20008D30FF30E0
:1082800001F07CFA20006530FF3001F077FA200021
:10829000EC3001F04FFF2000D03002F025FB200031
:1082A000643008F09DFC201DFFF76AFF200010BD20
:1082B00064AE020070B50B4C0500005900280ED0CA
:1082C00005F0EEFC836D9B0709D5285911F036F8AF
:1082D000036813215B6A9847642012F026FA0EF0B7
:1082E000D2FA70BD640400001423F0B5040095B008
:1082F000009319221821043003F09CFD2200250070
:1083000026006432B435132110001192B83608F0FB
:1083100073FC28000FF0CBFD00221E2130000FF06F
:108320004FF82000D03002F0FFFA2200EC32129217
:108330000621504A129801F021FF20000027012356
:1083400065301A0000971121FF3001F023FA200058
:108350008D300097012302221A21FF3001F01AFA12
:108360002000B5301A2302220121FF3002F09AFBCF
:108370002200C532FF321092310004233A221098B5
:1083800001F00AF884229200A218139205231D22FC
:10839000019300922B00109A3100139801F01EFCFB
:1083A00096218900129B6018109A139901F0F0FD34
:1083B0009921890060181C22290003F051FF19231C
:1083C0009F210F93013B0E93013B0D93013B0C93B7
:1083D000013B0B93013B0A93013B0993013B08933B
:1083E000013B0793013B0693013B0593013B04933B
:1083F000013B0393013B0293013B01938900013B45
:10840000601800930822013B07210EF0E1FFEB23E7
:108410009B00E018290004F0A5FBF3239B00E5185E
:10842000082204231449280004F0E6F8F7231D224B
:108430009B00E01800923B003A00290002F090FBFC
:108440000E4B1198E7500321277011F083FF230092
:10845000220020000A499C33A0321C601160576042
:10846000084A80305A610221012208F057FD20009D
:1084700015B0F0BD18AC020000800040640400009C
:10848000B5820100936702000123F0B506788DB034
:1084900004001E4000D0A3E0FD20800500F0FCFC9D
:1084A0002300D0331800029300F0D0FA00F0C6F990
:1084B000282000F029FD050010300EF0B4FB494BD8
:1084C00018202B6000F020FD0700474B04600822B5
:1084D00031000C300A930B9612F071FA0AA9381D7C
:1084E000082212F050FA414B29007B611223AF6041
:1084F000EE60AB802E626E62029802F08DF9002869
:1085000005D028000EF0A9FA280000F01DFD012377
:10851000227864201343237000F0B4FB0025270069
:108520006537FF3738000EF029FD002854D02000B1
:108530008D30FF300EF022FD00284DD00A2D4BD09B
:108540006420013500F09EFB0A2DE8D12849294816
:1085500000F078FCEB23284E9B00E3180393A3590B
:10856000002B32D100F058F8010006A800F0D8FD29
:108570000EF085F904900EF082F96B460590198A89
:1085800008A80EF0D1FA059B09A8190C0EF0CCFA38
:1085900009AA08A907A80EF023FB09A80EF0A7FA5C
:1085A00008A80EF0A4FA012307AA06A900930398CD
:1085B000029B04F02BFB07A80EF099FA06A80EF018
:1085C00096FAED239B00E358A35121003A00EC31C9
:1085D000039804F0C1FCA2E70549084800F032FC0A
:1085E0000DB0F0BDFD030000E9670200A9670200BD
:1085F00000200020001C002064040000080000206F
:10860000BFF34F8F024B034ADA60BFF34F8FFEE791
:1086100000ED00E00400FA05F0B58DB005AF1922B9
:108620001549380012F0AFF90022144B05245A7195
:1086300080225205566E0122250001940292039376
:108640000199300009F07AF90800029909F0F0F870
:10865000019B03996B430193029B361A6B43029370
:10866000631E2C1B6C433C19225C1C1ECA54E7D1B0
:1086700008000DB0F0BDC046B6B80200462A002082
:10868000F0B597B018220021060010A812F097F953
:10869000132110A811F0BAFF032110A812F04CF812
:1086A0004C4B1B68002B00D10133DBB202934A4ACA
:1086B000012300210BA808F09FFD484B9E4200D9E2
:1086C000002672B6464B64211D68464B3000079366
:1086D000052409F037F960435030281808900A2122
:1086E000300009F02FF90A2109F012FA61435031E4
:1086F0006918099130000A2109F00AFA80236143C0
:108700000024503169189B010A910193029B002BB0
:108710005DD0002500272E1F07AB9B190593032C66
:1087200003D1802300249B01019307AB5B592E4AA0
:1087300003936300D31804930023190006205843C1
:10874000049A16187678B4466246039EB25C1026E8
:108750009446049A105C62460641164202D00120FB
:10876000984001430133092BE8D1C9431F4B059AB7
:10877000090119401268039B934225D1312F23DC54
:1087800000210BA812F091F8FA23159A1199DB0039
:10879000106801421BD0013B002BF9D1019B013431
:1087A0005B000193FA230137E4B25B009F42B6D12C
:1087B0000435102DAED1074B1B68002BA6D0029FAD
:1087C000013FFBB20293A1E7019B1943D9E7FFF7F1
:1087D00017FFC04634260020F0FF0000E70300002A
:1087E0000420002005B90200CFB80200F01F0000ED
:1087F000F0B500281BDD0F4C421E27681100002039
:10880000BE09FB0F73407B403E097D087340BF08E3
:108810007B406B40DB072B4301251F0040002B40B2
:108820001843E940ECD18242E8D32760F0BD02480A
:10883000FCE7C0463026002017FCFFFFF8B50023F8
:10884000124C23600EF00DF8002808D004212000FF
:108850000EF003F8002801D00D4B2360F8BD012273
:10886000A12704250B4B0C491A602268FF004860C1
:108870004E68002EFCD0DE591202013D3243002D1D
:10888000F5D1226001225A60E8E7C0463026002078
:10889000ED5EBC0B00D00040FCD00040F0B585B0D0
:1088A0001F000AAB1B880600029115000393002FDE
:1088B0001CD0282000F028FB6B4604001989039B7C
:1088C000AAB200933B000EF0B1F8336821005B6858
:1088D0003000984700280AD0002C05D020000EF068
:1088E000BCF8200000F030FB024800E0024805B070
:1088F000F0BDC04616FCFFFF17FCFFFF0B4B70B529
:108900001C68002C10D0656D00F0C6FBA36C00291C
:1089100001D1834206D820000DF0D6FF0449200083
:108920000DF0C0FF2C00ECE770BDC0463C260020D7
:108930005C260020F0B593B007932A4B04AC1E6868
:10894000049005910692002E4AD0274B258867880F
:108950001C6800230293002C2ED0636D23480393E0
:10896000A36C9AB2A36C1B0C99B2854214D1204817
:10897000824211D1002B01D0B9420BD1029B002BB6
:1089800008D120000DF0A0FF1A4920000DF08AFF49
:1089900001230293039CDEE7002A01D09542F9D11E
:1089A000002B01D0B942F5D120000DF08DFF114907
:1089B00020000DF077FFEDE70F4BEB18012B0FD9DF
:1089C00010233A00009329000C4B08A80EF02EF853
:1089D000336808A99B683000984708A80EF03DF856
:1089E00013B0F0BD3826002068260020FE030000EA
:1089F000FF0300005C26002002FCFFFF3589010018
:108A000010B572B60B4B1C68002C08D020000DF07E
:108A10005BFF0023E364084B2000E36310BD62B6F4
:108A20005C2000F071FA5C220021040011F0C7FF05
:108A3000EFE7C0466026002000400020024B187877
:108A4000012318407047C0464C2A0020F7B50600A5
:108A5000FFF7F4FF051E33D11A4C2660FFF7D0FF55
:108A6000194B1A4918600DF01DFFFFF7C9FF184B8D
:108A70001860184B4363184B8363206800280ED09E
:108A8000C027164E2A00330015490097FFF706FF4E
:108A9000009733002A0013492068FFF7FFFE0C20DF
:108AA00000F032FA0023838083710F4B03600F4B79
:108AB000836000F009FB01230D4A11780B4313700A
:108AC000F7BDC046382600206C2600205C2600201A
:108AD00064260020FC3F00208F69020035890100D8
:108AE000FF030000FE03000038AC0200FD88010017
:108AF0004C2A0020F7B506000D001700019300284E
:108B000002D100242000FEBD0029FAD0FFF778FF33
:108B1000041EF6D0074B019A4363066045608760E8
:108B2000054B002A00D0054BA363054920000DF03A
:108B3000B9FEE7E7FC3F00205969020077690200AF
:108B40005C260020024B1868434258417047C046DB
:108B50005C260020002310B504499C006258002ABE
:108B600001D00133F9E76050100010BD4426002009
:108B7000002310B5044A99008C58844201D0013377
:108B8000F9E70020885010BD4426002010B50024CD
:108B9000084BA200D058002802D003685B689847B1
:108BA0000134062CF4D1044B1B68002B00D120BFEC
:108BB00010BDC046442600205C260020F8B5FFF713
:108BC0003DFF00281BD0294D2C68E36CDA0717D530
:108BD00002263343E3640423254F3868C26C1343F1
:108BE000C364636BC3630DF095FE3868416C04F099
:108BF000B0FD2868C36C334201D004F0E4FDF8BD39
:108C00001C4F1D4E3A683168002A1ED129602A681F
:108C10008A4208D11B0706D52C60FFF7B7FF3B68D7
:108C2000002BFAD02B6029688C42E8D03368994237
:108C300014D1124B4B63124B8B6320000DF06AFE74
:108C40002968626C4B6C20000DE0206DB84203D1A6
:108C5000606D002800D002002A60D8E79C42ECD169
:108C6000002210004B6C04F033FDC8E76C26002096
:108C7000402600205C26002064260020FC3F0020C7
:108C80008F69020070B50500FFF7D8FE002803D1F8
:108C9000280011F04AFD70BD0C4B1C68E36CDB072B
:108CA00006D5FFF7ADFE0A4B1860002800D004007F
:108CB00000F0F2F92D18A56420000DF005FE05491D
:108CC00020000DF0EFFDFFF779FFE4E76C260020B0
:108CD000402600203C260020F0B51E4B1E4F1C688D
:108CE0003B6885B006000391002B30D0FFF7A6FE4D
:108CF00000282CD0E36CDB070ED5FFF781FE174B65
:108D0000051E186008D00DF0DFFD154928000DF094
:108D1000C9FD2C00FFF752FF039B20001B043343C7
:108D2000A3640DF0D1FD20000E490DF0BBFD0E4BEC
:108D30000024F318012B07D9C0230093039A0B4B8F
:108D400031003868FFF7AAFD200005B0F0BD084CDF
:108D5000FAE7C0466C260020382600204026002076
:108D60005C2600206826002002FCFFFF35890100F8
:108D700016FCFFFF10B5FFF761FE002809D0054C77
:108D800020680DF0A1FD044920680DF08BFDFFF770
:108D900015FF10BD6C26002060260020F7B50700E7
:108DA0000D0000282ED0FFF749FE00282CD0072404
:108DB000164E3068C36C1C4007D0154A2900380095
:108DC0000DF099FD00242000FEBD04F0E4FC02211A
:108DD0003268D36C1940019103D003218B43D364D3
:108DE000F1E701242343D3642800B8473268D36CE9
:108DF0001900A143D164019C5B07E4D528000DF064
:108E0000B2FDE0E7034CDEE7034CDCE76C26002014
:108E10006769020017FCFFFF16FCFFFF020010B598
:108E2000014B12CB12C210BD70260020034B1A68F2
:108E3000034B1A607E225A607047C046042000200F
:108E40007026002070B5104D2B78022B18D081426F
:108E500018D90B1A072B15D90C00032304431C4007
:108E600010D172B62A78094BD200D05098184160C0
:108E70000DF093FD2B7801332B7062B6200070BD8E
:108E80000348FCE70348FAE74D2A00207826002033
:108E900013FCFFFF17FCFFFF70B50021041C08F056
:108EA00059FE002828D1FE21201C890508F05CFE0F
:108EB000002821D104300CF087FF05000F48401B2B
:108EC00009F032FE211C09F0CFFA08F081FE0323DD
:108ED0009843040028000CF081FF20000CF074FF80
:108EE000002804D1203C002CF7D1054803E00119EB
:108EF000FFF7A8FF002070BD0248FCE70038002003
:108F000013FCFFFF17FCFFFF70B5060000250C4B9C
:108F10001B78AB4209DD0B49EB00C91830000DF09E
:108F200044FD041E09D10135F1E730000CF04CFF7F
:108F3000041E02D11420FFF7A3FB200070BDC04621
:108F40004D2A00207826002070B5002813D00D4B44
:108F50000D491C7800239C4210DDDA0055588542EB
:108F60000AD28A185268824206D9802304380268DD
:108F70001B061343036070BD0133ECE70CF02EFFBA
:108F8000F9E7C0464D2A00207826002070B5051E5E
:108F900014DD0B4E0B4C3368002B02D0206811F00F
:108FA0004FFAFA2120680024074B89008361C462CC
:108FB0006943356011F04CFA200070BD0348FCE7AE
:108FC00088260020B82600207590010017FCFFFFBE
:108FD000F8B5114F06003D68002D0AD13020FFF78B
:108FE00093FF040007F062FE0C4BA5612360E5626D
:108FF0003C600B4D2B68002B09D11020FFF784FF3C
:10900000040011F071FA20002C6011F047FA3000D2
:10901000FFF7BCFFF8BDC046B826002014B202001E
:10902000B4260020014B18687047C04688260020EF
:1090300070B50D4C2368002B03D00C4B1B68002B24
:1090400002D10620FFF7C4FF206811F03EFA0200AB
:109050000749C3170D684E685219734120680A60AA
:109060004B6011F038FA70BDB4260020B8260020FD
:10907000D020002010B5FFF7DBFF0024054BA20035
:10908000D058002802D003681B68984701340A2C86
:10909000F4D110BD8C26002010B5FFF7C9FFFA22CD
:1090A000034B920018685968002308F071FD10BD49
:1090B000D020002010B5FFF7BBFF024B186859689D
:1090C00010BDC046D02000200B4B10B51B6804001B
:1090D000002B03D0094B1B68002B02D10620FFF7A1
:1090E00077FF0023064A99008858002801D00133F1
:1090F000F9E78C5010BDC046B4260020B8260020E9
:109100008C260020002310B5044A99008C58844214
:1091100001D00133F9E70020885010BD8C260020D3
:1091200010B50400002902D00B78002B03D1034BAB
:109130002360200010BD0DF0E1FCFAE748AC02000E
:10914000F8B504000E00150000290AD00B78002B9A
:1091500007D0002A05D0080097B211F070FC8742B2
:1091600003D90B4B23602000F8BD681DFFF7CCFE30
:1091700020600DF0B0FD23682A005F802368310075
:10918000181D11F000FC23685D1900232B71EAE71C
:1091900048AC0200014B03607047C04648AC020077
:1091A00010B50548054C20600DF098FD044A0549AE
:1091B000200011F0AAFB10BD48AC0200BC26002024
:1091C00000200020EF6A0200084B73B51C68050000
:1091D000002C0AD00100266808310822684611F0E8
:1091E000D2FB0CCD31682000884773BDC02600201B
:1091F00010B5054C012120000DF064FD034A04491F
:10920000200011F082FB10BDC426002000200020A9
:10921000816C02000388074A10B50120934208D0F0
:10922000834202D00020DB0703D41E20FFF728FA78
:10923000002010BDFFFF000010B50400034B0833F1
:109240000360FFF795FC200010BDC04690AC020003
:10925000FA2270B5438992005343314A31491400D0
:10926000050038348B421BDC2F498B4218D82F491C
:10927000083C8B4214D82E49083C8B4210D82D490B
:10928000083C8B420CD82C49083C8B4208D82B490F
:10929000083C8B4204D82A4914008B4200D9083478
:1092A000284B2A7B1E1D042A03D89E1C022A00D8A4
:1092B0001E00FA212068890008F0BAFA3378688124
:1092C0002B7300222A2128000DF02CFD002801D04C
:1092D0001D4870BD10222B2128000DF023FD002811
:1092E000F6D101222D2128000DF01CFD0028EFD120
:1092F00001222E2128000DF015FD0028E8D17278FA
:109300000E2128000DF00EFD0028E1D10122237965
:109310002A211A4328000DF005FD0028D9D0D7E7EF
:1093200050AC020000C40900007102008038010046
:10933000204E00001027000088130000C409000020
:10934000E2040000E5BA02000EFCFFFF7FB5150045
:109350000F226A4404001E001170002D16D0002B4D
:1093600014DD012301890093006B01F0D1F900287D
:1093700002D0074804B070BD0090218933002A0054
:10938000206B01F07BF90028F4D0F2E70148F1E707
:109390000EFCFFFF17FCFFFFF7B506000025019349
:1093A0001E4B143608330400036085808571C58127
:1093B000058245820F00009229001822300011F02A
:1093C000FEFA1C21300011F021F96B469B88022126
:1093D000A3806B461B88220023811423A57121736F
:1093E000A563A58763813E32137827638B43F131F0
:1093F0000B4013702300957295810135221DD5878E
:109400000833A21DD5872000DD87FFF721FF002844
:1094100002D1A3791D43A5712000FEBD90AC0200CE
:1094200030B50425837987B004002B4204D1FFF7BF
:1094300091FBA3791D43A571A36AA2691B6800254E
:109440001A4208D106236A4601212000FFF77EFF59
:10945000051E03D0114D280007B030BD6B46022217
:10946000042069469A561856237BD2005A4322821A
:1094700002220978C00049B2C900594343436382BC
:10948000A379E1819343A37120000DF059FC0123DE
:10949000A1881A0002A80DF0D0FBDCE70EFCFFFF4C
:1094A000F8B50400FFF7BCFF0E22A35E794F5B42C4
:1094B000BB4251DA23003E331B789B074CD5012574
:1094C000210028003E310B785A0890430200022008
:1094D000AA40834313430B702000FFF7A1FF102223
:1094E000A35E5B42BB4248DA23003E331B785B0736
:1094F00043D50125210028003E310B789A0890437E
:1095000082000420834313430B7026002000FFF7E2
:1095100087FF1222A35E4836BB423EDA23003E3369
:109520001B781B0739D5210001223E310B78D80862
:1095300082430820D200834313430B703378032BFC
:109540003BD80133DBB23370012B00D08DE0230018
:1095500000224A331A8030E02000FFF761FF0E221C
:10956000A35EC8225B42520000259342B4DD230073
:109570003E331B789B07A2D5AEE72000FFF750FFD4
:109580001022A35EC8225B4252009342BDDD23003D
:109590003E331B785B07ACD5B7E72000FFF740FFF1
:1095A000C8231221625E5B009A4204DD23003E3331
:1095B0001B781B07B7D5002DC0D13278002A14D0F4
:1095C0002100270001254A310B883E3701339BB229
:1095D0000B803878AC46054055D01D2B05D9634625
:1095E0009843002338700B80337020000DF014FC7A
:1095F000294A0723904244DD2000FFF711FF0E2384
:10960000E25E264E52420323B2423ADBC8252000D6
:10961000FFF706FF0E23E25EAD0052420423AA428A
:109620002FDC2000FFF7FCFE1023E25E02235242F3
:10963000B24226DB2000FFF7F3FE1023E25E012397
:109640005242AA421DDC2000FFF7EAFE1223E25E2E
:109650000523B24215DB2000FFF7E2FE1223E25E93
:109660000623AA420DDC00230BE0042BA5D1220027
:109670003E321178033B0B43137000234A3423809E
:109680000B331800F8BD092BAFD9013A0D803270A9
:10969000ABE7C04670FEFFFFFF700200E0FCFFFF7B
:1096A00070B5C369C1681A68451D8AB00400EB7FB4
:1096B000114255D0002B58D1EB7F082B0DD9012238
:1096C000A379134209D11343A371A188130006A8FB
:1096D0000DF0B3FAFFF7E0FC2062EB7F012B23D8FB
:1096E0000123A2791A421FD00025A188A571022268
:1096F00002A80DF0A2FAA31DDE7F012E14D1FFF700
:10970000CBFC2B00226A801A994100900191019BA9
:10971000A188AB4203D1174B009A9A4227D9012363
:10972000042206A80DF089FA0322A3791340012B25
:1097300014D1FFF7B1FC0023226A801A99419942A3
:1097400002D10D4B984209D90223A279A188134373
:10975000A3710522012306A80DF06FFA0AB070BDAF
:109760000B2BA9D80133EB77A6E7013BFBE73300CE
:109770000322D6E7E7030000DB05000010B5040074
:10978000034B08330360FFF7BDFC200010BDC0464B
:10979000A8AC0200F0B5070000250E0085B00293CA
:1097A0000AAB1B7808370393104B0400083303609F
:1097B00001928580857129001822380011F0FFF888
:1097C000039A3100380010F026FF6B466A469B88EA
:1097D000127AA380A31DE671DA77631D256220004B
:1097E000DD77FFF771FC200005B0F0BDA8AC0200EA
:1097F00010B50400034B08330360FFF7B9F92000EC
:1098000010BDC04618AD02007FB515000F226A4496
:1098100004001E001170002D16D0002B14DD012352
:1098200001890093C06B00F073FF002802D0074845
:1098300004B070BD0090218933002A00E06B00F075
:109840001DFF0028F4D0F2E70148F1E70EFCFFFF0E
:1098500017FCFFFF002330B585B003AC21700189F0
:109860000093050001332200C06B00F051FF002877
:1098700002D0094805B030BD20802989009002231C
:109880002200E86B00F0FAFE0028F2D1237860781D
:109890001B02184300B2EDE70EFCFFFF13B56B4649
:1098A000DC1D0023220023700133FFF7ADFF0028E9
:1098B00001D1207816BD0148FCE7C0460EFCFFFF31
:1098C000D0B504000DF082FBE268A369981A0AF093
:1098D00079FD06000F002369E069C01A0AF072FDE5
:1098E00032003B000BF0BCF80022104B09F07AFF6D
:1098F0000F4A104B09F074FC0AF0F0FD0021041C23
:1099000008F01EF9002804D0201C0B4908F03AFA90
:10991000041C201C0AF090FD02000B0000200749E7
:109920000AF0D2F90AF018FDD0BDC04600806640AA
:10993000EA2E4454FB2109400000B44300807640E5
:10994000F0B5050085B0006C0DF003FB061C286C1B
:109950000DF0F6FA0221071C28000DF068FB022129
:10996000039028000DF075FB09F094F80221041C07
:1099700028000DF080FB09F08DF8051C301C0BF061
:1099800031F80290301C0AF0EFFF0190381C0BF008
:1099900029F8061C381C0AF0E7FF071C039809F099
:1099A00079F8391C08F060FD311C071C201C08F0F8
:1099B0005BFD029908F058FD011C381C08F0E2F923
:1099C000311C071C281C08F04FFD019908F04CFDC4
:1099D000011C381C08F0D6F90299061C281C08F056
:1099E00043FD0199051C201C08F03EFD011C281CAC
:1099F00008F06CFE311C0BF037F80D4908F034FD0F
:109A00000AF01AFD0B4A0C4B09F0EAFB0AF066FD5E
:109A10000021041C08F094F8002804D0201C0449FC
:109A200008F0B0F9041C201C09F014F805B0F0BDD2
:109A30000000B443EA2E4454FB21194070B50022C3
:109A4000102104000DF0B4FA1B4D00282DD103267F
:109A500008212000FFF722FFA84226D0304226D15D
:109A6000FA216389890059435023144AD518D058E4
:109A7000884204D3D518083B18000830F7D1FA21E2
:109A80002868890007F0D4FEA022608111212000FF
:109A90000DF08EFA002808D101222B7910211A43EB
:109AA00020000DF085FA002800D0034870BD642026
:109AB000FFF7E8F8CCE7C0460EFCFFFFC0AC0200A1
:109AC0007FB50425837904002B4218D102260DF0BE
:109AD0007DFAA379A188B3432B43A3710622012306
:109AE00068460DF0AAF8A07903003040AB43A3719B
:109AF00043425841034B4042184004B070BD0248F5
:109B0000FBE7C04614FCFFFF15FCFFFF10B583798F
:109B100004005A070DD49B0701D4FFF7D1FF236C33
:109B20002000002B02D0FFF70BFF10BDFFF7C8FE8F
:109B3000FBE70148F9E7C04615FCFFFF70B5466C2E
:109B400086B001AC050001916260A360002E0CD0CC
:109B50000B4905A8FFF7E4FA0C23220005A9300001
:109B60000EF0E4F905A80CF0C2FF2B000C3307CC73
:109B700007C30223AA791343AB7106B070BDC04678
:109B8000EBBA0200642330B504000281438185B042
:109B90008180FFF753FF0222A379606C9343A37186
:109BA000002813D00C490EF088F9051E0ED00100D4
:109BB0000C22103101A810F0E6FE20000199029A53
:109BC000039BFFF7BBFF2800FFF7BEF90123A27933
:109BD0001343A37105B030BDEBBA0200F7B5009393
:109BE00008AB1B880400019309AB1D8800230F00FC
:109BF00016000D4A8380083283710260C3600361DE
:109C000043618361C36103621D2124300DF0C3F9F8
:109C1000009BE7632664290020006364019AFFF734
:109C2000B1FF2000FEBDC04618AD020082B0F0B505
:109C30000400A5B064202B932A9210F076FD042234
:109C40000C2109A803F064FE2422CC491BA810F0C3
:109C50009AFE052206A811000FF0CAFAC84907A803
:109C600003F004FFA06800F081FBA568C54918A8AF
:109C7000FFF756FA782218A9280000F0A5FC18A8CA
:109C80000CF035FF6E256420013D10F04EFD002DD7
:109C9000F9D1A06800F06AFBA0680DF08CFB0121EF
:109CA00060680DF0CDF80121070060680DF0DBF869
:109CB00006000A2010F039FD0022B34B03929F42A8
:109CC00010DB013203923A00C8320BDBC8220421B8
:109CD00092000391974205DC03220392C82F01DC16
:109CE000013A039200279E420CDB33000137C83350
:109CF00008DBC82303379B009E4203DC013FC82ECC
:109D000000DC013F06A80FF06AFA00260323734324
:109D10001BA9CA189078002805D0C95C5278FF2387
:109D200006A803F035FE01360C2EEFD16B463AB291
:109D30000C21595E06A8FF2303F02AFE0023A06829
:109D400000931A00743006A90FF059FA0023049307
:109D50000323049A039853431BAA995C814237D189
:109D6000D31805935B78BB4232D1059B9E78002EB9
:109D70002ED1310020680DF05AF908F08BFE320028
:109D8000031C290009A80EF0EEFB310020680DF03D
:109D900060F908F07FFE0122031C290009A80EF0DB
:109DA000E2FB310020680DF066F908F073FE29002F
:109DB000031C022209A80EF0D6FBFE2303229B05FA
:109DC000290009A80EF0CFFB0123059AED18937026
:109DD000049B013304930C2BBAD1642010F0A5FC32
:109DE0000B2D00DC5BE709A80EF0A9FB01220100A6
:109DF0000CA803F08DFD002509A80EF0A0FBA842D9
:109E00003CDD2900002209A80EF09BFB0022061C65
:109E1000290009A80EF095FB011C301C08F024FB5A
:109E20002900061C012209A80EF08BFB0122071C49
:109E3000290009A80EF085FB011C381C08F014FB52
:109E4000311C07F09FFF2900061C022209A80EF012
:109E500078FB02222900071C09A80EF072FB011CE6
:109E6000381C08F001FB311C07F08CFF2900031C93
:109E700000220CA80EF077FB0135BDE709AA1100FE
:109E8000012318A80EF089FB18A90FA80EF0E2FB19
:109E900018A80EF079FB0CAA09A912A801230EF04C
:109EA0007CFB002312AA0FA915A80EF076FB002256
:109EB00015A811000EF045FB0022061C012115A873
:109EC0000EF03FFB0022051C022115A80EF039FB05
:109ED000FC21071C8905301C08F0C6FA08F0BAFD01
:109EE000FC21060018908905281C08F0BDFA08F02E
:109EF000B1FDFC21050019908905381C08F0B4FA61
:109F000008F0A8FD2A00030031001A902068FFF72E
:109F100015FEA0680DF04FFA07A908A8A5680FF074
:109F200056F90022194B009208A90193280013004A
:109F300000F0BAFA08A80FF03DF9FA20800010F0FE
:109F4000F4FBA0680DF037FA15A80EF01DFB12A85F
:109F50000EF01AFB0FA80EF017FB0CA80EF014FB66
:109F600007A80FF027F906A80FF024F909A80EF0AA
:109F70000BFB25B0F0BC08BC02B01847F6BA0200D3
:109F80001ABB02005FBB0200E0FCFFFFDC05000023
:109F9000F7B583601D4B05001F6801604260002F0C
:109FA00031D02820FEF7B0FF040010300CF03BFE4B
:109FB000174B18202360FEF7A7FF00220600154B61
:109FC00001920560083200210C30009310F0F7FC7C
:109FD00008226946301D10F0D6FC0F4B0022736139
:109FE000C223A3803B68E260A660226262625B6873
:109FF000210038009847002805D020000CF02DFDE6
:10A000002000FEF7A1FF2800FEBDC046C0260020AC
:10A01000050006002D9C01008F700200F0B50400C1
:10A0200085B0637A9C46002B04D120000DF05AF8CD
:10A0300005B0F0BDA37A266F01931023019AF35661
:10A0400000259B1801229A402900F368039202938D
:10A05000029BAB4231DDB368019A6B439B18726976
:10A060005B00E77AD3181A785878E379012F14D176
:10A070005F1E3F1A10003A005B004343606F821876
:10A08000D3189B79634500DD6346627B1A4202D098
:10A090000123AB4019430135DAE7022F05D15F1EDA
:10A0A000BA1A277A013F381AE6E7032FE4D1277A54
:10A0B000013FBF1A02003800DEE71123C943F356FF
:10A0C000606C994023691940039B194310F0EDFB24
:10A0D000A27B072AACD8637B0C495B006373531CDB
:10A0E000DBB290004158A373022A03D8080010F095
:10A0F00011FB96E7064B2000236300236363054BA7
:10A10000E4622364143010F0A3F991E730AD02004B
:10A110001DA00100CF70020010B50400044B0360C5
:10A1200010F08EF9200006F0D7FD200010BDC046CB
:10A1300014B2020010B504000E4B08330360FEF7A2
:10A14000E1FF200074300FF035F8200060300FF090
:10A1500031F8200058300CF0CAFC200050300CF0D0
:10A16000C6FC2000044B14306361FFF7D5FF2000CC
:10A1700010BDC04650AD020028B20200F8B500255F
:10A180000400324B8580083303608571143016005B
:10A190000F0006F08BFD20002D4BE5626361256406
:10A1A0005030FEF7F7FF20005830FEF7F3FF200095
:10A1B000603003F0E7FB20000423F25E336826677B
:10A1C000590009B274300FF013F83368226FE3714D
:10A1D00073680126237210236581A7802561D356F9
:10A1E00091685918994204DD3000984001330543C5
:10A1F000F8E711230120D356D1685918994206DD9A
:10A2000002009A402669013332432261F6E71420A6
:10A21000FEF77AFE226900212A430123060006F098
:10A22000EBFFFF23220063720133A3810023483236
:10A230006664A37320001370A366FEF745FF012335
:10A24000A27920001343A371F8BDC04650AD0200AF
:10A2500028B20200F0B5437A85B00400002B04D187
:10A2600020000CF03FFF05B0F0BD0122837A110001
:10A270009C461023066F0025F356039263449940D1
:10A2800002912900F3680193019BAB422CDDB36876
:10A2900072696B4363445B00E77AD3181A78587885
:10A2A000E379012F10D15F1E3F1A10003A005B00C6
:10A2B0004343606F8218D3189B79002B02D0039B15
:10A2C000AB4019430135DFE7022F05D15F1EBA1AF3
:10A2D000277A013F381AEAE7032FE8D1277A013FAE
:10A2E000BF1A02003800E2E71123C943F356606C3D
:10A2F000994023691940029B194310F0D6FA667AF7
:10A30000B31EDBB2FC2B14D8FEF78CFE0B4B050002
:10A31000236300230A4863630A4BFF21E46223643A
:10A32000704307F00FFB290041432000143010F068
:10A330008FF8637A012B00D995E791E7E570020069
:10A34000B6030000CF7002001FB5012381881A00F8
:10A3500068460CF072FC012303491A0068460CF0B1
:10A360006CFC05B000BDC046FE0300001FB5030035
:10A3700048331A780400002A0DD000221A700123F5
:10A3800081881A0068460CF058FC012304491A0021
:10A3900068460CF052FC200074300EF020FF1FBD08
:10A3A000FF03000010B548300378002B06D0037877
:10A3B000012B03D0012102480CF0C5FA10BDC046A4
:10A3C000FF03000010B50121040006200CF0BBFAC9
:10A3D000064B984208D148342378002B04D02378C8
:10A3E000012B01D020BFF7E710BDC04616FCFFFFD0
:10A3F00070B50600141E19DB050048352B78002BBC
:10A4000002D02B78012B13D1002330001A007430B6
:10A4100003F07CFB002C07D033004A331C8000245F
:10A4200007234C3634802B70200070BD014CFBE7B5
:10A43000014CF9E717FCFFFF12FCFFFFF8B517000E
:10A440000A68050052880B00012A09D10021180072
:10A450000CF0DCFB002201002800FFF7C9FFF8BD6B
:10A46000002F19DD060048363278002A02D03278F3
:10A47000012A13D12A00002428005C32190014801C
:10A4800058300CF09EFB2B004A331F8003234C35C1
:10A490002C8020003370E2E70148E0E70148DEE766
:10A4A00017FCFFFF12FCFFFF73B5079C0500002C93
:10A4B0001CDB060048363078002802D030780128AE
:10A4C00016D106981BB2C0B20090280012B27430A8
:10A4D0000EF095FE002C07D02B004A331C80002480
:10A4E00007234C352C803370200076BD014CFBE7F0
:10A4F000014CF9E717FCFFFF12FCFFFFF7B5050061
:10A500000E00171E26DDFFF74DFF2B0048331C7889
:10A51000E4B2002C20D133685B88012B09D12100E3
:10A5200030000CF073FB220001002800FFF760FFF1
:10A53000FEBD310001A80CF03CFB3A0001A9280047
:10A54000FFF77CFF01A80CF0D2FA2800FFF73AFFD2
:10A550002000EDE70148EBE70148E9E717FCFFFFC2
:10A5600011FCFFFFF0B587B00D9C06000F000292B2
:10A570000393002C20DBFFF715FF330048331D78D1
:10A58000EDB2002D1AD1390005A80EF020FE0C9B6B
:10A5900001940093029A039B05A93000FFF784FF02
:10A5A00005A80EF007FE002C03D03000FFF70AFFCD
:10A5B0002C00200007B0F0BD014CFAE7014CF8E791
:10A5C00017FCFFFF11FCFFFFF8B50400171E1DDD8F
:10A5D000060048363378002B02D03378012B17D190
:10A5E0002200E3795632013B13702300002520003E
:10A5F00054331D8050300CF0E4FA23004A331F809E
:10A60000022328004C3425803370F8BD0148FCE754
:10A610000148FAE717FCFFFF12FCFFFFF7B5050042
:10A620000F00161E18DDFFF7BDFE2B0048331C7807
:10A63000E4B2002C12D1390001A80CF0BAFA3200B1
:10A6400001A92800FFF7C0FF01A80CF050FA28006C
:10A65000FFF7B8FE2000FEBD0148FCE70148FAE71D
:10A6600017FCFFFF11FCFFFFFF2902D841720020F9
:10A6700070470148FCE7C04617FCFFFFF0B51F001C
:10A6800085B00AAB1B780400039300933B000D00D8
:10A6900016000FF03EFE002833D0237D082B2DD866
:10A6A000236800221900FC318A62A021C9005A5097
:10A6B000154905205A500138C046C046C046C0461C
:10A6C000C046C046C046C046C046C046C046C0465A
:10A6D000F1D1236801325A50A0210432C9005A50E6
:10A6E00006F03AFF039B3200009329003B00200054
:10A6F0000FF00FFE237D01332375CCE7034805B02F
:10A70000F0BD2075FBE7C046FC0F00000EFCFFFF0C
:10A71000F0B51F0085B00AAB1B78040003930093CB
:10A720003B000D0016000FF0DCFD002833D0237D28
:10A73000082B2DD8236800221900FC318A62A02141
:10A74000C9005A50154905205A500138C046C04624
:10A75000C046C046C046C046C046C046C046C046C9
:10A76000C046C046F1D1236801325A50A0210432BC
:10A77000C9005A5006F0F0FE039B320000932900F6
:10A780003B0020000FF0ADFD237D01332375CCE7A6
:10A79000034805B0F0BD2075FBE7C046FC0F000084
:10A7A0000EFCFFFFF8B50D1E30D000260227C4684E
:10A7B000002C28D0AA88A38853403B4204D13A42B7
:10A7C00004D1AB883B4219D0646AF1E7A968A0685C
:10A7D0000DF02CFE0028F4D02B88002B02D022880C
:10A7E0009A42F1D16B88002B02D062889A42EBD159
:10A7F000A288074B01361343A380E5E7A368AA6844
:10A800009342E1D1E8E72000002E00DC0148F8BDCA
:10A810000080FFFF17FCFFFFF0B5060085B00D1E9E
:10A8200059D00127C468002C22D00221AA88002315
:10A830000A4202D0A3885B083B40226829688A420A
:10A8400010D1A068A968002B0AD00DF0EFFD0028F8
:10A8500008D0A3881AB2002A06DB204805B0F0BD54
:10A860008842F6D0646ADEE75B045B0CA380F4E701
:10A87000F0682A88002807D1F56001231849684646
:10A880000CF0DBF90020E9E7010003001C8894428A
:10A8900006D25C6A1900002C0DD02300F6E72300D5
:10A8A0001C88944207D15F886C88A74203D25C6AF7
:10A8B0001900002CF3D1814209D10B889A4204D3AC
:10A8C00005D148886B88984201D96962D4E74B6A00
:10A8D0006B624D62D1E70348C0E7C04616FCFFFF3C
:10A8E000FD03000017FCFFFF064B10B51A00040023
:10A8F00008322C33026043600430FEF739F920003F
:10A9000010BDC04668AD020008B4024B9C46043836
:10A9100008BC6047E9A8010008B4024B9C46043813
:10A9200008BC6047F77402000C4A002311002C3267
:10A93000083110B5038183724260C36003614361D3
:10A940004383016004000430FEF704F9044B1A68E5
:10A95000002A00D11C60200010BDC04668AD020076
:10A96000C0260020F7B50E000125C4680192002C16
:10A9700036D0238832889A4201D0002B23D16388B5
:10A9800072889A4201D0002B1DD1FEF757F801239F
:10A99000002806D0C022A3881340C03B5A4253412E
:10A9A000DBB2019A934219D1A7883BB2002B15DB89
:10A9B00010223100A0180FF0E6FF40231F4204D000
:10A9C00020000CF0A1FD646AD1E7FEF737F80028FB
:10A9D000F6D021000348FEF7E1F9F4E70025F2E79D
:10A9E0002800FEBD0975020008B4024B9C460438DD
:10A9F00008BC604791760200F0B587B001930EABBA
:10AA00001B88060003930D9B0D000093019B02928F
:10AA10000C9F002B3DD0002F02D1009BDB0738D5C7
:10AA20002820FEF771FA040010300CF0FCF86B4699
:10AA30001B89258063801820FEF766FA0500009BBD
:10AA400008220593019B002103600C3004970FF04E
:10AA5000B6FF082204A9281D0FF095FF0E4B022215
:10AA60006B6100230399E3602362636233680A43E6
:10AA7000A560A2805B68210030009847002806D0BE
:10AA800020000BF0EAFF2000FEF75EFA034807B053
:10AA9000F0BD0348FBE7C046CB76020016FCFFFF83
:10AAA00017FCFFFFF0B50400160000258380164A4E
:10AAB000164B85710260218146810573186889B043
:10AAC0008C46A8421DD0124A05950492C0220292DB
:10AAD0006A4604AB82CB82C223002A006146FFF79C
:10AAE0008BFFC022094B0A49186802926A460691F8
:10AAF00006AB079582CB82C223002A003100FFF704
:10AB00007BFF200009B0F0BDACAD0200C0260020E4
:10AB1000F577020030B5002403730123034D8471DF
:10AB20000560818082734373846030BDC4AD0200D0
:10AB300070B5094C00212368D8680368DB6A984720
:10AB4000050023680021D868044B1A6803681B6A53
:10AB50009847280070BDC046D4260020CC2600208F
:10AB6000F7B504000026019308AB1F88274B0D00A2
:10AB70000833868086710360E16010302100009206
:10AB800000F0F6FE6B461B78A780E3716B461B79DD
:10AB900028272372230020000833A67166813A001B
:10ABA000DE6731002C300FF00AFF23002000543301
:10ABB0003A0031001E8058300FF001FF230080332F
:10ABC0001E802B6828009B6998472B6828001B690A
:10ABD0000F4998472B6831002800DB6998472B689C
:10ABE00028005B6B032198472B68042128001B6B0E
:10ABF00098472B6828005B699847FDF71FFE0123E3
:10AC00006372044B20001C60FEBDC046D4AD020040
:10AC10008D790200D426002010B50C000BF021FE27
:10AC2000002806D1642C06D8A123044ADB00D450A6
:10AC300010BD0348FCE70348FAE7C0460010004097
:10AC400016FCFFFF17FCFFFFF7B507000837FB6F87
:10AC50000500002B28D00300553300931C780323F4
:10AC600001341C40E3B20193030054331B78E2B279
:10AC700093421BD0D220FEF747F90600D2220021D2
:10AC80000FF09DFED222F96F30000FF07CFE6A4675
:10AC900000200A34009BA40012792C1966601A70F7
:10ACA000AB7A0133AB72FEBD0148FCE70148FAE71D
:10ACB00017FCFFFF13FCFFFF8023F0B5994C5B00EE
:10ACC000226885B01A4050D000200825964A974B3C
:10ACD00050611061906021682940814220D0C221DA
:10ACE0000A2689005E5004395D502168904D294044
:10ACF00021601021256829432160506001221A60DB
:10AD00008C4B03211B68DC68236820001D6ADB6A0A
:10AD1000984702005F32FF3203212000A84731E04C
:10AD20000126206830422DD0C2250A20AD0058519E
:10AD3000043D58517F48056828000830C76F7E4899
:10AD40001F5020687D4F384020600220276838431C
:10AD50002060EC6851605E60236803211D6A20005A
:10AD6000DB6A98470200C832D6E7022723683B42D5
:10AD700000D16DE06C4B5968002905D05A60012361
:10AD80006A4A936005B0F0BD9A680092002A13D019
:10AD90009960802322681B0313432360654C0121C3
:10ADA0002368D8680368DB6A984723683900D86845
:10ADB0000368DB6A9847E5E71A69002A48D06049CA
:10ADC0005C4D0A6801320A6022685E490A4001212E
:10ADD0002260009A9A60009A1A61544B99602B681D
:10ADE000DE6833683000196ADB6A019101219847F7
:10ADF0005549421830000121019EB04780234B4A3B
:10AE0000DB00D358012B7CD16A46504B12783900B5
:10AE10001A702B68D8680368DB6A984723684C4A25
:10AE20000F2013402A68236013000833D96F4B7931
:10AE300003424AD01A07120F1218024083431343E9
:10AE40004B712368BB4323602268424B134323604A
:10AE5000344C23689B0300D4A1E0102223681340E4
:10AE600000D181E00027334D2F4E2B680121D86897
:10AE700077600368DB6A984728680CF073FD10223E
:10AE800023680500934323604023226813430F2265
:10AE90002360314B1978437A114093430B4313409D
:10AEA00043724379190993430B4343712368441D4B
:10AEB0009B022BD56770A770E7701C4B1E4A9D50F4
:10AEC00001229A60002333615CE723682349D66836
:10AED0000B402360336839001A6A30000092DB6A45
:10AEE00098470500AF200001FDF782FC2A00C83218
:10AEF0001218009B390030009847802322685B03BA
:10AF0000A4E7174A1368013313603BE7FFF710FE0D
:10AF1000144B1B68C01A030A6070000CA370E07029
:10AF2000CBE7C04610270020FC1000400010004076
:10AF3000F7FEFFFFD426002004050000FEFEFFFF01
:10AF40000C270020FFFFF7FFC40900004E2A002055
:10AF5000FFFFDFFF88000400AB200020FFFFFBFFA6
:10AF6000D8260020D02600202268520617D5904A05
:10AF70000121136123688F4A1340236022688E4B9E
:10AF8000134323608D4B1B68DD682B6828001E6A05
:10AF9000DB6A98478A4B0121C2182800B047236812
:10AFA0005B033DD523685B0618D50022804B012149
:10AFB0001A612368834A1340236081232268134364
:10AFC00023607E4B1B68DD682B6828001E6ADB6AE5
:10AFD00098477B4B0121C2182800B04710262368F0
:10AFE00033421DD0754D01212B68D8680368DB6A98
:10AFF00098472368B34323604023226813432360A8
:10B000002B68714A0833D96F704B995001229A60AE
:10B010000022674B1A61802322685B03134323607D
:10B020002368DB0200D4A1E02368694A00261340AC
:10B030002360624B1F683B000833DD6F2B79EA7891
:10B040001B02134301936B780293AB78029A03932C
:10B05000019B12021B041343039A1A4323680092B4
:10B06000DB0128D538000CF07DFC029A437893422E
:10B070001DD18378039A934219D10379C2781B02B8
:10B080001343019A9A4212D138000CF044FC514FFC
:10B09000514A3B7800999B00995038780A21013039
:10B0A00006F036FD4D4BC9B239701E60013623687B
:10B0B0004B4A1340236023689B0135D52368494AD6
:10B0C000A979134023606B7A474A1B07DB0E985A15
:10B0D000FA239B0043436A79019313091207120F65
:10B0E0009A1A2B78D2B2DB007D33FF335343EA79CF
:10B0F0003E4F120211432A7A304C12040A439B1825
:10B100003B6023680021D8680368DB6A98473B6886
:10B11000019A0021D31A18182268354B1860D0689C
:10B120001A6803681B6A98476B7A9B0600D501264C
:10B1300000240123284DA200525900998A4200D1CF
:10B140001E0001340A2CF6D1002E0FD11B4B1868BB
:10B15000FFF77AFD1F4E009A337821009B00EA50DA
:10B160003078013006F0D4FCC9B2317021490B6847
:10B170001B0600D406E600220D4B1A615A609A6045
:10B180005A61124B01321A610B681B4A1A40802324
:10B190005B0013430B60094B03211B68DC682368C9
:10B1A00020001D6ADB6A984702001E32B4E5C046E3
:10B1B000FC100040BFFFFDFF81000001D4260020ED
:10B1C000C4090000BFFFFBFF0405000000100040A1
:10B1D000FFFFEFFF502A0020E02600200827002074
:10B1E000FFFFFFFEFFFFFFFD88200020C826002094
:10B1F000CC260020102700200900FFFF10B5034ACD
:10B20000136801331360FFF757FD10BDDC260020E3
:10B21000E02310B5144C1B0322681A4223D10222EA
:10B22000124BDA672368DB0107D5114A1368013333
:10B23000136023680F4A1340236022680E4B1343A8
:10B240002360FFF739FD02220C4B1A600C4B0D4AAC
:10B2500019781278914206D300221A70802322684E
:10B260005B051343236010BD1027002004E100E0BC
:10B2700008270020FFFFFFFE8000400000E100E003
:10B280004E2A00204F2A0020F7B5454C00212368A4
:10B29000D8680368DB6A9847424B434A18601278C3
:10B2A0001968424B5200D25AFA239B005343404D37
:10B2B0005B1840492B600A683F4B052A06D980225B
:10B2C0001868920302431A6000220A6080211A68FB
:10B2D000C903114006D123682A68D86803681B6A2D
:10B2E0009847F7BD1A6835490A401A601968344A08
:10B2F0000A431A601E6880239B031E4021D02368E6
:10B300000221DF683B6838001A6ADB6A00929847BE
:10B310002C4E3268831830680193FDF769FA019B5F
:10B320000221C218009B3800984723682A68D86811
:10B33000002103681B6A9847234B3360FFF7BCFC6E
:10B34000CFE72248FDF754FA23680190DF68022115
:10B350003B6838001A6ADB6A009298470200019B3A
:10B36000F532FF32D2180221009B3800984723683B
:10B370000121DF683B6838001A6ADB6A009298474F
:10B38000FA231B01C2180121009B3800984723684B
:10B390002A68D868310003681B6A9847CEE7C04620
:10B3A000D4260020D0260020AB20002088200020BA
:10B3B000CC2600200827002010270020FFFF3FFF99
:10B3C0000100000208200020409C0000C409000089
:10B3D0009823F7B5184DDB032A681A4214D10224CA
:10B3E000164B174EDC67174B1F6838000CF0BAFA83
:10B3F0002B68002809D0A22212051A40124B1343D1
:10B400002B60FFF759FC3460F7BD9B02FBD5FF684A
:10B4100021003B6838001A6ADB6A019298470500F0
:10B420000A48FDF7E5F9094B2100ED182A18019BA0
:10B4300038009847E7E7C0461027002004E100E005
:10B4400000E100E0D42600208800020080969800E9
:10B45000F7B5070001918137060038780A210130DD
:10B4600006F056FBCBB20093330080331B78CAB290
:10B470000C0093421CD0D220FDF746FD0500D222DD
:10B48000002116340FF09BFAA400D2220199280063
:10B490000FF079FAA55172B66B461B783B7062B615
:10B4A000F37A0133F3722879EB7800021843FEBD7A
:10B4B0000048FCE713FCFFFF30B50400B7B01148AB
:10B4C000FDF796F96B4680B2D871000A187209230D
:10B4D0004422002501A90B70E37920004B70237AE8
:10B4E0004A713B3A6A448B704B7A55709570D570AF
:10B4F00020221343113A93434B72FFF7A9FF37B051
:10B5000030BDC046FFFF0000F8B58379060000207B
:10B51000DB0700D588E00BF0A4F9002800D084E018
:10B5200037000837FD6F002D08D1D230FDF7ECFC55
:10B530000400D22229000FF042FAFC67FB6F002BB7
:10B5400000D174E0002380253A4A3B4C13706D0013
:10B55000237023780A2B08D82800FDF749F9282101
:10B5600006F0D6FAC9B22170F3E70022334B01216D
:10B570005A608022D20511605A68002AFCD0062247
:10B580002F4B304D9A56304B0721EA503000FFF7D1
:10B5900043FBA2230024DB00EC502C4A2C4B2D490A
:10B5A000EA5001222C4BC020EC502C4B8000EC5078
:10B5B0000433EA502A4B0732EA502A4A0433EA504D
:10B5C0000222294BEA50294BE9502949043BE95012
:10B5D000F96F284BE950C021274B49005A501958A0
:10B5E000264D294019501A60254BF5685C60254AA4
:10B5F0001C61254B21001A602B6828001F6ADB6A3A
:10B600009847737A214A5B009B5AFA2292005A4368
:10B61000210012182800B8470122B37930001343E3
:10B62000B371FDF797FA2000F8BD1948FCE71948F7
:10B63000FAE7C0464E2A00204F2A0020FC000040B6
:10B64000CCBB0200001000400C050000756962755B
:10B650001C050000FFFF0000240500002C05000071
:10B6600014050000C8000400340500003C0500007B
:10B67000211001000405000000E100E0FF00FFFFD1
:10B68000FC100040000160001027002088200020EE
:10B6900016FCFFFF13FCFFFF03000200543355327A
:10B6A00011781B78002299420DD0084A01331340CB
:10B6B00004D50422013B524213430133DBB20A3367
:10B6C0009B00C3185A6810007047C04603000080F2
:10B6D00070B50B4D04002B68DB0005D5FFF7ECFEC1
:10B6E0002B68084A13402B602000FFF7D5FF002885
:10B6F00004D02000103000F013FAF5E770BDC0460A
:10B7000010270020FFFFFFEF30B502000400553284
:10B71000543423781278010000209A4213D00A4A48
:10B7200001331340834204DA0422013B52421343A3
:10B7300001330025DAB292008A18D06AD5622370EC
:10B740008B7A013B8B7230BD03000080F7B5164841
:10B75000009101920BF01BF81448FDF749F8002303
:10B760009C46134984B29E007258002A10D0775824
:10B77000019DFFB27258AF420AD1120A009DD2B2A7
:10B78000AA4205D17258120C944201D1012294466A
:10B7900001330A2BE7D16346002BDDD180B20AF0DA
:10B7A000F7FF2000FEBDC0466DBB0200FFFF00009A
:10B7B000E026002030B585B0040002A80CF061FE40
:10B7C0001A4B01A81968FDF7ABFC01A902A80CF0FF
:10B7D000ACFE01A80BF08BF9154B01A81968FDF719
:10B7E0009FFC01A902A80CF0A0FE01A80BF07FF9B4
:10B7F0000023A3601033237302A80CF07BFE050026
:10B8000002A80CF07AFE0200200029000D300FF093
:10B81000BAF802A80CF071FE011D89B220000CF0EC
:10B820004FF902A80CF03FFE05B030BD10200020FB
:10B830000C200020F0B587B001930EAB1B880600EA
:10B8400003930D9B0D000093019B02920C9F002B14
:10B850003DD0002F02D1009BDB0738D52820FDF713
:10B8600053FB040010300BF0DEF96B461B8925807A
:10B8700063801820FDF748FB0500009B0822059314
:10B88000019B002103600C3004970FF098F8082208
:10B8900004A9281D0FF077F80E4B02226B610023DC
:10B8A0000399E3602362636233680A43A560A28060
:10B8B0005B68210030009847002806D020000BF07C
:10B8C000CCF82000FDF740FB034807B0F0BD03486B
:10B8D000FBE7C046C179020016FCFFFF17FCFFFF23
:10B8E000F0B504000D008BB06260216016001F00EF
:10B8F000FFF760FF2800012110300CF063F9194AAE
:10B9000000250692C02202926A46079506AB03CB39
:10B9100003C223002A0014493800FFF78BFF134AA3
:10B9200009950892102202926A4608AB03CB03C223
:10B930002300012220213800FFF77CFFFE21300088
:10B9400000F070FBC02105A80BF0FBF82A0005A948
:10B95000300000F0E1FA05A80BF0C9F820000BB0A8
:10B96000F0BDC046FD7A0200F4F50000017A020045
:10B97000F0B504000026284B85B0083303608160D1
:10B9800086808671210014300CF02DFA20002100F1
:10B9900018300CF02EFA214BE660266120001E7054
:10B9A000FDF7D8F81E4B1B680193B34230D0282016
:10B9B000FDF7AAFA050010300BF035F92123182005
:10B9C0002B60FDF7A1FA0700164B04600822310036
:10B9D0000C30029303960EF0F2FF02A9381D0822E4
:10B9E0000EF0D1FF104B29007B611223AB80019B2D
:10B9F000EE601B68AF602E626E625B6801989847CC
:10BA0000B04205D028000BF028F82800FDF79CFA7A
:10BA1000200005B0F0BDC046ECAD0200512A002068
:10BA2000C0260020537C0200737B0200F7B500267D
:10BA3000C5680400B54210D001272A793A420DD0DA
:10BA4000002E0BD1290020000CF056F92B79BB43B6
:10BA50002B713E00AD68002DEFD1F7BD02231A42D5
:10BA600016D0EB8801339BB2EB805A2BF2D9002E13
:10BA7000F0D16B790133DBB26B710F2B14D82748EF
:10BA80000AF085FE290020000CF036F9EE80E0E790
:10BA90005307DFD5FA21EB88490001339BB2EB80D5
:10BAA0008B4201D81307D5D52B6820001A79D97895
:10BAB00012020A4321000C310CF094F803790500BE
:10BAC0001B0706D528000CF074F82800FDF73CFA97
:10BAD000C3E72F6821003E000A36B3782A0001939D
:10BAE00040231031B37020000CF097F8019B9B07A6
:10BAF00007D020007178BB7A0902194314300CF08A
:10BB000074F9019B5B07A8D520007178BB7A090204
:10BB1000194318300CF06FF99FE7C046BDBB020017
:10BB2000F0B5060089B05E480AF031FEB068FFF754
:10BB3000EBFD040000780AF02BFE250023782A1B79
:10BB4000093B0135934203DD687A0AF021FEF5E7EF
:10BB500027000A37BB789B061AD552480AF017FE11
:10BB60007978A37A0902194330000CF0BEF8002856
:10BB700009D00222037993431A000423134303716B
:10BB80000023C38043712000FDF7DEF909B0F0BD4A
:10BB90007A78A17A12020A43A17863783000009182
:10BBA00041490CF0EEF8002802D1B3799B070BD580
:10BBB0003E480AF0ECFD7978A07A09020143A378A7
:10BBC000627830000CF09EF87D78A37A2D021D4338
:10BBD00063782A000293A3783549039300933000D9
:10BBE000029B0CF0CEF8002803D032480AF0CFFDBB
:10BBF000C9E7039B304A0193029B2D490093300013
:10BC00002B000CF0D0F82D480AF0C1FD31007A78F5
:10BC1000A37A12021A430C3130000BF0E3FF051E29
:10BC200039D127480AF0B3FD0C20FDF76DF9050066
:10BC3000002331002A0010316B60AB602C603000B3
:10BC40000BF0EBFF7878A37A000218430AF0A0FD0E
:10BC50007A78A37A12021A431A49012304A80AF037
:10BC6000ECFFBB789B0707D030007978A37A0902F4
:10BC70001943143000F028F82300227B0A335207BE
:10BC800000D483E730005978A27A090211431830B2
:10BC900000F026F87AE70068FDF756F9C8E7C046D5
:10BCA00090BB020095BB0200242700209ABB020033
:10BCB00014270020A1BB0200512A0020AEBB0200C5
:10BCC000B5BB0200F4F500001FB50A0001230349CB
:10BCD00068460AF0B2FF05B000BDC046F5F50000A9
:10BCE000F0B5006887B00CF070F83F2203680600DA
:10BCF0001C7B94433AD11A0019780D320D39230078
:10BD0000C9B268460CF0C8FB2100684601F0BCFDD2
:10BD1000012187B2684601F0B7FD2300164A85B2BB
:10BD200099005458002C23D0E188B94220D1A18831
:10BD3000A9421DD10222694602A80CF0E1FB2000B5
:10BD400002A908300AF03DFF02A80AF0D0FE012344
:10BD50002A000A4902A80AF070FF30000BF029FF00
:10BD60003000FDF7F1F868460CF09DFB07B0F0BD20
:10BD700001330A2BD4D1F0E74C270020F6F5000060
:10BD8000F0B5224B85B01B7804005B0739D50EF067
:10BD900008FB0025236CC6B20227DF5FAF420EDD31
:10BDA000200029B240300AF031FF864205D101233C
:10BDB00020211A0068460AF040FF0135EEE7250011
:10BDC00023004E3528884C331978013005F0A0FE49
:10BDD000230050331B8889B28B4214D02B88A26C6D
:10BDE000D654636C2980002B0BDB2A88934208D140
:10BDF000012302225B4263640233202168460AF079
:10BE00001CFF05B0F0BD01230322F6E7522A0020F3
:10BE10000121024A13788B4313707047522A002085
:10BE200010B5002903DB024B19600EF0DFFA10BDDC
:10BE30003427002070B504001E0004AB1D7804F008
:10BE4000FFFE20000E4B40302360FDF7A3F92300D6
:10BE500001364C33013522001E701D730023E12191
:10BE60004E32A3646365138053809381D381013B79
:10BE7000200063644902FFF7D3FF200070BDC04675
:10BE800010AC020070B505001400012A11D00300A7
:10BE90004E331888023B4018197805F039FE696462
:10BEA0000025022C03D1210020200AF04CFD28009F
:10BEB00070BD014DFBE7C04617FCFFFF70B50600E3
:10BEC000503604000A003388002906D102004E32A1
:10BED00012889A4208D10F4870BD01290FD1010084
:10BEE0004E310A889A42FCD0A36C30884C341D5CD9
:10BEF0002178013005F00CFE28003180ECE70229A2
:10BF0000F2D101004E3109889942EDD10121FFF7AC
:10BF1000B9FFE9E70CFCFFFF70B51500012A0BD053
:10BF200040300AF04EFE0024022D03D101212020D2
:10BF30000AF009FD200070BD004CFBE717FCFFFF75
:10BF400073B50D0006A9040009780430002A01D158
:10BF5000DE070ED5002D0CD018264E430C34A41944
:10BF600062600122A360044B2560636105F046FA1C
:10BF700073BD0022FAE7C0460F7E0200F0B5164EF0
:10BF800085B0337805005B0705D500210BF04AFF2B
:10BF9000A86CFCF7D9FF04273378BB4333702B0020
:10BFA0004C331878FCF7B0FFA864002811D02B00A0
:10BFB00000244E331C805C80337828001F43377088
:10BFC000064A009423002900FFF7BAFF200005B0BD
:10BFD000F0BD0348FBE7C046522A002081BD0100A6
:10BFE00013FCFFFF012370B50E000C4905000A7811
:10BFF0001A4211D113430B70530708D531002800A2
:10C00000FFF75CFF0400FFF703FF200070BDFFF7A0
:10C01000B5FF041EF2D0F8E7014CF6E7522A0020E3
:10C020000DFCFFFF012310B5094A14781C420CD106
:10C0300023431370030001314C331970FFF79EFF47
:10C040000400FFF7E5FE200010BD024CFBE7C046F0
:10C05000522A00200DFCFFFFF7B580277F053D69C0
:10C060007C690822113C6C430600210068460EF0F2
:10C070008AFC104B009A9A4219D000930023019336
:10C0800079693000133969430BF0D2FE019A0099A7
:10C0900030000BF0E5FE210030000BF0C9FE79699D
:10C0A000AB0813396943220030000BF0CBFE019836
:10C0B000FEBDC046FECA0000F0B50D00A9B00D924D
:10C0C00000213022060010A80B930EF078FC280007
:10C0D0000EF0B5FC431C0C93102B00D9B5E00B9B64
:10C0E000202B00D9B1E0290030000BF0E6FE071E3E
:10C0F00050D129000C9A10A80EF045FC0D990B9A0E
:10C1000014A80EF040FC80235B051A695F690C924D
:10C11000113F7A4330005D690B92FFF79DFF30229B
:10C12000002104001CA80EF04AFC290000270C9BEB
:10C130001339594330000BF07BFE0D9730257D43BA
:10C140000B9B0833ED18A74242DA290030221CA8C5
:10C150000EF019FC10A91CA80EF067FC002827D1CE
:10C160003C49300022000E910F940BF079FE6A4694
:10C17000099513AB23CB23C223CB23C223CB23C2EA
:10C180003000129B1099119A0BF078FE01230D9349
:10C190000137D3E710300B9A0D990EF0E5FB040040
:10C1A0003800FCF7D1FE002CA3D1200029B0F0BD4F
:10C1B0006A4609951FAB23CB23C223CB23C223CBD3
:10C1C00023C230001C991D9A1E9B0BF057FEDFE71F
:10C1D000E5433023ED1725405D430B9B08355D1982
:10C1E0000D9B002B1DD10C9B3021981E05F020FBD0
:10C1F000A0422CD017490134300022000E910F9438
:10C200000BF02EFE6A46099513AB23CB23C223CB3A
:10C2100023C223CB23C230001099119A129B0BF03A
:10C220002DFE0B9930000BF003FE80235B0559694E
:10C230000C230C9A133963434A4302331100300034
:10C240000B9A0BF0FFFD0024AFE7034CADE7034C66
:10C25000ABE7C046FECA000017FCFFFF13FCFFFF60
:10C2600070B50400A280FA22002308000C49920055
:10C2700008312160A3716061E260A36063820949B3
:10C280000BF01BFE051E09D0010020001031022218
:10C2900012300EF078FB2800FCF756FE200070BD2F
:10C2A00004AE0200C4BB020030B50225837987B01A
:10C2B00004002B4204D1FCF74DFCA3791D43A5716A
:10C2C00020000BF044FE00281CD06B46DD1C28002B
:10C2D0000BF034FE2B78002B17D001A80BF02CFEAE
:10C2E0000321019AD3170B409B189B102382FCF764
:10C2F000D3FEE368A18818180123A0601A0002A8E1
:10C300000AF09BFC002007B030BD0122064B1A60EA
:10C31000064A51680029FCD000215160044A126885
:10C32000019201225A60DBE700C00040FCC00040DF
:10C3300008C50040022802D10122014B1A70704743
:10C34000532A002070B5064C05002378002B04D139
:10C35000044802F0D7F801232370280070BDC046BE
:10C36000542A002035C3010070B50C000AF079FA98
:10C37000002810D00023144DA40A2B7020000BF0CD
:10C38000FAFD002803D00A200EF0CFF9F6E72B784B
:10C39000002BFCD070BD02210C4B0D4A995080211E
:10C3A000C90008005D58002DFCD0A121C9005C50D7
:10C3B00019580029FCD0002199508021C9005A58F1
:10C3C000002AFCD0E6E7C046532A002000E00140E6
:10C3D00004050000F8B50C0015001E000AF041FA33
:10C3E000002811D00023174F3B7032002900200095
:10C3F0000BF0BFFD002803D00A200EF096F9F4E7F9
:10C400003B78002BFCD0F8BD01210F480F4B844630
:10C4100019508021C9005A58002AFCD080270022D8
:10C42000FF00964207DD910068586050D9590029F5
:10C43000FCD00132F5E7002261465A50DA59002A51
:10C44000FCD0E0E7532A00200405000000E0014092
:10C45000002370B5180001241D0009499A005218E4
:10C46000516C002904D0210099400843C0B25564A2
:10C470000133042BF1D1034B1B68984770BDC046B4
:10C48000FC80004038270020014B002019607047D5
:10C49000382700201F22037A13401E3A11009940CA
:10C4A000024BD967C36800205A60704704E100E07E
:10C4B000C268024B0020D1507047C04604050000FE
:10C4C00010B5C379013B99420FDC0B005133C068B2
:10C4D000FF339B001A508023C1225B028B409200E5
:10C4E000845823438350002010BD0148FCE7C04618
:10C4F00017FCFFFF30B5C379013B994211DCA82539
:10C50000C0688B00C318ED005C59A2185A518023F3
:10C51000C1225B028B409200845823438350002049
:10C5200030BD0148FCE7C04617FCFFFF10B5C379DA
:10C53000013B99420ADC8023C2225B028B40C06827
:10C540009200845823438350002010BD0048FCE72C
:10C5500017FCFFFF092905D8A223C2680020DB00D1
:10C56000D15070470048FCE717FCFFFF70B504008E
:10C5700008201E49205604F0DBFB082161560029E3
:10C5800021DA03250F23CAB213402A40AA40FC3502
:10C590009540083B16489B089B001B18D869A84388
:10C5A000402595402A000243DA6101221F230B40F7
:10C5B0001100C02099400F4B400019501960E368EA
:10C5C00000201A6070BD0B4A8B089B009B18032249
:10C5D000FF26C0250A40D2009640AD005859B0430E
:10C5E00040269640320002435A51DEE751C4010012
:10C5F00000ED00E000E100E010B50024C371044B41
:10C600008480083384710360C160027210BDC0462B
:10C610001CAE020010B50400054B083303601C304B
:10C620000AF065FA200018300AF061FA200010BD07
:10C630005CAE0200FF23F0B52C4D8DB02B700023B3
:10C64000040069460088009303F022FB002802D111
:10C650006B469B782B70264E3368DB68002B07D126
:10C66000002320881A0019000BF0A5FC0DB0F0BDC6
:10C670002B78032BF4D81F4901A8FCF751FD336830
:10C6800001A9DE6804A80AF094FA04A930000BF0AE
:10C6900047FC0027060004A80AF029FABE421ED073
:10C6A00031002022103104A80EF06DF93000FCF7A3
:10C6B0004BFC297804ABC9005918082202A80EF0D7
:10C6C00062F920880123082202A90BF074FC0137CB
:10C6D000002804D12088084A0C210BF06AFC01A82C
:10C6E0000AF005FA002FBBD0C0E7C046AC200020FE
:10C6F00048270020D4BB0200FFFF0000F0B583797B
:10C7000091B004005B071BD5FCF7C6FC002322692F
:10C71000801A9941994203D1F423FF3398420FD9EB
:10C72000A068002808D0364B1D880CF007FE03686F
:10C7300015221B6A290098470422A3799343A37109
:10C74000A3799B0759D52F4D2B68DB68002B50D060
:10C750002D4B1B78032B4CD8294B2C491B8804A844
:10C760000193FCF7DDFC2B6804A9DE6808A80AF039
:10C7700020FA08A930000BF0D3FB070008A80AF044
:10C78000B6F902AB9E1D08233200338006A9073B91
:10C7900001980BF012FC002F08D039002022103134
:10C7A00008A80EF0F0F83800FCF7CEFB164B3288E4
:10C7B0001B7806A9DE0008AB9E1930000EF0D4F8F5
:10C7C000002813D0082206A930000EF0DCF82B68F0
:10C7D00004A9DD6805A80AF0ECF9202308AA05A938
:10C7E00028000BF0A3FB05A80AF081F904A80AF0C1
:10C7F0007EF90222A3799343A37111B0F0BDC04624
:10C80000F829002048270020AC200020D4BB0200DB
:10C81000F7B5089E0500152922D8012007008F4092
:10C82000244C27421CD0E97FCC181F2C41DC69180E
:10C830003418A14210D80021C8B2834204D9545CF4
:10C84000701884700131F7E732789A183270EA7FF5
:10C850009B18EB7700202CE00878C8540139E8E7F2
:10C860003478013CE4B2A34208D10023D9B28C420F
:10C87000F0D9D05CF11888700133F7E7EF7F012021
:10C88000FF183F1B1F2F14DC0227A01C7F42361805
:10C89000381B0190E87F2F18BE4204D23078019FE8
:10C8A000F0550136F6E7041B023CEC7728000BF04C
:10C8B000CEFBFEBDFC002000F0B585B001930AABB5
:10C8C0001E880BAB1B78451C02930EAB1B78040033
:10C8D00003930B78170003704B8A102243820131B7
:10C8E00028000EF050F86B469B88268363836B46C6
:10C8F0001B7B002623776B4601221B7A6761E68348
:10C90000EB77A31CDA770C9B0C25636223002000D5
:10C910000D9A28331A705E709E702A0031002C30F8
:10C920000EF04DF82000074BE663A3632A003100A8
:10C9300040300EF044F82000034B2665E36405B058
:10C94000F0BDC046D17F0200C37F020070B50D006C
:10C950000CF0F4FC04000368002D09D15B699847D2
:10C96000FA2080006843074904F062FFE08070BD50
:10C970009B6898478542F3D2236820009B689847BC
:10C980000500EDE771020000F0B507001600A1B048
:10C9900002C704006B4918A81D000BF09FFB331E53
:10C9A00003D030000EF04BF883B201220492002233
:10C9B00003920292023201920093320018A93800C9
:10C9C000FFF77AFF23006049583318A807930BF04C
:10C9D00085FB2B1E03D028000EF031F883B2012214
:10C9E00004920022039202920232019200932A00E2
:10C9F00018A90798FFF760FF23005449AC3318A823
:10CA000008930BF06BFB269B002B03D018000EF055
:10CA100016F883B20122049200220392029202329B
:10CA200001920093269A18A90898FFF745FF631C06
:10CA3000FF33474918A809930BF050FB279B002BA5
:10CA400003D018000DF0FBFF83B2012204920022F4
:10CA5000601C03920292023201920093279A18A955
:10CA6000FF30FFF729FF23005533FF33394918A85A
:10CA700009930BF033FB289B002B03D018000DF01B
:10CA8000DEFF83B20122049200220392029202325C
:10CA900001920093289A18A90998FFF70DFF230027
:10CAA000A933FF332C4918A80A930BF017FB299BD5
:10CAB000002B03D018000DF0C2FF83B201220492B4
:10CAC000002218AD03920292023201920093299A39
:10CAD00029000A98FFF7F0FE204B1B780B93002BE0
:10CAE0002DD1079B12971393089B0DAF1493631CD2
:10CAF000FF331593099B1A4916930A9B3800179325
:10CB00000BF0ECFA1D2149203B7810222B707B8A18
:10CB100012AE6B8206ABC918C0180DF034FF0623A5
:10CB20002B756B469B8D2068AB83AE610CF00AFCC5
:10CB3000036829001B6898470122084B1A702000DF
:10CB400021B0F0BD292A0000242A0000252A000077
:10CB5000272A0000262A0000282A0000552A002043
:10CB60000A18000070B5002504000A4B85800833C0
:10CB700085710360C1601830FCF70CFB20001C308D
:10CB8000FCF708FB044BA5601C60012365612000D5
:10CB9000A37170BD5CAE020048270020FA2130B5B9
:10CBA00085B0050001230222890068460AF045F895
:10CBB000074C2068002809D00BF0C9FA2988054BDA
:10CBC00022681980022391790B43937105B030BD1F
:10CBD00048270020F829002010B50C0007290DD89F
:10CBE00080680CF0ABFB064B195703685B6C9847E9
:10CBF000431E9841034B4042184010BD0248FCE7D9
:10CC0000CCBB020016FCFFFF17FCFFFFF0B5A44CE5
:10CC10000D00A544040007939AAB1B78A14909A80D
:10CC200004930692FCF77CFA200029001C3009F0DE
:10CC3000C8FFC020800001F05BFC0820FCF764F90D
:10CC40000600002101F016F815ADA66000210C22A7
:10CC50000EA80DF0B4FE2B000EAA83CA83C3924B1C
:10CC60002900EB60002330002B610CF050FBA06822
:10CC70000CF064FB08220021059016A80DF09FFE21
:10CC80001420FCF741F929000200884B1593C8C90C
:10CC9000C8C2874B059EC3600023A4360361336876
:10CCA000002B00D0F5E03060A0680CF04BFB0822B0
:10CCB0000021060016A80DF082FE1420FCF724F9CE
:10CCC0007C4B1593030086CD86C37B4BC36000234A
:10CCD0000361336B002B00D0DDE03063A0680CF003
:10CCE0002DFB08220021050016A80DF068FE142077
:10CCF000FCF70AF9714B15AE1593030086CE86C377
:10CD00006F4B9835C360002303612B68002B00D064
:10CD1000C3E02860012504AB1B7C04AA2B4308A9AF
:10CD2000280013740BF04BF9A0680CF00FFB03689C
:10CD300064495B6A9847A0680CF008FB0368624985
:10CD40009B699847A0680CF001FB002302680093E0
:10CD5000166804992A00B047049B002B0AD02000D3
:10CD60000BF0FEF9032805DDA0680CF0EFFA03686C
:10CD7000DB6898470EA80BF061F92F2004ABC018B0
:10CD80000BF05CF9362004ABC0180BF057F93D20CE
:10CD9000042504ABC0180BF051F90EAB0A93A06840
:10CDA00004AB5D770CF0D2FA03680AA91B699847B7
:10CDB000A0680CF0C3FA03680AA95B6D9847A068E5
:10CDC0000CF0BCFA03680021DB6D9847A0680CF0FA
:10CDD000B5FA036802219B6D984700212000FFF7F8
:10CDE000FBFE1820FCF790F8A16800F005FA374B1D
:10CDF000374A1B68A1680393364B15A81B680026A9
:10CE00000293354B0CAF1B680193069B1B685B19A3
:10CE10000093324B12681B68FFF7B6FD3020FCF719
:10CE200073F8079AA16800F0A7FAA0680CF086FAD8
:10CE3000036839009B6A9847294BBE80A0680C9311
:10CE40000CF07CFA03683900DB6A98472900A06877
:10CE50000BF050F9099A09219378A06852190BF048
:10CE60005CF9A0680CF06AFA32210671A068FFF73D
:10CE70006DFD04AB1B7FB34204D0A0680CF05EFADA
:10CE80000BF022F909A809F032FE95239B009D447E
:10CE9000F0BD036107E703611FE7036139E7C0469F
:10CEA000ACFDFFFFC7BC0200DF7F02009DCB01008D
:10CEB000ED7F020035C60100FB7F020029800200E1
:10CEC00009800200E5CE010019CF010044270020AF
:10CED00040270020142000203C270020182000209C
:10CEE0000800100013B506226846FCF729F9094B23
:10CEF0001C68002C0AD0694601A809F05AFE2000DF
:10CF000001A90BF04EF901A809F0F1FD684609F0FE
:10CF1000EEFD13BD48270020002373B501AE0C00C1
:10CF200031000500019302F0B3FE002802D1B2786F
:10CF3000064B1A70064B1868002806D06142614102
:10CF4000044BC9B21D800BF034F973BDAC20002036
:10CF500048270020F8290020F0B5040097B003917D
:10CF600007A89C490592FCF7DBF89B4908A8FCF749
:10CF7000D7F822000FAD28001C3207A909F030FEB7
:10CF800008AA290009A809F02BFE280009F0AFFD26
:10CF900092490AA8FCF7C4F8A0680CF0CFF903681E
:10CFA0000DAE5B69984728000BF048F8332004ABBE
:10CFB000C0180BF043F83A2004ABC0180BF03EF851
:10CFC000412004ABC0180BF039F88023DB00B3809C
:10CFD000A0680D950CF0B2F9036831005B6D9847BD
:10CFE000A0680CF0ABF9036800219B6D9847A0681E
:10CFF0000CF0A4F90700002506000A371F220021C3
:10D0000038000DF0DCFCFD7730000BF054F8062101
:10D01000A0680BF06FF8099A09219378A068043290
:10D020000BF07BF8A0680CF089F9C8210571A068A5
:10D03000FFF78CFCA0680CF081F9FF272E0005811A
:10D04000A0680CF07BF90BF03FF80398FDF78EF920
:10D050000AA90CA809F0ADFD78220CA90398FDF7E8
:10D06000DDFA0CA809F043FD039920000BF0B4F899
:10D070002000FBF76FFD0495012563691D402DD04D
:10D0800057490BA800F0F2FC0BA90CA80CF09FF874
:10D0900000220CA91300019200920398FDF762FA96
:10D0A0000CA80CF087F8049B002B42D1043F282FDA
:10D0B00041DD0025FE2F00DC049D059809F05EFF90
:10D0C000002806D0012362699A4313000422134307
:10D0D000636100260BA80CF06DF8049504226369C7
:10D0E000134233D0FF210398C826FDF7BDFA00256F
:10D0F000B600A36902229B5EAB4222DD200029B26A
:10D10000183009F083FD0023010003981A007430E1
:10D1100000F0FCFC3000FBF7B5FD03980AF04BF97A
:10D12000C820FBF7AFFD02226369134209D1013524
:10D13000DFE70437BBE703980AF03DF9002FBCDDB9
:10D14000BAE7FA208000FBF79DFD002602236569FF
:10D150001D421CD006331D4024D022490BA800F0EC
:10D1600085FC0BA90CA80CF032F800220CA9019246
:10D17000009213000398FDF7F5F90CA80CF01AF8CB
:10D180001948FBF77FFD0BA80CF014F8174E64202C
:10D19000FBF778FD164B01369E4200DC6CE709F088
:10D1A00072FB69E713490BA800F060FC0BA90CA8FF
:10D1B0000CF00DF82B002A000CA90195009503989E
:10D1C000FDF7D0F90CA80BF0F5FF0BA80BF0F2FF60
:10D1D000DDE7C046E0BB0200F0BB0200F2BB02008C
:10D1E00000BC020045BC0200983A00008C0A000016
:10D1F0008B0A000082BC02000022594BF0B50833B4
:10D20000060003600F001000A9B0B1600BAB9918C5
:10D2100001324870102AFAD10F3A524C1A700E326D
:10D22000105D991A0874013AFAD2997B5A7B090267
:10D230000A4331000C31039125211B7813AD2B706B
:10D2400002ABC918452302A81B186A8218001022D5
:10D250000DF099FB039B64216B610123002402AA5A
:10D260002B7752181993093313701DAB1C706D2363
:10D2700002AA9B181C706E2321009B181EA80C226A
:10D28000EC836C621C700DF09AFB374B0C22210072
:10D2900023A8AB63EC630DF092FB344B02AAEB6462
:10D2A00046239B180322DA7722002C6505953473F8
:10D2B00006AD2B1901345A70102CFAD101232C48D9
:10D2C0002B700E33195CEA1A1174013BFAD211214A
:10D2D0002520AA7B6B7B12020BAC13432A78638256
:10D2E00002ABC9182270C01810220DF04CFB0123AC
:10D2F000237505ABA36100233800A3830CF022F84B
:10D30000036821001B68984713ABDB8BB068B382BE
:10D310000CF018F8002203680092B18A039ADC68C6
:10D320000123A047B0680CF00DF807001420FBF7AC
:10D33000EBFD0022012304000261069240C0083286
:10D34000290007930DF01FFB0A4BE360BB69002B1C
:10D3500003D13000BC6129B0F0BD2361F9E7C046BC
:10D3600074AE0200F3BC0200D17F0200C37F020052
:10D3700003BD020039820200F0B500260400734BA1
:10D38000DDB0083303608160C26086808671320040
:10D390006F4947A80AF0F0FF230014330125042742
:10D3A00008931223009704950193089A330047A924
:10D3B000039602961DA8FFF77FFA3200654947A839
:10D3C0000AF0DAFF0C2322000097103215AF049503
:10D3D000019347A933000396029632A8FFF76CFA2F
:10D3E00032005D4938000AF0C7FF20001C30099068
:10D3F000042208203300390004950190009203961E
:10D40000099A029647A8FFF757FA320053493800A5
:10D410000AF0B2FF5420FBF777FD0500200001233E
:10D4200012210422183007900493019100923900D0
:10D4300002003300280003960296FFF73DFA280009
:10D44000474BA5620822EC620AA930300A930B967A
:10D450000DF099FA434B0422AB63012329352B705D
:10D4600009992661E66107980DF08DFA0422079963
:10D4700008980DF088FA6621032304AA8918CB774F
:10D48000BA2104AA8918CB77872104AA49008918F0
:10D49000A26ACB77911CA685CB771DAB0C9332ABE0
:10D4A0000D930F9247AB32002F4910A80E930AF04C
:10D4B00063FF3021452004AB5B181B7812313B70B1
:10D4C00004AB5B181B8811397B8204ABC918C018E8
:10D4D00010220DF058FA04220CADA0683A75BD6117
:10D4E000BE830BF02FFF036839001B689847822228
:10D4F00004AB9B181B885432238404AB9B181B88F5
:10D500005432A38404AB9B181B88A06863840BF07F
:10D5100019FF07001420FBF7F7FC0500134B066109
:10D5200008221093119610A910C00DF02CFA104B80
:10D53000EB60BB69B34206D1BD612000FBF70AFB7B
:10D5400020005DB0F0BD2B61F6E7C04680AE020062
:10D5500033BD020013BD020023BD020043BD020023
:10D560004B830200B782020053BD0200DDD50100EB
:10D57000E1820200F0B504000E00150085B01F0026
:10D580000CAB1B881030019309F04DFB26806580A1
:10D590001820FBF7B9FC02AE050033000AAA03CA43
:10D5A00003C32F602800082700213A000C300DF03B
:10D5B00006FA3A003100281D0DF0E5F9064B02226B
:10D5C0006B61200000230199A5600A43E360A280FB
:10D5D0002362636205B0F0BD0B830200F0B50B89D6
:10D5E0008DB00593CB68060004934B88828C9A42D9
:10D5F0000ED1049C049B059A9B181B1B032B3BDD3F
:10D6000062882188012308A809F017FB0434F1E798
:10D61000428C9A4230D1049C049B059A9B181B1B98
:10D62000032B29DD2388282006936388F768079356
:10D63000124B089300230993FBF766FCC0236A464C
:10D640000500029308AB03CB03C233000699079A87
:10D650002800FFF78FFF3B6829005B683800984778
:10D66000002807D0002D05D0280009F0F6F9280081
:10D67000FBF76AFC0434CFE70DB0F0BDC9830200AC
:10D6800070B5040090B080680AF099FE0221014054
:10D690001AD1A38D002B17D00C4B6A46049310238C
:10D6A000E568A1850591029304AB41CB41C20A0014
:10D6B000230006A8FFF75EFF2B6806A99B682800D9
:10D6C000984706A809F0C9F910B070BDC9830200D7
:10D6D000002815D0006041608260C360046145612C
:10D6E0008661C761444604624C4644625446846283
:10D6F0005C46C462644604636E4646637446846353
:10D70000002A06D0C46B043C043A25681560B44274
:10D71000F9D18C6BA6464E6BB546002B06D0CC6B70
:10D72000043C043B1D682560B442F9D10C6BA4464F
:10D73000CC6AA3468C6AA2464C6AA1460C6AA046F3
:10D74000CF698E694D690C69CB688A680868496839
:10D750007047006041608260C3600461456186611A
:10D76000C761444604624C464462544684625C4647
:10D77000C462644604636E46466374468463C46B45
:10D78000043C043925680D60B442F9D1C769866943
:10D79000456904697047006041608260C36004614C
:10D7A00045618661C761444604624C464462544602
:10D7B00084625C46C462644604636C464463744697
:10D7C000846304697047846BA646446BA546046B6A
:10D7D000A446C46AA346846AA246446AA146046A6F
:10D7E000A046C769866945690469C368826800689C
:10D7F0004168704710B5041E0CD00DF020F9431E8F
:10D80000E3189C4208D222781978013B21705A70A3
:10D810000134F6E7014810BD0020FCE717FCFFFFCC
:10D82000F0B585B002900C1E2AD00023C217161A3C
:10D8300056400193019B30005D1C63190A215F1E55
:10D84000039304F065F949423031397030000A2100
:10D8500004F078F847420600002F0FD1029B002BFE
:10D8600004DA2D23019D039A023513700023200052
:10D870006355FFF7BFFF380005B0F0BD0195D9E74C
:10D88000004FF8E717FCFFFF07B50AF013FE00286A
:10D8900009D003789B0706D5411C042201A80DF08E
:10D8A00072F801980EBD0148FCE7C04617FCFFFF67
:10D8B000F0B585B00393036802929C780F000131A4
:10D8C0000B19060018000193FBF71EFB051E1AD06A
:10D8D00033682200D91C0DF056F86B461B7A601C89
:10D8E0002B553A00039928180DF04DF86B462A0085
:10D8F0001979300001230AF0AAFD2800FBF724FB68
:10D90000002005B0F0BD0148FBE7C04613FCFFFF57
:10D9100010B582604A4304004160002A0ADD074BCB
:10D9200090009A4201DD01204042FBF7EDFA2060B1
:10D93000200010BD00230360FAE7C046FEFFFF1F72
:10D940004A688B6870B58360534304000D004260E1
:10D95000002B12DD0A4A9E003000934201DD0120B7
:10D960004042FBF7D1FA002320602A68D158C15009
:10D9700004339E42FAD1200070BD00230360FAE711
:10D98000FEFFFF1F014B03607047C04698AE0200C8
:10D9900030B500684488A1420CDA8588AA4209DAC9
:10D9A000002907DB002A05DB544340180019837166
:10D9B000002030BD0048FCE717FCFFFFF0B5070072
:10D9C00085B00E001D00002921DD002A1FDD002B7F
:10D9D0001DD00468638803938B4200DD0391A38804
:10D9E0000293934200DD0292002306340193019BCF
:10D9F000029A93420EDA29002000039A0CF0C3FF2A
:10DA00003B68AD195B88E418019B0133EEE70248DF
:10DA100005B0F0BD0020FBE717FCFFFFF8B50400E0
:10DA20000D0016001F00002901DB002A02DA0E4B50
:10DA30002360F8BD100048430630FBF765FA20600C
:10DA400009F049F923685D8023689E80002F06D085
:10DA50003B00320029002000FFF7B0FFE9E720007B
:10DA60000BF0BDFBE5E7C04698AE0200F7B5060037
:10DA70000D1E03D1244B03603000FEBD00200F00BB
:10DA80000400010001903B78002B1AD03022524252
:10DA900094469C446246092A11D90A2B0AD1019B5B
:10DAA000241801330193A14200DA21000020040070
:10DAB0000137E8E70028FBD001340020F8E7012017
:10DAC000F6E76A460127928809B212B230007F4217
:10DAD000FFF7A4FF39000A2033689A1D2C78002C28
