:020000021000EC
:1080000000400020F9100200351102003711020073
:108010000000000000000000000000000000000060
:108020000000000000000000000000003911020004
:1080300000000000000000003B1102003D110200A2
:108040003F1102007DB60100111A02003F1102002B
:108050003F11020000000000011702003F11020062
:10806000B5CA0100B9150200711102003F110200EA
:108070003F1102003F1102003F1102003F110200B8
:108080003F1102003F1102003F1102003F110200A8
:108090003F110200F5F3010081F501003F110200DC
:1080A0003F1102003F11020000000000000000002C
:1080B00000000000000000000000000000000000C0
:1080C00010B5064C2378002B07D1054B002B02D0AE
:1080D000044800E000BF0123237010BDE020002011
:1080E00000000000F0C40200044B10B5002B03D0C8
:1080F0000349044800E000BF10BDC0460000000076
:10810000E4200020F0C40200164B002B00D1144BD9
:108110009D46402292029A1A924600218B460F46B3
:108120001348144A121A12F0A9FE0F4B002B00D06C
:1081300098470E4B002B00D09847002000210400E8
:108140000D000D48002802D00C4800E000BF0DF0E3
:10815000F3FF2000290012F0A2FB0DF0D7FFC0466C
:1081600000000800004000200000000000000000A7
:10817000D82000206C2C002000000000000000002F
:1081800070B5FA26002401257600E3B22A00032107
:10819000034801F051F830006C4000F091FDF4E725
:1081A000DC22002010B50400034B036040300EF0C9
:1081B0008CFE200010BDC046D0B0020010B50848AB
:1081C00000F080F9074803F0A5FE074803F0E4FB40
:1081D000064907480EF070FD00F0EAFD002010BDD2
:1081E0007C210020FC20002088250020B18D01008A
:1081F0008181010037B50C4C200000F07DF80B4D5B
:108200000B492A00200012F0E3FD0A4C0A4B0B4AEE
:1082100000930B490B4B200003F006FF2A000A498C
:10822000200012F0D5FD37BD7C2100200020002069
:108230004D820100FC2000206822002080210020C7
:10824000882500204C220020356B0200F7231C4AB1
:108250009B0010B5C2501C330400C0180EF035FE50
:10826000FD239B00E0180EF030FE9F239B00E018DA
:1082700002F0CAFA84239B00E01801F00FFC2000F2
:10828000C530FF3001F040F920008D30FF3001F0A3
:108290006DFB20006530FF3001F068FB2000EC3002
:1082A00002F09EF82000D03002F046FD200064303D
:1082B00008F0D4FE201DFFF775FF200010BDC0465A
:1082C0005CB3020070B50B4C0500005900280ED0BD
:1082D00005F0C8FE836D9B0709D5285911F08FFA68
:1082E000036813215B6A9847642012F09CFB0EF030
:1082F000ABFC70BD140500001423F0B5040097B06A
:10830000009319221821043004F0C6F82200250039
:108310006432B43513211000139208F0ABFE28002C
:1083200010F0CBF82200B83210921E2100221098D3
:108330000FF066FB2000D03002F01EFD2200EC3270
:1083400011920621594A119802F06EF82200002776
:1083500001236532FF32149200971A0011211498FC
:1083600001F070FB22008D32FF321592009701233D
:1083700002221A21159801F065FB26002000C5365F
:10838000B530FF361A2302220121FF3002F0B0FD82
:10839000109904233A22300001F066F984229200F9
:1083A000A218129205231D22019300922B00320085
:1083B0001099129801F068FD96229200119BA01866
:1083C0001299320001F03AFF99229200A018290078
:1083D0001C2204F077FA9F229200A61812992222FA
:1083E000300002F01DFAA7229200A018159A149BE3
:1083F00000923100119A02F021FB1923AB220F9356
:10840000013B0E93013B0D93013B0C93013B0B93FE
:10841000013B0A93013B0993013B0893013B0793FE
:10842000013B0693013B0593013B0493013B0393FE
:10843000013B0293013B01939200013BA018009382
:108440000822013B07210FF0E3FAF7239B00E01815
:10845000290004F0B5FEFF239B00E5180822042341
:108460001349280004F0FAFB124B3A00E0182900E7
:108470001D2302F083FD104B1398E7500321277052
:1084800012F097FA2300220020000C499C33A032FE
:108490001C60116057600A4A80305A610221012233
:1084A00009F0E0F9200017B0F0BDC046D8B00200D6
:1084B000008000400C04000014050000C58201008B
:1084C000556B02000123F0B506788DB004001E4004
:1084D00000D0A3E0FD20800500F0FCFC2300D03399
:1084E0001800029300F0D0FA00F0C6F9282000F03E
:1084F00029FD050010300EF084FD494B18202B603B
:1085000000F020FD0700474B0460082231000C30CA
:108510000A930B9612F0B2FC0AA9381D082212F039
:1085200091FC414B29007B611223AF60EE60AB8070
:108530002E626E62029802F097FB002805D0280098
:108540000EF079FC280000F01DFD01232278642044
:108550001343237000F0B4FB002527006537FF3775
:1085600038000EF0B2FF002854D020008D30FF30CC
:108570000EF0ABFF00284DD00A2D4BD06420013502
:1085800000F09EFB0A2DE8D12849294800F078FC2C
:10859000F723284E9B00E3180393A359002B32D1F5
:1085A00000F058F8010006A800F0D8FD0EF048FBD6
:1085B00004900EF045FB6B460590198A08A80EF052
:1085C000A1FC059B09A8190C0EF09CFC09AA08A99E
:1085D00007A80EF0F3FC09A80EF077FC08A80EF02F
:1085E00074FC012307AA06A900930398029B04F0D8
:1085F0003BFE07A80EF069FC06A80EF066FCF92306
:108600009B00E358A35121003A00EC31039804F099
:10861000D1FFA2E70549084800F032FC0DB0F0BDDB
:10862000FD030000AB6B02006B6B0200002000201A
:10863000001C00201405000008000020BFF34F8F2D
:10864000024B034ADA60BFF34F8FFEE700ED00E014
:108650000400FA05F0B58DB005AF192215493800B0
:1086600012F0F0FB0022144B05245A7180225205AF
:10867000566E012225000194029203930199300065
:1086800009F038FB0800029909F0AEFA019B039942
:108690006B430193029B361A6B430293631E2C1BA0
:1086A0006C433C19225C1C1ECA54E7D108000DB073
:1086B000F0BDC046A6BD0200922B0020F0B597B0D9
:1086C00018220021060010A812F0D8FB132110A8D0
:1086D00012F075FA032110A812F08DFA4C4B1B68AA
:1086E000002B00D10133DBB202934A4A012300215F
:1086F0000BA808F025FF484B9E4200D9002672B611
:10870000464B64211D68464B30000793052409F051
:10871000F5FA60435030281808900A21300009F01B
:10872000EDFA0A2109F0D0FB614350316918099133
:1087300030000A2109F0C8FB802361430024503136
:1087400069189B010A910193029B002B5DD00025C3
:1087500000272E1F07AB9B190593032C03D1802301
:1087600000249B01019307AB5B592E4A03936300DE
:10877000D31804930023190006205843049A1618AE
:108780007678B4466246039EB25C10269446049AFC
:10879000105C62460641164202D001209840014317
:1087A0000133092BE8D1C9431F4B059A0901194030
:1087B0001268039B934225D1312F23DC00210BA8A3
:1087C00012F0E9FAFA23159A1199DB0010680142B8
:1087D0001BD0013B002BF9D1019B01345B000193BD
:1087E000FA230137E4B25B009F42B6D10435102D65
:1087F000AED1074B1B68002BA6D0029F013FFBB2F6
:108800000293A1E7019B1943D9E7FFF717FFC04681
:1088100098260020F0FF0000E7030000042000205D
:10882000F5BD0200BFBD0200F01F0000F0B500283A
:108830001BDD0F4C421E276811000020BE09FB0FF4
:1088400073407B403E097D087340BF087B406B400E
:10885000DB072B4301251F0040002B401843E94054
:10886000ECD18242E8D32760F0BD0248FCE7C04665
:108870009426002017FCFFFFF8B50023124C23605C
:108880000EF0D0F9002808D0042120000EF0C6F91F
:10889000002801D00D4B2360F8BD0122A12704253B
:1088A0000B4B0C491A602268FF0048604E68002E8E
:1088B000FCD0DE591202013D3243002DF5D1226079
:1088C00001225A60E8E7C04694260020ED5EBC0B0A
:1088D00000D00040FCD00040F0B585B01F000AABCE
:1088E0001B880600029115000393002F1CD028203E
:1088F00000F028FB6B4604001989039BAAB2009381
:108900003B000EF082FA336821005B683000984724
:1089100000280AD0002C05D020000EF08CFA200090
:1089200000F030FB024800E0024805B0F0BDC04650
:1089300016FCFFFF17FCFFFF0B4B70B51C68002CEB
:1089400010D0656D00F0C6FBA36C002901D18342F5
:1089500006D820000EF099F9044920000EF083F9A2
:108960002C00ECE770BDC046A0260020C0260020E9
:10897000F0B593B007932A4B04AC1E6804900591A0
:108980000692002E4AD0274B258867881C68002352
:108990000293002C2ED0636D23480393A36C9AB2EC
:1089A000A36C1B0C99B2854214D12048824211D18C
:1089B000002B01D0B9420BD1029B002B08D1200023
:1089C0000EF063F91A4920000EF04DF901230293CD
:1089D000039CDEE7002A01D09542F9D1002B01D09B
:1089E000B942F5D120000EF050F9114920000EF0E7
:1089F0003AF9EDE70F4BEB18012B0FD910233A0092
:108A0000009329000C4B08A80EF0FFF9336808A961
:108A10009B683000984708A80EF00DFA13B0F0BD1F
:108A20009C260020CC260020FE030000FF0300004F
:108A3000C026002002FCFFFF7189010010B572B64C
:108A40000B4B1C68002C08D020000EF01EF90023F0
:108A5000E364084B2000E36310BD62B65C2000F0C5
:108A600071FA5C220021040012F008FAEFE7C04618
:108A7000C426002000400020024B18780123184033
:108A80007047C046982B0020F7B50600FFF7F4FFAB
:108A9000051E33D11A4C2660FFF7D0FF194B1A4937
:108AA00018600EF0E0F8FFF7C9FF184B1860184B7C
:108AB0004363184B8363206800280ED0C027164EEE
:108AC0002A00330015490097FFF706FF009733008F
:108AD0002A0013492068FFF7FFFE0C2000F032FA4D
:108AE0000023838083710F4B03600F4B836000F082
:108AF00009FB01230D4A11780B431370F7BDC046E3
:108B00009C260020D0260020C0260020C826002059
:108B1000FC3F00206D6D020071890100FF03000021
:108B2000FE030000F8B0020039890100982B0020F4
:108B3000F7B506000D0017000193002802D10024AC
:108B40002000FEBD0029FAD0FFF778FF041EF6D002
:108B5000074B019A4363066045608760054B002A16
:108B600000D0054BA363054920000EF07CF8E7E731
:108B7000FC3F0020376D0200556D0200C02600202A
:108B8000024B1868434258417047C046C026002037
:108B9000002310B504499C006258002A01D001331B
:108BA000F9E76050100010BDA8260020002310B582
:108BB000044A99008C58844201D00133F9E700201F
:108BC000885010BDA826002010B50024084BA20034
:108BD000D058002802D003685B6898470134062CFF
:108BE000F4D1044B1B68002B00D120BF10BDC04640
:108BF000A8260020C0260020F8B5FFF73DFF00287A
:108C00001BD0294D2C68E36CDA0717D502263343B5
:108C1000E3640423254F3868C26C1343C364636B59
:108C2000C3630EF066F83868416C05F0C0F8286838
:108C3000C36C334201D005F0F4F8F8BD1C4F1D4E53
:108C40003A683168002A1ED129602A688A4208D110
:108C50001B0706D52C60FFF7B7FF3B68002BFAD047
:108C60002B6029688C42E8D03368994214D1124BAA
:108C70004B63124B8B6320000EF03BF82968626C4B
:108C80004B6C20000DE0206DB84203D1606D0028D0
:108C900000D002002A60D8E79C42ECD100221000EC
:108CA0004B6C05F043F8C8E7D0260020A42600202E
:108CB000C0260020C8260020FC3F00206D6D020069
:108CC00070B50500FFF7D8FE002803D1280011F089
:108CD000AAFE70BD0C4B1C68E36CDB0706D5FFF7E2
:108CE000ADFE0A4B1860002800D0040000F0F2F935
:108CF0002D18A56420000DF0C8FF054920000DF0D7
:108D0000B2FFFFF779FFE4E7D0260020A426002079
:108D1000A0260020F0B51E4B1E4F1C683B6885B096
:108D200006000391002B30D0FFF7A6FE00282CD0C0
:108D3000E36CDB070ED5FFF781FE174B051E1860AD
:108D400008D00DF0A2FF154928000DF08CFF2C0073
:108D5000FFF752FF039B20001B043343A3640DF075
:108D600094FF20000E490DF07EFF0E4B0024F318F7
:108D7000012B07D9C0230093039A0B4B31003868AD
:108D8000FFF7AAFD200005B0F0BD084CFAE7C04689
:108D9000D02600209C260020A4260020C0260020EB
:108DA000CC26002002FCFFFF7189010016FCFFFFAA
:108DB00010B5FFF761FE002809D0054C20680DF0C2
:108DC00064FF044920680DF04EFFFFF715FF10BD4A
:108DD000D0260020C4260020F7B507000D0000288B
:108DE0002ED0FFF749FE00282CD00724164E3068FD
:108DF000C36C1C4007D0154A290038000DF06AFFEB
:108E000000242000FEBD04F0F4FF02213268D36C80
:108E10001940019103D003218B43D364F1E701246E
:108E20002343D3642800B8473268D36C1900A143A8
:108E3000D164019C5B07E4D528000DF083FFE0E7D7
:108E4000034CDEE7034CDCE7D0260020456D020032
:108E500017FCFFFF16FCFFFF020010B5014B12CB01
:108E600012C210BDD4260020034B1A68034B1A60AF
:108E70007E225A607047C04604200020D42600207D
:108E800070B5104D2B78022B18D0814218D90B1ACF
:108E9000072B15D90C00032304431C4010D172B6D4
:108EA0002A78094BD200D050981841600DF064FF29
:108EB0002B7801332B7062B6200070BD0348FCE7AD
:108EC0000348FAE7992B0020DC26002013FCFFFF63
:108ED00017FCFFFF70B50021041C09F017F80028EB
:108EE00028D1FE21201C890509F01AF8002821D17B
:108EF00004300DF045F905000F48401B09F0F0FF64
:108F0000211C09F08DFC09F03FF80323984304006D
:108F100028000DF03FF920000DF032F9002804D1AF
:108F2000203C002CF7D1054803E00119FFF7A8FF0A
:108F3000002070BD0248FCE70038002013FCFFFF52
:108F400017FCFFFF70B5060000250C4B1B78AB42E9
:108F500009DD0B49EB00C91830000DF015FF041EA8
:108F600009D10135F1E730000DF00AF9041E02D1F4
:108F70001420FFF7A3FB200070BDC046992B0020F2
:108F8000DC26002070B5002813D00D4B0D491C784D
:108F900000239C4210DDDA00555885420AD28A1817
:108FA0005268824206D98023043802681B061343A4
:108FB000036070BD0133ECE70DF0ECF8F9E7C04653
:108FC000992B0020DC26002070B5051E14DD0B4E09
:108FD0000B4C3368002B02D0206811F0CBFCFA2137
:108FE00020680024074B89008361C46269433560AF
:108FF00011F0C8FC200070BD0348FCE7EC260020FF
:109000001C270020B190010017FCFFFFF8B5114F9D
:1090100006003D68002D0AD13020FFF793FF0400C1
:1090200007F0FAFF0C4BA5612360E5623C600B4D35
:109030002B68002B09D11020FFF784FF040011F0EA
:1090400062FC20002C6011F038FC3000FFF7BCFF00
:10905000F8BDC0461C2700200CB7020018270020CE
:10906000014B18687047C046EC26002070B50D4CC7
:109070002368002B03D00C4B1B68002B02D1062069
:10908000FFF7C4FF206811F02FFC02000749C31747
:109090000D684E685219734120680A604B6011F0E8
:1090A00029FC70BD182700201C270020D820002094
:1090B00010B5FFF7DBFF0024054BA200D0580028B5
:1090C00002D003681B68984701340A2CF4D110BD04
:1090D000F026002010B5FFF7C9FFFA22034B9200DB
:1090E00018685968002308F02FFF10BDD820002011
:1090F00010B5FFF7BBFF024B1868596810BDC0469A
:10910000D82000200B4B10B51B680400002B03D0A7
:10911000094B1B68002B02D10620FFF777FF0023C5
:10912000064A99008858002801D00133F9E78C508D
:1091300010BDC046182700201C270020F026002064
:10914000002310B5044A99008C58844201D00133A1
:10915000F9E70020885010BDF026002010B504006B
:10916000002902D00B78002B03D1034B2360200091
:1091700010BD0DF0B1FEFAE708B10200F8B5040029
:109180000E00150000290AD00B78002B07D0002A0A
:1091900005D0080097B211F0B1FE874203D90B4BFE
:1091A00023602000F8BD681DFFF7CCFE20600EF0A4
:1091B0002DF823682A005F8023683100181D11F004
:1091C00041FE23685D1900232B71EAE708B1020014
:1091D000014B03607047C04608B1020010B5054856
:1091E000054C20600EF015F8044A0549200011F0E6
:1091F000EFFD10BD08B10200202700200020002054
:10920000CB6E0200084B73B51C680500002C0AD019
:109210000100266808310822684611F013FE0CCDC3
:1092200031682000884773BD24270020014B03606C
:109230007047C04610B1020030B500684488A142B2
:109240000CDA8588AA4209DA002907DB002A05DB47
:109250005443401800198371002030BD0048FCE7DA
:1092600017FCFFFFF0B5070085B00E001D000029B8
:1092700021DD002A1FDD002B1DD0046863880393C5
:109280008B4200DD0391A3880293934200DD02929A
:10929000002306340193019B029A93420EDA2900BF
:1092A0002000039A11F0CEFD3B68AD195B88E418ED
:1092B000019B0133EEE7024805B0F0BD0020FBE75B
:1092C00017FCFFFFF8B504000D0016001F00002971
:1092D00001DB002A02DA0E4B2360F8BD1000484380
:1092E0000630FFF72FFE20600DF090FF23685D80B1
:1092F00023689E80002F06D03B003200290020000A
:10930000FFF7B0FFE9E720000DF0BDFEE5E7C0463E
:1093100010B10200F7B506000D1E03D1244B036007
:109320003000FEBD00200F000400010001903B78DA
:10933000002B1AD03022524294469C446246092A9D
:1093400011D90A2B0AD1019B241801330193A142A0
:1093500000DA2100002004000137E8E70028FBD0F4
:1093600001340020F8E70120F6E70127019A09B24D
:1093700012B230007F42FFF7A5FF39000A203368A0
:109380009A1D2C78002CCBD02300303B092B08D819
:10939000FB43DB173B4043431B19303B1F000135A8
:1093A000EFE7002FFBDB177001320F00F7E7C04635
:1093B00010B10200F0B5040089B006A80E000292B8
:1093C0001D00FFF749FD236802995A88914235DA5A
:1093D0009B889D4232DA1F2E30D9079B01939E4213
:1093E0002CDC0523002273430393069B0493039B09
:1093F00004999B18A03BCB5C00210593AE18029BFF
:10940000CF1823685888019087420EDA9888B042B6
:109410000BDDDB1910270F41019870431B180598CD
:109420000740781E87417F429F7101310529E6D1AF
:109430000132052ADBD1002009B0F0BD0048FBE76E
:1094400017FCFFFFF7B50468070063880E1E019341
:109450001EDD994218DA0023063400933B68009A17
:109460009B889A4212DA019BA1199D1B2A002000B9
:1094700011F0E8FC601931000DF0F7FD3B685B88E6
:10948000E418009B0133E8E70DF0FDFD002000E04B
:109490000048FEBD17FCFFFF10B50548054C2060D5
:1094A0000DF0B7FE044A0549200011F091FC10BDF3
:1094B00010B1020028270020002000205D7002006B
:1094C00010B5054C012120000DF097FE034A044918
:1094D000200011F07DFC10BD2C2700200020002072
:1094E000B77102000388074A10B50120934208D0E3
:1094F000834202D00020DB0703D41E20FFF7DEF8F2
:10950000002010BDFFFF000010B50400034B08331E
:109510000360FFF74BFB200010BDC04658B10200AE
:10952000FA2270B5438992005343314A31491400FD
:10953000050038348B421BDC2F498B4218D82F4949
:10954000083C8B4214D82E49083C8B4210D82D4938
:10955000083C8B420CD82C49083C8B4208D82B493C
:10956000083C8B4204D82A4914008B4200D90834A5
:10957000284B2A7B1E1D042A03D89E1C022A00D8D1
:109580001E00FA212068890008F02EFB33786881DC
:109590002B7300222A2128000DF05FFE002801D045
:1095A0001D4870BD10222B2128000DF056FE00280A
:1095B000F6D101222D2128000DF04FFE0028EFD119
:1095C00001222E2128000DF048FE0028E8D17278F3
:1095D0000E2128000DF041FE0028E1D1012223795F
:1095E0002A211A4328000DF038FE0028D9D0D7E7E9
:1095F00018B1020000C409000071020080380100A7
:10960000204E00001027000088130000C40900004D
:10961000E2040000D5BF02000EFCFFFF7FB515007D
:109620000F226A4404001E001170002D16D0002B7A
:1096300014DD012301890093006B01F091FA0028E9
:1096400002D0074804B070BD0090218933002A0081
:10965000206B01F03BFA0028F4D0F2E70148F1E773
:109660000EFCFFFF17FCFFFFF7B506000025040006
:1096700001931D4B14360833036085808571C581C5
:10968000058245820F00009229001822300011F057
:10969000F5FB1C21300011F092FA019B0221A380FE
:1096A000009B220023811423A5712173A563A58744
:1096B00063813E32137827638B43F1310B40137083
:1096C0002300957295810135221DD5870833A21D8F
:1096D000D5872000DD87FFF723FF002802D1A3797B
:1096E0001D43A5712000FEBD58B1020030B5042510
:1096F000837987B004002B4204D1FFF749FAA3799C
:109700001D43A571A36AA2691B6800251A4208D1EE
:1097100006236A4601212000FFF780FF051E03D0C3
:10972000114D280007B030BD6B4602220420694667
:109730009A561856237BD2005A4322820222097875
:10974000C00049B2C900594343436382A379E18110
:109750009343A37120000DF08EFD0123A1881A0010
:1097600002A80DF058FCDCE70EFCFFFFF8B5040082
:10977000FFF7BCFF0E22A35E794F5B42BB4251DA7A
:1097800023003E331B789B074CD501252100280080
:109790003E310B785A08904302000220AA408343CE
:1097A00013430B702000FFF7A1FF1022A35E5B4262
:1097B000BB4248DA23003E331B785B0743D50125C3
:1097C000210028003E310B789A0890438200042043
:1097D000834313430B7026002000FFF787FF1222FC
:1097E000A35E4836BB423EDA23003E331B781B079C
:1097F00039D5210001223E310B78D8088243082058
:10980000D200834313430B703378032B3BD80133CF
:10981000DBB23370012B00D08DE0230000224A33ED
:109820001A8030E02000FFF761FF0E22A35EC822FD
:109830005B42520000259342B4DD23003E331B7887
:109840009B07A2D5AEE72000FFF750FF1022A35ED2
:10985000C8225B4252009342BDDD23003E331B7899
:109860005B07ACD5B7E72000FFF740FFC823122104
:10987000625E5B009A4204DD23003E331B781B07C7
:10988000B7D5002DC0D13278002A14D0210027008E
:1098900001254A310B883E3701339BB20B80387863
:1098A000AC46054055D01D2B05D96346984300238F
:1098B00038700B80337020000DF049FD294A0723D2
:1098C000904244DD2000FFF711FF0E23E25E264E9A
:1098D00052420323B2423ADBC8252000FFF706FFBD
:1098E0000E23E25EAD0052420423AA422FDC200088
:1098F000FFF7FCFE1023E25E02235242B24226DB57
:109900002000FFF7F3FE1023E25E01235242AA4239
:109910001DDC2000FFF7EAFE1223E25E0523B242BF
:1099200015DB2000FFF7E2FE1223E25E0623AA42C7
:109930000DDC00230BE0042BA5D122003E32117870
:10994000033B0B43137000234A3423800B3318006E
:10995000F8BD092BAFD9013A0D803270ABE7C04694
:1099600070FEFFFFFF700200E0FCFFFF10B5040077
:10997000034B08330360FFF7E3FB200010BDC04634
:1099800070B1020070B5C369C1681A68451D040052
:10999000EB7F11424AD0002B4DD1EB7F082B0BD926
:1099A0000121A3790B4207D10B43A37120000DF0D5
:1099B0007DFDFFF78FFB2062EB7F012B1DD8A37984
:1099C000DA071AD510221340A371022120000DF0EE
:1099D0006DFDA31DDB7F012B0FD1FFF77BFB002368
:1099E000226A801A9941994203D1144B032198426B
:1099F00000D9042120000DF059FD0322A379134062
:109A0000012B12D1FFF766FB0023226A801A9941CD
:109A1000994202D10A4B984207D90223A279052123
:109A20001343A37120000DF041FD70BD0B2BB4D882
:109A30000133EB77B1E7013BFBE7C046E7030000EA
:109A4000DB050000F0B5070000250E00040085B01E
:109A500002930AAB1B78083703930F4B019208332C
:109A600003608580857129001822380011F006FAFC
:109A7000039A3100380011F0A7F8019B029AA380E5
:109A8000A31DE671DA77631D25622000DD77FFF7FD
:109A900039FB200005B0F0BD70B1020010B5040024
:109AA000034B08330360FFF781F8200010BDC04668
:109AB000E0B102007FB515000F226A4404001E00C9
:109AC0001170002D16D0002B14DD012301890093A5
:109AD000C06B01F045F8002802D0074804B070BD03
:109AE0000090218933002A00E06B00F0EFFF00288E
:109AF000F4D0F2E70148F1E70EFCFFFF17FCFFFF8F
:109B0000002330B585B003AC2170018900930500B6
:109B100001332200C06B01F023F8002802D009486D
:109B200005B030BD20802989009002232200E86B17
:109B300000F0CCFF0028F2D1237860781B02184394
:109B400000B2EDE70EFCFFFF13B56B46DC1D0023F2
:109B5000220023700133FFF7ADFF002801D12078E8
:109B600016BD0148FCE7C0460EFCFFFFD0B504005F
:109B70000DF0DDFCE268A369981A0AF0FFFD06000B
:109B80000F002369E069C01A0AF0F8FD32003B00BB
:109B90000BF042F90022104B0AF000F80F4A104B6C
:109BA00009F0FAFC0AF076FE0021041C08F0A4F982
:109BB000002804D0201C0B4908F0C0FA041C201C0B
:109BC0000AF016FE02000B00002007490AF058FABE
:109BD0000AF09EFDD0BDC04600806640EA2E445487
:109BE000FB2109400000B44300807640F0B5050039
:109BF00085B0006C0DF048FC061C286C0DF03BFC99
:109C00000221071C28000DF0C3FC0221039028004C
:109C10000DF0D0FC09F01AF90221041C28000DF007
:109C2000DBFC09F013F9051C301C0BF0B7F80290AF
:109C3000301C0BF075F80190381C0BF0AFF8061CC7
:109C4000381C0BF06DF8071C039809F0FFF8391C5D
:109C500008F0E6FD311C071C201C08F0E1FD02990C
:109C600008F0DEFD011C381C08F068FA311C071CE6
:109C7000281C08F0D5FD019908F0D2FD011C381C04
:109C800008F05CFA0299061C281C08F0C9FD01992D
:109C9000051C201C08F0C4FD011C281C08F0F2FE65
:109CA000311C0BF0BDF80D4908F0BAFD0AF0A0FD1B
:109CB0000B4A0C4B09F070FC0AF0ECFD0021041C6F
:109CC00008F01AF9002804D0201C044908F036FADC
:109CD000041C201C09F09AF805B0F0BD0000B44344
:109CE000EA2E4454FB21194070B5002210210400D3
:109CF0000DF00FFC1B4D00282DD10326082120005C
:109D0000FFF722FFA84226D0304226D1FA216389EC
:109D1000890059435023144AD518D058884204D397
:109D2000D518083B18000830F7D1FA2128688900B7
:109D300007F05AFFA0226081112120000DF0E9FBFD
:109D4000002808D101222B7910211A4320000DF0A0
:109D5000E0FB002800D0034870BD6420FEF7B0FF90
:109D6000CCE7C0460EFCFFFF88B102007FB504259A
:109D7000837904002B4218D102260DF0D8FBA37979
:109D8000A188B3432B43A3710622012368460DF03B
:109D900042F9A07903003040AB43A37143425841DC
:109DA000034B4042184004B070BD0248FBE7C04678
:109DB00014FCFFFF15FCFFFF10B5837904005A0760
:109DC0000DD49B0701D4FFF7D1FF236C2000002B9B
:109DD00002D0FFF70BFF10BDFFF7C8FEFBE70148FD
:109DE000F9E7C04615FCFFFF70B5466C86B001ACC4
:109DF000050001916260A360002E0CD00B4905A8FC
:109E0000FFF7ACF90C23220005A930000EF094FBFB
:109E100005A80DF05AF82B000C3307CC07C302231A
:109E2000AA791343AB7106B070BDC046DBBF020018
:109E3000642330B504000281438185B08180FFF73F
:109E400053FF0222A379606C9343A371002813D0BF
:109E50000C490EF038FB051E0ED001000C2210310B
:109E600001A810F0EFFF20000199029A039BFFF771
:109E7000BBFF2800FFF786F80123A2791343A371E3
:109E800005B030BDDBBF0200F7B5009308AB1B88FF
:109E90000400019309AB1D8800230F0016000D4A32
:109EA0008380083283710260C36003614361836110
:109EB000C36103621D2124300DF01EFB009BE7638C
:109EC0002664290020006364019AFFF7B1FF200097
:109ED000FEBDC046E0B1020082B0F0B50400A5B0FE
:109EE00064202B932A9210F09EFD04220C2109A8D5
:109EF00004F03AF82422CC491BA810F0A3FF052255
:109F000006A811000DF0C8F8C84907A8FFF702FA23
:109F1000A06800F081FBA568C54918A8FFF71EF9E5
:109F2000782218A9280000F015FC18A80CF0CDFF25
:109F30006E256420013D10F076FD002DF9D1A0685A
:109F400000F06AFBA0680DF0EEFC012160680DF0E6
:109F500012FA0121070060680DF020FA06000A20BD
:109F600010F061FD0022B34B03929F4210DB0132DF
:109F700003923A00C8320BDBC822042192000391FD
:109F8000974205DC03220392C82F01DC013A0392B9
:109F900000279E420CDB33000137C83308DBC8239F
:109FA00003379B009E4203DC013FC82E00DC013FCB
:109FB00006A80DF068F80026032373431BA9CA18EE
:109FC0009078002805D0C95C5278FF2306A8FFF7D7
:109FD00033F901360C2EEFD16B463AB20C21595EA3
:109FE00006A8FF23FFF728F90023A06800931A00B2
:109FF000743006A90DF057F8002304930323049A44
:10A00000039853431BAA995C814237D1D318059317
:10A010005B78BB4232D1059B9E78002E2ED1310059
:10A0200020680DF0B5FA08F011FF3200031C29007A
:10A0300009A80EF0A6FD310020680DF0BBFA08F06B
:10A0400005FF0122031C290009A80EF09AFD31002A
:10A0500020680DF0C1FA08F0F9FE2900031C022265
:10A0600009A80EF08EFDFE2303229B05290009A8F6
:10A070000EF087FD0123059AED189370049B0133C0
:10A0800004930C2BBAD1642010F0CDFC0B2D00DC16
:10A090005BE709A80EF061FD012201000CA803F0A6
:10A0A00063FF002509A80EF058FDA8423CDD2900F9
:10A0B000002209A80EF053FD0022061C290009A861
:10A0C0000EF04DFD011C301C08F0AAFB2900061CF7
:10A0D000012209A80EF043FD0122071C290009A84E
:10A0E0000EF03DFD011C381C08F09AFB311C08F0F5
:10A0F00025F82900061C022209A80EF030FD0222D4
:10A100002900071C09A80EF02AFD011C381C08F0C4
:10A1100087FB311C08F012F82900031C00220CA850
:10A120000EF02FFD0135BDE709AA1100012318A883
:10A130000EF041FD18A90FA80EF09AFD18A80EF018
:10A1400031FD0CAA09A912A801230EF034FD002349
:10A1500012AA0FA915A80EF02EFD002215A81100B5
:10A160000EF0FDFC0022061C012115A80EF0F7FCE4
:10A170000022051C022115A80EF0F1FCFC21071C91
:10A180008905301C08F04CFB08F040FEFC2106005D
:10A1900018908905281C08F043FB08F037FEFC21C5
:10A1A000050019908905381C08F03AFB08F02EFECE
:10A1B0002A00030031001A902068FFF715FEA068FE
:10A1C0000DF0B1FB07A908A8A5680CF054FF002208
:10A1D000194B009208A901932800130000F05EFAC1
:10A1E00008A80CF03BFFFA20800010F01CFCA068CF
:10A1F0000DF099FB15A80EF0D5FC12A80EF0D2FCBC
:10A200000FA80EF0CFFC0CA80EF0CCFC07A80CF0A9
:10A2100025FF06A80CF022FF09A80EF0C3FC25B00C
:10A22000F0BC08BC02B01847E6BF02000AC002003A
:10A230004FC00200E0FCFFFFDC050000F7B58360C3
:10A240001D4B05001F6801604260002F31D028209F
:10A25000FEF778FE040010300CF0D3FE174B1820E8
:10A260002360FEF76FFE00220600154B0192056089
:10A27000083200210C30009310F000FE08226946DD
:10A28000301D10F0DFFD0F4B00227361C223A3804D
:10A290003B68E260A660226262625B68210038006F
:10A2A0009847002805D020000CF0C5FD2000FEF7DF
:10A2B00069FE2800FEBDC0462427002005000600D8
:10A2C000D99E0100FB750200F0B5040085B0637AE9
:10A2D0009C46002B04D120000DF0BAF905B0F0BD6A
:10A2E000A37A266F01931023019AF35600259B1839
:10A2F00001229A402900F36803920293029BAB4229
:10A3000031DDB368019A6B439B1872695B00E77A91
:10A31000D3181A785878E379012F14D15F1E3F1AA9
:10A3200010003A005B004343606F8218D3189B799A
:10A33000634500DD6346627B1A4202D00123AB40D5
:10A3400019430135DAE7022F05D15F1EBA1A277AC1
:10A35000013F381AE6E7032FE4D1277A013FBF1AFD
:10A3600002003800DEE71123C943F356606C9940C0
:10A3700023691940039B194310F00DFDA27B072AA6
:10A38000ACD8637B0C495B006373531CDBB2900059
:10A390004158A373022A03D8080010F039FB96E74E
:10A3A000064B2000236300236363054BE4622364B0
:10A3B000143010F0E7FA91E7F8B10200C9A20100E9
:10A3C0003B76020010B50400044B036010F0D2FA93
:10A3D000200006F037FE200010BDC0460CB702007A
:10A3E00010B504000E4B08330360FEF7A9FE2000F1
:10A3F00074300CF033FE200060300CF02FFE200093
:10A4000058300CF062FD200050300CF05EFD200052
:10A41000044B14306361FFF7D5FF200010BDC04628
:10A4200018B20200D4B60200F8B500250400324B81
:10A430008580083303608571143016000F0006F024
:10A44000EBFD20002D4BE562636125645030FEF783
:10A45000BFFE20005830FEF7BBFE20006030FEF744
:10A46000E5FE20000423F25E33682667590009B236
:10A4700074300CF011FE3368226FE37173680126AB
:10A48000237210236581A7802561D35691685918DE
:10A49000994204DD3000984001330543F8E7112369
:10A4A0000120D356D1685918994206DD02009A401E
:10A4B0002669013332432261F6E71420FEF742FD9C
:10A4C000226900212A430123060007F039F8FF23FF
:10A4D000220063720133A381002348326664A373B0
:10A4E00020001370A366FEF70DFE0123A279200061
:10A4F0001343A371F8BDC04618B20200D4B60200DF
:10A50000F0B5437A85B00400002B04D120000DF093
:10A510009FF805B0F0BD0122837A11009C461023FC
:10A52000066F0025F3560392634499400291290077
:10A53000F3680193019BAB422CDDB36872696B43F6
:10A5400063445B00E77AD3181A785878E379012FCF
:10A5500010D15F1E3F1A10003A005B004343606F4A
:10A560008218D3189B79002B02D0039BAB40194370
:10A570000135DFE7022F05D15F1EBA1A277A013FA6
:10A58000381AEAE7032FE8D1277A013FBF1A020001
:10A590003800E2E71123C943F356606C9940236900
:10A5A0001940029B194310F0F6FB667AB31EDBB22A
:10A5B000FC2B14D8FEF754FD0B4B0500236300233E
:10A5C0000A4863630A4BFF21E4622364704307F087
:10A5D00095FB290041432000143010F0D3F9637A31
:10A5E000012B00D995E791E751760200B6030000F0
:10A5F0003B7602001FB5012381881A0068460CF0E3
:10A600000AFD012303491A0068460CF004FD05B059
:10A6100000BDC046FE0300001FB5030048331A7892
:10A620000400002A0DD000221A70012381881A002C
:10A6300068460CF0F0FC012304491A0068460CF04F
:10A64000EAFC200074300CF01EFD1FBDFF0300006B
:10A6500010B548300378002B06D00378012B03D0C7
:10A66000012102480CF05EFB10BDC046FF03000054
:10A6700010B50121040006200CF054FB064B984253
:10A6800008D148342378002B04D02378012B01D043
:10A6900020BFF7E710BDC04616FCFFFF73B5079C4F
:10A6A0000500002C1CDB060048363078002802D05C
:10A6B0003078012816D106981BB2C0B2009028004D
:10A6C00012B274300CF0EFFC002C07D02B004A3390
:10A6D0001C80002407234C352C803370200076BD6D
:10A6E000014CFBE7014CF9E717FCFFFF12FCFFFFF1
:10A6F000F0B587B00D9C06000F0002920393002C6A
:10A7000020DBFFF7A5FF330048331D78EDB2002DA5
:10A710001AD1390005A80CF0AEFC0C9B01940093F3
:10A72000029A039B05A93000FFF7B8FF05A80CF0BB
:10A7300095FC002C03D03000FFF79AFF2C0020007E
:10A7400007B0F0BD014CFAE7014CF8E717FCFFFF3A
:10A7500011FCFFFFF8B50400171E1DDD060048368A
:10A760003378002B02D03378012B17D12200E37904
:10A770005632013B137023000025200054331D8006
:10A7800050300CF00CFC23004A331F8002232800B9
:10A790004C3425803370F8BD0148FCE70148FAE7E6
:10A7A00017FCFFFF12FCFFFFF7B505000F00161E98
:10A7B00018DDFFF74DFF2B0048331C78E4B2002C66
:10A7C00012D1390001A80CF0E2FB320001A92800E7
:10A7D000FFF7C0FF01A80CF078FB2800FFF748FF47
:10A7E0002000FEBD0148FCE70148FAE717FCFFFF27
:10A7F00011FCFFFFFF2902D8417200207047014879
:10A80000FCE7C04617FCFFFF10B50400034B0833FC
:10A810000360FEF7CBF9200010BDC04630B2020045
:10A8200070B50400002516000B4BA5800833A571F8
:10A830002360E161080001210CF0DAFE074BA680DD
:10A84000A360074BA57125616561A561E3602000E8
:10A85000FEF79EF9200070BD30B20200FFFFFF7FBF
:10A860000200008070B504000121C0690CF0B4FE44
:10A87000A268824200DD0200E368A260834200DA3F
:10A8800003002169E360013121614A2917DD9B1A28
:10A890000C4A0D48A3619B1858430C4907F02EFA47
:10A8A000C3430025DB171840094B6061A360094BC7
:10A8B0002561E36020000DF044F8280070BD0648D3
:10A8C000FCE7C04660F0FFFF280A0000588603003E
:10A8D000FFFFFF7F0200008016FCFFFF82B0F0B593
:10A8E000040089B080680F930E920CF0F2FDE068CE
:10A8F0000CF0EFFD4C4906A8FEF70CFD60680DF06A
:10A9000010F8059020680DF046F8FA200127800025
:10A9100010F089F86068FFF77FFEFF216068FFF79D
:10A9200069FF6568414907A8FEF718FC782207A966
:10A930002800FFF739FF07A80CF0C7FA3C4B7F420D
:10A9400004933C4B0393A0680CF0BFFD002834D067
:10A95000E0680CF0BAFD00282FD020680DF01DF83B
:10A9600060680CF0E0FF06A907A865680CF083FB9F
:10A970000022314B009207A9019328001300FFF732
:10A980008DFE07A80CF06AFBFA20C00010F04BF80F
:10A9900060680CF0C8FFA0680CF0A0FDE0680CF047
:10A9A0009DFD05996068FFF725FF06A80CF056FB92
:10A9B00009B0F0BC08BC02B018472068FFF752FF8E
:10A9C000051E03D0022010F02EF8F6E720680CF0E8
:10A9D000E2FF039B0100834200DD0390049B8B4256
:10A9E00000DA0491042301930023039A0093206862
:10A9F000049B0CF0D7FF060087420FD060680CF074
:10AA000092FF04239F1B3FB2606829B27430FF237A
:10AA10003A000135FEF710FC052DF5D1642010F049
:10AA200002F837008FE7C0460AC002005DC002008E
:10AA300002000080FFFFFF7FDC050000F7B58360A8
:10AA4000089B0500C3601D4B01601F684260002F1A
:10AA500031D02820FEF776FA040010300CF0D1FA3D
:10AA6000174B18202360FEF76DFA00220600154BE5
:10AA700001920560083200210C30009310F0FEF9BD
:10AA800008226946301D10F0DDF90F4B002273617A
:10AA90001223A3803B68E260A660226262625B6868
:10AAA000210038009847002805D020000CF0C3F999
:10AAB0002000FEF767FA2800FEBDC04624270020CC
:10AAC00022000400DDA80100C1790200F0B51F00DA
:10AAD00085B00AAB1B780400039300933B000D0084
:10AAE00016000FF08DFE002833D0237D082B2DD8C3
:10AAF000236800221900FC318A62A021C9005A5043
:10AB0000154905205A500138C046C046C046C046C7
:10AB1000C046C046C046C046C046C046C046C04605
:10AB2000F1D1236801325A50A0210432C9005A5091
:10AB300006F0ACFB039B3200009329003B00200091
:10AB40000FF05EFE237D01332375CCE7034805B08B
:10AB5000F0BD2075FBE7C046FC0F00000EFCFFFFB8
:10AB6000F0B51F0085B00AAB1B7804000393009377
:10AB70003B000D0016000FF02BFE002833D0237D84
:10AB8000082B2DD8236800221900FC318A62A021ED
:10AB9000C9005A50154905205A500138C046C046D0
:10ABA000C046C046C046C046C046C046C046C04675
:10ABB000C046C046F1D1236801325A50A021043268
:10ABC000C9005A5006F062FB039B32000093290033
:10ABD0003B0020000FF0FCFD237D01332375CCE703
:10ABE000034805B0F0BD2075FBE7C046FC0F000030
:10ABF0000EFCFFFFF8B50D1E30D000260227C468FA
:10AC0000002C28D0AA88A38853403B4204D13A4262
:10AC100004D1AB883B4219D0646AF1E7A968A06807
:10AC20000DF00AFF0028F4D02B88002B02D02288D8
:10AC30009A42F1D16B88002B02D062889A42EBD104
:10AC4000A288074B01361343A380E5E7A368AA68EF
:10AC50009342E1D1E8E72000002E00DC0148F8BD76
:10AC60000080FFFF17FCFFFFF0B5060085B00D1E4A
:10AC700059D00127C468002C22D00221AA880023C1
:10AC80000A4202D0A3885B083B40226829688A42B6
:10AC900010D1A068A968002B0AD00DF0CDFE0028C5
:10ACA00008D0A3881AB2002A06DB204805B0F0BD00
:10ACB0008842F6D0646ADEE75B045B0CA380F4E7AD
:10ACC000F0682A88002807D1F560012318496846F2
:10ACD0000CF0A1F90020E9E7010003001C88944270
:10ACE00006D25C6A1900002C0DD02300F6E7230081
:10ACF0001C88944207D15F886C88A74203D25C6AA3
:10AD00001900002CF3D1814209D10B889A4204D357
:10AD100005D148886B88984201D96962D4E74B6AAB
:10AD20006B624D62D1E70348C0E7C04616FCFFFFE7
:10AD3000FD03000017FCFFFF064B10B51A000400CE
:10AD400008322C33026043600430FDF72FFF2000EF
:10AD500010BDC04648B2020008B4024B9C460438FD
:10AD600008BC604739AD010008B4024B9C4604386A
:10AD700008BC6047377B02000C4A002311002C32CC
:10AD8000083110B5038183724260C360036143617F
:10AD90004383016004000430FDF7FAFE044B1A6897
:10ADA000002A00D11C60200010BDC04648B202003D
:10ADB00024270020F7B50E000125C4680192002C5D
:10ADC00036D0238832889A4201D0002B23D1638861
:10ADD00072889A4201D0002B1DD1FDF74DFE012350
:10ADE000002806D0C022A3881340C03B5A425341DA
:10ADF000DBB2019A934219D1A7883BB2002B15DB35
:10AE000010223100A01810F01DF840231F4204D07A
:10AE100020000CF099FE646AD1E7FDF72DFE0028B2
:10AE2000F6D021000348FDF7D7FFF4E70025F2E74D
:10AE30002800FEBD497B020008B4024B9C46043842
:10AE400008BC6047D17C0200F0B587B001930EAB1F
:10AE50001B88060003930D9B0D000093019B02923B
:10AE60000C9F002B3CD0002F02D1009BDB0737D575
:10AE70002820FEF767F8040010300CF0C2F8029B9F
:10AE8000258063801820FEF75DF80500009B0822EE
:10AE90000593019B002103600C3004970FF0EEFF37
:10AEA000082204A9281D0FF0CDFF0E4B02226B6172
:10AEB00000230399E3602362636233680A43A56059
:10AEC000A2805B68210030009847002806D020004F
:10AED0000BF0B1FF2000FEF755F8034807B0F0BDB6
:10AEE0000248FBE70B7D020016FCFFFF17FCFFFF8B
:10AEF000F0B50400160000258380164A164B8571B4
:10AF00000260218146810573186889B08C46A84289
:10AF10001DD0124A05950492C02202926A4604ABE3
:10AF200082CB82C223002A006146FFF78DFFC02238
:10AF3000094B0A49186802926A46069106AB0795C2
:10AF400082CB82C223002A003100FFF77DFF200060
:10AF500009B0F0BD8CB2020024270020357E02002B
:10AF600030B5002403730123034D84710560818093
:10AF700082734373846030BDA4B20200F7B504004D
:10AF8000002601932C4B0D000833036086808671E8
:10AF90001700E16001222100103001F0D9F82000F3
:10AFA0002100022230300DF0E1F9200021000322BF
:10AFB00054300DF01AFA019BE771A380230050274B
:10AFC0002000FC33A6716672A6723A009E603100C2
:10AFD0005C300FF053FF23002000AC333A00310007
:10AFE0001E80B0300FF04AFF2300FE335E802B68D6
:10AFF00028009B6998472B6828001B690F499847D0
:10B000002B6831002800DB6998472B6828005B6BB0
:10B01000032198472B68042128001B6B98472B6855
:10B0200028005B699847FDF727FC02232372044B35
:10B0300020001C60FEBDC046B4B202007B7F02004F
:10B040003C27002010B50C000BF0ECFD002806D1C9
:10B05000642C06D8A123044ADB00D45010BD034859
:10B06000FCE70348FAE7C0460010004016FCFFFF6B
:10B0700017FCFFFFF7B50700FC37BB680500002B86
:10B0800029D00300AD33009318780A21013006F06F
:10B090001BFFCBB201932B00AC331B78CAB20C0060
:10B0A00093421AD06E20FDF74DFF06006E2200215C
:10B0B0000FF0E4FE6E22B96830000FF0C3FE0020EE
:10B0C0001634009BA400019A2C1966601A706B7AE2
:10B0D00001336B72FEBD0248FCE70248FAE7C04646
:10B0E00017FCFFFF13FCFFFF70B50500FF350400E0
:10B0F000AB786878834228D00130142106F0E4FE52
:10B100000022CBB29B00E318B0331E681A6069704E
:10B11000A37A013BA37232790D4CF078B378217891
:10B12000120202431B0413438A000A495350207839
:10B130002821013006F0C8FE074BC9B21B788B42AC
:10B1400000D021703000FDF71DFF002070BDC0460B
:10B150009E2B00207C2700209D2B00208023F0B513
:10B16000974C5B00226885B01A4057D00020082514
:10B17000944A954B5061106190602168294081424A
:10B1800027D0C2210A2689005E5004395D5021680B
:10B190008E4D29402160102125682943216050608F
:10B1A00001221A608A4B22681B680321DC6823682D
:10B1B00020001D6ADB6A520306D59847854BC218EA
:10B1C00003212000A84735E0984702005F32FF3294
:10B1D000F6E70126206830422CD0C2250A20AD00B7
:10B1E0005851043D58517A4805682800FC3087685A
:10B1F00079481F502068794F384020600220276826
:10B2000038432060EC6851605E60236803211D6A4A
:10B210002000DB6A98470200C832D1E70225236884
:10B220002B4255D0674B68495868002804D05A60B3
:10B2300001238B6005B0F0BD9A68002A13D0986096
:10B24000802322681B0313432360614C0121236880
:10B25000D8680368DB6A984723682900D8680368C0
:10B26000DB6A9847E6E71869002831D05C4E306801
:10B270000130306020685B4E304020609A601A6177
:10B2800001238B608023DB00CB5851490E68012BD2
:10B2900077D13300FC33986841790B071B0F042BDF
:10B2A000C8D8514F3A702268504F3A400F27226059
:10B2B000394243D0DB191A000B003A40BB43134319
:10B2C00043712368AB4323602268494B13432360D7
:10B2D00023689B0300D4A4E010222368134000D10C
:10B2E00092E000253A4F374E3B680121D8687560DF
:10B2F0000368DB6A984738680CF02DFE102223683B
:10B30000934323604023226813430F222360394B69
:10B310001978437A114093430B43134043724379A6
:10B320008571190993430B434371274A2A4BC57111
:10B330000572D0500123936035617BE723682E4A64
:10B34000F768134023603B6829001A6A38000092AE
:10B35000DB6A98470600FA20264B284A1B78C00073
:10B360005B009B5A9B085843FDF760FA3200C832D5
:10B370001218009B290038009847802322685B033D
:10B38000A4E7F6682900336830001F6ADB6A984733
:10B390000400FA20174B194A1B78C0005B009B5A27
:10B3A0009B085843FDF742FA154B2900E418221870
:10B3B0003000B847134A1368013313603AE7C046B8
:10B3C00078270020FC10004000100040F7FEFFFF2F
:10B3D0003C2700202602000004050000FEFEFFFFBF
:10B3E00074270020FFFFF7FF9A2B0020FFFFDFFFED
:10B3F00088000400AA200020FFFFFBFF8820002017
:10B40000C4090000402700202268520609D5894A55
:10B4100013612368884A134023602268874B1343D3
:10B42000236023685B034AD523685B0625D5002289
:10B43000804B02211A612368814A134023608123D3
:10B440002268134323607F4B1B68DE68336830003B
:10B450001F6ADB6A98470500FA207B4B7B4A1B7802
:10B4600080005B009B5A9B085843FDF7DFF9784B3F
:10B470000221ED182A183000B847102623683342FD
:10B480001DD0704D01212B68D8680368DB6A98478E
:10B490002368B343236040232268134323602B684F
:10B4A0006C4AFC3399686C4B995001229A600022D7
:10B4B000604B1A61802322685B0313432360236877
:10B4C000DB0200D496E02368644A00261340236020
:10B4D0005C4B1F683B00FC339D682B79EA781B02AC
:10B4E000134301936B780293AB78029A0393019B09
:10B4F00012021B041343039A1A4323680092DB01D0
:10B5000028D538000CF027FD029A437893421DD1CC
:10B510008378039A934219D10379C2781B021343AB
:10B52000019A9A4212D13800FFF7DEFD4C4F4D4A86
:10B530003B7800999B00995038780A21013006F039
:10B54000C3FC494BC9B239701E6001362368474AB3
:10B550001340236023689B0124D52368444AA879BB
:10B56000134023606B7A394A1B07DB0E995AFA2382
:10B570006A799B00594313091207120F9A1A2B7804
:10B58000D2B2DB007D33FF335343EA79394F1202E5
:10B5900010432A7A120402439B183B60386806F075
:10B5A000A9FB39606B7A9B0600D501260023012296
:10B5B0002C4F9900C9590098814200D116000133DF
:10B5C0000A2BF6D1002E15D11E4B6A781868C37964
:10B5D0009A4201D0002B0DD1FFF74CFD204D009A6F
:10B5E0002B780A219B00FA502878013006F06CFC79
:10B5F000C9B2297023681B0600D41BE600220D4B3C
:10B6000003211A615A609A605A61134B01321A6120
:10B610002368194A1A4080235B0013432360094BB7
:10B620001B68DC68236820001D6ADB6A98470200FB
:10B630001E32C5E5FC100040BFFFFDFF8100000188
:10B64000BFFFFBFF3C270020AA200020882000200D
:10B65000C40900000405000000100040FFFFEFFFD8
:10B660009C2B00204827002070270020FFFFFFFEB2
:10B67000FFFFFFFD302700200900FFFF10B5034A40
:10B68000136801331360FFF769FD10BD44270020E4
:10B69000E02310B5144C1B0322681A4223D1022266
:10B6A000124BDA672368DB0107D5114A13680133AF
:10B6B000136023680F4A1340236022680E4B134324
:10B6C0002360FFF74BFD02220C4B1A600C4B0D4A16
:10B6D00019781278914206D300221A7080232268CA
:10B6E0005B051343236010BD7827002004E100E0D0
:10B6F00070270020FFFFFFFE8000400000E100E017
:10B700009A2B00209B2B0020F7B54D4C002123687D
:10B71000D8680368DB6A98474A4B4B491860087839
:10B720001D68FA23494A4000805A9B004343484E13
:10B730005B19484D33602868474B052806D980209F
:10B740001F688003384318600020286080201D682F
:10B75000C003054022D10B7840485B00D35A9B08B8
:10B760005843FDF763F823680700DE680221336859
:10B7700030001A6ADB6A009298470200F532FF3205
:10B78000D2190221009B3000984723682900D8680D
:10B790002F4B1A6803681B6A9847F7BD1868304D2D
:10B7A000284018601D682F48284318601D688023B2
:10B7B0009B031D4021D023680221DF683B683800CD
:10B7C0001A6ADB6A00929847274D2A68831828680E
:10B7D0000193FDF72BF8019B0221C218009B380052
:10B7E000984723683268D868002103681B6A984725
:10B7F0001E4B2B60FFF7B2FCCFE70B7817485B00BE
:10B80000D35A9B085843FDF711F823680700DE68F8
:10B810000221336830001A6ADB6A009298470200FE
:10B82000F532FF32D219009B02213000984723687D
:10B830002900D868064B1A6803681B6A9847D9E73D
:10B840003C27002038270020AA2000208820002044
:10B85000342700207027002078270020B80B000034
:10B86000FFFF3FFF0100000208200020409C000075
:10B870009823F7B5184DDB032A681A4214D1022425
:10B88000164B174EDC67174B1F6838000CF063FB34
:10B890002B68002809D0A22212051A40124B13432C
:10B8A0002B60FFF75BFC3460F7BD9B02FBD5FF68A4
:10B8B00021003B6838001A6ADB6A0192984705004C
:10B8C0000A48FCF7B3FF094B2100ED182A18019B29
:10B8D00038009847E7E7C0467827002004E100E0F9
:10B8E00000E100E03C27002088000200409C0000AE
:10B8F000F7B507000191FF370500B8781421013032
:10B9000006F0E2FACBB200937B78CAB20C00934205
:10B9100018D06E20FDF716FB06006E2200212C3495
:10B920000FF0ACFAA4006E22019930000FF08AFAF1
:10B93000665172B6009BBB7062B60020AB7A0133D1
:10B94000AB72FEBD0048FCE713FCFFFF10B504001E
:10B950009CB01048FCF76AFF6B4680B2D870000AB2
:10B9600018716946092300220B706846E3798A70D2
:10B970004B704B7A22218271C271027220321343C2
:10B98000113A93434171437269462000FFF7B0FFBB
:10B990001CB010BDFFFF0000F8B583790600002041
:10B9A000DB0700D588E00BF03DF9002800D084E0EB
:10B9B0003700FC37BD68002D08D16E30FDF7C2FAA4
:10B9C00004006E2229000FF059FABC60BB68002BFE
:10B9D00000D174E0002380253A4A3B4C13706D007F
:10B9E000237023780A2B08D82800FCF71FFF282192
:10B9F00006F06AFAC9B22170F3E70022334B012145
:10BA00005A608022D20511605A68002AFCD00622B2
:10BA10002F4B304D9A56304B0721EA503000FFF73C
:10BA200011FBA2230024DB00EC502C4A2C4B2D49A7
:10BA3000EA5001222C4BC020EC502C4B8000EC50E3
:10BA40000433EA502A4B0732EA502A4A0433EA50B8
:10BA50000222294BEA50294BE9502949043BE9507D
:10BA6000B968284BE950C021274B49005A50195852
:10BA7000264D294019501A60254BF5685C60254A0F
:10BA80001C61254B21001A602B6828001F6ADB6AA5
:10BA90009847337A214A5B009B5AFA2292005A4314
:10BAA000210012182800B8470122B379300013434F
:10BAB000B371FDF76DF82000F8BD1948FCE719488F
:10BAC000FAE7C0469A2B00209B2B0020FC00004088
:10BAD00080C20200001000400C050000756962750C
:10BAE0001C050000FFFF0000240500002C050000DD
:10BAF0001405000064000400340500003C0500004B
:10BB0000211001000405000000E100E0FF00FFFF3C
:10BB1000FC100040000160007827002088200020F1
:10BB200016FCFFFF13FCFFFFF7B5304D04002B6838
:10BB3000DB0005D5FFF70AFF2B682D4A13402B6069
:10BB40002C4D2D4B2A781B789A422AD02878282110
:10BB5000013006F0B9F92700CBB201932B78274AC0
:10BB60009B009E582B7810379B009B583800009301
:10BB70000CF0F4FB360CF6B2B04204D16B46380040
:10BB8000198800F027FB019B2B70D9E7260030367F
:10BB90003000AF780CF019FC874213D130000CF064
:10BBA000F3FB20000CF0FFF9051E1DD02600103617
:10BBB000877830000CF0D2FB8742E7D1300000F0EC
:10BBC0003DFBEEE7AE782500543528000CF023FC51
:10BBD000864203D128000CF00DFCE2E720000CF0B7
:10BBE000F7F9FDF7CFF9DCE7F7BDC046782700206D
:10BBF000FFFFFFEF9D2B00209E2B00207C270020C5
:10BC0000F7B51400012501911048FCF70FFE002341
:10BC10009C460F4980B29E007258002A0ED0775879
:10BC20007258FFB2A74209D1120A019FD2B2BA429A
:10BC300004D17258120C904200D1AC4601330A2B49
:10BC4000E9D16346002BDFD1FEBDC046FFFF0000F7
:10BC500048270020F0B5050089B00C20FDF772F9E7
:10BC600006006E20FDF76EF980232A7E5B421343A7
:10BC700004002B7606A80CF00AFF264905A8FDF75C
:10BC80006DFA05A906A80CF056FF05A80BF01DF9E2
:10BC900006A80CF038FF03000190033306A80393B5
:10BCA0000CF02EFF029006A80CF02DFF02002800D9
:10BCB000029919300FF0C6F86A7D297DA868FFF750
:10BCC0009FFF019BE0700C33000A207123702B7DD5
:10BCD000002263706B7D2F00A3702223200063710C
:10BCE000637AA271E27122720F3293436372163744
:10BCF000039A39000A300FF0A5F809233460736005
:10BD0000A8683100103000F045FA06A80CF0D1FE0A
:10BD100009B0F0BD69C20200130070B5033B86B0E4
:10BD2000CA1C0500D9B204A800230CF0BBFE0021F8
:10BD300004A802F0D7F8040028690BF0F4FD2E697E
:10BD4000002C15D101231049AB7103A80BF093F916
:10BD5000230022000194009403A93000FEF7C8FCE0
:10BD600003A80BF07BF904A80CF0A3FE06B070BD8D
:10BD700002230649AB7103A80BF07DF90022019262
:10BD800000921300E8E7C046202800202C2800205D
:10BD900030B585B0040002A80CF079FE002102A89D
:10BDA0000CF0D3FE1A4B01A81968FDF7D7F901A9C9
:10BDB00002A80CF0C0FE01A80BF087F8154B01A8F3
:10BDC0001968FDF7CBF901A902A80CF0B4FE01A88F
:10BDD0000BF07BF8002363611033237602A80CF08C
:10BDE0008FFE050002A80CF08EFE02002000290044
:10BDF00019300FF027F802A80CF085FE011D89B25A
:10BE000020000CF093F902A80CF053FE05B030BDF1
:10BE1000102000200C20002082B0F7B5040008920A
:10BE20000993A06810300CF08FFA061E24D0056824
:10BE3000200029006B780A312375AB7816306375C2
:10BE40002A78093A0EF0FEFF2B4B1B78002B0CD002
:10BE50002000FFF7FFFE30000CF08DF93000FDF7F9
:10BE600091F8E36F0133E367DBE7297820000739B6
:10BE700089B20CF05BF9EEE7012720690BF053FD66
:10BE8000A17920690F401025002F18D00A007430C6
:10BE90002A400CD033003200184900960BF003F909
:10BEA000A379AB43A371F7BC08BC02B018471300D9
:10BEB000134900920BF0F7F8A3792B43F2E70A003D
:10BEC00002232A40743019400AD0002A04D0009777
:10BED0003B003A000B49E1E7009213000A49E9E709
:10BEE000002A04D000910B000A000849D6E700920E
:10BEF00013000749DEE7C0469F2B002020280020C2
:10BF0000302800202C280020282800202428002069
:10BF10001C2800207FB5002506690400174903A8E6
:10BF20000BF0A9F82B002A0003A901950095300019
:10BF3000FEF7DEFB03A80BF091F88021E068890092
:10BF400000F0A2FBE668C02103A80AF0E8FF2A007F
:10BF500003A9300000F012FB03A80AF0B6FFE121AC
:10BF6000E068090200F08EFA2000FFF711FFA068D8
:10BF7000012110300CF008F97FBDC0461C280020BC
:10BF8000F0B587B001930EAB1B88060003930D9BA1
:10BF90000D000093019B02920C9F002B3CD0002FC0
:10BFA00002D1009BDB0737D52820FCF7CBFF04002C
:10BFB00010300BF026F8029B258063801820FCF7D8
:10BFC000C1FF0500009B08220593019B002103602F
:10BFD0000C3004970EF052FF082204A9281D0EF021
:10BFE00031FF0E4B02226B6100230399E360236251
:10BFF000636233680A43A560A2805B682100300059
:10C000009847002806D020000AF015FF2000FCF712
:10C01000B9FF034807B0F0BD0248FBE70D800200FE
:10C0200016FCFFFF17FCFFFF70B5C260164A88B010
:10C0300000250492C0221E00144B040003600C9BD8
:10C040008580857181600361C56702926A460595A6
:10C0500004AB03CB03C223002A000D493000FFF7D5
:10C060008FFF0C4A07950692102202926A4606AB91
:10C0700003CB03C22300012220213000FFF780FF01
:10C08000200008B070BDC04619BE0100D4B2020045
:10C09000F4F500004D80020070B51F4E1F493000BE
:10C0A000FDF738F91E4D1F4C2A00210030000EF01C
:10C0B0008FFE1D4E1D493000FDF72CF92A0021008E
:10C0C00030000EF085FE1A4E1A493000FDF722F9B5
:10C0D0002A00210030000EF07BFE174E1749300079
:10C0E000FDF718F92A00210030000EF071FE144E01
:10C0F00014493000FDF70EF92A00210030000EF03F
:10C1000067FE114E11493000FDF704F92A00300096
:10C1100021000EF05DFE70BD2028002069C00200E5
:10C12000002000205D70020030280020BCC002000A
:10C130002428002015C102001C2800206AC102002A
:10C140002C280020BDC102002828002010C20200B7
:10C1500070B5040000250D4B8580083385710360A0
:10C1600081602100183016000CF0FAF82000210040
:10C170001C300CF02CF9064B2673256165612000FC
:10C180001D70FCF7BFFF200070BDC046E4B2020086
:10C19000A02B002070B580250A000100044CAD00E2
:10C1A000231DDD6710310CF01AF8256070BDC04604
:10C1B00000E100E070B580250A000100044CAD00EC
:10C1C000231DDD6714310BF0EFFF256070BDC04605
:10C1D00000E100E070B5050010350A0029000400F8
:10C1E0000CF00BF88022134B9200DA6700281CD069
:10C1F00002681300117B0A3309070FD5917A5A7828
:10C20000200012020A4329000BF0CEFF041E04D0C6
:10C210000BF0B1FF2000FCF7B5FE70BD01220379E1
:10C2200093431A000223134303718022024B9200AE
:10C230001A60F2E704E100E000E100E0F0B504007C
:10C240008BB080680BF0C4FE06000A367378827AE1
:10C250001B02134303934378314F04938378050003
:10C2600005930093039A049B390020000CF042F8D8
:10C2700000281CD1A3689B7A0C2B18D8059B390089
:10C280000193049B274A00932000039B0CF044F881
:10C2900021007278AB7A12021A43103120000BF0A1
:10C2A00083FFA37907009B0706D4002834D1280018
:10C2B000FCF768FE0BB0F0BD00282DD10C20FCF778
:10C2C00041FE0700002321007B60BB603A0014316F
:10C2D0003D6020000BF083FF7278AB7A12021A43A4
:10C2E0001149012306A80AF096FEB3789B0707D0F0
:10C2F00020007178AB7A09021943183000F016F863
:10C30000B3785B07D6D520007178AB7A0902194360
:10C310001C3000F017F8CDE73868FCF733FED1E7A2
:10C3200034280020A02B0020F4F500001FB50A00DF
:10C330000123034968460AF06EFE05B000BDC04601
:10C34000F5F50000F0B5006887B00BF0F9FF3F226B
:10C35000036806001C7B94433AD11A0019780D3209
:10C360000D392300C9B268460CF09CFB21006846D9
:10C3700001F0B8FD012187B2684601F0B3FD23004A
:10C38000164A85B299005458002C23D0E188B9424E
:10C3900020D1A188A9421DD10222694602A80CF031
:10C3A000B5FB200002A908300AF0F9FD02A80AF046
:10C3B0008CFD01232A000A4902A80AF02CFE300055
:10C3C0000BF0D9FE3000FCF7DDFD68460CF071FB88
:10C3D00007B0F0BD01330A2BD4D1F0E79C28002030
:10C3E000F6F50000F0B5224B85B01B7804005B0722
:10C3F00039D50EF005FB0025236CC6B20227DF5F9E
:10C40000AF420EDD200029B240300AF0EDFD864239
:10C4100005D1012320211A0068460AF0FCFD0135F0
:10C42000EEE7250023004E3528884C33198801306B
:10C4300005F04AFD230050331B8889B28B4214D08B
:10C440002B88A26CD654636C2980002B0BDB2A88C6
:10C45000934208D1012302225B426364023320210C
:10C4600068460AF0D8FD05B0F0BD01230322F6E7C7
:10C47000A12B00200121024A13788B4313707047CF
:10C48000A12B002010B5002903DB024B19600EF030
:10C49000ECF910BD8428002070B504001E0004AB28
:10C4A0001D8804F00BFE20000E4B40302360FCF78B
:10C4B0008FFE230001364C33013522001E809D8102
:10C4C0000023E1214E32A36463651380538093817E
:10C4D000D381013B200063644902FFF7D3FF2000B2
:10C4E00070BDC046D0B0020070B505001400012A2E
:10C4F00011D003004E331888023B4018198805F00C
:10C50000E3FC69640025022C03D1210020200AF0FD
:10C5100009FC280070BD014DFBE7C04617FCFFFF7A
:10C5200070B50600503604000A003388002906D191
:10C5300002004E3212889A4208D10F4870BD01297C
:10C540000FD101004E310A889A42FCD0A36C30888A
:10C550004C341D5C2188013005F0B6FC2800318088
:10C56000ECE70229F2D101004E3109889942EDD160
:10C570000121FFF7B9FFE9E70CFCFFFF70B51500DB
:10C58000012A0BD040300AF00AFD0024022D03D10D
:10C59000012120200AF0C6FB200070BD004CFBE703
:10C5A00017FCFFFF73B50D0006A9040009780430DD
:10C5B000002A01D1DE070ED5002D0CD018264E43DF
:10C5C0000C34A41962600122A360044B25606361EE
:10C5D00005F050FA73BD0022FAE7C0461B84020042
:10C5E000F0B5164E85B0337805005B0705D5002100
:10C5F0000BF01EFFA86CFCF7C5FC04273378BB4387
:10C6000033702B004C331888FCF79CFCA86400287E
:10C6100011D02B0000244E331C805C80337828001E
:10C620001F433770064A009423002900FFF7BAFF22
:10C63000200005B0F0BD0348FBE7C046A12B002059
:10C64000E5C3010013FCFFFF012370B50E000C4988
:10C6500005000A781A4211D113430B70530708D50D
:10C6600031002800FFF75CFF0400FFF703FF200004
:10C6700070BDFFF7B5FF041EF2D0F8E7014CF6E7F6
:10C68000A12B00200DFCFFFF012310B5094A1478EF
:10C690001C420CD123431370030001314C33198029
:10C6A000FFF79EFF0400FFF7E5FE200010BD024CDF
:10C6B000FBE7C046A12B00200DFCFFFFF7B580274C
:10C6C0007F053D697C690822113C6C43060021000E
:10C6D00068460EF0B7FB104B009A9A4219D00093AF
:10C6E0000023019379693000133969430BF0A6FEEA
:10C6F000019A009930000BF0B9FE210030000BF0D8
:10C700009DFE7969AB0813396943220030000BF0B4
:10C710009FFE0198FEBDC046FECA0000F0B50D00A8
:10C72000A9B00D9200213022060010A80B930EF044
:10C73000A5FB28000EF0E2FB431C0C93102B00D944
:10C74000B5E00B9B202B00D9B1E0290030000BF0A5
:10C75000BAFE071E50D129000C9A10A80EF072FBE9
:10C760000D990B9A14A80EF06DFB80235B051A69D6
:10C770005F690C92113F7A4330005D690B92FFF7BD
:10C780009DFF3022002104001CA80EF077FB290039
:10C7900000270C9B1339594330000BF04FFE0D97C7
:10C7A00030257D430B9B0833ED18A74242DA290060
:10C7B00030221CA80EF046FB10A91CA80EF094FB1A
:10C7C000002827D13C49300022000E910F940BF035
:10C7D0004DFE6A46099513AB23CB23C223CB23C25C
:10C7E00023CB23C23000129B1099119A0BF04CFE00
:10C7F00001230D930137D3E710300B9A0D990EF0FA
:10C8000012FB04003800FCF7BDFB002CA3D1200074
:10C8100029B0F0BD6A4609951FAB23CB23C223CBB9
:10C8200023C223CB23C230001C991D9A1E9B0BF000
:10C830002BFEDFE7E5433023ED1725405D430B9BDF
:10C8400008355D190D9B002B1DD10C9B3021981EC6
:10C8500005F0CAF9A0422CD017490134300022005B
:10C860000E910F940BF002FE6A46099513AB23CB91
:10C8700023C223CB23C223CB23C230001099119AA9
:10C88000129B0BF001FE0B9930000BF0D7FD8023BB
:10C890005B0559690C230C9A133963434A430233ED
:10C8A000110030000B9A0BF0D3FD0024AFE7034CCE
:10C8B000ADE7034CABE7C046FECA000017FCFFFF24
:10C8C00013FCFFFF70B50400A280FA2200230800C9
:10C8D0000C49920008312160A3716061E260A3609D
:10C8E000638209490BF0EFFD051E09D0010020000D
:10C8F0001031022212300EF0A5FA2800FCF742FB9C
:10C90000200070BDFCB2020078C2020030B50225E2
:10C91000837987B004002B4204D1FCF739F9A3795D
:10C920001D43A57120000BF018FE00281CD06B469B
:10C93000DD1C28000BF008FE2B78002B17D001A877
:10C940000BF000FE0321019AD3170B409B189B109C
:10C950002382FCF7BFFBE368A18818180123A060BD
:10C960001A0002A80AF057FB002007B030BD0122D0
:10C97000064B1A60064A51680029FCD0002151601C
:10C98000044A1268019201225A60DBE700C00040AD
:10C99000FCC0004008C50040022802D10122014B22
:10C9A0001A707047A22B002070B5064C0500237842
:10C9B000002B04D1044801F085FF012323702800D7
:10C9C00070BDC046A32B002099C9010070B50C00B2
:10C9D0000AF028F9002810D00023144DA40A2B7067
:10C9E00020000BF0CEFD002803D00A200EF01BF82B
:10C9F000F6E72B78002BFCD070BD02210C4B0D4AC2
:10CA000099508021C90008005D58002DFCD0A1215B
:10CA1000C9005C5019580029FCD000219950802190
:10CA2000C9005A58002AFCD0E6E7C046A22B0020D5
:10CA300000E0014004050000F8B50C0015001E00E0
:10CA40000AF0F0F8002811D00023174F3B70320095
:10CA5000290020000BF093FD002803D00A200DF0E0
:10CA6000E2FFF4E73B78002BFCD0F8BD01210F4832
:10CA70000F4B844619508021C9005A58002AFCD017
:10CA800080270022FF00964207DD91006858605021
:10CA9000D9590029FCD00132F5E7002261465A50ED
:10CAA000DA59002AFCD0E0E7A22B002004050000A0
:10CAB00000E00140002370B5180001241D00094961
:10CAC0009A005218516C002904D021009940084363
:10CAD000C0B255640133042BF1D1034B1B68984756
:10CAE00070BDC046FC80004088280020014B00201B
:10CAF00019607047882800201F22037A13401E3ACD
:10CB000011009940024BD967C36800205A607047F2
:10CB100004E100E0C268024B0020D1507047C046DB
:10CB20000405000010B5C379013B99420FDC0B00EE
:10CB30005133C068FF339B001A508023C1225B022F
:10CB40008B409200845823438350002010BD01483D
:10CB5000FCE7C04617FCFFFF30B5C379013B9942A3
:10CB600011DCA825C0688B00C318ED005C59A21821
:10CB70005A518023C1225B028B4092008458234388
:10CB80008350002030BD0148FCE7C04617FCFFFF82
:10CB900010B5C379013B99420ADC8023C2225B02B3
:10CBA0008B40C0689200845823438350002010BDFE
:10CBB0000048FCE717FCFFFF092905D8A223C2683B
:10CBC0000020DB00D15070470048FCE717FCFFFF56
:10CBD00070B5040008201E49205604F085FA08218B
:10CBE0006156002921DA03250F23CAB213402A40D7
:10CBF000AA40FC359540083B16489B089B001B1833
:10CC0000D869A843402595402A000243DA610122F1
:10CC10001F230B401100C02099400F4B40001950BA
:10CC20001960E36800201A6070BD0B4A8B089B00F6
:10CC30009B180322FF26C0250A40D2009640AD0073
:10CC40005859B04340269640320002435A51DEE71D
:10CC5000B5CA010000ED00E000E100E010B50024DD
:10CC6000C371044B8480083384710360C160027215
:10CC700010BDC04614B3020010B50400054B0833C4
:10CC800003601C300AF021F9200018300AF01DF969
:10CC9000200010BD54B30200FF23F0B52C4D8DB021
:10CCA0002B700023040069460088009303F078FA93
:10CCB000002802D16B469B782B70264E3368DB68C8
:10CCC000002B07D1002320881A0019000BF079FCF3
:10CCD0000DB0F0BD2B78032BF4D81F4901A8FCF749
:10CCE0003DFA336801A9DE6804A80AF050F904A9E6
:10CCF00030000BF01BFC0027060004A80AF0E5F842
:10CD0000BE421ED031002022103104A80EF09AF845
:10CD10003000FCF737F9297804ABC900591808220C
:10CD200002A80EF08FF820880123082202A90BF038
:10CD300048FC0137002804D12088084A0C210BF058
:10CD40003EFC01A80AF0C1F8002FBBD0C0E7C046E6
:10CD5000AB2000209828002088C20200FFFF0000BE
:10CD6000F0B5837991B004005B071BD5FCF7B2F9ED
:10CD700000232269801A9941994203D1F423FF3399
:10CD800098420FD9A068002808D0364B1D880CF0B7
:10CD900036FD036815221B6A290098470422A379EF
:10CDA0009343A371A3799B0759D52F4D2B68DB685B
:10CDB000002B50D02D4B1B78032B4CD8294B2C49E2
:10CDC0001B8804A80193FCF7C9F92B6804A9DE6845
:10CDD00008A80AF0DCF808A930000BF0A7FB070050
:10CDE00008A80AF072F802AB9E1D082332003380B7
:10CDF00006A9073B01980BF0E6FB002F08D039008D
:10CE00002022103108A80EF01DF83800FCF7BAF8FF
:10CE1000164B32881B7806A9DE0008AB9E1930003D
:10CE20000EF001F8002813D0082206A930000EF0F9
:10CE300009F82B6804A9DD6805A80AF0A8F82023E2
:10CE400008AA05A928000BF077FB05A80AF03DF811
:10CE500004A80AF03AF80222A3799343A37111B00F
:10CE6000F0BDC046442B002098280020AB200020B5
:10CE700088C20200F7B5089E0500152922D80120B6
:10CE800007008F40244C27421CD0E97FCC181F2C70
:10CE900041DC69183418A14210D80021C8B283427D
:10CEA00004D9545C701884700131F7E732789A180D
:10CEB0003270EA7F9B18EB7700202CE00878C8548A
:10CEC0000139E8E73478013CE4B2A34208D10023F9
:10CED000D9B28C42F0D9D05CF11888700133F7E7F1
:10CEE000EF7F0120FF183F1B1F2F14DC0227A01C1F
:10CEF0007F423618381B0190E87F2F18BE4204D2BB
:10CF00003078019FF0550136F6E7041B023CEC77C0
:10CF100028000BF0A2FBFEBDFC002000F0B50400D1
:10CF200085B001930AAB1E880BAB1B78451C02939E
:10CF30000EAB1B78170003930B78102203704B8AFB
:10CF40000131438228000DF07DFF26830026012257
:10CF5000019B67616383039BE6832377029B200029
:10CF6000EB77A31CDA770C9B0C25636223000D9AE8
:10CF700028331A705E709E702A0031002C300DF03C
:10CF80007DFF2000064BE663A3632A00310040309A
:10CF90000DF074FF2000034B2665E36405B0F0BD7F
:10CFA000DD850200CF85020070B50D000CF027FC76
:10CFB00004000368002D09D15B699847FA208000BE
:10CFC0006843074904F010FEE08070BD9B689847F5
:10CFD0008542F3D2236820009B6898470500EDE75F
:10CFE00071020000F0B507001600A1B002C70400EE
:10CFF0006B4918A81D000BF077FB331E03D03000DF
:10D000000DF07CFF83B2012204920022039202926F
:10D01000023201920093320018A93800FFF77EFF18
:10D0200023006049583318A807930BF05DFB2B1EB3
:10D0300003D028000DF062FF83B201220492002287
:10D04000039202920232019200932A0018A90798D3
:10D05000FFF764FF23005449AC3318A808930BF082
:10D0600043FB269B002B03D018000DF047FF83B233
:10D070000122049200220392029202320192009352
:10D08000269A18A90898FFF749FF631CFF33474900
:10D0900018A809930BF028FB279B002B03D018003E
:10D0A0000DF02CFF83B2012204920022601C039237
:10D0B0000292023201920093279A18A9FF30FFF7DB
:10D0C0002DFF23005533FF33394918A809930BF07E
:10D0D0000BFB289B002B03D018000DF00FFF83B231
:10D0E00001220492002203920292023201920093E2
:10D0F000289A18A90998FFF711FF2300A933FF33D5
:10D100002C4918A80A930BF0EFFA299B002B03D0A7
:10D1100018000DF0F3FE83B201220492002218AD34
:10D1200003920292023201920093299A29000A98EE
:10D13000FFF7F4FE204B1B780B93002B2CD1079BA1
:10D1400012971393089B0DAF1493631CFF33159331
:10D15000099B1A4916930A9B380017930BF0C4FADF
:10D160001D2149203B7810222B707B8A12AE6B82E6
:10D1700006ABC918C0180DF065FE06232B750B9B76
:10D180002068AB83AE610CF03EFB036829001B688E
:10D1900098470122084B1A70200021B0F0BDC0460C
:10D1A000292A0000242A0000252A0000272A00003E
:10D1B000262A0000282A0000A42B00200A180000BC
:10D1C00070B5002504000A4B858008338571036023
:10D1D000C1601830FBF7FCFF20001C30FBF7F8FFA4
:10D1E000044BA5601C60012365612000A37170BD24
:10D1F00054B3020098280020FA2130B585B005000C
:10D20000012302228900684609F005FF074C2068C7
:10D21000002809D00BF0A1FA2988054B2268198053
:10D22000022391790B43937105B030BD98280020FB
:10D23000442B002010B50C0007290DD880680CF095
:10D24000DEFA064B195703685B6C9847431E9841FA
:10D25000034B4042184010BD0248FCE780C2020068
:10D2600016FCFFFF17FCFFFFF0B5A44C0D00A54412
:10D27000040007939AAB1B78A14909A8049306926E
:10D28000FBF76CFF200029001C3009F088FEC0204D
:10D29000800001F00DFB0820FBF754FE0600002182
:10D2A00000F0CAFE15ADA66000210C220EA80DF0FC
:10D2B000E5FD2B000EAA83CA83C3924B2900EB60C5
:10D2C000002330002B610CF083FAA0680CF097FA71
:10D2D00008220021059016A80DF0D0FD1420FBF7C0
:10D2E00031FE29000200884B1593C8C9C8C2874B7C
:10D2F000059EC3600023A43603613368002B00D071
:10D30000F5E03060A0680CF07EFA082200210600EB
:10D3100016A80DF0B3FD1420FBF714FE7C4B1593FB
:10D32000030086CD86C37B4BC36000230361336B50
:10D33000002B00D0DDE03063A0680CF060FA08221A
:10D340000021050016A80DF099FD1420FBF7FAFD49
:10D35000714B15AE1593030086CE86C36F4B98357F
:10D36000C360002303612B68002B00D0C3E028605A
:10D37000012504AB1B7C04AA2B4308A928001374C5
:10D380000BF023F9A0680CF042FA036864495B6A69
:10D390009847A0680CF03BFA036862499B6998477C
:10D3A000A0680CF034FA0023026800931668049910
:10D3B0002A00B047049B002B0AD020000BF0D6F9BE
:10D3C000032805DDA0680CF022FA0368DB689847A3
:10D3D0000EA80BF039F92F2004ABC0180BF034F96C
:10D3E000362004ABC0180BF02FF93D20042504AB08
:10D3F000C0180BF029F90EAB0A93A06804AB5D7757
:10D400000CF005FA03680AA91B699847A0680CF09C
:10D41000F6F903680AA95B6D9847A0680CF0EFF96C
:10D4200003680021DB6D9847A0680CF0E8F90368F9
:10D4300002219B6D984700212000FFF7FBFE18207A
:10D44000FBF780FDA16800F005FA374B374A1B68EF
:10D45000A1680393364B15A81B6800260293354B31
:10D460000CAF1B680193069B1B685B190093324B42
:10D4700012681B68FFF7B6FD3020FBF763FD079AC3
:10D48000A16800F0A7FAA0680CF0B9F903683900A8
:10D490009B6A9847294BBE80A0680C930CF0AFF9AB
:10D4A00003683900DB6A98472900A0680BF028F967
:10D4B000099A09219378A06852190BF034F9A068F1
:10D4C0000CF09DF932210671A068FFF76DFD04ABE9
:10D4D0001B7FB34204D0A0680CF091F90BF0FAF86E
:10D4E00009A809F0F2FC95239B009D44F0BD03615F
:10D4F00007E703611FE7036139E7C046ACFDFFFFA3
:10D500007BC30200EB850200F9D10100F98502001E
:10D5100099CC0100078602003586020015860200BC
:10D5200041D5010075D501009428002090280020E5
:10D53000142000208C280020182000200800100053
:10D5400013B506226846FBF719FE094B1C68002C30
:10D550000AD0694601A809F01AFD200001A90BF0C4
:10D5600026F901A809F0B1FC684609F0AEFC13BD2C
:10D5700098280020002373B501AE0C00310005008F
:10D58000019302F00DFE002802D1B278064B1A700A
:10D59000064B1868002806D061426141044BC9B2AD
:10D5A0001D800BF00CF973BDAB20002098280020E3
:10D5B000442B0020F0B5040097B0039107A89C49C4
:10D5C0000592FBF7CBFD9B4908A8FBF7C7FD22009E
:10D5D0000FAD28001C3207A909F0F0FC08AA2900A9
:10D5E00009A809F0EBFC280009F06FFC92490AA891
:10D5F000FBF7B4FDA0680CF002F903680DAE5B699F
:10D60000984728000BF020F8332004ABC0180BF02B
:10D610001BF83A2004ABC0180BF016F8412004ABFD
:10D62000C0180BF011F88023DB00B380A0680D95C3
:10D630000CF0E5F8036831005B6D9847A0680CF0CA
:10D64000DEF8036800219B6D9847A0680CF0D7F8BE
:10D650000700002506000A371F22002138000DF0C0
:10D660000DFCFD7730000BF02CF80621A0680BF0C4
:10D6700047F8099A09219378A06804320BF053F80F
:10D68000A0680CF0BCF8C8210571A068FFF78CFCFD
:10D69000A0680CF0B4F8FF272E000581A0680CF0FC
:10D6A000AEF80BF017F80398FCF7B6FF0AA90CA820
:10D6B00009F06DFC78220CA90398FDF775F80CA809
:10D6C00009F003FC039920000BF08CF82000FBF715
:10D6D0005FFA0495012563691D402DD057490BA8B9
:10D6E000FBF718FE0BA90CA809F0C5FC00220CA939
:10D6F0001300019200920398FCF7FAFF0CA809F0BE
:10D70000ADFC049B002B42D1043F282F41DD0025B6
:10D71000FE2F00DC049D059809F0D7FE002806D0F6
:10D72000012362699A4313000422134363610026B4
:10D730000BA809F093FC049504226369134233D0CB
:10D74000FF210398C826FDF755F80025B600A36908
:10D7500002229B5EAB4222DD200029B2183009F084
:10D7600043FC0023010003981A007430FBF722FEEB
:10D770003000FBF7A5FA03980AF0D5F8C820FBF7AC
:10D780009FFA02226369134209D10135DFE70437AA
:10D79000BBE703980AF0C7F8002FBCDDBAE7FA2010
:10D7A0008000FBF78DFA0026022365691D421CD01C
:10D7B00006331D4024D022490BA8FBF7ABFD0BA973
:10D7C0000CA809F058FC00220CA901920092130049
:10D7D0000398FCF78DFF0CA809F040FC1948FBF7F3
:10D7E0006FFA0BA809F03AFC174E6420FBF768FAB1
:10D7F000164B01369E4200DC6CE709F025FA69E71A
:10D8000013490BA8FBF786FD0BA90CA809F033FC04
:10D810002B002A000CA9019500950398FCF768FFDE
:10D820000CA809F01BFC0BA809F018FCDDE7C046AA
:10D8300094C20200A4C20200A6C20200B4C2020046
:10D84000F9C20200983A00008C0A00008B0A00001E
:10D8500036C302000022594BF0B5083306000360BE
:10D860000F001000A9B0B1600BAB991801324870DD
:10D87000102AFAD10F3A524C1A700E32105D991AD2
:10D880000874013AFAD2997B5A7B09020A433100A3
:10D890000C31039125211B7813AD2B7002ABC918F5
:10D8A000452302A81B186A82180010220DF0CAFA3C
:10D8B000039B64216B610123002402AA2B77521879
:10D8C0001993093313701DAB1C706D2302AA9B18AA
:10D8D0001C706E2321009B181EA80C22EC836C6226
:10D8E0001C700DF0CBFA374B0C22210023A8AB6340
:10D8F000EC630DF0C3FA344B02AAEB6446239B1889
:10D900000322DA7722002C650595347306AD2B19B6
:10D9100001345A70102CFAD101232C482B700E338D
:10D92000195CEA1A1174013BFAD211212520AA7B55
:10D930006B7B12020BAC13432A78638202ABC918CB
:10D940002270C01810220DF07DFA0123237505AB5B
:10D95000A36100233800A3830BF055FF0368210067
:10D960001B68984713ABDB8BB068B3820BF04BFF9F
:10D97000002203680092B18A039ADC680123A04761
:10D98000B0680BF040FF07001420FBF7DBFA002221
:10D99000012304000261069240C008322900079367
:10D9A0000DF050FA0A4BE360BB69002B03D1300045
:10D9B000BC6129B0F0BD2361F9E7C0466CB3020039
:10D9C000A1C30200DD850200CF850200B1C30200C1
:10D9D00045880200F0B500260400734BDDB0083323
:10D9E00003608160C2608680867132006F4947A8FB
:10D9F0000AF0C8FF230014330125042708931223DB
:10DA0000009704950193089A330047A9039602965C
:10DA10001DA8FFF783FA3200654947A80AF0B2FF54
:10DA20000C2322000097103215AF0495019347A9EB
:10DA300033000396029632A8FFF770FA32005D4970
:10DA400038000AF09FFF20001C30099004220820B3
:10DA5000330039000495019000920396099A0296CA
:10DA600047A8FFF75BFA3200534938000AF08AFFF3
:10DA70005420FBF767FA050020000123122104223D
:10DA8000183007900493019100923900020033008E
:10DA9000280003960296FFF741FA2800474BA5623B
:10DAA0000822EC620AA930300A930B960DF0CAF9ED
:10DAB000434B0422AB63012329352B70099926615E
:10DAC000E66107980DF0BEF90422079908980DF059
:10DAD000B9F96621032304AA8918CB77BA2104AACD
