:020000021000EC
:108000000040002019110200551102005711020012
:108010000000000000000000000000000000000060
:1080200000000000000000000000000059110200E4
:1080300000000000000000005B1102005D11020062
:108040005F11020089B60100711702005F11020082
:108050005F11020000000000911102005F11020098
:10806000BDCA0100F5190200F91502005F110200F6
:108070005F1102005F1102005F1102005F11020038
:108080005F1102005F1102005F1102005F11020028
:108090005F11020015F40100A90E02005F11020039
:1080A0005F1102005F1102000000000000000000EC
:1080B00000000000000000000000000000000000C0
:1080C00010B5064C2378002B07D1054B002B02D0AE
:1080D000044800E000BF0123237010BDE020002011
:1080E000000000001CC50200044B10B5002B03D09B
:1080F0000349044800E000BF10BDC0460000000076
:10810000E42000201CC50200164B002B00D1144BAC
:108110009D46402292029A1A924600218B460F46B3
:108120001348144A121A12F0BCFE0F4B002B00D059
:1081300098470E4B002B00D09847002000210400E8
:108140000D000D48002802D00C4800E000BF0EF0E2
:1081500003F82000290012F060FC0DF0E7FFC04694
:1081600000000800004000200000000000000000A7
:10817000D82000206C2C002000000000000000002F
:1081800070B5FA26002401257600E3B22A00032107
:10819000034801F051F830006C4000F091FDF4E725
:1081A000DC22002010B50400034B036040300EF0C9
:1081B0009DFE200010BDC046F8B0020010B5084872
:1081C00000F080F9074803F0ADFE074803F0ECFB30
:1081D000064907480EF080FD00F0EAFD002010BDC2
:1081E0007C210020FC20002088250020B18D01008A
:1081F0008181010037B50C4C200000F07DF80B4D5B
:108200000B492A00200012F0F2FD0A4C0A4B0B4ADF
:1082100000930B490B4B200003F00AFF2A000A4988
:10822000200012F0E4FD37BD7C210020002000205A
:108230004D820100FC2000206822002080210020C7
:10824000882500204C220020556B0200F7231C4A91
:108250009B0010B5C2501C330400C0180EF046FE3F
:10826000FD239B00E0180EF041FE9F239B00E018C9
:1082700002F0CEFA84239B00E01801F013FC2000EA
:10828000C530FF3001F040F920008D30FF3001F0A3
:108290006FFB20006530FF3001F06AFB2000EC30FE
:1082A00002F0A2F82000D03002F04AFD2000643035
:1082B00008F082FE201DFFF775FF200010BDC046AC
:1082C00084B3020070B50B4C0500005900280ED095
:1082D00005F0D2FE836D9B0709D5285911F0A0FA4D
:1082E000036813215B6A9847642012F090FC0EF03B
:1082F000BBFC70BD140500001423F0B5040097B05A
:10830000009319221821043004F0CAF82200250035
:108310006432B43513211000139208F059FE28007E
:1083200010F0DCF82200B83210921E2100221098C2
:108330000FF077FB2000D03002F022FD2200EC325B
:1083400011920621594A119802F072F82200002772
:1083500001236532FF32149200971A0011211498FC
:1083600001F072FB22008D32FF321592009701233B
:1083700002221A21159801F067FB26002000C5365D
:10838000B530FF361A2302220121FF3002F0B6FD7C
:10839000109904233A22300001F066F984229200F9
:1083A000A218129205231D22019300922B00320085
:1083B0001099129801F06CFD96229200119BA01862
:1083C0001299320001F03EFF99229200A018290074
:1083D0001C2204F07BFA9F229200A61812992222F6
:1083E000300002F021FAA7229200A018159A149BDF
:1083F00000923100119A02F025FB1923AB220F9352
:10840000013B0E93013B0D93013B0C93013B0B93FE
:10841000013B0A93013B0993013B0893013B0793FE
:10842000013B0693013B0593013B0493013B0393FE
:10843000013B0293013B01939200013BA018009382
:108440000822013B07210FF0F4FAF7239B00E01804
:10845000290004F0BDFEFF239B00E5180822042339
:108460001349280004F0FEFB124B3A00E0182900E3
:108470001D2302F089FD104B1398E750032127704C
:1084800012F0DAF92300220020000C499C33A032BC
:108490001C60116057600A4A80305A610221012233
:1084A00008F028FF200017B0F0BDC04600B1020060
:1084B000008000400C04000014050000C58201008B
:1084C000756B02000123F0B506788DB004001E40E4
:1084D00000D0A3E0FD20800500F0FCFC2300D03399
:1084E0001800029300F0D0FA00F0C6F9282000F03E
:1084F00029FD050010300EF095FD494B18202B602A
:1085000000F020FD0700474B0460082231000C30CA
:108510000A930B9612F0C5FC0AA9381D082212F026
:10852000A4FC414B29007B611223AF60EE60AB805D
:108530002E626E62029802F09BFB002805D0280094
:108540000EF08AFC280000F01DFD01232278642033
:108550001343237000F0B4FB002527006537FF3775
:1085600038000EF0C3FF002854D020008D30FF30BB
:108570000EF0BCFF00284DD00A2D4BD064200135F1
:1085800000F09EFB0A2DE8D12849294800F078FC2C
:10859000F723284E9B00E3180393A359002B32D1F5
:1085A00000F058F8010006A800F0D8FD0EF058FBC6
:1085B00004900EF055FB6B460590198A08A80EF042
:1085C000B2FC059B09A8190C0EF0ADFC09AA08A97C
:1085D00007A80EF004FD09A80EF088FC08A80EF00C
:1085E00085FC012307AA06A900930398029B04F0C7
:1085F00043FE07A80EF07AFC06A80EF077FCF923DC
:108600009B00E358A35121003A00EC31039804F099
:10861000D9FFA2E70549084800F032FC0DB0F0BDD3
:10862000FD030000CB6B02008B6B020000200020DA
:10863000001C00201405000008000020BFF34F8F2D
:10864000024B034ADA60BFF34F8FFEE700ED00E014
:108650000400FA05F0B58DB005AF192215493800B0
:1086600012F003FC0022144B05245A71802252059B
:10867000566E012225000194029203930199300065
:1086800009F048FB0800029909F0BEFA019B039922
:108690006B430193029B361A6B430293631E2C1BA0
:1086A0006C433C19225C1C1ECA54E7D108000DB073
:1086B000F0BDC046CEBD0200922B0020F0B597B0B1
:1086C00018220021060010A812F0EBFB132110A8BD
:1086D00012F00EFA032110A812F0A0FA4C4B1B68FE
:1086E000002B00D10133DBB202934A4A012300215F
:1086F0000BA808F06DFF484B9E4200D9002672B6C9
:10870000464B64211D68464B30000793052409F051
:1087100005FB60435030281808900A21300009F00A
:10872000FDFA0A2109F0E0FB614350316918099113
:1087300030000A2109F0D8FB802361430024503126
:1087400069189B010A910193029B002B5DD00025C3
:1087500000272E1F07AB9B190593032C03D1802301
:1087600000249B01019307AB5B592E4A03936300DE
:10877000D31804930023190006205843049A1618AE
:108780007678B4466246039EB25C10269446049AFC
:10879000105C62460641164202D001209840014317
:1087A0000133092BE8D1C9431F4B059A0901194030
:1087B0001268039B934225D1312F23DC00210BA8A3
:1087C00012F0E5FAFA23159A1199DB0010680142BC
:1087D0001BD0013B002BF9D1019B01345B000193BD
:1087E000FA230137E4B25B009F42B6D10435102D65
:1087F000AED1074B1B68002BA6D0029F013FFBB2F6
:108800000293A1E7019B1943D9E7FFF717FFC04681
:1088100098260020F0FF0000E7030000042000205D
:108820001DBE0200E7BD0200F01F0000F0B50028E9
:108830001BDD0F4C421E276811000020BE09FB0FF4
:1088400073407B403E097D087340BF087B406B400E
:10885000DB072B4301251F0040002B401843E94054
:10886000ECD18242E8D32760F0BD0248FCE7C04665
:108870009426002017FCFFFFF8B50023124C23605C
:108880000EF0E0F9002808D0042120000EF0D6F9FF
:10889000002801D00D4B2360F8BD0122A12704253B
:1088A0000B4B0C491A602268FF0048604E68002E8E
:1088B000FCD0DE591202013D3243002DF5D1226079
:1088C00001225A60E8E7C04694260020ED5EBC0B0A
:1088D00000D00040FCD00040F0B585B01F000AABCE
:1088E0001B880600029115000393002F1CD028203E
:1088F00000F028FB6B4604001989039BAAB2009381
:108900003B000EF092FA336821005B683000984714
:1089100000280AD0002C05D020000EF09DFA20007F
:1089200000F030FB024800E0024805B0F0BDC04650
:1089300016FCFFFF17FCFFFF0B4B70B51C68002CEB
:1089400010D0656D00F0C6FBA36C002901D18342F5
:1089500006D820000EF0A9F9044920000EF093F982
:108960002C00ECE770BDC046A0260020C0260020E9
:10897000F0B593B007932A4B04AC1E6804900591A0
:108980000692002E4AD0274B258867881C68002352
:108990000293002C2ED0636D23480393A36C9AB2EC
:1089A000A36C1B0C99B2854214D12048824211D18C
:1089B000002B01D0B9420BD1029B002B08D1200023
:1089C0000EF073F91A4920000EF05DF901230293AD
:1089D000039CDEE7002A01D09542F9D1002B01D09B
:1089E000B942F5D120000EF060F9114920000EF0D7
:1089F0004AF9EDE70F4BEB18012B0FD910233A0082
:108A0000009329000C4B08A80EF00FFA336808A950
:108A10009B683000984708A80EF01EFA13B0F0BD0E
:108A20009C260020CC260020FE030000FF0300004F
:108A3000C026002002FCFFFF7189010010B572B64C
:108A40000B4B1C68002C08D020000EF02EF90023E0
:108A5000E364084B2000E36310BD62B65C2000F0C5
:108A600071FA5C220021040012F01BFAEFE7C04605
:108A7000C426002000400020024B18780123184033
:108A80007047C046982B0020F7B50600FFF7F4FFAB
:108A9000051E33D11A4C2660FFF7D0FF194B1A4937
:108AA00018600EF0F0F8FFF7C9FF184B1860184B6C
:108AB0004363184B8363206800280ED0C027164EEE
:108AC0002A00330015490097FFF706FF009733008F
:108AD0002A0013492068FFF7FFFE0C2000F032FA4D
:108AE0000023838083710F4B03600F4B836000F082
:108AF00009FB01230D4A11780B431370F7BDC046E3
:108B00009C260020D0260020C0260020C826002059
:108B1000FC3F00208D6D020071890100FF03000001
:108B2000FE03000020B1020039890100982B0020CB
:108B3000F7B506000D0017000193002802D10024AC
:108B40002000FEBD0029FAD0FFF778FF041EF6D002
:108B5000074B019A4363066045608760054B002A16
:108B600000D0054BA363054920000EF08CF8E7E721
:108B7000FC3F0020576D0200756D0200C0260020EA
:108B8000024B1868434258417047C046C026002037
:108B9000002310B504499C006258002A01D001331B
:108BA000F9E76050100010BDA8260020002310B582
:108BB000044A99008C58844201D00133F9E700201F
:108BC000885010BDA826002010B50024084BA20034
:108BD000D058002802D003685B6898470134062CFF
:108BE000F4D1044B1B68002B00D120BF10BDC04640
:108BF000A8260020C0260020F8B5FFF73DFF00287A
:108C00001BD0294D2C68E36CDA0717D502263343B5
:108C1000E3640423254F3868C26C1343C364636B59
:108C2000C3630EF076F83868416C05F0C8F8286820
:108C3000C36C334201D005F0FCF8F8BD1C4F1D4E4B
:108C40003A683168002A1ED129602A688A4208D110
:108C50001B0706D52C60FFF7B7FF3B68002BFAD047
:108C60002B6029688C42E8D03368994214D1124BAA
:108C70004B63124B8B6320000EF04BF82968626C3B
:108C80004B6C20000DE0206DB84203D1606D0028D0
:108C900000D002002A60D8E79C42ECD100221000EC
:108CA0004B6C05F04BF8C8E7D0260020A426002026
:108CB000C0260020C8260020FC3F00208D6D020049
:108CC00070B50500FFF7D8FE002803D1280011F089
:108CD0009EFF70BD0C4B1C68E36CDB0706D5FFF7ED
:108CE000ADFE0A4B1860002800D0040000F0F2F935
:108CF0002D18A56420000DF0D8FF054920000DF0C7
:108D0000C2FFFFF779FFE4E7D0260020A426002069
:108D1000A0260020F0B51E4B1E4F1C683B6885B096
:108D200006000391002B30D0FFF7A6FE00282CD0C0
:108D3000E36CDB070ED5FFF781FE174B051E1860AD
:108D400008D00DF0B2FF154928000DF09CFF2C0053
:108D5000FFF752FF039B20001B043343A3640DF075
:108D6000A4FF20000E490DF08EFF0E4B0024F318D7
:108D7000012B07D9C0230093039A0B4B31003868AD
:108D8000FFF7AAFD200005B0F0BD084CFAE7C04689
:108D9000D02600209C260020A4260020C0260020EB
:108DA000CC26002002FCFFFF7189010016FCFFFFAA
:108DB00010B5FFF761FE002809D0054C20680DF0C2
:108DC00074FF044920680DF05EFFFFF715FF10BD2A
:108DD000D0260020C4260020F7B507000D0000288B
:108DE0002ED0FFF749FE00282CD00724164E3068FD
:108DF000C36C1C4007D0154A290038000DF07AFFDB
:108E000000242000FEBD04F0FCFF02213268D36C78
:108E10001940019103D003218B43D364F1E701246E
:108E20002343D3642800B8473268D36C1900A143A8
:108E3000D164019C5B07E4D528000DF093FFE0E7C7
:108E4000034CDEE7034CDCE7D0260020656D020012
:108E500017FCFFFF16FCFFFF020010B5014B12CB01
:108E600012C210BDD4260020034B1A68034B1A60AF
:108E70007E225A607047C04604200020D42600207D
:108E800070B5104D2B78022B18D0814218D90B1ACF
:108E9000072B15D90C00032304431C4010D172B6D4
:108EA0002A78094BD200D050981841600DF074FF19
:108EB0002B7801332B7062B6200070BD0348FCE7AD
:108EC0000348FAE7992B0020DC26002013FCFFFF63
:108ED00017FCFFFF70B50021041C09F027F80028DB
:108EE00028D1FE21201C890509F02AF8002821D16B
:108EF00004300DF055F905000F48401B0AF000F84A
:108F0000211C09F09DFC09F04FF80323984304004D
:108F100028000DF04FF920000DF042F9002804D18F
:108F2000203C002CF7D1054803E00119FFF7A8FF0A
:108F3000002070BD0248FCE70038002013FCFFFF52
:108F400017FCFFFF70B5060000250C4B1B78AB42E9
:108F500009DD0B49EB00C91830000DF025FF041E98
:108F600009D10135F1E730000DF01AF9041E02D1E4
:108F70001420FFF7A3FB200070BDC046992B0020F2
:108F8000DC26002070B5002813D00D4B0D491C784D
:108F900000239C4210DDDA00555885420AD28A1817
:108FA0005268824206D98023043802681B061343A4
:108FB000036070BD0133ECE70DF0FCF8F9E7C04643
:108FC000992B0020DC26002070B5051E14DD0B4E09
:108FD0000B4C3368002B02D0206811F0A3FCFA215F
:108FE00020680024074B89008361C46269433560AF
:108FF00011F0A0FC200070BD0348FCE7EC26002027
:109000001C270020B190010017FCFFFFF8B5114F9D
:1090100006003D68002D0AD13020FFF793FF0400C1
:1090200008F030F80C4BA5612360E5623C600B4D05
:109030002B68002B09D11020FFF784FF040011F0EA
:10904000C5FC20002C6011F09BFC3000FFF7BCFF3A
:10905000F8BDC0461C2700202CB7020018270020AE
:10906000014B18687047C046EC26002070B50D4CC7
:109070002368002B03D00C4B1B68002B02D1062069
:10908000FFF7C4FF206811F092FC02000749C317E4
:109090000D684E685219734120680A604B6011F0E8
:1090A0008CFC70BD182700201C270020D820002031
:1090B00010B5FFF7DBFF0024054BA200D0580028B5
:1090C00002D003681B68984701340A2CF4D110BD04
:1090D000F026002010B5FFF7C9FFFA22034B9200DB
:1090E00018685968002308F03FFF10BDD820002001
:1090F00010B5FFF7BBFF024B1868596810BDC0469A
:10910000D82000200B4B10B51B680400002B03D0A7
:10911000094B1B68002B02D10620FFF777FF0023C5
:10912000064A99008858002801D00133F9E78C508D
:1091300010BDC046182700201C270020F026002064
:10914000002310B5044A99008C58844201D00133A1
:10915000F9E70020885010BDF026002010B504006B
:10916000002902D00B78002B03D1034B2360200091
:1091700010BD0DF0C2FEFAE730B10200F8B50400F0
:109180000E00150000290AD00B78002B07D0002A0A
:1091900005D0080097B211F0C4FE874203D90B4BEB
:1091A00023602000F8BD681DFFF7CCFE20600EF0A4
:1091B0003EF823682A005F8023683100181D11F0F3
:1091C00054FE23685D1900232B71EAE730B10200D9
:1091D000014B03607047C04630B1020010B505482E
:1091E000054C20600EF026F8044A0549200011F0D5
:1091F000FEFD10BD30B1020020270020002000201D
:10920000ED6E0200084B73B51C680500002C0AD0F7
:109210000100266808310822684611F026FE0CCDB0
:1092200031682000884773BD24270020014B03606C
:109230007047C04638B1020030B500684488A1428A
:109240000CDA8588AA4209DA002907DB002A05DB47
:109250005443401800198371002030BD0048FCE7DA
:1092600017FCFFFFF0B5070085B00E001D000029B8
:1092700021DD002A1FDD002B1DD0046863880393C5
:109280008B4200DD0391A3880293934200DD02929A
:10929000002306340193019B029A93420EDA2900BF
:1092A0002000039A11F0E1FD3B68AD195B88E418DA
:1092B000019B0133EEE7024805B0F0BD0020FBE75B
:1092C00017FCFFFFF8B504000D0016001F00002971
:1092D00001DB002A02DA0E4B2360F8BD1000484380
:1092E0000630FFF72FFE20600DF0A1FF23685D80A0
:1092F00023689E80002F06D03B003200290020000A
:10930000FFF7B0FFE9E720000DF0CEFEE5E7C0462D
:1093100038B10200F7B506000D1E03D1244B0360DF
:109320003000FEBD00200F000400010001903B78DA
:10933000002B1AD03022524294469C446246092A9D
:1093400011D90A2B0AD1019B241801330193A142A0
:1093500000DA2100002004000137E8E70028FBD0F4
:1093600001340020F8E70120F6E76A4601279288D9
:1093700009B212B230007F42FFF7A4FF39000A2081
:1093800033689A1D2C78002CCAD02300303B092B5F
:1093900008D8FB43DB173B4043431B19303B1F00FE
:1093A0000135EFE7002FFBDB177001320F00F7E705
:1093B00038B10200F0B5040089B006A80E00029290
:1093C0001D00FFF749FD236802995A88914235DA5A
:1093D0009B889D4232DA1F2E30D9079B01939E4213
:1093E0002CDC0523002273430393069B0493039B09
:1093F00004999B18A03BCB5C00210593AE18029BFF
:10940000CF1823685888019087420EDA9888B042B6
:109410000BDDDB1910270F41019870431B180598CD
:109420000740781E87417F429F7101310529E6D1AF
:109430000132052ADBD1002009B0F0BD0048FBE76E
:1094400017FCFFFFF7B50468070063880E1E019341
:109450001EDD994218DA0023063400933B68009A17
:109460009B889A4212DA019BA1199D1B2A002000B9
:1094700011F0FBFC601931000DF008FE3B685B88C1
:10948000E418009B0133E8E70DF00EFE002000E039
:109490000048FEBD17FCFFFF10B50548054C2060D5
:1094A0000DF0C8FE044A0549200011F0A0FC10BDD3
:1094B00038B1020028270020002000207F70020021
:1094C00010B5054C012120000DF0A8FE034A044907
:1094D000200011F08CFC10BD2C2700200020002063
:1094E000D97102000388074A10B50120934208D0C1
:1094F000834202D00020DB0703D41E20FFF7DEF8F2
:10950000002010BDFFFF000010B50400034B08331E
:109510000360FFF74BFB200010BDC04680B1020086
:10952000FA2270B5438992005343314A31491400FD
:10953000050038348B421BDC2F498B4218D82F4949
:10954000083C8B4214D82E49083C8B4210D82D4938
:10955000083C8B420CD82C49083C8B4208D82B493C
:10956000083C8B4204D82A4914008B4200D90834A5
:10957000284B2A7B1E1D042A03D89E1C022A00D8D1
:109580001E00FA212068890008F03EFB33786881CC
:109590002B7300222A2128000DF070FE002801D034
:1095A0001D4870BD10222B2128000DF067FE0028F9
:1095B000F6D101222D2128000DF060FE0028EFD108
:1095C00001222E2128000DF059FE0028E8D17278E2
:1095D0000E2128000DF052FE0028E1D1012223794E
:1095E0002A211A4328000DF049FE0028D9D0D7E7D8
:1095F00040B1020000C4090000710200803801007F
:10960000204E00001027000088130000C40900004D
:10961000E2040000FDBF02000EFCFFFF7FB5150055
:109620000F226A4404001E001170002D16D0002B7A
:1096300014DD012301890093006B01F095FA0028E5
:1096400002D0074804B070BD0090218933002A0081
:10965000206B01F03FFA0028F4D0F2E70148F1E76F
:109660000EFCFFFF17FCFFFFF7B506000025019376
:109670001E4B143608330400036085808571C58154
:10968000058245820F00009229001822300011F057
:1096900008FC1C21300011F02BFA6B469B8802213C
:1096A000A3806B461B88220023811423A57121739C
:1096B000A563A58763813E32137827638B43F1311D
:1096C0000B4013702300957295810135221DD587BB
:1096D0000833A21DD5872000DD87FFF721FF002872
:1096E00002D1A3791D43A5712000FEBD80B1020007
:1096F00030B50425837987B004002B4204D1FFF7ED
:1097000047FAA3791D43A571A36AA2691B680025C6
:109710001A4208D106236A4601212000FFF77EFF86
:10972000051E03D0114D280007B030BD6B46022244
:10973000042069469A561856237BD2005A43228247
:1097400002220978C00049B2C900594343436382E9
:10975000A379E1819343A37120000DF09DFD0123C6
:10976000A1881A0002A80DF067FCDCE70EFCFFFFE1
:10977000F8B50400FFF7BCFF0E22A35E794F5B42F1
:10978000BB4251DA23003E331B789B074CD50125A1
:10979000210028003E310B785A0890430200022035
:1097A000AA40834313430B702000FFF7A1FF102250
:1097B000A35E5B42BB4248DA23003E331B785B0763
:1097C00043D50125210028003E310B789A089043AB
:1097D00082000420834313430B7026002000FFF710
:1097E00087FF1222A35E4836BB423EDA23003E3397
:1097F0001B781B0739D5210001223E310B78D80890
:1098000082430820D200834313430B703378032B29
:109810003BD80133DBB23370012B00D08DE0230045
:1098200000224A331A8030E02000FFF761FF0E2249
:10983000A35EC8225B42520000259342B4DD2300A0
:109840003E331B789B07A2D5AEE72000FFF750FF01
:109850001022A35EC8225B4252009342BDDD23006A
:109860003E331B785B07ACD5B7E72000FFF740FF1E
:10987000C8231221625E5B009A4204DD23003E335E
:109880001B781B07B7D5002DC0D13278002A14D021
:109890002100270001254A310B883E3701339BB256
:1098A0000B803878AC46054055D01D2B05D9634652
:1098B0009843002338700B80337020000DF058FD62
:1098C000294A0723904244DD2000FFF711FF0E23B1
:1098D000E25E264E52420323B2423ADBC825200004
:1098E000FFF706FF0E23E25EAD0052420423AA42B8
:1098F0002FDC2000FFF7FCFE1023E25E0223524221
:10990000B24226DB2000FFF7F3FE1023E25E0123C4
:109910005242AA421DDC2000FFF7EAFE1223E25E5B
:109920000523B24215DB2000FFF7E2FE1223E25EC0
:109930000623AA420DDC00230BE0042BA5D1220054
:109940003E321178033B0B43137000234A342380CB
:109950000B331800F8BD092BAFD9013A0D803270D6
:10996000ABE7C04670FEFFFFFF700200E0FCFFFFA8
:1099700010B50400034B08330360FFF7E1FB200040
:1099800010BDC04698B1020070B5C369C1681A68BD
:10999000451D0400EB7F11424AD0002B4DD1EB7FD7
:1099A000082B0BD90121A3790B4207D10B43A371DB
:1099B00020000DF08CFDFFF78DFB2062EB7F012B6B
:1099C0001DD8A379DA071AD510221340A3710221FA
:1099D00020000DF07CFDA31DDB7F012B0FD1FFF7D5
:1099E00079FB0023226A801A9941994203D1144BD2
:1099F0000321984200D9042120000DF068FD0322C4
:109A0000A3791340012B12D1FFF764FB0023226AD4
:109A1000801A9941994202D10A4B984207D90223F0
:109A2000A27905211343A37120000DF050FD70BDF4
:109A30000B2BB4D80133EB77B1E7013BFBE7C04612
:109A4000E7030000DB050000F0B5070000250E006D
:109A500085B002930AAB1B7808370393104B0400C0
:109A6000083303600192858085712900182238002F
:109A700011F017FA039A3100380011F03EF86B46E6
:109A80006A469B88127AA380A31DE671DA77631D6C
:109A900025622000DD77FFF735FB200005B0F0BD23
:109AA00098B1020010B50400034B08330360FFF7C0
:109AB0007DF8200010BDC04608B202007FB5150039
:109AC0000F226A4404001E001170002D16D0002BD6
:109AD00014DD012301890093C06B01F045F80028D3
:109AE00002D0074804B070BD0090218933002A00DD
:109AF000E06B00F0EFFF0028F4D0F2E70148F1E757
:109B00000EFCFFFF17FCFFFF002330B585B003AC50
:109B1000217001890093050001332200C06B01F020
:109B200023F8002802D0094805B030BD20802989DB
:109B3000009002232200E86B00F0CCFF0028F2D155
:109B4000237860781B02184300B2EDE70EFCFFFF9C
:109B500013B56B46DC1D0023220023700133FFF791
:109B6000ADFF002801D1207816BD0148FCE7C046B2
:109B70000EFCFFFFD0B504000DF0EAFCE268A3691B
:109B8000981A0AF00BFE06000F002369E069C01A5C
:109B90000AF004FE32003B000BF04EF90022104B9D
:109BA0000AF00CF80F4A104B09F006FD0AF082FE8D
:109BB0000021041C08F0B0F9002804D0201C0B4937
:109BC00008F0CCFA041C201C0AF022FE02000B0054
:109BD000002007490AF064FA0AF0AAFDD0BDC04689
:109BE00000806640EA2E4454FB2109400000B44343
:109BF00000807640F0B5050085B0006C0DF055FC96
:109C0000061C286C0DF048FC0221071C28000DF0F2
:109C1000D0FC0221039028000DF0DDFC09F026F9AC
:109C20000221041C28000DF0E8FC09F01FF9051CB6
:109C3000301C0BF0C3F80290301C0BF081F801903F
:109C4000381C0BF0BBF8061C381C0BF079F8071C0D
:109C5000039809F00BF9391C08F0F2FD311C071CC0
:109C6000201C08F0EDFD029908F0EAFD011C381CEB
:109C700008F074FA311C071C281C08F0E1FD01995A
:109C800008F0DEFD011C381C08F068FA0299061C79
:109C9000281C08F0D5FD0199051C201C08F0D0FDFA
:109CA000011C281C08F0FEFE311C0BF0C9F80D4900
:109CB00008F0C6FD0AF0ACFD0B4A0C4B09F07CFC29
:109CC0000AF0F8FD0021041C08F026F9002804D051
:109CD000201C044908F042FA041C201C09F0A6F8D4
:109CE00005B0F0BD0000B443EA2E4454FB211940F6
:109CF00070B50022102104000DF01CFC1B4D002843
:109D00002DD1032608212000FFF722FFA84226D0EC
:109D1000304226D1FA216389890059435023144ADD
:109D2000D518D058884204D3D518083B18000830FD
:109D3000F7D1FA212868890007F066FFA022608128
:109D4000112120000DF0F6FB002808D101222B790B
:109D500010211A4320000DF0EDFB002800D003482D
:109D600070BD6420FEF7ACFFCCE7C0460EFCFFFFE1
:109D7000B0B102007FB50425837904002B4218D1CD
:109D800002260DF0E5FBA379A188B3432B43A37111
:109D90000622012368460DF04FF9A07903003040F8
:109DA000AB43A37143425841034B4042184004B0B7
:109DB00070BD0248FBE7C04614FCFFFF15FCFFFF27
:109DC00010B5837904005A070DD49B0701D4FFF71F
:109DD000D1FF236C2000002B02D0FFF70BFF10BD3A
:109DE000FFF7C8FEFBE70148F9E7C04615FCFFFF97
:109DF00070B5466C86B001AC050001916260A3604D
:109E0000002E0CD00B4905A8FFF7A8F90C2322005F
:109E100005A930000EF0A1FB05A80DF067F82B0096
:109E20000C3307CC07C30223AA791343AB7106B0E6
:109E300070BDC04603C00200642330B50400028137
:109E4000438185B08180FFF753FF0222A379606CC4
:109E50009343A371002813D00C490EF045FB051E57
:109E60000ED001000C22103101A810F0FEFF2000DE
:109E70000199029A039BFFF7BBFF2800FFF782F8C6
:109E80000123A2791343A37105B030BD03C00200C2
:109E9000F7B5009308AB1B880400019309AB1D883C
:109EA00000230F0016000D4A838008328371026080
:109EB000C360036143618361C36103621D21243078
:109EC0000DF02BFB009BE7632664290020006364F0
:109ED000019AFFF7B1FF2000FEBDC04608B20200A4
:109EE00082B0F0B50400A5B064202B932A9210F044
:109EF0008EFE04220C2109A804F040F82422CC494B
:109F00001BA810F0B2FF052206A811000DF0D5F82D
:109F1000C84907A8FFF7FEF9A06800F081FBA56813
:109F2000C54918A8FFF71AF9782218A9280000F0E7
:109F300015FC18A80CF0DAFF6E256420013D10F026
:109F400066FE002DF9D1A06800F06AFBA0680DF054
:109F5000FBFC012160680DF01FFA01210700606819
:109F60000DF02DFA06000A2010F051FE0022B34B2E
:109F700003929F4210DB013203923A00C8320BDB9E
:109F8000C822042192000391974205DC0322039228
:109F9000C82F01DC013A039200279E420CDB3300FC
:109FA0000137C83308DBC82303379B009E4203DC1C
:109FB000013FC82E00DC013F06A80DF075F8002611
:109FC000032373431BA9CA189078002805D0C95CE5
:109FD0005278FF2306A8FFF72FF901360C2EEFD198
:109FE0006B463AB20C21595E06A8FF23FFF724F90D
:109FF0000023A06800931A00743006A90DF064F8DD
:10A00000002304930323049A039853431BAA995CE7
:10A01000814237D1D31805935B78BB4232D1059B7F
:10A020009E78002E2ED1310020680DF0C2FA08F083
:10A030001DFF3200031C290009A80EF0B3FD3100FA
:10A0400020680DF0C8FA08F011FF0122031C290056
:10A0500009A80EF0A7FD310020680DF0CEFA08F037
:10A0600005FF2900031C022209A80EF09BFDFE2318
:10A0700003229B05290009A80EF094FD0123059AEF
:10A08000ED189370049B013304930C2BBAD1642018
:10A0900010F0BDFD0B2D00DC5BE709A80EF06EFD96
:10A0A000012201000CA803F069FF002509A80EF0A9
:10A0B00065FDA8423CDD2900002209A80EF060FDE4
:10A0C0000022061C290009A80EF05AFD011C301CB4
:10A0D00008F0B6FB2900061C012209A80EF050FD6D
:10A0E0000122071C290009A80EF04AFD011C381C9A
:10A0F00008F0A6FB311C08F031F82900061C0222EA
:10A1000009A80EF03DFD02222900071C09A80EF047
:10A1100037FD011C381C08F093FB311C08F01EF8B9
:10A120002900031C00220CA80EF03CFD0135BDE700
:10A1300009AA1100012318A80EF04EFD18A90FA8B6
:10A140000EF0A7FD18A80EF03EFD0CAA09A912A852
:10A1500001230EF041FD002312AA0FA915A80EF04D
:10A160003BFD002215A811000EF00AFD0022061C7E
:10A17000012115A80EF004FD0022051C022115A8DE
:10A180000EF0FEFCFC21071C8905301C08F058FB72
:10A1900008F04CFEFC21060018908905281C08F0E8
:10A1A0004FFB08F043FEFC21050019908905381C7F
:10A1B00008F046FB08F03AFE2A00030031001A902E
:10A1C0002068FFF715FEA0680DF0BEFB07A908A8E0
:10A1D000A5680CF061FF0022194B009208A90193B9
:10A1E0002800130000F05EFA08A80CF048FFFA20DF
:10A1F000800010F00CFDA0680DF0A6FB15A80EF075
:10A20000E2FC12A80EF0DFFC0FA80EF0DCFC0CA89C
:10A210000EF0D9FC07A80CF032FF06A80CF02FFFB7
:10A2200009A80EF0D0FC25B0F0BC08BC02B018475D
:10A230000EC0020032C0020077C00200E0FCFFFF47
:10A24000DC050000F7B583601D4B05001F68016049
:10A250004260002F31D02820FEF774FE0400103039
:10A260000CF0E0FE174B18202360FEF76BFE002277
:10A270000600154B01920560083200210C30009356
:10A2800010F00FFE08226946301D10F0EEFD0F4B56
:10A2900000227361C223A3803B68E260A660226251
:10A2A00062625B68210038009847002805D02000D2
:10A2B0000CF0D2FD2000FEF765FE2800FEBDC04672
:10A2C0002427002005000600E19E01001D76020003
:10A2D000F0B5040085B0637A9C46002B04D12000C1
:10A2E0000DF0C7F905B0F0BDA37A266F01931023D6
:10A2F000019AF35600259B1801229A402900F36821
:10A3000003920293029BAB4231DDB368019A6B4327
:10A310009B1872695B00E77AD3181A785878E3794A
:10A32000012F14D15F1E3F1A10003A005B00434317
:10A33000606F8218D3189B79634500DD6346627BAA
:10A340001A4202D00123AB4019430135DAE7022F4C
:10A3500005D15F1EBA1A277A013F381AE6E7032FA4
:10A36000E4D1277A013FBF1A02003800DEE711234B
:10A37000C943F356606C994023691940039B194304
:10A3800010F005FDA27B072AACD8637B0C495B006B
:10A390006373531CDBB290004158A373022A03D8A5
:10A3A000080010F029FC96E7064B200023630023E9
:10A3B0006363054BE4622364143010F0BBFA91E749
:10A3C00020B20200D1A201005D76020010B50400A7
:10A3D000044B036010F0A6FA200006F069FE20008E
:10A3E00010BDC0462CB7020010B504000E4B083358
:10A3F0000360FEF7A5FE200074300CF040FE200044
:10A4000060300CF03CFE200058300CF06FFD200056
:10A4100050300CF06BFD2000044B14306361FFF7EB
:10A42000D5FF200010BDC04640B2020040B7020078
:10A43000F8B500250400324B858008330360857130
:10A44000143016000F0006F01DFE20002D4BE562B3
:10A45000636125645030FEF7BBFE20005830FEF7E4
:10A46000B7FE20006030FEF7E1FE20000423F25E1C
:10A4700033682667590009B274300CF01EFE336849
:10A48000226FE37173680126237210236581A78010
:10A490002561D35691685918994204DD30009840DF
:10A4A00001330543F8E711230120D356D168591829
:10A4B000994206DD02009A40266901333243226147
:10A4C000F6E71420FEF73EFD226900212A4301230E
:10A4D000060007F07DF8FF23220063720133A38199
:10A4E000002348326664A37320001370A366FEF74E
:10A4F00009FE0123A27920001343A371F8BDC046D1
:10A5000040B2020040B70200F0B5437A85B00400C3
:10A51000002B04D120000DF0ACF805B0F0BD0122F5
:10A52000837A11009C461023066F0025F356039290
:10A530006344994002912900F3680193019BAB4267
:10A540002CDDB36872696B4363445B00E77AD31810
:10A550001A785878E379012F10D15F1E3F1A100046
:10A560003A005B004343606F8218D3189B79002B3D
:10A5700002D0039BAB4019430135DFE7022F05D121
:10A580005F1EBA1A277A013F381AEAE7032FE8D18B
:10A59000277A013FBF1A02003800E2E71123C943BE
:10A5A000F356606C994023691940029B194310F0DF
:10A5B000EEFB667AB31EDBB2FC2B14D8FEF750FD1F
:10A5C0000B4B0500236300230A4863630A4BFF21FA
:10A5D000E4622364704307F0A1FB2900414320009B
:10A5E000143010F0A7F9637A012B00D995E791E7B1
:10A5F00073760200B60300005D7602001FB50123EA
:10A6000081881A0068460CF017FD012303491A00DF
:10A6100068460CF011FD05B000BDC046FE03000009
:10A620001FB5030048331A780400002A0DD0002219
:10A630001A70012381881A0068460CF0FDFC012382
:10A6400004491A0068460CF0F7FC200074300CF046
:10A650002BFD1FBDFF03000010B548300378002B11
:10A6600006D00378012B03D0012102480CF06AFBCD
:10A6700010BDC046FF03000010B5012104000620F4
:10A680000CF060FB064B984208D148342378002B2D
:10A6900004D02378012B01D020BFF7E710BDC046BE
:10A6A00016FCFFFF73B5079C0500002C1CDB0600A1
:10A6B00048363078002802D03078012816D1069824
:10A6C0001BB2C0B20090280012B274300CF0FCFC37
:10A6D000002C07D02B004A331C80002407234C3564
:10A6E0002C803370200076BD014CFBE7014CF9E76C
:10A6F00017FCFFFF12FCFFFFF0B587B00D9C0600B2
:10A700000F0002920393002C20DBFFF7A5FF33001C
:10A7100048331D78EDB2002D1AD1390005A80CF090
:10A72000BBFC0C9B01940093029A039B05A930008B
:10A73000FFF7B8FF05A80CF0A2FC002C03D03000F6
:10A74000FFF79AFF2C00200007B0F0BD014CFAE79C
:10A75000014CF8E717FCFFFF11FCFFFFF8B5040000
:10A76000171E1DDD060048363378002B02D03378E3
:10A77000012B17D12200E3795632013B13702300DD
:10A780000025200054331D8050300CF019FC2300AC
:10A790004A331F80022328004C3425803370F8BDD3
:10A7A0000148FCE70148FAE717FCFFFF12FCFFFF36
:10A7B000F7B505000F00161E18DDFFF74DFF2B0043
:10A7C00048331C78E4B2002C12D1390001A80CF0F7
:10A7D000EFFB320001A92800FFF7C0FF01A80CF031
:10A7E00085FB2800FFF748FF2000FEBD0148FCE77D
:10A7F0000148FAE717FCFFFF11FCFFFFFF2902D811
:10A800004172002070470148FCE7C04617FCFFFF7B
:10A8100010B50400034B08330360FEF7C7F92000AE
:10A8200010BDC04658B2020070B5040000251600E5
:10A830000B4BA5800833A5712360E161080001215D
:10A840000CF0E7FE074BA680A360074BA5712561BE
:10A850006561A561E3602000FEF79AF9200070BDF4
:10A8600058B20200FFFFFF7F0200008070B50400B5
:10A870000121C0690CF0C1FEA268824200DD020025
:10A88000E368A260834200DA03002169E3600131DA
:10A8900021614A2917DD9B1A0C4A0D48A3619B18B8
:10A8A00058430C4907F03AFAC3430025DB17184018
:10A8B000094B6061A360094B2561E36020000DF046
:10A8C00051F8280070BD0648FCE7C04648F4FFFF79
:10A8D000280A0000408A0300FFFFFF7F020000807B
:10A8E00016FCFFFF82B0F0B5040089B080680F93BA
:10A8F0000E920CF0FFFDE0680CF0FCFD4C4906A840
:10A90000FEF708FD60680DF01DF8059020680DF059
:10A9100053F8FA200127800010F079F96068FFF7FA
:10A920007FFEFF216068FFF769FF6568414907A85E
:10A93000FEF714FC782207A92800FFF739FF07A8C3
:10A940000CF0D4FA3C4B7F4204933C4B0393A06839
:10A950000CF0CCFD002834D0E0680CF0C7FD0028D6
:10A960002FD020680DF02AF860680CF0EDFF06A9E2
:10A9700007A865680CF090FB0022314B009207A9F4
:10A98000019328001300FFF78DFE07A80CF077FB5A
:10A99000FA20C00010F03BF960680CF0D5FFA06809
:10A9A0000CF0ADFDE0680CF0AAFD05996068FFF7BA
:10A9B00025FF06A80CF063FB09B0F0BC08BC02B090
:10A9C00018472068FFF752FF051E03D0022010F041
:10A9D0001EF9F6E720680CF0EFFF039B01008342AD
:10A9E00000DD0390049B8B4200DA04910423019361
:10A9F0000023039A00932068049B0CF0E4FF0600F8
:10AA000087420FD060680CF09FFF04239F1B3FB26A
:10AA1000606829B27430FF233A000135FEF70CFC60
:10AA2000052DF5D1642010F0F2F837008FE7C0460D
:10AA300032C0020085C0020002000080FFFFFF7FDD
:10AA4000DC050000F7B58360089B0500C3601D4B63
:10AA500001601F684260002F31D02820FEF772FA93
:10AA6000040010300CF0DEFA174B18202360FEF7BC
:10AA700069FA00220600154B019205600832002198
:10AA80000C30009310F00DFA08226946301D10F0CA
:10AA9000ECF90F4B002273611223A3803B68E26044
:10AAA000A660226262625B68210038009847002835
:10AAB00005D020000CF0D0F92000FEF763FA280042
:10AAC000FEBDC0462427002022000400E5A80100A6
:10AAD000E3790200F0B51F0085B00AAB1B780400D3
:10AAE000039300933B000D0016000FF084FE002836
:10AAF00033D0237D082B2DD8236800221900FC3188
:10AB00008A62A021C9005A50154905205A500138BF
:10AB1000C046C046C046C046C046C046C046C04605
:10AB2000C046C046C046C046F1D1236801325A50E3
:10AB3000A0210432C9005A5006F0FAFE039B3200ED
:10AB4000009329003B0020000FF055FE237D0133C8
:10AB50002375CCE7034805B0F0BD2075FBE7C04680
:10AB6000FC0F00000EFCFFFFF0B51F0085B00AAB24
:10AB70001B780400039300933B000D0016000FF0B8
:10AB800022FE002833D0237D082B2DD823680022F5
:10AB90001900FC318A62A021C9005A5015490520CC
:10ABA0005A500138C046C046C046C046C046C0469E
:10ABB000C046C046C046C046C046C046F1D1236824
:10ABC00001325A50A0210432C9005A5006F0B0FE9A
:10ABD000039B3200009329003B0020000FF0F3FD9F
:10ABE000237D01332375CCE7034805B0F0BD207504
:10ABF000FBE7C046FC0F00000EFCFFFFF8B50D1E82
:10AC000030D000260227C468002C28D0AA88A38848
:10AC100053403B4204D13A4204D1AB883B4219D065
:10AC2000646AF1E7A968A0680DF017FF0028F4D066
:10AC30002B88002B02D022889A42F1D16B88002BFE
:10AC400002D062889A42EBD1A288074B01361343A7
:10AC5000A380E5E7A368AA689342E1D1E8E7200072
:10AC6000002E00DC0148F8BD0080FFFF17FCFFFF4D
:10AC7000F0B5060085B00D1E59D00127C468002C20
:10AC800022D00221AA8800230A4202D0A3885B08AE
:10AC90003B40226829688A4210D1A068A968002B2D
:10ACA0000AD00DF0DAFE002808D0A3881AB2002AD4
:10ACB00006DB204805B0F0BD8842F6D0646ADEE7C6
:10ACC0005B045B0CA380F4E7F0682A88002807D1B6
:10ACD000F5600123184968460CF0AEF90020E9E759
:10ACE000010003001C88944206D25C6A1900002C03
:10ACF0000DD02300F6E723001C88944207D15F881B
:10AD00006C88A74203D25C6A1900002CF3D18142FF
:10AD100009D10B889A4204D305D148886B889842A0
:10AD200001D96962D4E74B6A6B624D62D1E703488F
:10AD3000C0E7C04616FCFFFFFD03000017FCFFFF45
:10AD4000064B10B51A00040008322C330260436031
:10AD50000430FDF72BFF200010BDC04670B202008A
:10AD600008B4024B9C46043808BC604741AD010062
:10AD700008B4024B9C46043808BC6047597B02006B
:10AD80000C4A002311002C32083110B50381837264
:10AD90004260C36003614361438301600400043087
:10ADA000FDF7F6FE044B1A68002A00D11C60200053
:10ADB00010BDC04670B2020024270020F7B50E0077
:10ADC0000125C4680192002C36D0238832889A422B
:10ADD00001D0002B23D1638872889A4201D0002BC6
:10ADE0001DD1FDF749FE0123002806D0C022A3880B
:10ADF0001340C03B5A425341DBB2019A934219D1EE
:10AE0000A7883BB2002B15DB10223100A01810F0F0
:10AE10002CF840231F4204D020000CF0A6FE646AE8
:10AE2000D1E7FDF729FE0028F6D021000348FDF701
:10AE3000D3FFF4E70025F2E72800FEBD6B7B02009C
:10AE400008B4024B9C46043808BC6047F37C0200FF
:10AE5000F0B587B001930EAB1B88060003930D9BE2
:10AE60000D000093019B02920C9F002B3DD0002F00
:10AE700002D1009BDB0738D52820FEF763F80400D9
:10AE800010300CF0CFF86B461B89258063801820AA
:10AE9000FEF758F80500009B08220593019B00214E
:10AEA00003600C3004970FF0FCFF082204A9281D52
:10AEB0000FF0DBFF0E4B02226B6100230399E3606E
:10AEC0002362636233680A43A560A2805B68210045
:10AED00030009847002806D020000BF0BDFF20006E
:10AEE000FEF750F8034807B0F0BD0348FBE7C04643
:10AEF0002D7D020016FCFFFF17FCFFFFF0B50400DC
:10AF0000160000258380164A164B85710260218148
:10AF100046810573186889B08C46A8421DD0124A34
:10AF200005950492C02202926A4604AB82CB82C28B
:10AF300023002A006146FFF78BFFC022094B0A4914
:10AF4000186802926A46069106AB079582CB82C2C8
:10AF500023002A003100FFF77BFF200009B0F0BD7D
:10AF6000B4B2020024270020577E020030B500242E
:10AF700003730123034D84710560818082734373E1
:10AF8000846030BDCCB20200F7B504000026019306
:10AF90002C4B0D0008330360868086711700E1603A
:10AFA00001222100103001F0D7F8200021000222F8
:10AFB00030300DF0ECF920002100032254300DF068
:10AFC00025FA6B469B88E771A38023005027200059
:10AFD000FC33A6716672A6723A009E6031005C3046
:10AFE0000FF05FFF23002000AC333A0031001E80D9
:10AFF000B0300FF056FF2300FE335E802B68280030
:10B000009B6998472B6828001B690F4998472B6854
:10B0100031002800DB6998472B6828005B6B03210F
:10B0200098472B68042128001B6B98472B68280041
:10B030005B699847FDF720FC02232372034B200035
:10B040001C60FEBDDCB202009D7F02003C27002098
:10B0500010B50C000BF0F6FD002806D1642C06D8C4
:10B06000A123044ADB00D45010BD0348FCE7034889
:10B07000FAE7C0460010004016FCFFFF17FCFFFF78
:10B08000F7B50700FC37BB680500002B2AD003008A
:10B09000AD33009318780A21013006F025FFCBB2BA
:10B0A00001932B00AC331B78CAB20C0093421BD027
:10B0B0006E20FDF747FF06006E2200210FF0F1FE23
:10B0C0006E22B96830000FF0D0FE6A4600201634B8
:10B0D000009BA40012792C1966601A706B7A0133F8
:10B0E0006B72FEBD0148FCE70148FAE717FCFFFF61
:10B0F00013FCFFFF70B50500FF350400AB786878DE
:10B10000834228D00130142106F0EEFE0022CBB29B
:10B110009B00E318B0331E681A606970A37A013B84
:10B12000A37232790D4CF078B37821781202024381
:10B130001B0413438A000A49535020782821013008
:10B1400006F0D2FE074BC9B21B788B4200D02170AB
:10B150003000FDF717FF002070BDC0469E2B002079
:10B160007C2700209D2B00208023F0B5974C5B00AE
:10B17000226885B01A4057D000200825944A954B84
:10B1800050611061906021682940814227D0C2211E
:10B190000A2689005E5004395D5021688E4D294091
:10B1A00021601021256829432160506001221A6026
:10B1B0008A4B22681B680321DC68236820001D6A13
:10B1C000DB6A520306D59847854BC218032120003D
:10B1D000A84735E0984702005F32FF32F6E70126C4
:10B1E000206830422CD0C2250A20AD005851043DC1
:10B1F00058517A4805682800FC30876879481F5004
:10B200002068794F3840206002202768384320604A
:10B21000EC6851605E60236803211D6A2000DB6AD0
:10B2200098470200C832D1E7022523682B4255D047
:10B23000674B68495868002804D05A6001238B6026
:10B2400005B0F0BD9A68002A13D098608023226868
:10B250001B0313432360614C01212368D8680368F2
:10B26000DB6A984723682900D8680368DB6A984737
:10B27000E6E71869002831D05C4E30680130306054
:10B2800020685B4E304020609A601A6101238B6019
:10B290008023DB00CB5851490E68012B77D1330056
:10B2A000FC33986841790B071B0F042BC8D8514F0A
:10B2B0003A702268504F3A400F272260394243D0FB
:10B2C000DB191A000B003A40BB4313434371236858
:10B2D000AB4323602268494B1343236023689B03DD
:10B2E00000D4A4E010222368134000D192E000258E
:10B2F0003A4F374E3B680121D86875600368DB6AB6
:10B30000984738680CF038FE102223689343236076
:10B310004023226813430F222360394B1978437A64
:10B32000114093430B4313404372437985711909CC
:10B3300093430B434371274A2A4BC5710572D05082
:10B340000123936035617BE723682E4AF768134039
:10B3500023603B6829001A6A38000092DB6A98472C
:10B360000600FA20264B284A1B78C0005B009B5A37
:10B370009B085843FDF75AFA3200C8321218009B56
:10B38000290038009847802322685B03A4E7F66809
:10B390002900336830001F6ADB6A98470400FA20EE
:10B3A000174B194A1B78C0005B009B5A9B085843F7
:10B3B000FDF73CFA154B2900E41822183000B84775
:10B3C000134A1368013313603AE7C0467827002018
:10B3D000FC10004000100040F7FEFFFF3C2700205B
:10B3E0002602000004050000FEFEFFFF7427002077
:10B3F000FFFFF7FF9A2B0020FFFFDFFF880004000C
:10B40000AA200020FFFFFBFF88200020C4090000C5
:10B41000402700202268520609D5894A1361236813
:10B42000884A134023602268874B134323602368B4
:10B430005B034AD523685B0625D50022804B022199
:10B440001A612368814A13402360812322681343D1
:10B4500023607F4B1B68DE68336830001F6ADB6A3D
:10B4600098470500FA207B4B7B4A1B7880005B00E5
:10B470009B5A9B085843FDF7D9F9784B0221ED18E8
:10B480002A183000B8471026236833421DD0704D6B
:10B4900001212B68D8680368DB6A98472368B343A7
:10B4A000236040232268134323602B686C4AFC33DB
:10B4B00099686C4B995001229A600022604B1A6186
:10B4C000802322685B03134323602368DB0200D4DC
:10B4D00096E02368644A0026134023605C4B1F6893
:10B4E0003B00FC339D682B79EA781B0213430193E0
:10B4F0006B780293AB78029A0393019B12021B04B0
:10B500001343039A1A4323680092DB0128D53800BD
:10B510000CF032FD029A437893421DD18378039A4E
:10B52000934219D10379C2781B021343019A9A42BC
:10B5300012D13800FFF7DEFD4C4F4D4A3B780099A1
:10B540009B00995038780A21013006F0CDFC494B18
:10B55000C9B239701E6001362368474A1340236020
:10B5600023689B0124D52368444AA87913402360AB
:10B570006B7A394A1B07DB0E995AFA236A799B00CA
:10B58000594313091207120F9A1A2B78D2B2DB0013
:10B590007D33FF335343EA79394F120210432A7A3D
:10B5A000120402439B183B60386806F0B3FB396015
:10B5B0006B7A9B0600D50126002301222C4F9900AF
:10B5C000C9590098814200D1160001330A2BF6D1E7
:10B5D000002E15D11E4B6A781868C3799A4201D0A3
:10B5E000002B0DD1FFF74CFD204D009A2B780A213E
:10B5F0009B00FA502878013006F076FCC9B2297019
:10B6000023681B0600D41BE600220D4B03211A61A0
:10B610005A609A605A61134B01321A612368194AC1
:10B620001A4080235B0013432360094B1B68DC68CE
:10B63000236820001D6ADB6A984702001E32C5E5B8
:10B64000FC100040BFFFFDFF81000001BFFFFBFFBA
:10B650003C270020AA20002088200020C4090000E8
:10B660000405000000100040FFFFEFFF9C2B0020AE
:10B670004827002070270020FFFFFFFEFFFFFFFD8F
:10B68000302700200900FFFF10B5034A136801337B
:10B690001360FFF769FD10BD44270020E02310B5BB
:10B6A000144C1B0322681A4223D10222124BDA6780
:10B6B0002368DB0107D5114A13680133136023683F
:10B6C0000F4A1340236022680E4B13432360FFF799
:10B6D0004BFD02220C4B1A600C4B0D4A1978127864
:10B6E000914206D300221A70802322685B0513431F
:10B6F000236010BD7827002004E100E070270020BF
:10B70000FFFFFFFE8000400000E100E09A2B0020D8
:10B710009B2B0020F7B54D4C00212368D8680368A7
:10B72000DB6A98474A4B4B49186008781D68FA2332
:10B73000494A4000805A9B004343484E5B19484D9C
:10B7400033602868474B052806D980201F6880038E
:10B75000384318600020286080201D68C003054021
:10B7600022D10B7840485B00D35A9B085843FDF721
:10B770005DF823680700DE680221336830001A6A2A
:10B78000DB6A009298470200F532FF32D21902219B
:10B79000009B3000984723682900D8682F4B1A680F
:10B7A00003681B6A9847F7BD1868304D2840186039
:10B7B0001D682F48284318601D6880239B031D4087
:10B7C00021D023680221DF683B6838001A6ADB6AEF
:10B7D00000929847274D2A68831828680193FDF73F
:10B7E00025F8019B0221C218009B38009847236866
:10B7F0003268D868002103681B6A98471E4B2B608B
:10B80000FFF7B2FCCFE70B7817485B00D35A9B08D1
:10B810005843FDF70BF823680700DE680221336800
:10B8200030001A6ADB6A009298470200F532FF3254
:10B83000D219009B02213000984723682900D8685C
:10B84000064B1A6803681B6A9847D9E73C27002013
:10B8500038270020AA20002088200020342700203C
:10B860007027002078270020B80B0000FFFF3FFF63
:10B870000100000208200020409C00009823F7B53A
:10B88000184DDB032A681A4214D10224164B174EB6
:10B89000DC67174B1F6838000CF06EFB2B68002824
:10B8A00009D0A22212051A40124B13432B60FFF756
:10B8B0005BFC3460F7BD9B02FBD5FF6821003B6851
:10B8C00038001A6ADB6A0192984705000A48FCF7BB
:10B8D000ADFF094B2100ED182A18019B380098474D
:10B8E000E7E7C0467827002004E100E000E100E03F
:10B8F0003C27002088000200409C0000F7B50700AC
:10B900000191FF370500B8781421013006F0ECFAF8
:10B91000CBB200937B78CAB20C00934219D06E2050
:10B92000FDF710FB06006E2200212C340FF0B9FA4F
:10B93000A4006E22019930000FF097FA665172B69A
:10B940006B461B78BB7062B60020AB7A0133AB72DA
:10B95000FEBD0148FCE7C04613FCFFFF10B5040024
:10B960009CB01048FCF762FF6B4680B2D870000AAA
:10B9700018716946092300220B706846E3798A70C2
:10B980004B704B7A22218271C271027220321343B2
:10B99000113A93434171437269462000FFF7AEFFAD
:10B9A0001CB010BDFFFF0000F8B583790600002031
:10B9B000DB0700D588E00BF045F9002800D084E0D3
:10B9C0003700FC37BD68002D08D16E30FDF7BAFA9C
:10B9D00004006E2229000FF064FABC60BB68002BE3
:10B9E00000D174E0002380253A4A3B4C13706D006F
:10B9F000237023780A2B08D82800FCF717FF28218A
:10BA000006F072FAC9B22170F3E70022334B01212C
:10BA10005A608022D20511605A68002AFCD00622A2
:10BA20002F4B304D9A56304B0721EA503000FFF72C
:10BA30000FFBA2230024DB00EC502C4A2C4B2D4999
:10BA4000EA5001222C4BC020EC502C4B8000EC50D3
:10BA50000433EA502A4B0732EA502A4A0433EA50A8
:10BA60000222294BEA50294BE9502949043BE9506D
:10BA7000B968284BE950C021274B49005A50195842
:10BA8000264D294019501A60254BF5685C60254AFF
:10BA90001C61254B21001A602B6828001F6ADB6A95
:10BAA0009847337A214A5B009B5AFA2292005A4304
:10BAB000210012182800B8470122B379300013433F
:10BAC000B371FDF765F82000F8BD1948FCE7194887
:10BAD000FAE7C0469A2B00209B2B0020FC00004078
:10BAE000A8C20200001000400C05000075696275D4
:10BAF0001C050000FFFF0000240500002C050000CD
:10BB00001405000064000400340500003C0500003A
:10BB1000211001000405000000E100E0FF00FFFF2C
:10BB2000FC100040000160007827002088200020E1
:10BB300016FCFFFF13FCFFFFF7B5304D04002B6828
:10BB4000DB0005D5FFF70AFF2B682D4A13402B6059
:10BB50002C4D2D4B2A781B789A422BD028782821FF
:10BB6000013006F0C1F92700CBB201932B78274AA8
:10BB70009B009E582B7810379B009B5838000093F1
:10BB80000CF0FDFB360CF6B2B04204D16B46380027
:10BB9000198800F023FB6B461B792B70D8E7260031
:10BBA00030363000AF780CF021FC874213D13000E2
:10BBB0000CF0FBFB20000CF007FA051E1DD0260040
:10BBC0001036877830000CF0DAFB8742E7D130007E
:10BBD00000F038FBEEE7AE782500543528000CF075
:10BBE0002BFC864203D128000CF015FCE2E7200074
:10BBF0000CF0FFF9FDF7C6F9DCE7F7BD7827002068
:10BC0000FFFFFFEF9D2B00209E2B00207C270020B4
:10BC1000F7B51400012501911048FCF707FE002339
:10BC20009C460F4980B29E007258002A0ED0775869
:10BC30007258FFB2A74209D1120A019FD2B2BA428A
:10BC400004D17258120C904200D1AC4601330A2B39
:10BC5000E9D16346002BDFD1FEBDC046FFFF0000E7
:10BC600048270020F0B5050089B00C20FDF76AF9DF
:10BC700006006E20FDF766F980232A7E5B4213439F
:10BC800004002B7606A80CF013FF264905A8FDF743
:10BC900065FA05A906A80CF05FFF05A80BF026F9C8
:10BCA00006A80CF041FF03000190033306A803939C
:10BCB0000CF037FF029006A80CF036FF02002800B7
:10BCC000029919300FF0D1F86A7D297DA868FFF735
:10BCD0009FFF019BE0700C33000A207123702B7DC5
:10BCE000002263706B7D2F00A370222320006371FC
:10BCF000637AA271E27122720F3293436372163734
:10BD0000039A39000A300FF0B0F8092334607360E9
:10BD1000A8683100103000F041FA06A80CF0DAFEF5
:10BD200009B0F0BD91C20200130070B5033B86B0AC
:10BD3000CA1C0500D9B204A800230CF0C4FE0021DF
:10BD400004A802F0D7F8040028690BF0FDFD2E6965
:10BD5000002C15D101231049AB7103A80BF09CF9FD
:10BD6000230022000194009403A93000FEF7C4FCD4
:10BD700003A80BF084F904A80CF0ACFE06B070BD6B
:10BD800002230649AB7103A80BF086F90022019249
:10BD900000921300E8E7C046202800202C2800204D
:10BDA00030B585B0040002A80CF082FE002102A884
:10BDB0000CF0DCFE1A4B01A81968FDF7CFF901A9B8
:10BDC00002A80CF0C9FE01A80BF090F8154B01A8D1
:10BDD0001968FDF7C3F901A902A80CF0BDFE01A87E
:10BDE0000BF084F8002363611033237602A80CF073
:10BDF00098FE050002A80CF097FE02002000290022
:10BE000019300FF032F802A80CF08EFE011D89B235
:10BE100020000CF09CF902A80CF05CFE05B030BDCF
:10BE2000102000200C20002082B0F7B504000892FA
:10BE30000993A06810300CF098FA061E24D005680B
:10BE4000200029006B780A312375AB7816306375B2
:10BE50002A780A3A0FF009F82B4B1B78002B0CD0EC
:10BE60002000FFF7FFFE30000CF096F93000FDF7E0
:10BE700089F8E36F0133E367DBE7297820000739AE
:10BE800089B20CF064F9EEE7012720690BF05CFD44
:10BE9000A17920690F401025002F18D00A007430B6
:10BEA0002A400CD033003200184900960BF00CF9F0
:10BEB000A379AB43A371F7BC08BC02B018471300C9
:10BEC000134900920BF000F9A3792B43F2E70A0023
:10BED00002232A40743019400AD0002A04D0009767
:10BEE0003B003A000B49E1E7009213000A49E9E7F9
:10BEF000002A04D000910B000A000849D6E70092FE
:10BF000013000749DEE7C0469F2B002020280020B1
:10BF1000302800202C280020282800202428002059
:10BF20001C2800207FB5002506690400144903A8D9
:10BF30000BF0B2F82B002A0003A901950095300000
:10BF4000FEF7DAFB03A80BF09AF88021E06889007D
:10BF500000F09EFBE668C02103A80AF0F1FF2A006A
:10BF600003A9300000F00EFB03A80AF0BFFF200079
:10BF7000FFF716FFA068012110300CF016F97FBD05
:10BF80001C280020F0B587B001930EAB1B8806007B
:10BF900003930D9B0D000093019B02920C9F002BBD
:10BFA0003DD0002F02D1009BDB0738D52820FCF7BD
:10BFB000C9FF040010300BF035F86B461B89258053
:10BFC00063801820FCF7BEFF0500009B0822059344
:10BFD000019B002103600C3004970EF062FF0822E1
:10BFE00004A9281D0EF041FF0E4B02226B610023B5
:10BFF0000399E3602362636233680A43A560A28009
:10C000005B68210030009847002806D020000AF025
:10C0100023FF2000FCF7B6FF034807B0F0BD03483C
:10C02000FBE7C0462F80020016FCFFFF17FCFFFF56
:10C0300070B5C260164A88B000250492C0221E0066
:10C04000144B040003600C9B858085718160036143
:10C05000C56702926A46059504AB03CB03C2230071
:10C060002A000D493000FFF78DFF0C4A0795069214
:10C07000102202926A4606AB03CB03C223000122C0
:10C0800020213000FFF77EFF200008B070BDC046C1
:10C0900029BE0100FCB20200F4F500006F8002002E
:10C0A00070B51F4E1F493000FDF734F91E4D1F4C6F
:10C0B0002A00210030000EF09AFE1D4E1D4930006E
:10C0C000FDF728F92A00210030000EF090FE1A4EEC
:10C0D0001A493000FDF71EF92A00210030000EF049
:10C0E00086FE174E17493000FDF714F92A0021008B
:10C0F00030000EF07CFE144E14493000FDF70AF9B2
:10C100002A00210030000EF072FE114E114930005D
:10C11000FDF700F92A00300021000EF068FE70BD26
:10C120002028002091C00200002000207F70020023
:10C1300030280020E4C00200242800203DC1020075
:10C140001C28002092C102002C280020E5C102001A
:10C150002828002038C2020070B5040000250D4BCD
:10C1600085800833857103608160210018301600D6
:10C170000CF007F9200021001C300CF039F9064BB7
:10C1800026732561656120001D70FCF7BBFF200050
:10C1900070BDC0460CB30200A02B002070B58025F6
:10C1A0000A000100044CAD00231DDD6710310CF0C6
:10C1B00027F8256070BDC04600E100E070B580251D
:10C1C0000A000100044CAD00231DDD6714310BF0A3
:10C1D000FCFF256070BDC04600E100E070B50500C1
:10C1E00010350A00290004000CF018F88022134BC7
:10C1F0009200DA6700281CD002681300117B0A3312
:10C2000009070FD5917A5A78200012020A432900B3
:10C210000BF0DBFF041E04D00BF0BEFF2000FCF788
:10C22000B1FE70BD0122037993431A000223134328
:10C2300003718022024B92001A60F2E704E100E0F1
:10C2400000E100E0F0B504008BB080680BF0D1FE97
:10C2500006000A367378827A1B02134303934378ED
:10C26000314F04938378050005930093039A049B50
:10C27000390020000CF04FF800281CD1A3689B7AED
:10C280000C2B18D8059B39000193049B274A009377
:10C290002000039B0CF051F821007278AB7A120257
:10C2A0001A43103120000BF090FFA37907009B0781
:10C2B00006D4002834D12800FCF764FE0BB0F0BD92
:10C2C00000282DD10C20FCF73DFE070000232100A3
:10C2D0007B60BB603A0014313D6020000BF090FFA2
:10C2E0007278AB7A12021A431149012306A80AF0A8
:10C2F000A3FEB3789B0707D020007178AB7A0902C0
:10C300001943183000F016F8B3785B07D6D5200033
:10C310007178AB7A090219431C3000F017F8CDE7A9
:10C320003868FCF72FFED1E734280020A02B00202E
:10C33000F4F500001FB50A000123034968460AF01E
:10C340007BFE05B000BDC046F5F50000F0B5006805
:10C3500087B00CF006F83F22036806001C7B94436C
:10C360003AD11A0019780D320D392300C9B2684646
:10C370000CF0A9FB2100684601F0BCFD012187B249
:10C38000684601F0B7FD2300164A85B2990054585B
:10C39000002C23D0E188B94220D1A188A9421DD127
:10C3A0000222694602A80CF0C2FB200002A9083054
:10C3B0000AF006FE02A80AF099FD01232A000A49A4
:10C3C00002A80AF039FE30000BF0E6FE3000FCF760
:10C3D000D9FD68460CF07EFB07B0F0BD01330A2B97
:10C3E000D4D1F0E79C280020F6F50000F0B5224BF0
:10C3F00085B01B7804005B0739D50EF044FA0025A0
:10C40000236CC6B20227DF5FAF420EDD200029B2E7
:10C4100040300AF0FAFD864205D1012320211A009E
:10C4200068460AF009FE0135EEE7250023004E3587
:10C4300028884C331988013005F056FD230050330D
:10C440001B8889B28B4214D02B88A26CD654636CA3
:10C450002980002B0BDB2A88934208D1012302227A
:10C460005B4263640233202168460AF0E5FD05B0B3
:10C47000F0BD01230322F6E7A12B00200121024A8F
:10C4800013788B4313707047A12B002010B500293F
:10C4900003DB024B19600EF01BFA10BD842800204C
:10C4A00070B504001E0004AB1D8804F0B5FD20002B
:10C4B0000E4B40302360FCF78BFE230001364C33DB
:10C4C000013522001E809D810023E1214E32A364AC
:10C4D0006365138053809381D381013B20006364A3
:10C4E0004902FFF7D3FF200070BDC046F8B002003C
:10C4F00070B505001400012A11D003004E331888CE
:10C50000023B4018198805F0EFFC69640025022CF5
:10C5100003D1210020200AF015FC280070BD014D38
:10C52000FBE7C04617FCFFFF70B50600503604005D
:10C530000A003388002906D102004E3212889A423E
:10C5400008D10F4870BD01290FD101004E310A8872
:10C550009A42FCD0A36C30884C341D5C2188013099
:10C5600005F0C2FC28003180ECE70229F2D101007D
:10C570004E3109889942EDD10121FFF7B9FFE9E772
:10C580000CFCFFFF70B51500012A0BD040300AF0FB
:10C5900017FD0024022D03D1012120200AF0D2FB37
:10C5A000200070BD004CFBE717FCFFFF73B50D00CA
:10C5B00006A9040009780430002A01D1DE070ED54F
:10C5C000002D0CD018264E430C34A41962600122B1
:10C5D000A360044B2560636105F0FCF873BD002285
:10C5E000FAE7C0463D840200F0B5164E85B03378B8
:10C5F00005005B0705D500210BF02BFFA86CFCF7AD
:10C60000C1FC04273378BB4333702B004C331888AC
:10C61000FCF798FCA864002811D02B0000244E33AE
:10C620001C805C80337828001F433770064A0094D2
:10C6300023002900FFF7BAFF200005B0F0BD034832
:10C64000FBE7C046A12B0020EDC3010013FCFFFF58
:10C65000012370B50E000C4905000A781A4211D169
:10C6600013430B70530708D531002800FFF75CFF18
:10C670000400FFF703FF200070BDFFF7B5FF041EA5
:10C68000F2D0F8E7014CF6E7A12B00200DFCFFFFEC
:10C69000012310B5094A14781C420CD123431370AE
:10C6A000030001314C331980FFF79EFF0400FFF7B0
:10C6B000E5FE200010BD024CFBE7C046A12B002088
:10C6C0000DFCFFFFF7B580277F053D697C690822D7
:10C6D000113C6C430600210068460EF0C6FB104B6F
:10C6E000009A9A4219D0009300230193796930008F
:10C6F000133969430BF0B3FE019A009930000BF037
:10C70000C6FE210030000BF0AAFE7969AB08133990
:10C710006943220030000BF0ACFE0198FEBDC0461C
:10C72000FECA0000F0B50D00A9B00D920021302224
:10C73000060010A80B930EF0B4FB28000EF0F1FBDE
:10C74000431C0C93102B00D9B5E00B9B202B00D978
:10C75000B1E0290030000BF0C7FE071E50D12900C0
:10C760000C9A10A80EF081FB0D990B9A14A80EF0EC
:10C770007CFB80235B051A695F690C92113F7A4349
:10C7800030005D690B92FFF79DFF3022002104000D
:10C790001CA80EF086FB290000270C9B1339594377
:10C7A00030000BF05CFE0D9730257D430B9B08336A
:10C7B000ED18A74242DA290030221CA80EF055FBE2
:10C7C00010A91CA80EF0A3FB002827D13C4930007B
:10C7D00022000E910F940BF05AFE6A46099513AB96
:10C7E00023CB23C223CB23C223CB23C23000129BF3
:10C7F0001099119A0BF059FE01230D930137D3E7DD
:10C8000010300B9A0D990EF021FB04003800FCF754
:10C81000B9FB002CA3D1200029B0F0BD6A460995D0
:10C820001FAB23CB23C223CB23C223CB23C2300095
:10C830001C991D9A1E9B0BF038FEDFE7E543302361
:10C84000ED1725405D430B9B08355D190D9B002BB3
:10C850001DD10C9B3021981E05F0D6F9A0422CD09A
:10C8600017490134300022000E910F940BF00FFE97
:10C870006A46099513AB23CB23C223CB23C223CB18
:10C8800023C230001099119A129B0BF00EFE0B99E7
:10C8900030000BF0E4FD80235B0559690C230C9AF2
:10C8A000133963434A430233110030000B9A0BF0F3
:10C8B000E0FD0024AFE7034CADE7034CABE7C04617
:10C8C000FECA000017FCFFFF13FCFFFF70B5040059
:10C8D000A280FA22002308000C499200083121604E
:10C8E000A3716061E260A360638209490BF0FCFD03
:10C8F000051E09D0010020001031022212300EF076
:10C90000B4FA2800FCF73EFB200070BD24B30200FF
:10C91000A0C2020030B50225837987B004002B4203
:10C9200004D1FCF735F9A3791D43A57120000BF064
:10C9300025FE00281CD06B46DD1C28000BF015FEE0
:10C940002B78002B17D001A80BF00DFE0321019AC4
:10C95000D3170B409B189B102382FCF7BBFBE368AB
:10C96000A18818180123A0601A0002A80AF064FB2D
:10C97000002007B030BD0122064B1A60064A5168FC
:10C980000029FCD000215160044A12680192012262
:10C990005A60DBE700C00040FCC0004008C5004012
:10C9A000022802D10122014B1A707047A22B0020ED
:10C9B00070B5064C05002378002B04D1044801F023
:10C9C0008DFF01232370280070BDC046A32B0020DB
:10C9D000A1C9010070B50C000AF034F9002810D08C
:10C9E0000023144DA40A2B7020000BF0DBFD00285F
:10C9F00003D00A200EF00BF9F6E72B78002BFCD0C1
:10CA000070BD02210C4B0D4A99508021C9000800CD
:10CA10005D58002DFCD0A121C9005C501958002997
:10CA2000FCD0002199508021C9005A58002AFCD01E
:10CA3000E6E7C046A22B002000E00140040500000C
:10CA4000F8B50C0015001E000AF0FCF8002811D003
:10CA50000023174F3B703200290020000BF0A0FD8F
:10CA6000002803D00A200EF0D2F8F4E73B78002B20
:10CA7000FCD0F8BD01210F480F4B8446195080218E
:10CA8000C9005A58002AFCD080270022FF00964295
:10CA900007DD910068586050D9590029FCD0013257
:10CAA000F5E7002261465A50DA59002AFCD0E0E747
:10CAB000A22B00200405000000E00140002370B517
:10CAC000180001241D0009499A005218516C0029D0
:10CAD00004D0210099400843C0B255640133042BAF
:10CAE000F1D1034B1B68984770BDC046FC800040E5
:10CAF00088280020014B00201960704788280020FA
:10CB00001F22037A13401E3A11009940024BD96745
:10CB1000C36800205A60704704E100E0C268024B1D
:10CB20000020D1507047C0460405000010B5C379FD
:10CB3000013B99420FDC0B005133C068FF339B006F
:10CB40001A508023C1225B028B40920084582343F9
:10CB50008350002010BD0148FCE7C04617FCFFFFD2
:10CB600030B5C379013B994211DCA825C0688B0020
:10CB7000C318ED005C59A2185A518023C1225B02F0
:10CB80008B409200845823438350002030BD0148DD
:10CB9000FCE7C04617FCFFFF10B5C379013B994283
:10CBA0000ADC8023C2225B028B40C068920084585A
:10CBB00023438350002010BD0048FCE717FCFFFF13
:10CBC000092905D8A223C2680020DB00D150704794
:10CBD0000048FCE717FCFFFF70B5040008201E4961
:10CBE000205604F091FA08216156002921DA032524
:10CBF0000F23CAB213402A40AA40FC359540083B97
:10CC000016489B089B001B18D869A84340259540EF
:10CC10002A000243DA6101221F230B401100C020C9
:10CC200099400F4B400019501960E36800201A60CA
:10CC300070BD0B4A8B089B009B180322FF26C02562
:10CC40000A40D2009640AD005859B0434026964065
:10CC5000320002435A51DEE7BDCA010000ED00E098
:10CC600000E100E010B50024C371044B8480083358
:10CC700084710360C160027210BDC0463CB3020003
:10CC800010B50400054B083303601C300AF02EF980
:10CC9000200018300AF02AF9200010BD7CB30200F1
:10CCA000FF23F0B52C4D8DB02B7000230400694696
:10CCB0000088009303F0D8F9002802D16B469B78D6
:10CCC0002B70264E3368DB68002B07D100232088A9
:10CCD0001A0019000BF086FC0DB0F0BD2B78032B69
:10CCE000F4D81F4901A8FCF739FA336801A9DE68B6
:10CCF00004A80AF05DF904A930000BF028FC002715
:10CD0000060004A80AF0F2F8BE421ED0310020222C
:10CD1000103104A80EF0A9F83000FCF733F9297897
:10CD200004ABC9005918082202A80EF09EF820880A
:10CD30000123082202A90BF055FC0137002804D179
:10CD40002088084A0C210BF04BFC01A80AF0CEF811
:10CD5000002FBBD0C0E7C046AB20002098280020A1
:10CD6000B0C20200FFFF0000F0B5837991B004006B
:10CD70005B071BD5FCF7AEF900232269801A9941A5
:10CD8000994203D1F423FF3398420FD9A0680028B9
:10CD900008D0364B1D880CF043FD036815221B6A32
:10CDA000290098470422A3799343A371A3799B0791
:10CDB00059D52F4D2B68DB68002B50D02D4B1B789D
:10CDC000032B4CD8294B2C491B8804A80193FCF752
:10CDD000C5F92B6804A9DE6808A80AF0E9F808A9D3
:10CDE00030000BF0B4FB070008A80AF07FF802AB94
:10CDF0009E1D08233200338006A9073B01980BF0E3
:10CE0000F3FB002F08D039002022103108A80EF0C3
:10CE10002CF83800FCF7B6F8164B32881B7806A9B8
:10CE2000DE0008AB9E1930000EF010F8002813D079
:10CE3000082206A930000EF018F82B6804A9DD6856
:10CE400005A80AF0B5F8202308AA05A928000BF0C8
:10CE500084FB05A80AF04AF804A80AF047F8022261
:10CE6000A3799343A37111B0F0BDC046442B0020B9
:10CE700098280020AB200020B0C20200F7B5089E21
:10CE80000500152922D8012007008F40244C274295
:10CE90001CD0E97FCC181F2C41DC69183418A14242
:10CEA00010D80021C8B2834204D9545C7018847031
:10CEB0000131F7E732789A183270EA7F9B18EB77E6
:10CEC00000202CE00878C8540139E8E73478013CA8
:10CED000E4B2A34208D10023D9B28C42F0D9D05C8D
:10CEE000F11888700133F7E7EF7F0120FF183F1B2F
:10CEF0001F2F14DC0227A01C7F423618381B01901C
:10CF0000E87F2F18BE4204D23078019FF0550136D9
:10CF1000F6E7041B023CEC7728000BF0AFFBFEBDEC
:10CF2000FC002000F0B585B001930AAB1E880BAB66
:10CF30001B78451C02930EAB1B78040003930B78FF
:10CF4000170003704B8A10224382013128000DF034
:10CF50008CFF6B469B88268363836B461B7B002676
:10CF600023776B4601221B7A6761E683EB77A31C6C
:10CF7000DA770C9B0C256362230020000D9A28337E
:10CF80001A705E709E702A0031002C300DF089FFFF
:10CF90002000074BE663A3632A00310040300DF008
:10CFA00080FF2000034B2665E36405B0F0BDC0465A
:10CFB000FF850200F185020070B50D000CF030FC19
:10CFC00004000368002D09D15B699847FA208000AE
:10CFD0006843074904F018FEE08070BD9B689847DD
:10CFE0008542F3D2236820009B6898470500EDE74F
:10CFF00071020000F0B507001600A1B002C70400DE
:10D000006B4918A81D000BF080FB331E03D03000C5
:10D010000DF087FF83B20122049200220392029254
:10D02000023201920093320018A93800FFF77AFF0C
:10D0300023006049583318A807930BF066FB2B1E9A
:10D0400003D028000DF06DFF83B20122049200226C
:10D05000039202920232019200932A0018A90798C3
:10D06000FFF760FF23005449AC3318A808930BF076
:10D070004CFB269B002B03D018000DF052FF83B20F
:10D080000122049200220392029202320192009342
:10D09000269A18A90898FFF745FF631CFF334749F4
:10D0A00018A809930BF031FB279B002B03D0180025
:10D0B0000DF037FF83B2012204920022601C03921C
:10D0C0000292023201920093279A18A9FF30FFF7CB
:10D0D00029FF23005533FF33394918A809930BF072
:10D0E00014FB289B002B03D018000DF01AFF83B20D
:10D0F00001220492002203920292023201920093D2
:10D10000289A18A90998FFF70DFF2300A933FF33C8
:10D110002C4918A80A930BF0F8FA299B002B03D08E
:10D1200018000DF0FEFE83B201220492002218AD19
:10D1300003920292023201920093299A29000A98DE
:10D14000FFF7F0FE204B1B780B93002B2DD1079B94
:10D1500012971393089B0DAF1493631CFF33159321
:10D16000099B1A4916930A9B380017930BF0CDFAC6
:10D170001D2149203B7810222B707B8A12AE6B82D6
:10D1800006ABC918C0180DF070FE06232B756B4650
:10D190009B8D2068AB83AE610CF046FB03682900D1
:10D1A0001B6898470122084B1A70200021B0F0BD7F
:10D1B000292A0000242A0000252A0000272A00002E
:10D1C000262A0000282A0000A42B00200A180000AC
:10D1D00070B5002504000A4B858008338571036013
:10D1E000C1601830FBF7F4FF20001C30FBF7F0FFA4
:10D1F000044BA5601C60012365612000A37170BD14
:10D200007CB3020098280020FA2130B585B00500D3
:10D21000012302228900684609F00EFF074C2068AE
:10D22000002809D00BF0AAFA2988054B226819803A
:10D23000022391790B43937105B030BD98280020EB
:10D24000442B002010B50C0007290DD880680CF085
:10D25000E7FA064B195703685B6C9847431E9841E1
:10D26000034B4042184010BD0248FCE7A8C2020030
:10D2700016FCFFFF17FCFFFFF0B5A44C0D00A54402
:10D28000040007939AAB1B78A14909A8049306925E
:10D29000FBF764FF200029001C3009F091FEC0203C
:10D2A000800001F011FB0820FBF74CFE0600002176
:10D2B00000F0CCFE15ADA66000210C220EA80DF0EA
:10D2C000F0FD2B000EAA83CA83C3924B2900EB60AA
:10D2D000002330002B610CF08CFAA0680CF0A0FA4F
:10D2E00008220021059016A80DF0DBFD1420FBF7A5
:10D2F00029FE29000200884B1593C8C9C8C2874B74
:10D30000059EC3600023A43603613368002B00D060
:10D31000F5E03060A0680CF087FA082200210600D2
:10D3200016A80DF0BEFD1420FBF70CFE7C4B1593E8
:10D33000030086CD86C37B4BC36000230361336B40
:10D34000002B00D0DDE03063A0680CF069FA082201
:10D350000021050016A80DF0A4FD1420FBF7F2FD36
:10D36000714B15AE1593030086CE86C36F4B98356F
:10D37000C360002303612B68002B00D0C3E028604A
:10D38000012504AB1B7C04AA2B4308A928001374B5
:10D390000BF02CF9A0680CF04BFA036864495B6A47
:10D3A0009847A0680CF044FA036862499B69984763
:10D3B000A0680CF03DFA00230268009316680499F7
:10D3C0002A00B047049B002B0AD020000BF0DFF9A5
:10D3D000032805DDA0680CF02BFA0368DB6898478A
:10D3E0000EA80BF042F92F2004ABC0180BF03DF94A
:10D3F000362004ABC0180BF038F93D20042504ABEF
:10D40000C0180BF032F90EAB0A93A06804AB5D773D
:10D410000CF00EFA03680AA91B699847A0680CF083
:10D42000FFF903680AA95B6D9847A0680CF0F8F94A
:10D4300003680021DB6D9847A0680CF0F1F90368E0
:10D4400002219B6D984700212000FFF7FBFE18206A
:10D45000FBF778FDA16800F005FA374B374A1B68E7
:10D46000A1680393364B15A81B6800260293354B21
:10D470000CAF1B680193069B1B685B190093324B32
:10D4800012681B68FFF7B6FD3020FBF75BFD079ABB
:10D49000A16800F0A7FAA0680CF0C2F9036839008F
:10D4A0009B6A9847294BBE80A0680C930CF0B8F992
:10D4B00003683900DB6A98472900A0680BF031F94E
:10D4C000099A09219378A06852190BF03DF9A068D8
:10D4D0000CF0A6F932210671A068FFF76DFD04ABD0
:10D4E0001B7FB34204D0A0680CF09AF90BF003F94B
:10D4F00009A809F0FBFC95239B009D44F0BD036146
:10D5000007E703611FE7036139E7C046ACFDFFFF92
:10D51000A3C302000D86020009D201001B8602008F
:10D52000A1CC01002986020057860200378602003E
:10D5300051D5010085D501009428002090280020B5
:10D54000142000208C280020182000200800100043
:10D5500013B506226846FBF711FE094B1C68002C28
:10D560000AD0694601A809F023FD200001A90BF0AB
:10D570002FF901A809F0BAFC684609F0B7FC13BD01
:10D5800098280020002373B501AE0C00310005007F
:10D59000019302F069FD002802D1B278064B1A709F
:10D5A000064B1868002806D061426141044BC9B29D
:10D5B0001D800BF015F973BDAB20002098280020CA
:10D5C000442B0020F0B5040097B0039107A89C49B4
:10D5D0000592FBF7C3FD9B4908A8FBF7BFFD22009E
:10D5E0000FAD28001C3207A909F0F9FC08AA290090
:10D5F00009A809F0F4FC280009F078FC92490AA86F
:10D60000FBF7ACFDA0680CF00BF903680DAE5B698D
:10D61000984728000BF029F8332004ABC0180BF012
:10D6200024F83A2004ABC0180BF01FF8412004ABDB
:10D63000C0180BF01AF88023DB00B380A0680D95AA
:10D640000CF0EEF8036831005B6D9847A0680CF0B1
:10D65000E7F8036800219B6D9847A0680CF0E0F89C
:10D660000700002506000A371F22002138000DF0B0
:10D6700018FCFD7730000BF035F80621A0680BF0A0
:10D6800050F8099A09219378A06804320BF05CF8ED
:10D69000A0680CF0C5F8C8210571A068FFF78CFCE4
:10D6A000A0680CF0BDF8FF272E000581A0680CF0E3
:10D6B000B7F80BF020F80398FCF7B2FF0AA90CA802
:10D6C00009F076FC78220CA90398FDF771F80CA8F4
:10D6D00009F00CFC039920000BF095F82000FBF7F3
:10D6E00057FA0495012563691D402DD057490BA8B1
:10D6F000FBF710FE0BA90CA809F0CEFC00220CA928
:10D700001300019200920398FCF7F6FF0CA809F0B1
:10D71000B6FC049B002B42D1043F282F41DD00259D
:10D72000FE2F00DC049D059809F0E0FE002806D0DD
:10D73000012362699A4313000422134363610026A4
:10D740000BA809F09CFC049504226369134233D0B2
:10D75000FF210398C826FDF751F80025B600A369FC
:10D7600002229B5EAB4222DD200029B2183009F074
:10D770004CFC0023010003981A007430FBF71AFEDA
:10D780003000FBF79DFA03980AF0DEF8C820FBF79B
:10D7900097FA02226369134209D10135DFE70437A2
:10D7A000BBE703980AF0D0F8002FBCDDBAE7FA20F7
:10D7B0008000FBF785FA0026022365691D421CD014
:10D7C00006331D4024D022490BA8FBF7A3FD0BA96B
:10D7D0000CA809F061FC00220CA901920092130030
:10D7E0000398FCF789FF0CA809F049FC1948FBF7DE
:10D7F00067FA0BA809F043FC174E6420FBF760FAA8
:10D80000164B01369E4200DC6CE709F02DFA69E701
:10D8100013490BA8FBF77EFD0BA90CA809F03CFCF3
:10D820002B002A000CA9019500950398FCF764FFD2
:10D830000CA809F024FC0BA809F021FCDDE7C04688
:10D84000BCC20200CCC20200CEC20200DCC2020096
:10D8500021C30200983A00008C0A00008B0A0000E5
:10D860005EC302000022594BF0B508330600036086
:10D870000F001000A9B0B1600BAB991801324870CD
:10D88000102AFAD10F3A524C1A700E32105D991AC2
:10D890000874013AFAD2997B5A7B09020A43310093
:10D8A0000C31039125211B7813AD2B7002ABC918E5
:10D8B000452302A81B186A82180010220DF0D5FA21
:10D8C000039B64216B610123002402AA2B77521869
:10D8D0001993093313701DAB1C706D2302AA9B189A
:10D8E0001C706E2321009B181EA80C22EC836C6216
:10D8F0001C700DF0D6FA374B0C22210023A8AB6325
:10D90000EC630DF0CEFA344B02AAEB6446239B186D
:10D910000322DA7722002C650595347306AD2B19A6
:10D9200001345A70102CFAD101232C482B700E337D
:10D93000195CEA1A1174013BFAD211212520AA7B45
:10D940006B7B12020BAC13432A78638202ABC918BB
:10D950002270C01810220DF088FA0123237505AB40
:10D96000A36100233800A3830BF05EFF036821004E
:10D970001B68984713ABDB8BB068B3820BF054FF86
:10D98000002203680092B18A039ADC680123A04751
:10D99000B0680BF049FF07001420FBF7D3FA002210
:10D9A000012304000261069240C008322900079357
:10D9B0000DF05BFA0A4BE360BB69002B03D130002A
:10D9C000BC6129B0F0BD2361F9E7C04694B3020001
:10D9D000CFC30200FF850200F1850200DFC3020011
:10D9E00067880200F0B500260400734BDDB00833F1
:10D9F00003608160C2608680867132006F4947A8EB
:10DA00000AF0D1FF230014330125042708931223C1
:10DA1000009704950193089A330047A9039602964C
:10DA20001DA8FFF77FFA3200654947A80AF0BBFF3F
:10DA30000C2322000097103215AF0495019347A9DB
:10DA400033000396029632A8FFF76CFA32005D4964
:10DA500038000AF0A8FF20001C300990042208209A
:10DA6000330039000495019000920396099A0296BA
:10DA700047A8FFF757FA3200534938000AF093FFDE
:10DA80005420FBF75FFA0500200001231221042235
:10DA9000183007900493019100923900020033007E
:10DAA000280003960296FFF73DFA2800474BA5622F
:10DAB0000822EC620AA930300A930B960DF0D5F9D2
:10DAC000434B0422AB63012329352B70099926614E
:10DAD000E66107980DF0C9F90422079908980DF03E
